:1000000080312928FF3FFF3F803120001118111057
:10001000931C112893108731B42780318731CB2767
:1000200080312000911C182891109C31D8248031F7
:100030002000931D1F2893118F3108278031200045
:10004000131F252813138831EA20200012181210DC
:10005000090088018931462900346E346E346E34CB
:100060000034003400340034003400340034D3341D
:10007000D334D334D034CE34CC34C934C734C5347B
:10008000C334C134BF34BD34BB34BA34B834B634ED
:10009000B434B234B134AF34AD34AC34AA34A9344E
:1000A000A734A634A434A334A234A0349F349D349E
:1000B0009C349B349A3498349734963495349434E1
:1000C0009234913490348F348E348D348C348B341C
:1000D0008A3489348834873486348534843483344C
:1000E0008234813480347F347F347E347D347C3478
:1000F0007B347A347A34793478347734773476349C
:1001000075347434743473347234723471347034BA
:1001100070346F346E346E346E346E346E346E34CC
:100120006E346E349C31F82C9D31102D9D31282D6C
:100130009D31822D9D31AF2D9D310D2D9D310D2D88
:100140009D310D2D9D31BD2D9D31D42D81310F2936
:1001500081310F2981310F2981310F2981310F29F7
:1001600081310F2981310F2981310F29F228003087
:1001700022002402333003192302031CCA28210061
:100180004D08F8390538CD002200CC012200A3012A
:10019000A40107292200A30A0319A40A0729DC25C0
:1001A00080314D0C78278031031DCA280729DC25B2
:1001B000803107290030220024021030BB28A527F7
:1001C0008031CC0107294D08F8390638F028CD1ABE
:1001D0000729CD166908031907294D08F83904388D
:1001E000CD00C6284D080739013A0319E328033A20
:1001F0000319DF28013A0319D728073A0319B7284A
:10020000013A0319CF28033A0319DA28E728210015
:100210005D082000D80021004C1A12292029382618
:10022000803129294C080F39FF3E031C29298400FD
:10023000083004020318292980310435A63E8200C3
:100240004C16690B24292529292967278031C801E3
:10025000C70122004808D5002100CF1D5A294F1E92
:100260003C294F08F8390338CF00DE30420203182A
:1002700060291D2780316029CF1E47294F08F83992
:100280000238CF00323042020318392960294F1F4B
:100290004E294F08F8390138CF003929CF1F60297E
:1002A0004F08F8390438CF00433042020318392987
:1002B0002D303629CF15690B60294F1798278031CB
:1002C0002400A90122004B0803196D292100C90847
:1002D000031D6D292400A901A90A24002908A800EA
:1002E0002100CE1C872900303B02223003193A023C
:1002F0000318282A01303B022C3003193A02031854
:10030000282ACE10CE152200CD01CD0A282A4E1D56
:100310009B2900303B02453003193A02031C282A6E
:1003200001303B022C3003193A020318282A4E11DF
:10033000AB268031282ACE1DC42900303B0245302F
:1003400003193A02031CAD2901303B022C3003197A
:100350003A020318AD29CE11982900303B02223011
:1003600003193A020318282A01303B022C300319E2
:100370003A020318282ACE114E152200CE01CE0AC9
:10038000CD01CD0ACF01282A4E18282A4E14690B18
:10039000282A982900302302333003192202031C33
:1003A000D9294B08F8390538CB002200C601C50110
:1003B0003E2A2100A20A0319A30A3E2AF125803110
:1003C0004B0C78278031031DD9293E2AF125803135
:1003D0003E2A00302302C93003192202031CFC29E3
:1003E0004B08F8390338CB002200C601C501C50A05
:1003F0002100A201A3013E2A59080319D9294B085B
:10040000F8390138CB00A201A3012200C601C60AB7
:10041000C501C50A3E2AD9080319F0290030230274
:100420000230031922020318FF29D929D908031D14
:10043000D9294B08F8390438262ACB1A3E2ACB167C
:10044000690803193E2A4B08F8390638CB00F82909
:1004500021004B080739013A0319162A033A0319F8
:100460000B2A013A0319DE29073A0319E929013A4F
:100470000319E629033A0319CA291D2A2400AA01EF
:10048000AA0AA808031D532A2200D108031D532AD3
:10049000CF08031D532AC608031D532ACC08031D89
:1004A000532A2400AA0124002A08BB00003021009E
:1004B000E908031D01302400B3002100471F462B2B
:1004C0002400BB08031D6D2A330803192F2B6D2A46
:1004D000A001A101F830C705832A21004708073988
:1004E000013A03196A2A033A03196A2A013A0319DD
:1004F000682A073A03196A2A013A03196A2A033A51
:1005000003196A2A832A4713C7179E2A2108200441
:100510000319DB2AA001A10121004708F83902389C
:10052000C7005E2B03302102E93003192002031CAF
:10053000A22A4708F8390538712780312200C20104
:10054000C3015E2BB027803103195602031CAF2A6A
:10055000013057022D3003195602031CDB2A2100FB
:100560004708F8390138C7002200C3012100A00163
:10057000A1015E2B0030230055026530031954029F
:10058000031CCA2A210090278031C201C20AC3017C
:10059000C30A5E2BB027803103195602031CD72AE9
:1005A000013057022D3003195602031C8C2A2300F8
:1005B000D40A0319D50A2100A00A0319A10A5E2B47
:1005C000003021020B3003192002031C172B0030CE
:1005D00020005702053003195602031CF62A013089
:1005E00057022D3003195602031CFF2A21009027C1
:1005F00080311830C201C20AC301C30A102B003077
:1006000021002102C930031920024708031C132BC3
:10061000F83905387127803122001830C201C30132
:100620002100C704192BE7390838C700192BE73018
:10063000C705470C78278031031DDB2A5E2B00306D
:100640002102C93003192002031CDB2A4708F839AC
:100650000638C700A001A1012200C201C72A21005B
:1006600047080739013A0319BA2A033A0319922AAB
:10067000013A0319862A073A03191F2B013A031975
:100680008C2A033A0319E02A5E2B5E2BC71F552BD9
:100690002400BB08031D5E2B2100C7134717470822
:1006A000F8390338712780315E2BC71A5E2BC716C5
:1006B0002400330803195E2B2100842A2400AB0197
:1006C000AB0A2200CA08031D6B2B2100C908031DB9
:1006D0006B2B2400AB0124002B08B5002200580826
:1006E0000319792B23006D082400B20023006C0845
:1006F000942B49080319832B230069082400B200B6
:1007000023006808942B2400350803198E2B23003E
:1007100067082400B20023006608942B22003608E4
:100720002400B200220035082400B1002000570840
:100730002400B800200056082400B7003108B70292
:100740003208B83B2100C61CB82B39085C278B3116
:10075000CE23803118302D029C3003192C0203184F
:10076000F52B2100C610C6152300D201D301F32BAF
:10077000461DC92B39085C278B31CE2380311830B8
:100780002D02393003192C02031CF52B21004611D0
:10079000F22BC61DED2B39085C278B31CE2380311F
:1007A00018302D02393003192C02031CDA2B2100DA
:1007B000C611F22B073023005302D1300319520225
:1007C000031CE92B2100C61146152200C101C10AF4
:1007D000F52BD20A0319D30AF52B4618F52B46142C
:1007E000690BF52BC6142200C1012200410821002B
:1007F000D60022004D082100D400451E0A2C0030EE
:1008000039026F3003193802031C462C4512C514F7
:10081000C401462C451C1D2C003039026F300319D1
:100820003802031C152C45102D2C65304402031C86
:100830001B2C4510432CC40A462CC51C322C0030FE
:1008400039026E30031938020318282CC510432CC6
:1008500033304402031C1B2CC51045152200C40173
:10086000C40A462C451D3E2C003039026E30031957
:1008700038020318462C45114514082CC519462C7E
:10088000C515690B462C45162200C40122004408F8
:100890002100D70022004708D6005008D7002400C6
:1008A000AC01AC0A2200C308031D5B2CC508031D64
:1008B0005B2C2400AC0124002C082100D80022006D
:1008C0004E08D4002400AD01AD0ABB08031D6E2CF8
:1008D0002200C208031D6E2C2400AD0124002D0847
:1008E000B400AE01AE0AB408031D7C2C2100D5086B
:1008F000031D7C2C2400AE0124002E08B60022002B
:100900006F0603198D2CEE08031D8D2C0130ED01AF
:10091000EC003830EB008030EA0024003408031982
:10092000932CB901F42C210055080319F62C24004E
:10093000350803199D2CCA30F32C21005D082000D6
:10094000AC00E03088278031132680312E08240047
:10095000BD0020002D082400BC00E0302000AC00C9
:100960005F3088278031132680312C08BA002D088B
:10097000BB002E08BC002F08BD000730BD36BC0CE4
:10098000BB0CBA0C890BBE2C3A082400BC02200018
:100990003B082400BD3BC830BC070318BD0A3D0816
:1009A000803AFF0080307F02031DD82CC9303C0202
:1009B0000318F12C24003D08803AFF0080307F02AC
:1009C000031DE42C3C303C02031CE92C24003C08B1
:1009D000EB2C3C302400A400A5012508BA00240813
:1009E0004E2DC8302400B900BA014F2D200003302D
:1009F000AF01AE01AD002030AC0022006D08200038
:100A0000B30022006C082000B20022006B08200016
:100A1000B10022006A082000B000B12680312D0804
:100A20002400BF0020002C082400BE0021005B0829
:100A30002000AC00AD017F278B31CE2380312C0804
:100A40002400BE0720002D082400BF3D3F08803A47
:100A5000FF0080307F02031D2F2D01303E02031C5A
:100A6000392D003024003F02CB3003193E02031819
:100A70009B2C2400BF1B482D00303F022830031957
:100A80003E02031C482D3F08A7003E08A6004B2D40
:100A90002830A600A7012708BA002608B9003A089E
:100AA0002000BB00240039082000BA00BB36BA0C75
:100AB0003A082100E600240036082200EF00400832
:100AC0002000AD0022003F082000AC007F278B31C2
:100AD000CE2380312C08BA002D08BB00BA35BB0DDF
:100AE000BA35BB0DBA35BB0D3A08BC003B08BD009A
:100AF0000030BD1BFF30BE00BF003C082200EA07EB
:100B000020003D082200EB3D20003E082200EC3D85
:100B100020003F082200ED3D6D08AB278031031D0A
:100B20009B2D02306C02031D9B2D77306B02031D41
:100B30009B2D41306A020318D32D6D08AB278031FD
:100B4000031DAC2D00306C02031DAC2D7D306B02FB
:100B5000031DAC2D00306A02031CBE2D6D0824005D
:100B6000A30022006C082400A20022006B082400CD
:100B7000A10022006A082400A000C42D24007D30BA
:100B8000A301A201A100A00123082200ED0024007E
:100B900022082200EC00240021082200EB0024009F
:100BA00020082200D92D0230ED01EC007730EB0057
:100BB0004030EA00EE010800003022002402063036
:100BC00003192302031CEB2D2100A5271830CC01AB
:100BD0002100CD04080021004D08E7390838CD0078
:100BE000080059080319FD2D4B08F8390238CB00CD
:100BF0001830A201A301CB040800003023026530A5
:100C0000031922024B08031C0F2EF8390538CB00BC
:100C100022001830C601C5012100CB040800E739C5
:100C20000838CB000800B401B501B601B7012C1C8F
:100C3000212E3008B4073108B53D3208B63D3308DF
:100C4000B73DB035B10DB20DB30DAF36AE0CAD0C36
:100C5000AC0C2F082E042D042C04031D172E37086E
:100C6000AF003608AE003508AD003408AC0008000F
:100C7000200058080319402EC8305802031C4A2E81
:100C800021004C08F03907389F27C901C801C70166
:100C9000C70A08008C3022003402A0300319330246
:100CA000031C592EAB303402E13003193302031C0C
:100CB000732E21004C08F0390638622E21004C08B2
:100CC000F03903389F2780316E2E21004C08F0390F
:100CD0000838CC002200CB01CB0ACA01C901C801E7
:100CE000C80AC7010800063020005802031C5E2E07
:100CF00009305802031C652EC0305802031C852E93
:100D000021004C08F0390438622E17305802031CB9
:100D1000942E21004C08F0390238CC002200CB017F
:100D2000C901CA01C801712E14305802031CA32E38
:100D300021004C08F0390538CC002200CB01CA0153
:100D4000C901C90A922E1430580203180800210064
:100D500067278031922ECE142200CE01CD01CF0123
:100D60000800B501AF1FC12EAC09AD09AE09AF092E
:100D7000AC0A0319AD0A0319AE0A0319AF0AB5018B
:100D8000B50AB31FD02EB009B109B209B309B00A30
:100D90000319B10A0319B20A0319B30A0130B506DF
:100DA000B601B701B801B9012F082E042D042C0497
:100DB0000319062FB401B40AAF1BE32EAC35AD0DF9
:100DC000AE0DAF0DDB2EB635B70DB80DB90D2F0832
:100DD0003302031DF52E2E083202031DF52E2D08B9
:100DE0003102031DF52E2C083002031C002F2C08A5
:100DF000B0022D08B13B2E08B23B2F08B33B36148E
:100E0000AF36AE0CAD0CAC0CB40BE32E35080319A9
:100E1000142FB609B709B809B909B60A0319B70AF0
:100E20000319B80A0319B90A3908AF003808AE0027
:100E30003708AD003608AC000800E7304202031C5A
:100E4000302F462780314F16272F4627CF162200F6
:100E5000D101D10A2100C9012200D001D00A080025
:100E60002D304202031C252F462780313F3042029D
:100E70000318432FCF172200D1012100C901C90A4D
:100E80002200D00108004F17982708004F2F4F125B
:100E90000800CF120800CF1308004F1308004F08B6
:100EA0000739023A0319492F013A0319472F073A24
:100EB00003194B2F4D2F08002000AD0021003808EA
:100EC0002000AC005708AF005608AE0008004C08E0
:100ED000F0390138CC002200CB01CB0ACA01C9018C
:100EE0000800C700A001A1012300D401D50108001A
:100EF0002000BA00BA0C3A0C0339033A0800240067
:100F000038082000AF00240037082000AE00080099
:100F1000AD01AE01AF01B000B101B201B3010800F3
:100F20004708F8390438C700A001A10122000800D1
:100F30002200D1012100C9012200D0010800CC000B
:100F40002200CB01CA01CA0A08004D08F83903384B
:100F5000CD0022000800803AFF0080307F020800A8
:100F6000003020005702053421006430DC0A5C02A6
:100F7000031CBE2FDC0122000E1008005F085C027B
:100F8000031C080022000E140800640080010131D7
:100F9000890BC62F00342100E20A0800FF3FFF3F03
:100FA000FF3FFF3FFF3FFF3FFF3FFF3FFF3FFF3F51
:100FB000FF3FFF3FFF3FFF3FFF3FFF3FFF3FFF3F41
:100FC000FF3FFF3FFF3FFF3FFF3FFF3FFF3FFF3F31
:100FD000FF3FFF3FFF3FFF3FFF3FFF3FFF3FFF3F21
:1011D000FF3FFF3F2F293C218831A80026001D0832
:1011E0002100A90042290230DE0026001C0821004F
:1011F000AA0026001D082100AB00053026009E0035
:1012000008003C218831AC0026001D082100AD00FB
:101210002D082200B20021002C082200B10021007C
:1012200028082200B102210029082200B23B210037
:101230002B082200E90021002A082200E8002100F2
:1012400028082200E802210029082200E93B2100A9
:101250002D08A9002C08A8004229DE010800220060
:101260005E08003A0319EB28013A0319F328033A00
:10127000031901292D290800DE01DE0A26001C08B9
:1012800021000800043026009E0008005030FD01B7
:10129000F801F901FA01FB01FC018400003085002E
:1012A0000F308731C5278931A03084000030850098
:1012B00049308731C52789312030840001308500CD
:1012C0004A308731C5278931A0308400013085003C
:1012D0004E308731C5278931403084000230850087
:1012E0000B308731C52789318030DF002200EA00CA
:1012F0003830EB000130EC00ED01EE00EF00200093
:1013000081294D2589310430AC2389312200E60141
:10131000210062082000CA00CB014B08CD0022004A
:10132000660820004A02CC00031CCD034D040319BB
:101330008829210062082200E600DF0AE00A210075
:10134000E10AE71CA929C83020009B00210066356E
:10135000C1297D3020009B000430B200B301210080
:1013600066082000AC000530AD01AE00AF01CE2311
:1013700089312D08B5002C08B4006023893132086A
:101380002100E5000A248931033022005F0203189E
:10139000DF0105306002031CB22AE00164009531D0
:1013A000F92589312100DD0022003208B40031081E
:1013B000B30021003F082000D70021003E08200094
:1013C000D60005302200BF00C0012100DB01E71C70
:1013D000022A5D362D3E80310A008931893622008D
:1013E000B5008C30B60180310A008931893623007E
:1013F000E6003830E70180310A0089318936E8009B
:10140000E9013C2A05302000B200B30121005D361D
:101410002D3E80310A008A3120003A25893160232F
:1014200033082200B600200032082200B500053043
:101430002000B2008C30B30180310A008A313A2595
:101440008931602333082300E7002000320823009D
:10145000E60005302000B2003830B30180310A00C8
:101460008A313A2589316023893133082300E90024
:10147000200032082300E8000030210031025C30F7
:101480000319300203184F2A023027026030031973
:10149000260203184F2A3108BB003008BA0000307A
:1014A00031025D3003193002031C5A2A2708BB00A1
:1014B0002608BA0002302702613003192602031CF5
:1014C000652A3108BB003008BA0022003A08200023
:1014D000CB002200390845252100C200C3012200AB
:1014E0003C082100B90022003B082100B800003070
:1014F0007A180130D900D5018031B6208931210018
:10150000E901E608031D872AA0238931892A72246C
:1015100089312200560821006710031D6714540802
:10152000E710031DE714220054082100E713031DF0
:10153000E71757086711031D67155808E711031DC2
:10154000E71556086712031D671622005708210089
:101550006713031D6717220055082100E712031DBA
:10156000E7167A1021006108193A031DC62AE32301
:101570005530953193258931553A031D8E1EC62A63
:1015800011308C178F24893120008C1321006108C1
:10159000253A031DD92A5530953193258931553A7D
:1015A000031D8E1ED92A8C1791317F21893120008D
:1015B0008C1321006108323A031DFC2A67082000C1
:1015C000B70022003F082000B80021005B0820007F
:1015D000B90021003E082000BA007A08BB002200B2
:1015E00035082000BC0021005F082000BD002A3023
:1015F000BE0195319E25893161084B3A031D3B2B75
:1016000020001B08B700210064082000B800220059
:1016100032082000B900210065082000BA0021002E
:101620005D082000BB00210031082000CB00210014
:1016300030084525BC00210027082000CD002100EE
:1016400026082000CC00CD36CC0CCD36CC0C4C0876
:10165000BD0021003B082000CF0021003A082000F7
:10166000CE00CF36CE0CCF36CE0C4E08BE002B307F
:1016700095319E25893165306102031C5D2BE101A6
:1016800038082000B70023006A082000B80052087C
:10169000B9005408BA005D08BB00220020082000F1
:1016A000BC00220021082000BD00220022082000EA
:1016B000BE002C3095319E2589312200D801882921
:1016C000B701B31F6A2BB209B309B20A0319B30AEF
:1016D000B701B70AB51F732BB409B509B40A0319CA
:1016E000B50A0130B706B801B9013308320403194D
:1016F000932BB601B60AB31B802BB235B30D7A2BF0
:10170000B835B90D33083502031D882B3208340271
:10171000031C8F2B3208B4023308B53B3814B336A0
:10172000B20CB60B802B370803199B2BB809B909EB
:10173000B80A0319B90A3908B3003808B20008001A
:101740007A1F080022008E108E110E1225009513AC
:1017500091017A13FA1308002000AC00BC2B95010C
:1017600008009601970108009A01080028009501D9
:10177000080028009C0108002C08003A0319AF2B30
:10178000013A0319B12B033A0319B42B063A031992
:10179000B62B023A0319B92BCD2B0800B001B101C9
:1017A0002C1CD62B2E08B0072F08B13DAE35AF0D3F
:1017B000AD36AC0C2D082C04031DD02B3108AD0028
:1017C0003008AC000800671FE72B5830052C540880
:1017D0000319EC2B2130052C56080319F12B42304C
:1017E000052C58080319F62B3730052C5708031918
:1017F000FB2B2C30052CE71EFF2B4D30052C671CD6
:10180000032C1630052C0B30052C2000AC002100D9
:10181000DF0008000F24913158218931F62C6835FA
:10182000B03E8600013087003208C03F3308C13F18
:10183000BE308600BC3084000130850023003408AF
:1018400032072000AC0023003508333D2000AD00F6
:101850002300360820002C07AE00230037082000A4
:101860002D3DAF002300380820002E07B0002300D4
:10187000390820002F3DB10023003A08200030072E
:10188000B20023003B082000313DB300003F320787
:10189000B400013F333DB500403F3407B600413F3F
:1018A000353DB70023003008200036072200A9008C
:1018B000230031082000373D2200AA00BA00290881
:1018C000B9000830BA36B90CBA36B90CBA36B90C08
:1018D0002100E80A6802031C0800E8012200A901AF
:1018E000AA0108007A1B0800A630FA12B600B70158
:1018F000FB01FB0AC001C101E501F801F901230068
:10190000E001E101250096012830FA157A1721003F
:10191000E000250091012200E7019B31352BBB003F
:10192000D91D902C3B08B7000830B8000530E124E1
:101930008931D91D992CF0305905BA0021004A0689
:101940000319080020000530AC01DE248931DA00DB
:1019500086000230870001082300C000332589314A
:10196000C10033258931C20033258931C3003325B5
:101970008931C40033258931C50033258931C6003A
:101980003325C70040082100E4002300410820005F
:10199000DC00230042082000DB0023004308220073
:1019A000E200230044082200E3002300450822004F
:1019B000E400230046082200E50008002C08403E11
:1019C0000800D91D080038082200D2002000D914D0
:1019D0002300D601D70120002430AD01AE00333002
:1019E000AF01B000B10137089731732F23006408AD
:1019F000DE076508DF3D5F082100B10023005E08B7
:101A00002100B0000630B136B00C890B032D300830
:101A10002300DE02210031082300DF3B6208DC07DF
:101A20006308DD3D5D082100A50023005C0821005E
:101A3000A4000630A536A40C890B1A2D2408230017
:101A4000DC02210025082300DD3B21002508A7003A
:101A50002408A600220037082100A6072200380823
:101A60002100A73D08002000DA0A5A088600010874
:101A700023000800CA00CB01CA35CB0DCA35CB0DF7
:101A80004A08B4004B08B50008002000CA00CB3655
:101A9000CA0CCB36CA0C4A080800813021009500D8
:101AA000E901E90A8B138B01910192019301220054
:101AB000DF01E0012100E101572689312326893128
:101AC0003E268931682689310130E125893104308B
:101AD000E12589310630E125893105306E268931CD
:101AE0001A268931C4268931C826893122001A3044
:101AF0000E110D118D108E04093021009D00C82596
:101B0000893121009D14B02589312D08D3002C087E
:101B1000D20052082200A000353021009D00C825C7
:101B2000893121009D14B02589312D08D5002C085C
:101B3000D40054082200A100113021009D00C825C6
:101B4000893121009D14B02589312D08DE002C0833
:101B5000DD005D082200A200E5260B178B170800A8
:101B60002000AE0121009D1CBB2D20004130AE0A9B
:101B70002E02031CB22D21001C082000D1002100E0
:101B80001B082000D0005108AD005008AC00080030
:101B90000000000000000000000000000000000045
:101BA0000000000000000000000000000000000035
:101BB0000000000000000000000000000000000025
:101BC00008002000AD00082E0030AC238B12080066
:101BD0000130AC237530200098002100111008005E
:101BE0000230AC23073020009C0021009110080037
:101BF0000430AC230E302800970021009314080015
:101C00000630AC23053028009E0021009315080003
:101C10002D08003A0319E42D013A0319E82D033A7F
:101C20000319F02D063A0319F82D023A0319002E74
:101C3000192E0800A03021009E009D0130301D1497
:101C400022009704080020008E12AC01292E00000B
:101C500000002000AC0B272E8E16AD01312E0000A7
:101C600000002000AD0B2F2E8E12AE01392E000089
:101C700000002000AE0B372E8E1608009F30230088
:101C80009B0001309C0026309E0090309D00483023
:101C90009F002100910123002730F4272200D30167
:101CA0002000D9012100D3012000D91508002730D8
:101CB00023008C0029308D0022008C018D018E01C3
:101CC0007F3021008C0039308D0080308E0008007C
:101CD000F030210099001130970008002000AC007E
:101CE0002100DE012200DD01B12E250093019101CA
:101CF00092012100111520000530111125009300DB
:101D0000080025009A019801990121001214200071
:101D10000530121025009A00080026009301910159
:101D200092012100131620000530131226009300A3
:101D3000080026009A0198019901210093162000BD
:101D40000530931226009A00080026009E019C018F
:101D50009D012100131720000530131326009E005B
:101D6000080020002C08013A0319752E033A0319C4
:101D7000812E013A03198D2E073A0319992E013A43
:101D80000319A52EC32E080021000B30E701052CF6
:101D9000E801083068020318080031309D00C825AA
:101DA0008931B02589312D082100B30020002C088D
:101DB0002100B2006835B03E8600013087005E30F9
:101DC000C03F0130C13FE80AC92E2500960180308E
:101DD0002200910092012100873092122500940088
:101DE00095010C3093009101210004301210250060
:101DF0009A00FF3098009900643020009B00053065
:101E00009C0028302200DA0021009114FA01722C83
:101E100023009E19892F2000911E892FD91D252F5F
:101E200023001D080639031D892F1908803A031D58
:101E3000892F2730F427893119082100D200D31EB9
:101E4000232FD312892F5314892F591C602F23005D
:101E50001D0806390319302F21005008031D672F74
:101E600021005008023A0319D31022005308031925
:101E70003B2FD303892F2100520823001906031991
:101E8000432F6C30872F210051080319562F230050
:101E900019082100D200FA2789310108D200230055
:101EA0009A002100D1032100D00A892F2000D91CDB
:101EB0005D2F59102100D001892F21005311862F49
:101EC000D91C892F23001D0806390319692F7C307E
:101ED000872F2200520803197E2F2100FA2789310B
:101EE0002300190881002200D20323001908D60715
:101EF0000318D70A571C532FD60A532F2300190A49
:101F0000D60756080319862F5C30872F0830E42740
:101F100089312000D919CA2F2100531DC32FD31C8A
:101F2000A62F22002808270403199A2F0130A702A0
:101F30000030A83B23005B085A040319A42F01308A
:101F4000DA020030DB3BAE2F2C30AC2F2200280809
:101F500027040319AE2F1C30E427893122002608FC
:101F600025040319B72F0130A5020030A63B23003A
:101F7000590858040319C12F0130D8020030D93B49
:101F800008004C30E42F220026082504031908001D
:101F90003C30E42F2100D31A0800230051085004DC
:101FA0004F044E040319E12F0130F100F201F30157
:101FB000F401CE027208CF3B7308D03B7408D13BCA
:101FC0000800210053170800F00023001908210021
:101FD000D200D3012300D601D70170082000D90018
:101FE00023002730F4270800D101D001CF00BB30F7
:101FF000CE0008005008403E8600023087000800EE
:10200000FF3FFF3FFF3FFF3FFF3FFF3FFF3FFF3FE0
:10201000FF3FFF3FFF3FFF3FFF3FFF3FFF3FFF3FD0
:10202000FF3FFF3FFF3FFF3FFF3FFF3FFF3FFF3FC0
:10203000FF3FFF3FFF3FFF3FFF3FFF3FFF3FFF3FB0
:1022B00003302000AC00AD0154085207B3005508AC
:1022C000533DB4005D083307AE005E08343DAF00F7
:1022D000352691312C082200AB0720002D08220062
:1022E000AC3D2C08BC002B08BB000630BC36BB0C38
:1022F000890B76293B08AB023C08AC3B0800210067
:1023000064083B3A0319642D8E2D5F08803A031D43
:1023100008009030DF0022003A30D901D90A2000AD
:10232000B7008030B8001030B901542791319E2D8C
:102330005F08903A031D0800DC29F03093259131A5
:10234000C700F13093259131C600F23093259131C9
:10235000C800F33093259131C9000230C501C40192
:102360002200D900E529EB3093259131C700EC30EC
:1023700093259131C600ED3093259131C800EE30A0
:1023800093259131C900EF3093259131C5009130EB
:10239000C401DF00E529FF302000DB002200E2005D
:1023A000E300E400E5007F302000B7009030FE2617
:1023B00091319E259131E52922005908013A0319EE
:1023C0009D29033A0319B329CB2920004708FF3A76
:1023D0000319042A4608FF3A0319042A4808FF3A59
:1023E0000319042A4908FF3A0319042A4508FF3A49
:1023F0000319042A4408FF3A0319042A3A30D7265D
:102400009131692791319E2D7F30B7009030FE26A3
:1024100091319E2D5F08913A031D0800F4309325F9
:102420009131C700F53093259131C600F6309325E0
:102430009131C800F73093259131C900F8309325C8
:102440009131C5004708FF3A031D3C2A4608FF3A70
:10245000031D3C2A4808FF3A031D3C2A4908FF3A5D
:10246000031D3C2A4508FF3A031D3C2A3A30D72673
:1024700091316E2791313F2A7F30E32691319E259D
:1024800092302000DF0008005F08923A031D080028
:102490002830C0000230C100210024082000400282
:1024A000C200210025082000413BC300B3000030DA
:1024B000E125913121002408283C2000B30001309F
:1024C000E1259131013093259131C00000309325F1
:1024D00091312200B800200040082200B7002100FE
:1024E00024072000C000220038082100253D2000DC
:1024F000C100C136C00CC136C00C4008C700220064
:1025000038082000C1002200370820004D279131F3
:10251000C60047088A3A031D922A3A30B70023279B
:102520009131952A7F30E32691319E25933020000A
:10253000DF0008005F08933A031D0800A9269131C7
:102540002D082200AE0020002C082200AD00FF3034
:1025500023006327913115140000000023001408A4
:10256000CB001308CA00FE30632791311514000018
:10257000000023001408CD001308CC000430C83E2E
:102580008600013087004A082000C100C001403F9A
:1025900040072300C800413F2000413D2300C900FF
:1025A00048082000C80022002D082000C900220091
:1025B0002E0823004906031DE12A22002D082300CE
:1025C0004806031DF42A3A302000B7005C08B80022
:1025D0000830B9000330BA004808BB004908BC0005
:1025E0001030BD01BE01F82A7F302000E326913172
:1025F0009E2594302000DF0008005F08943A031DF8
:10260000080022003A082000C100220039082000FA
:102610004D279131C7006D304702031C182B7230D3
:1026200047020318182B3A30B700422791311B2B71
:102630007F30E32691319E2595302000DF00080091
:102640005F08953A031D08008B31A02391312200C9
:1026500009308E140E152100DA0020005308C10045
:1026600052084D279131C70029304702031C412BE6
:10267000323047020318412B3A30B70042279131DC
:10268000442B7F30E32691319E2596302000DF00D9
:1026900008005F08963A031D08008B31A023913192
:1026A000220035308E150D152100DA002000550866
:1026B000C10054084D279131C70029304702031C3F
:1026C0006A2B3230470203186A2B3A30B700422790
:1026D00091316D2B7F30E32691319E25973020007C
:1026E000DF0008005F08973A031D08008B31A02324
:1026F0009131220011300E168D142100DA005A2774
:102700009131352691312D08B3000630E125913104
:102710005A279131352691312C08B3000730E12535
:102720009131073093259131C00006309325220066
:10273000B000200040082200AF0020005E08AD007D
:102740005D08AC00220030082000AF0022002F08F6
:102750002000AE008B31CE2391312D0E0F39C700F2
:10276000220030082000C60029304702031CC12B7C
:10277000323047020318C12B3A30B700232791317A
:10278000C42B7F30E32691319E2598302000DF0056
:10279000FC01FC0A08005F08983A031D08005B086A
:1027A000013A0319E62B033A0319092C013A0319DC
:1027B0002C2C073A03194F2C013A0319722C033AB7
:1027C0000319952C013A0319B82CDC2C7C085B0604
:1027D000031D08005B08C700F92591312F278031C0
:1027E0000A009331152791310318032C2000EE269F
:1027F00091310318032C3A302000D7269131103044
:10280000BD01BE01052C072791319E250230FC0039
:1028100008007C085B06031D08005B08C700F9255B
:1028200091312F2780310A009431152791310318F7
:10283000262C2000EE2691310318262C3A30200059
:10284000D72691311030BD01BE01282C07279131C8
:102850009E250330FC0008007C085B06031D080071
:102860005B08C700F92591312F2780310A00943188
:10287000152791310318492C2000EE2691310318B9
:10288000492C3A302000D72691311030BD01BE01CD
:102890004B2C072791319E250430FC0008007C0852
:1028A0005B06031D08005B08C700F92591312F273F
:1028B00080310A0094311527913103186C2C2000C7
:1028C000EE26913103186C2C3A302000D726913136
:1028D0001030BD01BE016E2C072791319E250530B9
:1028E000FC0008007C085B06031D08005B08C700AD
:1028F000F92591312F2780310A0094311527913124
:1029000003188F2C2000EE26913103188F2C3A30BB
:102910002000D72691311030BD01BE01912C072730
:1029200091319E250630FC0008007C085B06031DE3
:1029300008005B08C700F92591312F2780310A0074
:102940009431152791310318B22C2000EE269131D5
:102950000318B22C3A302000D72691311030BD0137
:10296000BE01B42C072791319E250730FC000800DA
:102970007C085B06031D08005B08C700F925913140
:102980002F2780310A009431152791310318D52C57
:102990002000EE2691310318D52C3A302000D7269E
:1029A00091311030BD01BE01D72C072791319E25F2
:1029B0009F302000DF00080039279131E326913154
:1029C0009E2D5F089F3A031D08003A30D7269131AB
:1029D000692791319E25A0302000DF0008005F08A4
:1029E000A03A031D08005B08B300F430E1259131E3
:1029F000220062082000B300F530E1259131220069
:102A000063082000B300F630E1259131220064080C
:102A10002000B300F730E125913122006508200045
:102A2000B300F830E1259131F43093259131C7009E
:102A3000F53093259131C600F63093259131C800C9
:102A4000F73093259131C900F83093259131C500B5
:102A50004708FF3A0319422D4608FF3A0319422D51
:102A60004808FF3A0319422D4908FF3A0319422D3D
:102A70004508FF3A0319422D3A30D72691316E2787
:102A80009131452D7F30E32691319E25FA3020008B
:102A9000DF0008005F08FA3A031D08003A30B7006B
:102AA0005C08B8001030B901542791319E2591314E
:102AB00055302000B300E12520008E120800392790
:102AC0009131E32691319E2D20005C08803A031954
:102AD0008529103A03199829013A03190A2A033A59
:102AE0000319442A013A03199A2A073A0319FD2ABD
:102AF000013A0319202B033A0319492B013A031910
:102B0000722B0F3A0319CB2B073A0319E12C3F3AEA
:102B10000319EF2C5A3A03194A2D5F2D7F302000FC
:102B2000E32691319E2D2000AC00230091009513E7
:102B30001513151413082000AD000800BF00D91D9F
:102B40009F2D0230AC0005308C31DE249131DA004B
:102B500086000230870037088100DA0A5A088600AA
:102B600038088100DA0A5A08860039088100DA0A32
:102B70005A0886003A088100DA0A5A0886003B089B
:102B80008100DA0A5A0886003C088100DA0A5A08ED
:102B900086003D088100DA0A5A0886003E08810056
:102BA0000830DA0AAD005530AE007730AF01B00022
:102BB000B1013F08732759082100CA00F030CA0547
:102BC0000800B40023009100200033082300930084
:102BD00055301513951315158B139600AA309600D2
:102BE00095148B1715112300951C08000000000098
:102BF000F32D220031082000B50022003208200009
:102C0000B600B701220068082000AC002200690865
:102C10002000AD00C830AE01AF00B001B1018C267C
:102C200091312C08B8002D08B9002E08BA005A2698
:102C3000913135082100DE00DE08031D2A2E220016
:102C40000530DD0A5D02031C322E21005E082200E1
:102C5000DC00322E2200DD0121005E082200DC00B3
:102C6000E801E9015C08C83C0800B001B1012D0889
:102C70002C040319552EB201B20AAD1B422EAC35FD
:102C8000AD0D3C2EB035B10D2D082F02031D4A2E7F
:102C90002C082E02031C512E2C08AE022D08AF3B2F
:102CA0003014AD36AC0CB20B422E3108AD003008FA
:102CB000AC000800BB01BC01BD0137083604350477
:102CC0000319852EBE01BE0AB71B6A2EB535B60D97
:102CD000B70D632EBB35BC0DBD0D37083A02031D81
:102CE000772E36083902031D772E35083802031C6B
:102CF000802E3508B8023608B93B3708BA3B3B147A
:102D0000B736B60CB50CBE0B6A2E3B08B5003C08B6
:102D1000B6003D08B7000800B201B301B4012C1C95
:102D2000972E2F08B2073008B33D3108B43DAF35B8
:102D3000B00DB10DAE36AD0CAC0C2E082D042C042C
:102D4000031D8F2E3208AC003308AD003408AE00EE
:102D50000800FE30B201B301B001B101AE001F3076
:102D6000AF000130AE020030AF3B2E0A03192F0A2C
:102D70000319D22E320823009100200033082300CB
:102D80009200151195171514000000002300130878
:102D90002000B007230014082000B13DB20A031937
:102DA000B30AB12E3108AD003008AC000800B700FE
:102DB0005C08B8004708B9004608BA004808BB00DC
:102DC0004908BC000800B7005C08B800FF30B90033
:102DD000BA00BB00BC00BD00BE0010344908FE3E76
:102DE000C000FF3003180030C100803AC2008030BC
:102DF0004202031D0800480840020800B800FF30E6
:102E0000B900BA00BB00BC00BD00BE0010347F306A
:102E10002000B7005C08B8005B08B900FF30BA00BA
:102E2000BB00BC00BD00BE001034C900023EC000A3
:102E3000003003180130C100803A803C031D0800B7
:102E40004008480208005C08B8004708B900460876
:102E5000BA001030BB01BC01BD01BE0108008936BB
:102E60002000C60021003E082000C80046082D3E74
:102E70000800FF30DB002200E200E300E400E50090
:102E800020007F345C08B8004708B9001030BA0150
:102E9000BB01BC01BD01BE010800C000C136C00CB1
:102EA000C136C00C40080800BA01BB01BC01BD011D
:102EB000BE01080020005E08AD005D08AC00C03017
:102EC000AE01AF00080091001F3092001511951758
:102ED00008004508BD004408BE0010344508BD0088
:102EE0001030BE010800B200B3000F30D9050D301C
:102EF0002200A7001330A8012300DA00DB01200024
:102F00002F082200A60020002E082200A500200085
:102F100031082300D900200030082300D800200009
:102F2000D91D080055302400C00020003308DA27DE
:102F300091312400C1002100D0012000D91CA42F10
:102F400002302100D100CB2F2D08023E2100D100FC
:102F500020000230B401B501B60021005108200064
:102F600036020318BE2F3608403E86000230870026
:102F70000108B4070318B50AB60AAD2F210051089D
:102F8000403E860002308700200035083407FF3AB3
:102F900081002100D10A2300FF309E159A000F30D6
:102FA0002000D90559142100D3145315D201200053
:102FB000D9110800AC003F30AC052C1CE12F40308B
:102FC000AC06AC1CE52F4030AC062C1DE92F403080
:102FD000AC062C1EED2F4030AC06AC17AC1CF22F0B
:102FE0008030AC06AC1DF62F8030AC062C1EFA2FBC
:102FF0008030AC06AC1EFE2F8030AC062C080800DA
:10300000FF3FFF3FFF3FFF3FFF3FFF3FFF3FFF3FD0
:10301000FF3FFF3FFF3FFF3FFF3FFF3FFF3FFF3FC0
:10302000FF3FFF3FFF3FFF3FFF3FFF3FFF3FFF3FB0
:10303000FF3FFF3FFF3FFF3FFF3FFF3FFF3FFF3FA0
:10366000FF3FFF3FFF3FFF3FFF3F00302100410290
:103670000A30031940020318402BC00A0319C10A7B
:103680004835A03E8600013087007808C03F7908A1
:10369000C13F0730C80AC805AE308600AC30840090
:1036A000013085002300240822072000B2002300F7
:1036B0002508233D2000B300230026082000320700
:1036C000B400230027082000333DB500230028085C
:1036D00020003407B600230029082000353DB7003C
:1036E00023002A0820003607B80023002B082000FA
:1036F000373DB900003F3807BA00013F393DBB00F4
:10370000403F3A07BC00413F3B3DBD00230020083D
:1037100020003C072100BE002300210820003D3D81
:103720002100BF0079082200BE007808BD00FA120F
:10373000E701E70AFA17FA1DE42B3E082000AD0066
:1037400022003D082000AC006430AD36AC0CAD3634
:10375000AC0CAD36AC0CAE00AF018B31CE239B313F
:103760002D082100BD0020002C082100BC000730DE
:10377000BD36BC0C890BB82B79083D02031DC22B4A
:1037800078083C020318D22B79082300E10078085E
:10379000E00021003C082300E00221003D08230056
:1037A000E13BD52B2300E001E1010030210037028D
:1037B000223003193602031CE02BB736B60C082C56
:1037C0002130B600B701082C7D1CEA2B2300E00154
:1037D000E101F12B79082300E1007808E000E136EF
:1037E000E00C4D30E001E1012100B6000130B700EE
:1037F0007A1F062C25001108210065020318032CEE
:1038000025009103082C2500910A082C2500910120
:10381000F801F9017B08FF3A031DA52C0630FB00D7
:10382000A52C0130250096007A1F192C2200CE24E9
:103830009B31220009300D118D102100DA00253056
:10384000E301E30A2200E10002309200843091009B
:103850000630892C0130250096007A1F322C220078
:10386000D3249B31220009300D158D102100DA0080
:103870000530E301E30A2200E100013092009430B8
:1038800091007D10FB01FB0AB92C02302500960047
:103890007A1F4D2C2200C9249B31220035300E1195
:1038A0008D102100DA000530BF249B318430910057
:1038B0000230892C0230250096007A1F622C2200EB
:1038C000CE249B31220035300E118D142100DA00F8
:1038D0000530E30025302200E100023092009430F0
:1038E000910003309D2C0430250096007A1F7B2C1C
:1038F0002200D3249B31220011300E11C5249B31AC
:10390000E30005302200E100013092008430910094
:1039100004307D149E2C0430250096007A1F932CD1
:103920002200C9249B31220011300E15C5249B3181
:10393000BF249B319430910005307D10FB00B92CE1
:103940002500960122009101412C7B08013A0319C0
:10395000112C033A03192A2C013A0319452C073A72
:1039600003195A2C013A0319732C033A03198B2CAF
:10397000A02C2830DA00F801F9017A160800E300DB
:103980002200E101E10A920108000D112100DA0094
:1039900025340E08E53918388E0008000E08E53980
:1039A0000A388E0008000E08E53912388E0008002B
:1039B000F80A0319F90A790821003702031DE22CDD
:1039C000780836020318E62C3A269C310030210094
:1039D00041020A30031940020318FA11DD279C3115
:1039E0002200111FF52CDB01C72DDB01DB0AC72DDF
:1039F0002D3021009D0021269C3121009D140C2694
:103A00009C3171082300E5007008E400313021008A
:103A10009D0021269C3121009D142200E70AD42D0F
:103A200021005A089D001B08B2001C08B3000000CA
:103A30000000000000000000000000000000000086
:103A40000000000000000000000000000000092D40
:103A50000C269C3171082100AF007008AE005A2D71
:103A60002F082000D30021002E082000D2002200C1
:103A700020082000D202031CD303652D2F0820004C
:103A8000D50021002E082000D400220021082000AB
:103A9000D402031CD503652D2F082000DE00210071
:103AA0002E082000DD00220022082000DD02031C79
:103AB000DE03652D5A08093A0319302D183A031907
:103AC0004C2D243A03193E2D652D01302000530260
:103AD00005300319520203187B2D013055020530C1
:103AE0000319540203187B2D01305E0205300319BF
:103AF0005D02031C7F2DE5307A1422008E05220022
:103B00006108072D21001B08B4001C08B5009D1496
:103B10007A1F9D2D650803199D2D7D1CA72D340846
:103B2000643EF6000030353DF70033087702031D90
:103B30009B2D320876020318D42D2200E70A2100BB
:103B400063089D0021269C3121009D14D42D003056
:103B500035021F300319340203189D2DD42DDA01CC
:103B60000C269C3171082300EB007008EA007530C8
:103B700021009D0021269C310D2D21009D140C2635
:103B80009C3171082300E3007008E2000D2D6708E6
:103B9000FF3E031CD42D84000A3004020318D42DE8
:103BA00080310435923E82007A1FEF2DFA1DF12DEF
:103BB00022004130D801D80A2300EC00ED0178083A
:103BC0000339031DF12D250011082100600203189F
:103BD000EC2D25009103F12D2500910AF12D2500F2
:103BE00091012200DA08031D0A2E5B08031DFA1A50
:103BF000FA2DFA16FA1E0800230061086004031D5E
:103C0000052EFA1908003A260800FF30E007031CC9
:103C1000E1030800DA030800F20121009D1C152EC3
:103C20004130F20A7202031C0D2E1C082000D10044
:103C300021001B082000D0005108F1005008F000BE
:103C4000080000000000000000000000000000006C
:103C50000000000000000000000000000000000064
:103C60000000000000000000000000000000000054
:103C7000000008000030210041020A300319400210
:103C80000318452EC00A0319C10A4835A03E860014
:103C9000013087007808C03F7908C13F0730C80A63
:103CA000C805AE308600AC308400013085002300AA
:103CB000240822072000A00023002508233D20001F
:103CC000A1002300260820002007A20023002708C7
:103CD0002000213DA3002300280820002207A40083
:103CE000230029082000233DA50023002A082000E6
:103CF0002407A60023002B082000253DA700003F35
:103D00002607A800013F273DA900403F2807AA0039
:103D1000413F293DAB002300200820002A07210055
:103D2000BE002300210820002B3D2100BF007908A0
:103D30002200BE007808BD00FA12E701E70AFA1770
:103D4000FA1DE32E3E08F1003D08F0006430F13624
:103D5000F00CF136F00CF136F00CF200F301C8274C
:103D60009C3171082100BD007008BC000730BD36D1
:103D7000BC0C890BB72E79083D02031DC12E7808B3
:103D80003C020318D12E79082300E1007808E000F6
:103D900021003C082300E00221003D082300E13B14
:103DA000D42E2300E001E10100302100370222304F
:103DB00003193602031CDF2EB736B60C072F21304D
:103DC000B600B701072F7D1CE92E2300E001E101B9
:103DD000F02E79082300E1007808E000E136E00CDD
:103DE0004D30E001E1012100B6000130B7007A1F3B
:103DF000052F25001108210065020318022F250058
:103E00009103072F2500910A072F25009101F80142
:103E1000F9017B08FF3A031DAE2F0630FB00AE2FE1
:103E20000130250096007A1F192F22009C31CE24E4
:103E30009C31220009300D118D102100DA0025304F
:103E4000E301E30A2200E100023092008430910095
:103E500006308F2F0130250096007A1F332F220065
:103E60009C31D3249C31220009300D158D10210086
:103E7000DA000530E301E30A2200E100013092009C
:103E8000943091007D10FB01FB0AC22F0230250007
:103E900096007A1F4F2F22009C31C9249C312200AA
:103EA00035300E118D102100DA0005309C31BF2411
:103EB0009C318430910002308F2F02302500960013
:103EC0007A1F662F22009C31CE249C31220035308F
:103ED0000E118D142100DA000530E3002530220098
:103EE000E10002309200943091000330A62F04309C
:103EF000250096007A1F802F22009C31D3249C310C
:103F0000220011300E119C31C5249C31E300053094
:103F10002200E100013092008430910004307D14D1
:103F2000A72F0430250096007A1F9A2F22009C317B
:103F3000C9249C31220011300E159C31C5249C31BE
:103F40009C31BF249C319430910005307D10FB00E2
:103F5000C22F2500960122009101422F7B08013AD1
:103F60000319102F033A03192A2F013A0319462F78
:103F7000073A03195D2F013A0319772F033A031902
:103F8000912FA92F2830DA00F801F9017A160800DC
:103F9000F401F501701CD02F7208F4077308F53D89
:103FA000F235F30DF136F00C71087004031DCA2FC1
:103FB0007508F1007408F00008000000000000001F
:103FC00000000000000000000000000000000000F1
:103FD00000000000000000000000000000000000E1
:103FE00000000000000000000000000000000000D1
:103FF0000000000000000000000008003E002A0051
:020000040001F9
:04000E00BCFFFFDB59
:00000001FF
