:0400000080312928FA
:100008008031200011181110931C1128931087318A
:10001800AF2780318731C62780312000911C1828EE
:10002800911095310A2580312000931D1F289311C6
:100038009431142480312000131F2528131387318D
:100048005327200012181210090088018831292826
:1000580000346E346E346E340034003400340034AE
:10006800003400340034D334D334D334D034CE34D1
:10007800CC34C934C734C534C334C134BF34BD34B7
:10008800BB34BA34B834B634B434B234B134AF341F
:10009800AD34AC34AA34A934A734A634A434A33478
:1000A800A234A0349F349D349C349B349A349834C1
:1000B80097349634953494349234913490348F3400
:1000C8008E348D348C348B348A3489348834873434
:1000D80086348534843483348234813480347F3464
:1000E8007F347E347D347C347B347A347A3479348A
:1000F80078347734773476347534743474347334AC
:10010800723472347134703470346F346E346E34C7
:100118006E346E346E346E346E346E3495312B2DED
:100128009531402D95315A2D95318C2D9531BC2D19
:1001380095313D2D95313D2D95313D2D9531CC2D68
:100148009531E12D8031BD288031BD288031BD2811
:100158008031BD288031BD288031BD288031BD283F
:100168008031BD2858082000DA0021003F1AC02835
:10017800CE28D5258031D7283F080F39FF3E031CEC
:10018800D7288400083004020318D72880310435A2
:10019800A63E82003F16630BD228D328D728132700
:1001A8008031D501D40122005508E2002100C1198F
:1001B800FA280C29DE302000560203181529482693
:1001C800803115293230200056020318E3281529FA
:1001D8003B30200056020318E3282C30E028473033
:1001E800200056020318E3283530E0284108073973
:1001F800013A0319E328033A0319F328013A0319CA
:10020800DE28073A0319E628013A0319EC281529CC
:10021800C115630B1529410834278031DE01DC0143
:10022800DD012100C01C2E29003020005502443079
:10023800031954020318C629013055022C3003193A
:1002480054020318C6292100C010C0152200D90184
:10025800D90AC629401D44290230200055026030C1
:10026800031954020318C629013055022D30031909
:100278005402031CC6292100401184268031C62956
:10028800C01D702902302000550260300319540245
:1002980003185829013055022D3003195402031C44
:1002A80058292100C0114129003055022030031976
:1002B80054020318C629013055022C300319540280
:1002C8000318C6292100C01140152200DA01DA0AF4
:1002D800D901D90ADB01C6294018C6294014630B85
:1002E800C629412900302302333003192202031C96
:1002F80080298A268031DC292100A20A0319A30A51
:10030800DC298E2580313E0C200040278031031DDA
:100318008029DC298E258031DC2900302302C93070
:100328000319220203187D295108031980293E0860
:10033800F8390138BE00A201A3012200E101E10A57
:10034800E001E00ADC29D10803197D2900302302E5
:1003580002300319220203189B298029D108031DA2
:1003680080293E08F8390438BE00A201A301DC291F
:10037800BE1ADC29BE1663080319DC293E08F839C1
:100388000638B82921003E080739013A0319B2296D
:10039800033A0319A729013A03198529073A0319CA
:1003A8009129013A03198E29033A03197629BC29A0
:1003B8002300D701D70A2200D808031DEE29DF0839
:1003C800031DEE29DB08031DEE29E108031DEE29B4
:1003D8002300D70123005708E70000302100E30875
:1003E800031D01302300DF002000591FEA2A2300E3
:1003F800E708031D0A2A5F080319D32A0A2A2100DD
:10040800A001A101F8302000D905202A20005908B0
:100418000739013A0319062A033A0319062A013A49
:100428000319032A073A0319062A013A0319062A67
:10043800033A0319062A202A5913D9173E2A2100FC
:100448002108200403197B2AA001A10120005908D2
:10045800F8390238D900022B033021002102E93093
:1004680003192002031C422A20005908F8390538CC
:100478000B2780312200D201D301022B4F27803174
:1004880003194C02031C4F2A01304D022D30031969
:100498004C02031C7B2A5908F8390138D90022007C
:1004A800D3012100A001A101022B003023003F024B
:1004B800653003193E02031C6A2A200059081D27CB
:1004C8008031D201D20AD301D30A022B4F278031BF
:1004D80003194C02031C772A01304D022D300319F1
:1004E8004C02031C2A2A2300BE0A0319BF0A210052
:1004F800A00A0319A10A022B0030210021020B30A7
:1005080003192002031CB92A003020004D020530CF
:1005180003194C02031C972A01304D022D30031990
:100528004C02031CA02A59081D2780311830D2011B
:10053800D20AD301D30AB02A4627803103192002F0
:10054800031CB32A20005908F83905380B278031D5
:1005580022001830D201D3012000D904BC2A20007F
:100568005908E7390838D900BC2AE7302000D905EE
:10057800590C40278031031D7B2A022B46278031E6
:1005880003192002031C7B2A20005908F839063871
:10059800D9002100A001A1012200D201672A200070
:1005A80059080739013A0319592A033A0319302A15
:1005B800013A0319232A073A0319C22A013A0319EF
:1005C8002A2A033A0319802A022B022BD91FF92A57
:1005D8002300E708031D022B2000D91359175908D7
:1005E800F83903380B278031022BD91A022BD91678
:1005F80023005F080319022B2000212A2300D801B9
:10060800D80A2200D708031D0E2BDE08031D0E2B67
:100618002300D80123005808E100220056080319D6
:10062800182BD33023001D2B230061080319202B1E
:100638006E30E500E601282B220047082300E6007B
:10064800220046082300E5002100BA1C3E2B2000AA
:10065800022780317925803118302D02383003196E
:100668002C0203187B2B2100BA10BA152300BC01F9
:10067800BD01792B3A1D4F2B2000022780317925A7
:10068800803118302D029D3003192C02031C7B2B5E
:1006980021003A11782BBA1D732B200002278031D4
:1006A8007925803118302D029D3003192C02031C46
:1006B800602B2100BA11782B073023003D02D1307E
:1006C80003193C02031C6F2B2100BA113A152200B2
:1006D800D101D10A7B2BBC0A0319BD0A7B2B3A181E
:1006E8007B2B3A14630B7B2BBA142200D101220016
:1006F80051082100CD00220059082100CA0020001D
:10070800D81C922B00305302633003195202031C89
:10071800D42BD810D8152100B801D42B581DA72BDD
:1007280000305302633003195202031C9D2B5811E9
:10073800B92B653021003802031CA52B2000581165
:10074800D12BB80AD42BD81DBE2B003053026230EF
:10075800031952020318B22BD811D12B33302100C0
:100768003802031CA52B2000D81158162200D001EE
:10077800D00AD42B581ECA2B0030530262300319FA
:1007880052020318D42B581258158F2B5818D42BF3
:1007980058142100630BD42B2000D8142200D00158
:1007A800220050082100CE00220054082100D00069
:1007B8002300D901D90A2200DC08031DE82BDD0833
:1007C800031DE82B2300D901230059082200E30068
:1007D8002300DA01DA0A2200D308031DF82BE00807
:1007E800031DF82B2300DA0123005A082100CF004B
:1007F80022005A082100CB00230065082200E600E9
:100808002300DB01DB0AE708031D102C2200D208B5
:10081800031D102C2300DB0123005B08E000DC0132
:10082800DC0AE008031D1E2C2100CC08031D1E2C29
:100838002300DC0123005C08E20022006E06031995
:100848002F2CED08031D2F2C0130EC01EB00383064
:10085800EA008030E900230060080319352CE30121
:10086800962C21004C080319982C230061080319C1
:100878003F2CCA30952C210058082000AC00E030ED
:1008880025278031B02580312E082300E90020007B
:100898002D082300E800E0302000AC005F30252759
:1008A8008031B02580312C08BA002D08BB002E08F5
:1008B800BC002F08BD000730BD36BC0CBB0CBA0C01
:1008C800890B602C3A082300E80220003B0823002B
:1008D800E93BC830E8070318E90A6908803AFF00CD
:1008E80080307F02031D7A2CC93068020318932CCC
:1008F80023006908803AFF0080307F02031D862CA0
:100908003C306802031C8B2C230068088D2C3C307B
:100918002300D300D4015408E4005308DD2CC83068
:100928002300E300E401DE2C20000330AF01AE0118
:10093800AD002030AC0022006C082000B30022007B
:100948006B082000B20022006A082000B1002200D3
:1009580069082000B000962680312C082300EA00A0
:10096800EB016B08803AFF0080307F02031DBE2C2C
:1009780001306A02031CC82C003023006B02CB3004
:1009880003196A0203183D2C2300EB1BD72C0030F7
:100998006B02283003196A02031CD72C6B08D60097
:1009A8006A08D500DA2C2830D500D6015608E400AC
:1009B8005508E30064082000BB00230063082000FA
:1009C800BA00BB36BA0C3A08DE002100391CEF2CFD
:1009D80039103915FB2CB91CF32CB910F62C391D1C
:1009E800F82C3911B915FB2CB919FB2C3914230033
:1009F80062082200EE0020004D08AD004C08AC0053
:100A0800230065082000AC02230066082000AD3BE7
:100A18002830AE00AF01792580312C08BA002D08A6
:100A2800BB000030BB1BFF30BC00BD003A082200F1
:100A3800E90720003B082200EA3D20003C0822008C
:100A4800EB3D20003D082200EC3D6C084A27803130
:100A5800031D382D02306B02031D382D77306A02D2
:100A6800031D382D413069020318702D6C084A2780
:100A78008031031D492D00306B02031D492D7D3047
:100A88006A02031D492D00306902031C5B2D6C08A6
:100A98002300D20022006B082300D10022006A083C
:100AA8002300D000220069082300CF00612D230015
:100AB8007D30D201D101D000CF0152082200EC00D4
:100AC800230051082200EB00230050082200EA000E
:100AD80023004F082200762D0230EC01EB0077301E
:100AE800EA004030E900ED010800B001B1012C1C1A
:100AF800812D2E08B0072F08B13DAE35AF0DAD36AC
:100B0800AC0C2D082C04031D7B2D3108AD003008DA
:100B1800AC000800510803199A2D3E08F83902382C
:100B2800BE001830A201A301BE0408000030230251
:100B38006530031922023E08031CAC2DF83905382C
:100B4800BE0022001830E101E0012100BE040800C7
:100B5800E7390838BE000800B401B501B601B7018D
:100B68002C1CBE2D3008B4073108B53D3208B63DFF
:100B78003308B73DB035B10DB20DB30DAF36AE0C7D
:100B8800AD0CAC0C2F082E042D042C04031DB42D21
:100B98003708AF003608AE003508AD003408AC00A1
:100BA800080020005A080319DD2DC8305A02031C1A
:100BB800E72D21003F08F03907383A27D601D5013B
:100BC800D401D40A08008C3022004502A030031951
:100BD8004402031CF62DAB304502E13003194402F0
:100BE800031C102E21003F08F0390638FF2D210084
:100BF8003F08F03903383A2780310B2E21003F088F
:100C0800F0390838BF002200D801D80AD701D60128
:100C1800D501D50AD4010800053020005A02031C6A
:100C2800FB2D09305A02031C022EC0305A02031C45
:100C3800222E21003F08F0390438FF2D17305A02C0
:100C4800031C312E21003F08F0390238BF00220072
:100C5800D801D601D701D5010E2E13305A02031C34
:100C6800402E21003F08F0390538BF002200D80186
:100C7800D701D601D60A2F2E13305A0203180800BE
:100C88002100132780312F2EE73020005602031C45
:100C9800552E21004108F83903382D27DD01DD0ADA
:100CA80008002C30560203186D2E21004108F8392F
:100CB80004382D278031DC0A6B2E21004108F839D1
:100CC8000538C1002200DF01DF0ADE01DC01DD0199
:100CD800080035305602031C612E413056020318B5
:100CE8007F2E21004108F8390238C1002200DF01B7
:100CF800DE01DE0A6A2E2100410834278031692E80
:100D0800C0142200DA01D901DB0108003E08F839D5
:100D18000338BE002200E101E001E00A2100A2013F
:100D2800A3010800B501AF1FA62EAC09AD09AE0995
:100D3800AF09AC0A0319AD0A0319AE0A0319AF0AC1
:100D4800B501B50AB31FB52EB009B109B209B30987
:100D5800B00A0319B10A0319B20A0319B30A013018
:100D6800B506B601B701B801B9012F082E042D0444
:100D78002C040319EB2EB401B40AAF1BC82EAC35F2
:100D8800AD0DAE0DAF0DC02EB635B70DB80DB90D02
:100D98002F083302031DDA2E2E083202031DDA2E25
:100DA8002D083102031DDA2E2C083002031CE52E13
:100DB8002C08B0022D08B13B2E08B23B2F08B33BDC
:100DC8003614AF36AE0CAD0CAC0CB40BC82E3508CF
:100DD8000319F92EB609B709B809B909B60A0319EA
:100DE800B70A0319B80A0319B90A3908AF0038084D
:100DF800AE003708AD003608AC0008005308AD0057
:100E08005208AC004D08AF004C08AE000800D900ED
:100E18002100A001A1012300BE01BF0108003F0875
:100E2800F0390138BF002200D801D80AD701D6010D
:100E38000800F8390438D9002100A001A1012200D6
:100E48000800AD01AE01AF01B000B101B201B301BC
:100E58000800C1002200DF01DF0ADE01DC01080012
:100E6800F8390138C1002200DF010800BF00220064
:100E7800D801D701D70A0800BA00BA0C3A0C0339CE
:100E8800033A0800003021002102C934803AFF00EB
:100E980080307F020800003020004D020534982F72
:100EA800A5278731AA0026001D082100AB00AB2F1B
:100EB8000230E50026001C082100AC0026001D08B1
:100EC8002100AD00053026009E000800A5278731C7
:100ED800AE0026001D082100AF002F082200C30025
:100EE80021002E082200C20021002A082200C20286
:100EF80021002B082200C33B21002D082200E80016
:100F080021002C082200E70021002A082200E7021D
:100F180021002B082200E83B21002F08AB002E08F7
:100F2800AA00AB2FE501080022006508003A031962
:100F3800542F013A03195C2F033A03196A2F962F8D
:100F48000800E501E50A26001C0821000800043015
:100F580026009E00080021006430D70A5702031CAF
:100F6800B92FD70122000E1008005A085702031C97
:100F7800080022000E140800640080010131890B6A
:0A0F8800C12F00342100DD0A08002B
:101052004C30FD01F801F901FA01FB01FC018400A9
:101062000030850015308731C0278831A0308400D8
:101072000030850043308731C0278831203084001A
:101082000130850049308731C0278831A030840083
:10109200013085002F308731C0278831220080300F
:1010A200E9003830EA000130EB00EC01ED00EE001F
:1010B20020005B28E5238831043026228831210074
:1010C200E001C2298C1721005D08E0000530C30A47
:1010D200C20A4302031C1029C3014822883164005A
:1010E2005723D80022004308C5004208C4004D0817
:1010F2002000CD0022004C082000CC0021005836F0
:101102002D3E80310A0088312200C6000030C7011E
:10111200210031025C300319300203189A28023090
:10112200290270300319280203189A283108EA2785
:1011320088310030210031025D3003193002031C76
:10114200A92829082000D500210028082000D40061
:10115200023021002902713003192802031CB4282D
:101162003108EA2788312000BA27D600D7012200A9
:101172004B082000D30022004A082000D200003091
:101182007C1801302100D100CC018031B620883199
:101192002100E3012000DE08031DD2281722883136
:1011A200D4282825883120006008C0000730C036C6
:1011B200890BD82840080038031D0F292100500848
:1011C20020005F10031D5F1421004A082000DF1079
:1011D200031DDF1421004B082000DF13031DDF175E
:1011E20021004E0820005F11031D5F1521004F08EA
:1011F2002000DF11031DDF1521004D0820005F12C2
:10120200031D5F162200630820005F13031D5F1792
:10121200220062082000DF12031DDF167C1021006D
:101222004208193A031D19294B228831D4268831E4
:1012320021004208323A031D3F2920005F08B7000F
:1012420021003C08283C2000B80022003A08200077
:10125200B90022004C082000BA007C08BB00220022
:1012620046082000BC0021005A082000BD002100D1
:101272005B082000BE002A30D521883142084B3A53
:10128200031D7529220066082000B70021005808B6
:101292002000B800220043082000B9005E08BA000E
:1012A200210055082000BB00210031082000C100A8
:1012B200210030082000C000C136C00CC136C00C6D
:1012C2004008BC00210029082000C3002100280892
:1012D200D5278831BD005508C5005408E327883159
:1012E200BE002B30D521883165304202031CC22951
:1012F2001430C2015402031CD40A54082000B7005F
:10130200BA278831B80022003D082000C30022001D
:101312003C08D5278831B90022003F082000C500CB
:1013220022003E082000E3278831BA00220041084B
:101332002000C700220040082000C600C736C60CA5
:10134200C736C60C4608BB00220049082000C90067
:10135200220048082000C800C936C80CC936C80C8B
:101362004808BC005108CB005008CA00CB36CA0C52
:10137200CB36CA0C4A08BD005208BE002C30D5211B
:10138200883121005D082000C000C1014108C3006E
:101392002100600820004002C200031CC303430472
:1013A200031D63288C13C229BF00DB1DD62902301E
:1013B200AC00053023228831DD0086000130870031
:1013C20037088100DD0A5D08860038088100DD0AE1
:1013D2005D08860039088100DD0A5D0886003A084A
:1013E2008100DD0A5D0886003B088100DD0A5D0898
:1013F20086003C088100DD0A5D0886003D08810008
:10140200DD0A5D0886003E0881000830DD0AAD0075
:101412003E30AE005830AF01B000B1013F08122794
:101422005B082100BD00F030BD0508007C1F0800EC
:1014320022008E108E110E122500951391017C133D
:10144200FC1308002C08C43E08002000AC00362A19
:10145200950108009601970108009A0108002800EA
:101462009501080028009C0108002C08003A031985
:10147200292A013A03192B2A033A03192E2A063A7A
:101482000319302A023A0319332A472A080046234D
:1014920088319F2F20006008AD000730AD36890BE0
:1014A2004F2A2D08013A031D1D2B6008AD0005309F
:1014B200AE01AD35AE0D890B5A2A0530FF002E0D57
:1014C200AE0CAD0CFF0B602A2D08073A2E04031D4B
:1014D200732A583041238831DD27DF115F125F13F1
:1014E200DF1608006008AD000530AE01AD35AE0D67
:1014F200890B772A0530FF002E0DAE0CAD0CFF0BC9
:101502007D2A2D08063A2E04031D9B2A21304123F1
:10151200883120005F10DF14DF135F11DF115F12CB
:10152200982A423041238831DD27DF115F165F138D
:10153200DF1208006008AD000530AE01AD35AE0D1A
:10154200890B9F2A0530FF002E0DAE0CAD0CFF0B50
:10155200A52A2D08053A2E040319922A6008AD0027
:101562000530AE01AD35AE0D890BB32A0530FF0053
:101572002E0DAE0CAD0CFF0BB92A2D08043A2E0429
:10158200031DCA2A373041238831DD278831DF1510
:10159200902A6008AD000530AE01AD35AE0D890B65
:1015A200CE2A0530FF002E0DAE0CAD0CFF0BD42A57
:1015B2002D08033A2E04031DE72A2C3041238831DB
:1015C20020005F10DF10DF135F158F2A6008AD0067
:1015D2000530AE01AD35AE0D890BEB2A0530FF00AB
:1015E2002E0DAE0CAD0CFF0BF12A2D08023A2E0483
:1015F200031DFD2A4D306B2A6008AD000530AE0197
:10160200AD35AE0D890B012B0530FF002E0DAE0C52
:10161200AD0CFF0B072B2D032E04031D172B1630C9
:101622004123883120005F14DF108D2A0B304123C3
:10163200883120005F10152B5F1F212B5830412B62
:1016420021004A080319272B2130412B4D08031989
:101652002C2B4230412B4F080319312B3730412BB1
:101662004E080319362B2C30412B2000DF1E3B2B5A
:101672004D30412B5F1C3F2B1630412B0B30412B41
:101682002000AC002100DA0008006235A03E86008E
:101692000130870020004E08C03F4F08C13F08308C
:1016A2002100E20A62020318E20108002200420855
:1016B2002000B500220043082000B600B701220036
:1016C20067082000AC00220068082000AD00C83086
:1016D200AE01AF00B001B101C82388312C08B800B7
:1016E2002D08B9002E08BA0096238831350821004A
:1016F200D900D908031D8A2B22000530E40A6402AE
:10170200031C922B21005908D50020008C178C1342
:10171200922B2200E40121005908D5002200E701A2
:10172200E80121005508C83C0800BB01BC01BD010D
:101732003708360435040319C12BBE01BE0AB71B94
:10174200A62BB535B60DB70D9F2BBB35BC0DBD0D08
:1017520037083A02031DB32B36083902031DB32B97
:1017620035083802031CBC2B3508B8023608B93BD1
:101772003708BA3B3B14B736B60CB50CBE0BA62BDA
:101782003B08B5003C08B6003D08B7000800B201AE
:10179200B301B4012C1CD32B2F08B2073008B33D80
:1017A2003108B43DAF35B00DB10DAE36AD0CAC0C59
:1017B2002E082D042C04031DCB2B3208AC00330859
:1017C200AD003408AE000800813021009500E3012D
:1017D200E30A8B138B01910192019301C301C201B0
:1017E200D40197248831622488317D248831AA2447
:1017F20088310130132488310430132488310630B3
:10180200132488310530B0248831562488315F246E
:10181200883100304C2488312100DB0006250B176B
:101822008B1708002000AD003A2C003026228B12C4
:101832000800013026227530200098002100111086
:10184200080002302622073020009C00210091105F
:101852000800043026220E3028009700210093143D
:10186200080006302622053028009E00210093152C
:1018720008002D08003A0319162C013A03191A2CF4
:10188200033A0319222C063A03192A2C023A0319A5
:10189200322C4B2C0800AC00230091009513151339
:1018A200151413082000AD000800A03021009E008E
:1018B2009D0130301D142200970408002000DF0132
:1018C200080020008E12AC01682C000000002000ED
:1018D200AC0B662C8E16AD01702C000000002000AF
:1018E200AD0B6E2C8E12AE01782C00000000200091
:1018F200AE0B762C8E1608009F3023009B00013021
:101902009C0026309E0090309D0048309F002100B0
:10191200110823002730953104252100C801200039
:10192200DB012100C9012000DB150800273023005C
:101932008C0029308D0022008C018D018E01200047
:101942007F308E1621008C00F9308D0080308E00A1
:101952000800F030210099001130970008002000A3
:10196200AC002100D9012200E401F32C25009301EF
:10197200910192012100111520000530111125005D
:101982009300080025009A01980199012100121480
:1019920020000530121025009A000800260093014D
:1019A2009101920121001316200005301312260026
:1019B2009300080026009A019801990121009316CC
:1019C20020000530931226009A00080026009E018E
:1019D2009C019D01210013172000053013132600DE
:1019E2009E00080020002C08013A0319B72C033A84
:1019F2000319C32C013A0319CF2C073A0319DB2C24
:101A0200013A0319E72C052D0800250096018030C4
:101A12002200910092012100873092122500940049
:101A220095010C3093009101210004301210250021
:101A32009A00FF3098009900643020009B00053026
:101A42009C0028302100D2009114FC01282D7C1B1F
:101A52000800A630FC122100B200B3012000DC0114
:101A6200DC0A2100B601B7012000DE01F801F9010C
:101A72002100A601A7012200BA01BB01250096019F
:101A82002830FC157C172100DC0025009101210083
:101A9200E1014B2D003037020A30031936020318D8
:101AA200552DB60A0319B70A3B35203E8600013090
:101AB20087007808C03F7908C13F0730BB0ABB05E1
:101AC2002E3086002C30840001308500220024084C
:101AD20022072000B20022002508233D2000B30087
:101AE2002200260820003207B40022002708200026
:101AF200333DB5002200280820003407B60022003A
:101B020029082000353DB70022002A0820003607A8
:101B1200B80022002B082000373DB900003F3807EB
:101B2200BA00013F393DBB00403F3A07BC00413F8C
:101B32003B3DBD002200200820003C072200CC00D3
:101B4200210820003D3D2200CD007908CF00780811
:101B5200CE00FC122100E101E10AFC17FC1DF52D6B
:101B620022004F082000AD0022004E082000AC00E9
:101B72006430AD36AC0CAD36AC0CAD36AC0CAE0050
:101B8200AF018531792588312D082100B50020006B
:101B92002C082100B4000730B536B40C890BCD2DCA
:101BA20079083502031DD72D780834020318E22D77
:101BB2007908A7007808A6003408A6023508A73BD2
:101BC200E42DA601A701B22788310030210033029B
:101BD200223003193202031CF12DB336B20C192E36
:101BE2002130B200B301192E7D1CFA2DA601A701E6
:101BF200002E7908A7007808A600A736A60CA60131
:101C0200A701B22788314D302100B2000130B30064
:101C12007C1F172E2500110820005E020318142EC7
:101C220025009103192E2500910A192E25009101F4
:101C3200F801F90120005C08FF3A031DB92E0630B5
:101C4200DC00B92E0130250096007C1F2B2E2200CD
:101C5200FB278831220009300D118D102100D6009A
:101C62002530DE01DE0ADF000230220092008430DD
:101C7200910006309C2E0130250096007C1F442ED8
:101C82002200F1278831220009300D158D10210024
:101C9200D6000530DE01DE0ADF00013022009200AC
:101CA200943091007D102000DC01DC0ACD2E023040
:101CB200250096007C1F602E2200F6278831220024
:101CC20035300E118D102100D6000530CB2788311A
:101CD2008430910002309C2E0230250096007C1F39
:101CE200752E2200FB278831220035300E118D140B
:101CF2002100D6000530DE002530DF000230220050
:101D02009200943091000330B02E043025009600EA
:101D12007C1F8E2E2200F1278831220011300E11F5
:101D2200D1278831DE000530DF0001302200920029
:101D32008430910004307D14B12E043025009600C9
:101D42007C1FA62E2200F6278831220011300E15A4
:101D5200D1278831CB2788319430910005307D100E
:101D62002000DC00CD2E2500960122009101532E89
:101D72005C08013A0319232E033A03193C2E013A57
:101D82000319582E073A03196D2E013A0319862EAC
:101D9200033A03199E2EB42E28302100D200F801F6
:101DA200F9017C1608002000DB1DD42E0230B7009A
:101DB200B8000530FE268831DB1DDD2E5B082100D0
:101DC200BD00F030BD05031D080020000530AC0148
:101DD20023228831DD0086000130870001082300BC
:101DE200B000C4278831B100C4278831B200C427AB
:101DF200B30030082000E0000800DB1D08003808AE
:101E02002100C6002000DB142200B001B101200035
:101E12001E30AD01AE002A30AF01B000B10137086B
:101E2200122FB200B3000F30DB050D302200B600D6
:101E32001330B7012300C000C10120002F08220087
:101E4200B50020002E082200B40020003108220034
:101E5200B300200030082200B2002000DB1D080081
:101E620055302300C400200033087927883123002D
:101E7200C5002100C4012000DB1C432F02302100D9
:101E8200C5006A2F2D08023E2100C5002000023045
:101E9200B401B501B600210045082000360203183E
:101EA2005D2F3608C43E8600013087000108B40762
:101EB2000318B50AB60A4C2F21004508C43E860015
:101EC20001308700200035083407FF3A81002100E5
:101ED200C50A2300FF309E159A000F302000DB0553
:101EE2005B142100C9144915C7012000DB11080049
:101EF200AC003F30AC052C1C802F4030AC06AC1C33
:101F0200842F4030AC062C1D882F4030AC062C1E8E
:101F12008C2F4030AC06AC17AC1C912F8030AC0635
:101F2200AC1D952F8030AC062C1E992F8030AC064C
:101F3200AC1E9D2F8030AC062C0808007A082200C7
:101F4200B8077B08B93D3908CB003808CA0006300B
:101F5200CB36CA0C890BA92F4A08B8024B08B93BE9
:101F6200080027082200BB00210026082200BA0030
:101F720008004F08C1004E08C000C136C00CC1366F
:101F8200C00C400808002000DD0A5D088600010838
:101F920023000800DE00DF01DF0A220092010800B0
:101FA2000D112100D60025342000C200C336C20C18
:101FB200C336C20C4208080020005F10DF10DF1396
:101FC2005F110800C400C536C40CC536C40C4408F1
:101FD20008002000D500210030082000D4000800AD
:101FE2000E08E53912388E0008000E08E539183857
:0E1FF2008E0008000E08E5390A388E0008003F
:1028280023009E199A2C2000911E9A2CDB1D312C16
:1028380023001D080639031D9A2C1908803A031D28
:102848009A2C27300425943119082100C700C91E85
:102858002F2CC9129A2C49149A2C5B1C6D2C23001E
:102868001D08063903193C2C21004408031D742C4B
:1028780021004408023A0319C91048080319462CD4
:10288800C8039A2C47082300190603194D2C6C30ED
:10289800982C210045080319632C230019082100EE
:1028A800C7004408C43E8600013087000108C700FD
:1028B80023009A002100C5032100C40A9A2C200095
:1028C800DB1C6A2C5B102100C4019A2C21004911E1
:1028D800972CDB1C9A2C23001D0806390319762C2B
:1028E8007C30982C2100460803198E2C4408C43EDD
:1028F8008600013087002300190881002100C603E3
:10290800230019082200B0070318B10A311C602CF3
:10291800B00A602C2300190A2200B00730080319F6
:10292800972C5C30982C0830F42494312000DB1963
:10293800DA2C2100491DD32CC91CB72C22003708DA
:1029480036040319AB2C0130B6020030B73B230024
:10295800410840040319B52C0130C0020030C13BC6
:10296800BF2C2C30BD2C2200370836040319BF2C8D
:102978001C30F42494312200350834040319C82C7F
:102988000130B4020030B53B330832040319D12CAE
:102998000130B2020030B33B08004C30F42C220066
:1029A80035083404031908003C30F42C2100C91AF6
:1029B800080023003B083A04390438040319F12CB1
:1029C8000130F100F201F301F401B8027208B93BD9
:1029D8007308BA3B7408BB3B08002100491708007C
:1029E800F000230019082100C700C9012200B00126
:1029F800B10170082000DB002300273004250800FF
:102A0800BB01BA01B900BB30B8000800F80A0319C5
:102A1800F90A790821003302031D142D78083202BF
:102A28000318182D3B269531003037020A30031958
:102A380036020318FC11DF2795312200111F272DBC
:102A48002100D301D42D2100D301D30AD42D2D3058
:102A58009D002226953121009D141126953171087B
:102A6800B1007008B00031309D0022269531210058
:102A78009D142100E10AE12D56089D001B08200045
:102A8800CE0021001C082000CF000000000000003C
:102A9800000000000000000000000000000000002E
:102AA800000000000000000000003B2D11269531B9
:102AB8007108FB007008FA00732D7B082200BD0026
:102AC8007A08BC007E2D7B082200BF007A08BE0071
:102AD8007E2D7B082200C1007A08C0007E2D560892
:102AE800093A0319612D183A03196D2D243A03196F
:102AF800672D7E2D01307B02053003197A02031CF5
:102B0800892DE5307C1422008E0521005F08382DC0
:102B18001B082000D00021001C082000D100210043
:102B28009D147C1FAB2D20005E080319AB2D7D1C66
:102B3800B42D5008643EF6000030513DF7004F08B0
:102B48007702031DA92D4E0876020318E12D2100F6
:102B5800E10A5E089D002226953121009D14E12D91
:102B6800003051021F30031950020318AB2DE12D1C
:102B78005208BC00D2011126953171082200C90003
:102B88007008C800753021009D00222695313D2D22
:102B98009D14112695317108A9007008A8003D2DD3
:102BA8006108FF3E031CE12D84000A30040203186B
:102BB800E12D80310435923E82007C1FF52DFC1DED
:102BC800F72D78080339031DF72D2500110821007A
:102BD8005C020318F22D25009103F72D2500910AB8
:102BE800F72D250091012100D208031D0F2E53084F
:102BF800031DFC1A002EFC16FC1E080027082604DC
:102C0800031D0A2EFC1908003B260800FF30A60702
:102C1800031CA7030800D2030800F2019D1C192E0B
:102C28004130F20A7202031C122E1C08A5001B0870
:102C3800A4002508F1002408F000080000000000A6
:102C4800000000000000000000000000000000007C
:102C5800000000000000000000000000000000006C
:102C68000000000000000000000000000800003024
:102C780037020A30031936020318452EB60A03191B
:102C8800B70A3B35203E8600013087007808C03FF0
:102C98007908C13F0730BB0ABB052E3086002C30AF
:102CA8008400013085002200240822072000A000AB
:102CB80022002508233D2000A1002200260820002C
:102CC8002007A200220027082000213DA30022009F
:102CD800280820002207A400220029082000233DFC
:102CE800A50022002A0820002407A60022002B089D
:102CF8002000253DA700003F2607A800013F273DEB
:102D0800A900403F2807AA00413F293DAB00220007
:102D1800200820002A072200CC00210820002B3D93
:102D28002200CD007908CF007808CE00FC122100DF
:102D3800E101E10AFC17FC1DE02E22004F08F1001A
:102D48004E08F0006430F136F00CF136F00CF13634
:102D5800F00CF200F301CA27953171082100B50083
:102D68007008B4000730B536B40C890BB72E790853
:102D78003502031DC12E780834020318CC2E7908B9
:102D8800A7007808A6003408A6023508A73BCE2E6F
:102D9800A601A7018F31B2279531003021003302F7
:102DA800223003193202031CDC2EB336B20C052F75
:102DB8002130B200B301052F7D1CE52EA601A70125
:102DC800EB2E7908A7007808A600A736A60CA6015E
:102DD800A7018F31B22795314D302100B200013063
:102DE800B3007C1F032F2500110820005E02031882
:102DF800002F25009103052F2500910A052F250096
:102E08009101F801F90120005C08FF3A031DAF2F7A
:102E18000630DC00AF2F0130250096007C1F182FEC
:102E280022008F31FB279531220009300D118D10BA
:102E38002100D6002530DE01DE0ADF000230220044
:102E480092008430910006308F2F013025009600C3
:102E58007C1F322F22008F31F12795312200093053
:102E68000D158D102100D6000530DE01DE0ADF00C9
:102E7800013022009200943091007D102000DC0186
:102E8800DC0AC32F0230250096007C1F4F2F22003A
:102E98008F31F6279531220035300E118D10210023
:102EA800D60005308F31CB27953184309100023020
:102EB8008F2F0230250096007C1F662F22008F314D
:102EC800FB279531220035300E118D142100D600D4
:102ED8000530DE002530DF000230220092009430F9
:102EE80091000330A62F0430250096007C1F802F08
:102EF80022008F31F1279531220011300E118F31C8
:102F0800D1279531DE000530DF0001302200920024
:102F18008430910004307D14A72F043025009600DA
:102F28007C1F9A2F22008F31F6279531220011300D
:102F38000E158F31D12795318F31CB2795319430AC
:102F4800910005307D102000DC00C32F250096017C
:102F580022009101412F5C08013A03190F2F033A0F
:102F68000319292F013A0319462F073A03195D2F30
:102F7800013A0319772F033A0319912FAA2F283002
:102F88002100D200F801F9017C160800F401F501CE
:102F9800701CD22F7208F4077308F53DF235F30D53
:102FA800F136F00C71087004031DCC2F7508F10080
:102FB8007408F00008000000000000000000000095
:102FC80000000000000000000000000000000000F9
:102FD80000000000000000000000000000000000E9
:102FE80000000000000000000000000000000000D9
:082FF8000000000000000800C9
:020000040001F9
:04000E00FCFFFFDB19
:00000001FF
