:1000000080312728FF3FFF3F803120001118111059
:10001000931C0F2893108731C8278031D90A2000FC
:10002000911C162891109C31002480312000931DD2
:100030001D2893119731022780312000131F232898
:1000400013139931A52120001218121009008801FC
:100050009231692A00346E346E346E3400340034C8
:1000600000340034003400340034D334D334D33477
:10007000D034CE34CC34C934C734C534C334C1349D
:10008000BF34BD34BB34BA34B834B634B434B2340B
:10009000B134AF34AD34AC34AA34A934A734A63467
:1000A000A434A334A234A0349F349D349C349B34B4
:1000B0009A349834973496349534943492349134F5
:1000C00090348F348E348D348C348B348A3489342C
:1000D000883487348634853484348334823481345C
:1000E00080347F347F347E347D347C347B347A3486
:1000F0007A347934783477347734763475347434A8
:1001000074347334723472347134703470346F34C4
:100110006E346E346E346E346E346E346E346E34CF
:100120009A31AE2A9A31B02A9A31B62A9A31B82A2F
:100130009A31BA2A9A31BC2A9A31BC2A9A31BC2AFD
:100140009A31BC2A9A31BC2A9C312F2C9C31472CE5
:100150009C31622C9C31972C9C31442C9C31442C3A
:100160009C31442C9C31A92C9C31B02C9D31522DBA
:100170009E31962E9E31982E9E319E2E9E31A02E1F
:100180009E31A22E9E31A42E9E31A42E9E31A42EED
:100190009E31A42E9E31A42E883185288831852851
:1001A00088318528883185288831852888318528B7
:1001B0008831852888318528220062083B3A031D52
:1001C000E32D20005208D8005208803A0319042970
:1001D000103A03191429013A03198629023A03191E
:1001E000C629073A0319422A013A0319992A0D3AF6
:1001F0000319742C073A0319202D3F3A03196E2D69
:100200005A3A0319CF2DE12D5808803A031D0800F2
:100210009030D80022003A30ED01ED0A2000B700FE
:1002200080303B278031092E5808903A031D080082
:100230005529F030E62580312100B400F130E62563
:1002400080312100B500F230E62580312100B60072
:10025000F330E62580312100B7000230B301B2014E
:100260002200ED005E29EB30E62580312100B4004C
:10027000EC30E62580312100B500ED30E6258031F7
:100280002100B600EE30E62580312100B700EF30C6
:10029000E62580312100B3009130B2012000D80062
:1002A0005E299030692780315E2922006D08013A6D
:1002B00003191929033A0319332951292100340854
:1002C000FF3A03197F293508FF3A03197F293608B9
:1002D000FF3A03197F293708FF3A03197F293308AA
:1002E000FF3A03197F293208FF3A03197F293A3070
:1002F0008E26803144278031BE001030092E7F3099
:100300002000B700903013278031092E5808913A09
:10031000031D0800F430E62580312100B400F530DB
:10032000E62580312100B500F630E6258031210038
:10033000B600F730E62580312100B700F830E62519
:10034000803164278031031DBB293508FF3A031D26
:10035000BB293608FF3A031DBB293708FF3A031DA6
:10036000BB293308FF3A031DBB293A308E26803162
:100370001C278031C1297F302000B7005208132785
:100380008031092692302000D80008005808933A9E
:10039000031D0800792780312D082300BE002000AE
:1003A0002C082300BD00FF305E27803115140000AB
:1003B0000000230014082400BB00230013082400BD
:1003C000BA00FE3023005E278031151400000000C3
:1003D000230014082400BD00230013082400BC00DF
:1003E0000430383E8600023087003A082000C20000
:1003F000C101403F41072400B800413F2000423D79
:100400002400B9003A082100B60024003C0821006D
:10041000B70023003E082100B30023003D0821005F
:10042000B20023003E0824003906031D1B2A2300C6
:100430003D0824003806031D302A3A302000B7005A
:100440005208B800B901B90ABA01210036082000E3
:10045000BB00210037082000BC00442780313B2A24
:100460007F302000B7005208B800FF30B900BA0052
:10047000BB00BC00BD00BE00103009269430200037
:10048000D80008005808943A031D080051082200BB
:10049000E400E408031D4E2A6F30E40023004808FE
:1004A0002000C200230047082000C100C236C10C52
:1004B000C236C10C41082100B40022006408FD3E90
:1004C0002000C100FF3003180030C200803AC30092
:1004D00080304302031D702A2100340820004102AD
:1004E00003188E2A22006408033E2000C100003059
:1004F00003180130C200803A803C031D822A410863
:100500002100340203188E2A3A302000B700BA26A0
:1005100080311030BA0159278031942A7F30200071
:10052000B700520813278031092695302000D800E3
:1005300008005808953A0319632C722C943134241E
:1005400080310B138B1325009301220035300D15DC
:100550008E158E100E1221009D00A001B12A000000
:1005600000002100A00BAF2AA101B82A0000000062
:100570002100A10BB62AA201BF2A00000000210021
:10058000A20BBD2AA301C62A000000002100A30B74
:10059000C42AA401CD2A000000002100A40BCB2A0C
:1005A000A501D42A000000002100A50BD22A923117
:1005B0003822803121009D149231512280312D0842
:1005C0002300E40020002C082300E3003108E302AC
:1005D000031CE403220009300E158E148E110E1236
:1005E00021009D00A601F62A000000002100A60BB4
:1005F000F42AA701FD2A000000002100A70BFB2A16
:10060000A801042B000000002100A80B022BA90167
:100610000B2B000000002100A90B092BAA01122BB3
:10062000000000002100AA0B102BAB01192B0000C9
:1006300000002100AB0B172B9231382280312100B2
:100640009D149231512280312D082300E2002000B8
:100650002C082300E1003008E102031CE203220021
:1006600011308D140E168E108E1121009D00AC01DC
:100670003B2B000000002100AC0B392BAD01422BBD
:10068000000000002100AD0B402BAE01492B000003
:1006900000002100AE0B472BAF01502B00000000E3
:1006A0002100AF0B4E2BB001572B000000002100A2
:1006B000B00B552BB1015E2B000000002100B10BE7
:1006C0005C2B92313822803121009D1492315122CD
:1006D0002D082300E60020002C082300E500320846
:1006E000E502031CE603E53022008E050C302500F0
:1006F00093000B178B172100EA01EA0A0800230078
:100700002F27803123278031612680312D08B300C7
:100710000230F12580312F27803123278031612657
:1007200080312C08B3000330F12580310330E625F9
:100730008031C1000230E62580312200E80020002F
:1007400041082200E70021006A08B4002300620883
:100750002000AD00230061082000AC0022006808E2
:100760002000AF00220067082000AE004C26803138
:100770002D082100B600220068082100B7002200E1
:100780006708C1268031A326803109260230210066
:10079000EA000800230029278031232780316126C1
:1007A00080312D08B3000430F125803129278031B4
:1007B00023278031612680312C08B3000530F125D4
:1007C00080310530E6258031C1000430E6258031D6
:1007D0002200EA00200041082200E90021006A0806
:1007E000B400230064082000AD002300630820004B
:1007F000AC0022006A082000AF0022006908200037
:10080000AE004C2680312D082100B60022006A0877
:100810002100B70022006908C1268031A32680315B
:10082000092603302100EA00080023003527803123
:1008300023278031612680312D08B3000630F12551
:1008400080313527803123278031612680312C0883
:10085000B3000730F12580310730E6258031C10033
:100860000630E62580312200EC00200041082200FD
:10087000EB0021006A08B400230066082000AD00E8
:10088000230065082000AC0022006C082000AF00A7
:1008900022006B082000AE004C2680312D0821007C
:1008A000B60022006C082100B70022006B08C126A8
:1008B0008031A3268031092698302000D800080016
:1008C00020005208692F21006A08003A03199E2A65
:1008D000013A03197F2B033A0319CA2B013A031972
:1008E000152C602C5208692F5808983A031D0800EF
:1008F00051082100EF0020005108013A03198A2C09
:10090000023A0319AF2C073A0319D42C013A031900
:10091000F92C1E2D54278031031D08005108210099
:10092000B4009431F6248031E82680314C268031A1
:10093000052780310A008431D82680310318AC2C79
:100940002100C52680310318AC2C3A308E26803128
:100950001030BD01BE01092EF7268031092E542723
:100960008031031D080051082100B4009431F624A1
:100970008031E82680314C268031052780310A00FD
:100980008431D82680310318D12C2100C52680312E
:100990000318D12C3A308E2680311030BD01BE01B3
:1009A000092EF7268031092E54278031031D0800B7
:1009B00051082100B4009431F6248031E8268031BA
:1009C0004C268031052780310A008431D8268031B9
:1009D0000318F62C2100C52680310318F62C3A3076
:1009E0008E2680311030BD01BE01092EF7268031E0
:1009F000092E54278031031D080051082100B4003E
:100A00009431F6248031E82680314C268031052748
:100A100080310A008531D826803103181B2D210032
:100A2000C526803103181B2D3A308E2680311030B8
:100A3000BD01BE01092EF7268031092E5208692F0B
:100A400058089F3A031D080051082200EE00552D5A
:100A5000373086268031200037305410D410D4131C
:100A60005411D41554125413D4122100B500083077
:100A7000B40003302200EE005D2D4D30862680311B
:100A800020004D304C278031D4162100B500B40130
:100A9000B40A2200EE01EE0A5D2D0B30862680316D
:100AA00020004C278031D4125D2D6E08023A0319C4
:100AB0003D2D063A0319282D4D2D21003A30B7015E
:100AC000B301B2012000B700BA26803121003508F9
:100AD0002000BA00103059278031092E5808A03A5A
:100AE000031D08005108B300F430F12580312200C5
:100AF0005E082000B300F530F125803122005F0848
:100B00002000B300F630F12580312200600820007B
:100B1000B300F730F1258031220061082000B300D6
:100B2000F830F1258031F430E62580312100B40021
:100B3000F530E62580312100B500F630E62580311C
:100B40002100B600F730E62580312100B700F830EB
:100B5000E6258031642780310319C42D3508FF3A1A
:100B60000319C42D3608FF3A0319C42D3708FF3A7C
:100B70000319C42D3308FF3A0319C42D3A308E26C9
:100B800080311C278031CA2D7F302000B7005208E9
:100B9000132780310926FA302000D80008005808B1
:100BA000FA3A031D08003A30B70052083B2780315B
:100BB0000926803155302000B300F12520008E1227
:100BC00008005808692F20005808692F2000AC0041
:100BD0002300910095131513151413082000AD0080
:100BE0000800B40023009100200033082300930084
:100BF00055301513951315158B139600AA309600D2
:100C000095148B1715112300951C08000000000097
:100C1000032EBF00CF1D0A2E0230AC0005308B26FC
:100C20008031D00086000230870037088100D00A6A
:100C30005008860038088100D00A5008860039081C
:100C40008100D00A500886003A088100D00A500876
:100C500086003B088100D00A500886003C088100CD
:100C6000D00A500886003D088100D00A500886004E
:100C70003E0881000830D00AAD005530AE00773014
:100C8000AF01B000B1013F08963137264F0822006E
:100C9000BD00F030BD050800B001B1012C1C542E80
:100CA0002E08B0072F08B13DAE35AF0DAD36AC0CF8
:100CB0002D082C04031D4E2E3108AD003008AC0069
:100CC0000800B101B2012D082C040319812EB001D6
:100CD000B00AAD1B6E2EAC35AD0D682EB135B20D20
:100CE0002D082F02031D762E2C082E02031C7D2EAC
:100CF0002C08AE022D08AF3B3114AD36AC0CB00B56
:100D00006E2E3208AD003108AC0008002000AC00A7
:100D10002200D60008002C08623E08002000B70020
:100D20005208B800210034082000B900210035081D
:100D30002000BA00210036082000BB00210037083F
:100D40002000BC000800B7005208B8002100340899
:100D50002000B900BA01210036082000BB002100A4
:100D600037082000BC00210033082000BD001030EF
:100D7000BE0108005208B800210034082000B90064
:100D800008002100B30020003A343708FD3E20005F
:100D9000C100FF3003180030C200803AC300803029
:100DA0004302031D0800210036082000410208000C
:100DB000B700033E2000C100003003180130C2001C
:100DC000803A803C031D08004108210036020800DB
:100DD00089362100B500220033082000AD00220032
:100DE00032082000AC000530AE00AF0108007F30B3
:100DF0002000B7005208B8005108B900FF30BA000F
:100E0000BB00BC00BD00BE0010342C08C1002D0882
:100E1000C200C236C10CC236C10C41082100B60066
:100E200035082B3E0800B800FF30B900BA00BB00FF
:100E3000BC00BD00BE001034210033082000BD00FE
:100E40001030BE0108002000AC007830AE01AF00C9
:100E5000080064082000AD00230063080800620851
:100E60002000AD0023006108080066082000AD00E6
:100E7000230065080800B8001030B901BA01BB01B1
:100E8000BC01BD01BE010800210033082000BD00E7
:100E900021003208200008005410D410D41354113B
:100EA000D41154125413080021006F082000510679
:100EB0000800BB01BC01BD01BE01080091001F304C
:100EC00092001511951708002100B3003408FF3A6D
:100ED00008002000C000FF30D1002200DE00DF004B
:100EE000E000E1007F302000B70040081327803188
:100EF000092EFE30B201B301B001B101AE001F30C6
:100F0000AF000130AE020030AF3B2E0A03192F0AAA
:100F10000319A22F32082300910020003308230078
:100F200092001511951715140000000023001308F6
:100F30002000B007230014082000B13DB20A0319B5
:100F4000B30A812F3108AD003008AC000800000062
:100F50000000000000000000000000000000000091
:100F60000000000000000000000000000000000081
:100F70000000000000000000000000000000000071
:100F80000000000000000000000000000000080059
:100F900022006430D30A5302031CD12FD3010E1058
:100FA00008005608530203180E140800640080015C
:100FB0000131890BD72F0034D90A0800FF3FFF3FCA
:100FC000FF3FFF3FFF3FFF3FFF3FFF3FFF3FFF3F31
:100FD000FF3FFF3FFF3FFF3FFF3FFF3FFF3FFF3F21
:100FE000FF3FFF3FFF3FFF3FFF3FFF3FFF3FFF3F11
:100FF000FF3FFF3FFF3FFF3FFF3FFF3FFF3FFF3F01
:10100000FF3FFF3FFF3FFF3FFF3FFF3FFF3FFF3FF0
:10101000FF3FFF3FFF3FFF3FFF3FFF3FFF3FFF3FE0
:10102000FF3FFF3FFF3FFF3FFF3FFF3FFF3FFF3FD0
:10103000FF3FFF3FFF3FFF3FFF3FFF3FFF3FFF3FC0
:10104000FF3FFF3FFF3FFF3FFF3FFF3FFF3FFF3FB0
:10105000FF3FFF3FFF3FFF3FFF3F69280030250272
:10106000333003192402031C3F284008F83905389F
:10107000C0002300DC012200A401A5017E2822007B
:10108000A40A0319A50A7E28F4258831400C5927A3
:101090008831031D3F287E28F42588317E280030C2
:1010A0002502103031284008F8390338C0002300E9
:1010B000DC017E284008F83906386728C01A7E28E7
:1010C000C0166F0803197E284008F8390438C0009C
:1010D0003B2840080739013A03195A28033A0319F3
:1010E0005328013A03194C28073A03192E28013ACC
:1010F00003194428033A03194F285E2821006C087D
:10110000E40022003F1A8828962851268831A0281A
:101110003F080F39FF3E031CA0288400083004025A
:101120000318A02880310435CC3E82003F166F0B97
:101130009A289B28A0284F278831D8012200BB017C
:10114000230058082200CB002100E51DC828651E99
:10115000B5286508F8390238E500DE30220034028F
:101160000318CF28C6268831CF28E51EC128650878
:10117000F8390338E5003230220034020318B2286F
:10118000CF28651FCF286508F8390138E500B22857
:10119000E51522006F0BCF28210069278831210037
:1011A000B10123005B080319DC282200BC08031DE1
:1011B000DC282100B101B10A21003108B000E31C94
:1011C000F028513023005302031CEE282100E310C5
:1011D000E3152300D501D401D6012029D30A8329A0
:1011E000631DF5286311E3148329E31D09290030E9
:1011F00023004C02483003194B02031883292100B5
:10120000E31163162300D501D50AD401D40AD6010F
:101210008329631E1629003023004C02BA300319BB
:101220004B02031C832921006312E82863188329D9
:10123000631422006F08031983292100631523001A
:10124000D301832900302302333003192202031C07
:1012500030293E08F8390538BE00BA01B90199298C
:101260002200A20A0319A30A9929092688313E0CF3
:1012700059278831031D3029992909268831992950
:1012800000302302C93003192202031C5229220014
:101290003E08F8390338BE00BA01B901B90AA20103
:1012A000A3019929210068080319302922003E086A
:1012B000F8390138BE00A201A301BA01BA0AB90186
:1012C000B90A99292100E8080319472900302200AA
:1012D0002302023003192202031856293029210063
:1012E000E808031D302922003E08F8390438812916
:1012F000BE1A9929BE166F08031999293E08F839B4
:101300000638BE004F2922003E080739013A03196A
:101310006F29033A03196229013A03193529073A5B
:1013200003194029013A03193D29033A03192229D7
:1013300078292100B201B20AB008031DB0292300A8
:10134000DE08031DB029D608031DB0292200BA0803
:10135000031DB0292300DC08031DB0292100B201C0
:1013600021003208D30000302200EF08031D0130B5
:101370002100CB00621FA82AD308031DCA294B08ED
:101380000319922ACA292200A001A101F8302100E4
:10139000E205DF2962080739013A0319C629033A31
:1013A0000319C629013A0319C329073A0319C629A3
:1013B000013A0319C629033A0319C629DF29621322
:1013C000E217FD2922002108200403193A2AA0016E
:1013D000A10121006208F8390238E200BB2A03307B
:1013E00022002102E93003192002031C012A2100F6
:1013F0006208F8390538472788312300D101D20126
:10140000BB2A8C27883103195802031C0E2A01308D
:1014100059022D3003195802031C3A2A6208F83980
:101420000138E2002300D2012200A001A101BB2A61
:10143000003024004502653003194402031C292AA8
:101440002100620871278831D101D10AD201D20A64
:10145000BB2A8C27883103195802031C362A013015
:1014600059022D3003195802031CE9292400C40A2B
:101470000319C50A2200A00A0319A10ABB2A0030D9
:10148000220021020B3003192002031C782A0030AD
:1014900021005902053003195802031C562A013055
:1014A00059022D3003195802031C5F2A6208712764
:1014B00088311830D101D10AD201D20A6F2A90277F
:1014C000883103192002031C722A21006208F839AE
:1014D00005384727883123001830D101D201210077
:1014E000E2047B2A21006208E7390838E2007B2AFF
:1014F000E7302100E205620C59278831031D3A2AA2
:10150000BB2A9027883103192002031C3A2A2100A4
:101510006208F8390638E2002200A001A101230088
:10152000D101262A62080739013A0319182A033A19
:101530000319EF29013A0319E229073A0319812A0D
:10154000013A0319E929033A03193F2ABB2ABB2AA6
:10155000E21FB52AD308031DBB2AE21362176208F3
:10156000F839033847278831BB2AE21ABB2AE2162A
:101570004B08031DE0292100B301B30A2300DA0858
:10158000031DC82A2200BC08031DC82A2100B3017C
:1015900021003308CD0022004E080319D62A24006A
:1015A00061082100C20024006008F22A23005908C3
:1015B0000319E12A24005B082100C20024005A0814
:1015C000F22A21004D080319EC2A240059082100B1
:1015D000C20024005808F22A240057082100C20043
:1015E000240056082100C1005908D0005808CF0037
:1015F0004108CF024208D03BE11C782B5B08012751
:1016000086314C2688312C082100C70020002D0887
:101610002100C800C901CA014A08A3004908A20064
:101620004808A1004708A00024006D08FB3E2100E7
:10163000BB00FF3024006E3D2100BC00BD01BE0197
:101640003E08C6003D08C5003C08C4003B08C30076
:101650001F302000BA002100C637C50CC40CC30CD3
:101660002000BA0B2B2B21003E08CA003D08C90000
:101670003C08C8003B08C700460887278831031D7F
:101680004B2B00304502031D4B2B00304402031D41
:101690004B2B013043020318692BC61B622B4A08EF
:1016A0002302031D5D2B49082202031D5D2B480800
:1016B0002102031D5D2B470820020030031C01306E
:1016C000AA00632BAA01AB012B08A9002A08A800D5
:1016D0006C2BA801A80AA901290828040319BF2B0B
:1016E000E110611561162400C201C3012100BE2B67
:1016F000611DB62B14306C020318892B05306C0267
:10170000031C892BE119952B611E872B6112611136
:10171000BD2BE11D972B5B08012786314C268831B4
:10172000362788310318BF2B2100E111872B611E5A
:10173000BF2B5B08012786314C268831362788313C
:101740000318A42B2100862B073024004302D1303C
:1017500003194202031CB22B21006112E115DE01C4
:10176000DE0ABF2BC20A0319C30ABF2B6118BF2BA5
:10177000611422006F0BBF2B2100E114DE01210058
:10178000DF1CCD2B5E080319012CDF105F155F16DF
:101790002300CF01D001D00AF82B5F1DFB2BDE0800
:1017A000031DDE2BDF1DD62BDF11D92B5F1ED92B9E
:1017B0005F125F11DF142300CF01F72BDF1DEA2B2F
:1017C00022003608283A031DE82B2100DF11C72B21
:1017D000B60A012C5F1E012C22003608283A031D90
:1017E000E82B21005F12DF152300CF01CF0AD001C3
:1017F0002200B601012C5F18012C5F14DE080319CA
:10180000DA2B230050082200C800230054082200CD
:10181000C5002100601D172C2300102788310318F4
:10182000542C2100601160162200B701542CE01DD9
:101830002B2C2300102788310318212C2100E011C4
:101840003B2C653022003702031C292C2100E011BB
:10185000512CB70A542C601E402C230024278831B9
:101860000318342C6012512C333022003702031C31
:10187000292C2100601260142300D701D70A542CB0
:10188000601C4A2C2300242788310318542C601034
:10189000E015142CE018542CE01422006F0B542C8B
:1018A000210060152300D701230057082200C9003A
:1018B0003B08CC0023005D082200CD002100B401CC
:1018C000B40A2300D208031D6F2C2200B908031D9F
:1018D0006F2C2300CF08031D6F2C2100B4012100C1
:1018E00034082200CA00230055082200C600210047
:1018F000B501B50AD308031D862C2300D108031DAA
:10190000862C2100DE08031D862CB5012100350838
:10191000CC00B601B60ACC08031D942C2200C708DF
:10192000031D942C2100B60121003608CE002300AF
:101930006C060319A52CEB08031DA52C0130EA0148
:10194000E9003830E8008030E70021004C08031936
:10195000AB2CD1010B2D2200470803190D2D2100BE
:101960004D080319B52CCA300A2D6C082000AC00B4
:10197000E030792788312C2688312E082100D500C7
:1019800020002D082100D400E0302000AC005F30A2
:10199000792788312C2688312C08BA002D08BB0005
:1019A0002E08BC002F08BD000730BD36BC0CBB0C98
:1019B000BA0C890BD52C3A082100D40220003B0830
:1019C0002100D53BC830D4070318D50A5508803A02
:1019D000FF0080307F02031DEF2CC9305402031832
:1019E000082D21005508803AFF0080307F02031D3A
:1019F000FB2C3C305402031C002D21005408022D06
:101A00003C302100AC00AD012D08D2002C08652D22
:101A1000C8302100D100D201662D20000330AF0173
:101A2000AE01AD002030AC0023006A082000B300F6
:101A3000230069082000B200230068082000B100DC
:101A4000230067082000B000942788312D0821006A
:101A5000D70020002C082100D600220052082000C8
:101A6000AC00AD01602786314C2688312C0821005E
:101A7000D60720002D082100D73D5708803AFF00E7
:101A800080307F02031D462D01305602031C502D6D
:101A9000003021005702CB30031956020318B32C33
:101AA0002100D71B5F2D0030570228300319560242
:101AB000031C5F2D5708AF005608AE00622D28307A
:101AC000AE00AF012F08D2002E08D100520820002E
:101AD000BB00210051082000BA00BB36BA0C3A08FE
:101AE0002200E30021004E082300EC0024005F08E0
:101AF0002000AD0024005E082000AC006027863185
:101B00004C2688312C08BA002D08BB00BA35BB0D15
:101B1000BA35BB0DBA35BB0D3A08BC003B08BD0059
:101B20000030BD1BFF30BE00BF003C082300E707AC
:101B300020003D082300E83D20003E082300E93D49
:101B400020003F082300EA3D6A0887278831031DEB
:101B5000B32D02306902031DB32D77306802031DD7
:101B6000B32D413067020318EB2D6A0887278831AF
:101B7000031DC42D00306902031DC42D7D30680291
:101B8000031DC42D00306702031CD62D6A082100F6
:101B9000A700230069082100A6002300680821008F
:101BA000A500230067082100A400DC2D21007D3062
:101BB000A701A601A500A40127082300EA0021002F
:101BC00026082300E900210025082300E800210061
:101BD00024082300F12D0230EA01E9007730E80003
:101BE0004030E700EB010800003025020630031901
:101BF00024024008031C052EF8390338C0002300D6
:101C00001830DC012200C0040800E7390838C000A1
:101C10000800210068080319172E22003E08F83931
:101C20000238BE001830A201A301BE040800003033
:101C3000220023026530031922023E08031C282ECD
:101C4000F8390538BE001830BA01B901BE040800E1
:101C5000E7390838BE000800B401B501B601B70184
:101C60002C1C3A2E3008B4073108B53D3208B63D79
:101C70003308B73DB035B10DB20DB30DAF36AE0C74
:101C8000AD0CAC0C2F082E042D042C04031D302E9B
:101C90003708AF003608AE003508AD003408AC0098
:101CA0000800210064080319592EC8306402031C7F
:101CB000642E22003F08F03907388127D901D80166
:101CC0002200BB01BB0A08008C3023004602A03072
:101CD00003194502031C732EAB304602E130031991
:101CE0004502031C8E2E22003F08F03906387C2E58
:101CF00022003F08F039033881278831882E2200DE
:101D00003F08F0390838BF002300DB01DB0ADA01A5
:101D1000D901D801D80A2200BB01080006302100F1
:101D20006402031C782E09306402031C7F2EC0302D
:101D30006402031CA02E22003F08F03904387C2ED8
:101D400017306402031CAF2E22003F08F03902381E
:101D5000BF002300DB01D901DA01D8018B2E14303A
:101D60006402031CBE2E22003F08F0390538BF0074
:101D70002300DB01DA01D901D90AAD2E1430640247
:101D80000318080022004F278831AD2EE7302200CB
:101D900034020318D22EEC2E6512DC2EE512DC2E56
:101DA0006513DC2E210065080739023A0319CC2E91
:101DB000013A0319CE2ED02E65162300DE01DE0A6D
:101DC0002200BC012300DD01DD0A08006512F62EA9
:101DD000E512F62E6513F62E210065080739023A42
:101DE0000319E62E013A0319E82EEA2E2D302200BF
:101DF00034020318FE2E2100E516DD2E210069278E
:101E000008002000AD0021005A082000AC0021008D
:101E100059082000AF00210058082000AE0008003B
:101E20006D08FE3E2000BA00FF3023006E3D20000A
:101E3000BB0021005B0820003B02031D08002100BD
:101E40005A0820003A0208006D08023E2000BA003D
:101E5000003023006E3D2000BB0021005B02031D0B
:101E6000080020003A0821005A02080024006D08EA
:101E7000053E2000BA00003024006E3D2000BB006B
:101E80002D083B02031D08002C083A020800E2005E
:101E90002200A001A1012400C401C50108003F08DF
:101EA000F0390138BF002300DB01DB0ADA01D90178
:101EB00008002000BA00BA0C3A0C0339033A0800B3
:101EC000210050082000AF0021004F082000AE0084
:101ED000080065172300DE012200BC012300DD019C
:101EE0000800F8390438E2002200A001A101230013
:101EF0000800AD01AE01AF01B000B101B201B30104
:101F00000800BF002300DB01DA01DA0A0800803A8A
:101F1000FF0080307F0208000030210059020534A4
:101F2000003022002102C934B501AF1FA42FAC0933
:101F3000AD09AE09AF09AC0A0319AD0A0319AE0A1F
:101F40000319AF0AB501B50AB31FB32FB009B10920
:101F5000B209B309B00A0319B10A0319B20A031985
:101F6000B30A0130B506B601B701B801B9012F08AF
:101F70002E042D042C040319E92FB401B40AAF1B5D
:101F8000C62FAC35AD0DAE0DAF0DBE2FB635B70DAE
:101F9000B80DB90D2F083302031DD82F2E083202B9
:101FA000031DD82F2D083102031DD82F2C08300215
:101FB000031CE32F2C08B0022D08B13B2E08B23BC6
:101FC0002F08B33B3614AF36AE0CAD0CAC0CB40BD3
:101FD000C62F35080319F72FB609B709B809B9098B
:101FE000B60A0319B70A0319B80A0319B90A390856
:101FF000AF003808AE003708AD003608AC00080066
:10200000FF3FFF3FFF3FFF3FFF3FFF3FFF3FFF3FE0
:10201000FF3FFF3FFF3FFF3FFF3FFF3FFF3FFF3FD0
:10202000FF3FFF3FFF3FFF3FFF3FFF3FFF3FFF3FC0
:10203000FF3FFF3FFF3FFF3FFF3FFF3FFF3FFF3FB0
:10204000FF3FFF3FFF3FFF3FFF3FFF3FFF3FFF3FA0
:10205000FF3FFF3FFF3FFF3FFF3FFF3FFF3FFF3F90
:10206000FF3FFF3FFF3FFF3FFF3FFF3FFF3FFF3F80
:10207000FF3FFF3FFF3FFF3FFF3FFF3FFF3FFF3F70
:10208000FF3FFF3FFF3FFF3FFF3FFF3FFF3FFF3F60
:10209000FF3FFF3FFF3FFF3FFF3FFF3FFF3FFF3F50
:1020A000FF3FFF3FFF3F8130210095002200EF01FD
:1020B000EF0A8B138B012100910192019301220001
:1020C000DA01DB0121008830ED012400ED0013303E
:1020D000EE00B8302300ED00EE016D219031D220EA
:1020E0009031ED20903105219031013090209031D8
:1020F00004309020903106309020903105300B2133
:102100009031C9209031602190318D21903124008F
:10211000DC01DD01A5219031C5260B178B170800C6
:102120002000AD00B728003042248B120800013097
:102130004224753020009800210011100800023060
:102140004224073020009C00210091100800043038
:1021500042240E3028009700210093140800063016
:102160004224053028009E002100931508002D0808
:10217000003A03199328013A03199728033A0319DF
:102180009F28063A0319A728023A0319AF28C8283E
:102190000800A03021009E009D0130301D14220057
:1021A0009704080020008E12AC01D828000000001F
:1021B0002000AC0BD6288E16AD01E02800000000F0
:1021C0002000AD0BDE288E12AE01E82800000000D2
:1021D0002000AE0BE6288E1608009F3023009B00DF
:1021E00001309C0026309E0090309D0048309F00BA
:1021F000210091012400ED272200C4012000CF011D
:102200002100E7012000CF150800F03021009900DF
:102210001130970008002000AC002200D401D50145
:102220004D292500930191019201210011152000F3
:102230000530111125009300080025009A0198012E
:1022400099012100121420000530121025009A0077
:10225000080026009301910192012100131620002D
:102260000530131226009300080026009A019801F9
:1022700099012100931620000530931226009A0040
:10228000080026009E019C019D01210013172000DB
:102290000530131326009E00080020002C08013A88
:1022A00003191129033A03191D29013A0319292990
:1022B000073A03193529013A031941295F29080012
:1022C00020000B30D401863186262300E101E20193
:1022D000E301E401E501E601080027308C00293024
:1022E0008D0022008C018D018E0155308531E6254F
:1022F0009031553A03197E298E1A85297F302100A5
:102300008C0039308D008E0108007F3021008C0058
:1023100039308D0080308E0008002100EE01083039
:102320006E020318080031309D003822903151228E
:1023300090312D08D6002C08D500FB2690315E3058
:10234000C03F0130C13FEE0A8F2903308531E625B9
:102350009031003A0319C32903308531E6259031C5
:10236000FF3A0319C32903308531E6259031AF00C8
:1023700002308531E62590312200E80020002F0848
:102380002200E700C72922000130E701E8000530FC
:102390008531E6259031003A0319E529053085316C
:1023A000E6259031FF3A0319E52905308531E62508
:1023B0009031AF0004308531E62590312200EA00EB
:1023C00020002F082200E900E92922000130E9015C
:1023D000EA0007308531E6259031003A0319072AD3
:1023E00007308531E6259031FF3A0319072A073077
:1023F0008531E6259031AF0006308531E6259031F4
:102400002200EC0020002F082200EB000B2A220003
:102410000130EB01EC001A300E110D118D108E04FD
:102420003822903138229031113021009D0038221D
:10243000903121009D14512290312C082300B200CC
:10244000353021009D003822903121009D14512209
:1024500090312C082300B100093021009D00382262
:10246000903121009D1451222C082300B000080057
:10247000000000000000000000000000000000005C
:10248000000000000000000000000000000000004C
:10249000000000000000000000000000000000003C
:1024A00008002000AE0121009D1C5C2A2000413064
:1024B000AE0A2E02031C532A21001C082000C9006A
:1024C00021001B082000C8004908AD004808AC00E6
:1024D00008004830D7018400003085000F30873174
:1024E000D6279031D83084000030850017308731EE
:1024F000D627903120308400013085004730873165
:10250000D6279031A03084000130850047308731D4
:10251000D627903120308400023085004D3087313D
:10252000D62790318030D80021000130EF00220002
:10253000E700E801E900EA01EB00EC01ED000730FB
:10254000EE0023008030E7003830E8000130E90079
:10255000EA01EB00EC002000AD2A5320903104305A
:10256000422490312200E501220059082000C400D5
:10257000C5014508C7002200650820004402C600C6
:10258000031CC70347040319B42A22005908E500B5
:10259000DA0ADB0A2100ED0A2000D41CD52AC83053
:1025A0009B00220063352000EC2A7D309B00043024
:1025B000B200B301220063082000AC000530AD0179
:1025C000AE00AF0186314C2690312D08B5002C08A5
:1025D000B400F42390313208D300632490310330E7
:1025E00022005A020318DA0105305B02031CCB2BD0
:1025F000DB016400F62490312100EC002300440844
:10260000C6004308C500220033082100D90022007B
:1026100032082100D800240055082300CC002400F3
:1026200054082300CB0005302400DE00DF01220027
:10263000D2012000D41C342B21006C362B3E80317B
:102640000A0089362400D6008A30D70180310A007A
:102650008936D8003630D90180310A009331893665
:10266000DA00DB0193316D2B0530B200B30121009C
:102670006C362B3E80310A00933120009631F026D3
:102680009031F42333082400D700200032082400BE
:10269000D60005302000B2008A30B30180310A0034
:1026A0009331F0269031F42333082400D900200020
:1026B00032082400D80005302000B2003630B301C3
:1026C00080310A009331F0269031F423330824003E
:1026D000DB00200032082400DA0023004808200034
:1026E000C500230047082000C400C536C40CC53609
:1026F000C40C44082200B400B50123004A0821009C
:10270000DB00230049082100DA00003020004E18C9
:1027100001302100E8002200C70188312D209031CE
:102720002200EF01E308031D982B342490319A2BEB
:102730007D25903122004C0820005410031D5414B4
:10274000220045082000D410031DD414220046089E
:102750002000D413031DD41722004908200054116F
:10276000031D541522004A082000D411031DD4155E
:102770002200480820005412031D541622004D0860
:1027800020005413031D541722004B082000D412BC
:10279000031DD4164E1021006D08193A031DDC2BC1
:1027A000C92455308531E6259031553A031D8E1EDA
:1027B000DC2B1130A025903121006D08253A031D36
:1027C000EC2B55308531E6259031553A031D8E1E90
:1027D000EC2B8031DC209031653021006D02031834
:1027E000ED012200CE01B42AB701B31FFE2BB209BE
:1027F000B309B20A0319B30AB701B70AB51F072C08
:10280000B409B509B40A0319B50A0130B706B8010D
:10281000B901330832040319272CB601B60AB31BD9
:10282000142CB235B30D0E2CB835B90D3308350262
:10283000031D1C2C32083402031C232C3208B40262
:102840003308B53B3814B336B20CB60B142C37082A
:1028500003192F2CB809B909B80A0319B90A39089C
:10286000B3003808B200080020004E1F0800220004
:102870008E108E110E1225009513910120004E131B
:10288000CE130800AC00512C950108009601970169
:1028900008009A01080028009501080028009C0102
:1028A00008002C08003A0319442C013A0319462C5D
:1028B000033A0319492C063A03194B2C023A03191F
:1028C0004E2C622C08006824903104269031172E7B
:1028D000FB26903120005508C03F5608C13F2E30DE
:1028E00086002C3084000230850024002408220752
:1028F0002000AC0024002508233D2000AD0024006A
:10290000260820002C07AE002400270820002D3DBB
:10291000AF002400280820002E07B000240029085A
:1029200020002F3DB10024002A0820003007B2000B
:1029300024002B082000313DB300003F3207B400D3
:10294000013F333DB500403F3407B600413F353DC0
:10295000B70024002008200036072300B700240019
:1029600021082000373D2300B800C8003708C70001
:102970000830C836C70CC836C70CC836C70C21008B
:10298000EE0A6E02031C0800EE012300B701B80135
:1029900008002000541FCF2C58308631862E22008C
:1029A00045080319D62C21308631862E4808031994
:1029B000DC2C42308631862E4A080319E22C37304F
:1029C0008631862E49080319E82C2C308631862E54
:1029D0002000D41EEE2C4D308631862E541CF32C54
:1029E00016308631862E0B308631862E2300430822
:1029F0002000B500230044082000B600B7012300E2
:102A00005F082000AC00230060082000AD00C83043
:102A1000AE01AF00B001B101602590312C08B800C3
:102A20002D08B9002E08BA002E2590313508220055
:102A3000D400D408031D242D0530D50A5502031CEB
:102A40002A2D5408D1002A2DD5015408D100230085
:102A5000DF01E00122005108C83C0800BB01BC01B5
:102A6000BD013708360435040319592DBE01BE0ACD
:102A7000B71B3E2DB535B60DB70D372DBB35BC0D8B
:102A8000BD0D37083A02031D4B2D36083902031DD0
:102A90004B2D35083802031C542D3508B802360872
:102AA000B93B3708BA3B3B14B736B60CB50CBE0B76
:102AB0003E2D3B08B5003C08B6003D08B7000800B5
:102AC000B201B301B4012C1C6B2D2F08B2073008E2
:102AD000B33D3108B43DAF35B00DB10DAE36AD0CE0
:102AE000AC0C2E082D042C04031D632D3208AC0001
:102AF0003308AD003408AE00080020004E1B08006B
:102B0000A630CE122200AE00AF012100E901E90A91
:102B1000DC01DD012000D301CA01CB012400CC017E
:102B2000CD01250096012000CE154E172200D801B8
:102B3000250091012200E60120004E169A31012A5B
:102B4000BB00CF1DA12D3B08B7000830B8000530F1
:102B5000F0259031CF1DAA2DF0304F05BA0022008C
:102B60003D060319080020000530AC0186318B2694
:102B70009031D00086000230870001082400B000A8
:102B8000E9269031B100E9269031B200E926903172
:102B9000B300E9269031B400E9269031B500E9266A
:102BA0009031B600E926B70030082200E200240088
:102BB00031082000D200240032082000D100240077
:102BC00033082200DE00240034082200DF00240045
:102BD00035082200E000240036082200E100080049
:102BE000CF1D080038082200C2002000CF142400A6
:102BF000C601C70120002430AD01AE003330AF0163
:102C0000B000B1013708372E23003F08B90740084C
:102C1000BA3D3A08CA003908C9000630CA36C90C9C
:102C2000890B0E2E4908B9024A08BA3B0800240055
:102C300052082300BB07240053082300BC3D3C0876
:102C4000C2003B08C1000630C236C10C890B242EDD
:102C50004108BB024208BC3B2400D50023004108C8
:102C60002400D4005C08D4075D08D53D0800B200FC
:102C7000B3000F30CF050D302300B5001330B6017F
:102C80002400CA00CB0120002F082300B40020003C
:102C90002E082300B300200031082400C9002000C2
:102CA00030082400C8002000CF1D08005530240043
:102CB000E200200033089F2690312400E300210029
:102CC000E6012000CF1C682E02302200C1008F2EAA
:102CD0002D08023E2200C10020000230B401B501DF
:102CE000B60022004108200036020318822E360862
:102CF000623E8600023087000108B4070318B50A57
:102D0000B60A712E22004108623E8600023087001A
:102D1000200035083407FF3A81002200C10A230051
:102D2000FF309E159A000F302000CF054F14210070
:102D3000E71467152200C3012000CF110800AC0082
:102D40003F30AC052C1CA62E4030AC06AC1CAA2E85
:102D50004030AC062C1DAE2E4030AC062C1EB22EE0
:102D60004030AC06AC17AC1CB72E8030AC06AC1DA6
:102D7000BB2E8030AC062C1EBF2E8030AC06AC1EA5
:102D8000C32E8030AC062C08080025009601803048
:102D900022009100920121008730921225009400B8
:102DA00095010C3093009101210004301210250090
:102DB0009A00FF3098009900643020009B00053095
:102DC0009C0028302200CF00210091142000CE0169
:102DD0007D2D2000D00A500886000108240008003C
:102DE000C400C501C435C50DC435C50D4408B400C3
:102DF0004508B500080021006E35203E86000230EF
:102E00008700080023009E19852F2000911E852F22
:102E1000CF1D1E2F23001D080639031D852F1908FD
:102E2000803A031D852F2400ED279031F42790313F
:102E3000E71E1C2FE712852F6714852F4F1C5A2F72
:102E400023001D0806390319292F21006608031DD8
:102E5000612F21006608023A0319E7102200440896
:102E60000319342FC403852F4308230019060319BF
:102E70003B2F6C30832F220041080319502F230071
:102E800019082200C3002100FA279031010822000E
:102E9000C30023009A002200C1032100E60A852F07
:102EA0002000CF1C572F4F102100E601852F210055
:102EB0006711822FCF1C852F23001D0806390319A7
:102EC000632F7C30832F220042080319792F2100C1
:102ED000FA2790312300190881002200C203230041
:102EE00019082400C6070318C70A471C4D2FC60A35
:102EF0004D2F2300190A2400C60746080319822F04
:102F00005C30832F0830E02790312000CF19C62F86
:102F10002100671DBF2FE71CA22F230036083504B0
:102F20000319962F0130B5020030B63B24004B0840
:102F30004A040319A02F0130CA020030CB3BAA2F4C
:102F40002C30A82F2300360835040319AA2F1C3073
:102F5000E02790312300340833040319B32F0130E4
:102F6000B3020030B43B2400490848040319BD2FC4
:102F70000130C8020030C93B08004C30E02F23006C
:102F800034083304031908003C30E02F2100E71A0D
:102F900008002400410840043F043E040319DD2FCB
:102FA0000130F100F201F301F401BE027208BF3BEF
:102FB0007308C03B7408C13B080021006717080074
:102FC000F000F4279031E7012400C601C701700822
:102FD0002000CF002400ED2708002730C101C001E8
:102FE000BF00BB30BE000800230019082200C30048
:102FF000210008006608623E860002308700080053
:10300000FF3FFF3FFF3FFF3FFF3FFF3FFF3FFF3FD0
:10301000FF3FFF3FFF3FFF3FFF3FFF3FFF3FFF3FC0
:10302000FF3FFF3FFF3FFF3FFF3FFF3FFF3FFF3FB0
:10303000FF3FFF3FFF3FFF3FFF3FFF3FFF3FFF3FA0
:10334000FF3FFF3FFF3FFF3FFF3FEA29F721993152
:10335000A60026001D082200A700FD290230D70084
:1033600026001C082200A80026001D082200A90033
:10337000053026009E000800F7219931AA0026009A
:103380001D082200AB002B082300C40022002A08DD
:103390002300C300220026082300C30222002708BE
:1033A0002300C43B220029082300E0002200280853
:1033B0002300DF00220026082300DF022200270866
:1033C0002300E03B22002B08A7002A08A600FD29C5
:1033D000D701080022005708003A0319A629013A2C
:1033E0000319AE29033A0319BC29E8290800D701BB
:1033F000D70A26001C0822000800043026009E0080
:103400000800003021005D020A3003195C02031835
:103410000C2ADC0A0319DD0A22003835A03E86009A
:103420000130870020004A08C03F4B08C13F2200FE
:103430000730B80AB805AE308600AC3084000130E1
:1034400085002300240822072000B200230025085D
:10345000233D2000B3002300260820003207B400DB
:10346000230027082000333DB50023002808200052
:103470003407B600230029082000353DB70023009B
:103480002A0820003607B80023002B082000373D0B
:10349000B900003F3807BA00013F393DBB00403F4B
:1034A0003A07BC00413F3B3DBD00230020082000FF
:1034B0003C072200B2002300210820003D3D2200ED
:1034C000B30020004B082300CE0020004A08230050
:1034D000CD002000CE122200E601E60A2000CE1721
:1034E000CE1DE22A23004E082000AD0023004D0827
:1034F0002000AC006430AD36AC0CAD36AC0CAD3653
:10350000AC0CAE00AF0186314C269A312D0822005A
:10351000B10020002C082200B0000730B136B00CFA
:10352000890B8E2A20004B0822003102031D9C2AA1
:1035300020004A08220030020318AA2A2000DC23B7
:103540009A31220030082400CC02220031082400E5
:10355000CD3BC12A2400CC01CD01C12AA630BD2A11
:10356000F4302200AE000130AF00D12A7D30BD2AF8
:103570005330BD2A2930BD2A21302200AE00AF01D0
:10358000D12A21005D08003A0319C72ABC2A5C0829
:1035900084000A3004020318BC2A80310435903EAE
:1035A000820000302F02213003192E020318DB2A7B
:1035B0002130AE00AF0120004E1E182B0A30220031
:1035C000D800182B571CE82A2400CC01CD01EC2A86
:1035D000DC239A31CD36CC0C4D30CC01CD0122000C
:1035E000AE000130AF0020004E1F162B2500110841
:1035F000200053060319182B250011082000530240
:1036000003180C2B25009103110820005302031806
:10361000182B25009103182B2500910A2000530830
:10362000250011020318182B910A182B250091016F
:103630002000CA01CB0121006908FF3A031DC12BFC
:103640000630E900C12B01302500960020004E1FF6
:103650002C2B2200F6239A31220009300D118D10F7
:103660002100EB0022002530DC01DC0ADD00023005
:1036700092008430910020000630A12B01302500FB
:10368000960020004E1F472B2200FB239A31220078
:1036900009300D158D102100EB0022000530DC01F2
:1036A000DC0ADD00013092009430910020005710B8
:1036B0002100E901E90AD52B0230250096002000FF
:1036C0004E1F652B2200F1239A31220035300E1156
:1036D0008D10EB239A31DD01DD0A920184309100D7
:1036E00020000230A12B02302500960020004E1F42
:1036F0007C2B2200F6239A31220035300E118D14D6
:10370000EB239A312530DD00023092009430910095
:1037100020000330B82B04302500960020004E1FF7
:10372000942B2200FB239A31220011300E11E42346
:103730009A310530DD000130920084309100200084
:1037400004305714B92B04302500960020004E1F7A
:10375000AC2B2200F1239A31220011300E15E42304
:103760009A31DD01DD0A920194309100200005308C
:1037700057102100E900D52B250096012200910168
:10378000562B6908013A0319232B033A03193E2BE0
:10379000013A03195C2B073A0319732B013A0319F9
:1037A0008B2B033A0319A32BBC2B28302200CF000C
:1037B0002000CA01CB0108004B082400CD002000E6
:1037C0004A082400CC0008000D112100EB00253030
:1037D0002200DC0008002100EB0005302200DC00A4
:1037E00008000E08E53918388E0008000E08E53983
:1037F0000A388E0008000E08E53912388E000800DD
:10380000CA0A0319CB0A4B0822002F02031D0C2CF5
:1038100020004A0822002E020318102CEE259C31AD
:10382000003021005D020A3003195C02031C1A2CCF
:103830002000CE11003021005D02033003195C022C
:10384000031C242C20004E128731A7279C31220014
:10385000111F2C2CD001452DD001D00A452D2D3023
:1038600021009D00AB259C3121009D14C4259C3175
:1038700071082400D3007008D200313021009D006F
:10388000AB259C3121009D142200E60A522D5D08D3
:1038900021009D001B082000D50021001C082000ED
:1038A000D600000000000000000000000000000042
:1038B0000000000000000000000000000000000008
:1038C0000000402C21001B082200AC0021001C0835
:1038D0002200AD0021009D1420004E1F842C5308AF
:1038E0000319842C571C8E2C22002C08643EF700F0
:1038F00000302D3DF800200056087802031D822C70
:10390000550877020318522D2200E60A5C082100B0
:103910009D00AB259C3121009D14522D00302200CA
:103920002D021F3003192C020318842C522DCF01B5
:10393000C4259C31D41CA32C21006B089D00AB2511
:103940009C310930422D753021009D00AB259C3102
:10395000442C21009D14C4259C3121006B083F2C70
:1039600020008C17C4259C317108CD007008CC0054
:103970008C134E1B1D2D142D23003008CF279C3196
:103980000318D62C4D08F1004C08F0002300300835
:10399000F002031CF10322006808F3006708F2003C
:1039A000D9259C3171082300BF00D82C2300BF010A
:1039B000C001292D23003108CF279C310318F42C96
:1039C0004D08F1004C08F00023003108F002031C00
:1039D000F10322006A08F3006908F200D9259C313E
:1039E00071082400CE00F62C2400CE01CF01292D31
:1039F00023003208CF279C310318122D4D08F10007
:103A00004C08F00023003208F002031CF1032200EE
:103A10006C08F3006B08F200D9259C317108240072
:103A2000D0001B2D24001A2D2300BF01C00124004B
:103A3000CE01CF01D001D101292D21006B08093A17
:103A40000319BC2C183A0319F82C243A0319DA2C60
:103A5000142D013020004D02553003194C02031C77
:103A6000352DE5304E1422008E05AB259C3121000A
:103A70009D142000D41C442C753021009D00AB25E2
:103A80009C3105302200E600522D6608FF3E031CE3
:103A9000522D84000A3004020318522D803104355F
:103AA000A43E820020004E1F8A2DCE1D8C2D2200A8
:103AB0004130CE01CE0A2400E000E10120004A0896
:103AC0000339031D8C2D4E1E7A2D560855040319FB
:103AD0007E2D5608F1005508F0008030F2003E308F
:103AE000F300D9279C317008F9007108FA00FB0136
:103AF000FC017E2D56085504031D692D220058082F
:103B000079020318852DD803862DD80A5808250078
:103B100091008C2D250091012200CF08031DA92DB5
:103B200050080319972D2000CE1A972DCE1620008D
:103B3000CE1E080024004D084C04031DA42D2000B7
:103B4000CE190800EE250800FF30CC07031CCD037A
:103B50000800CF0308000000000000000000000083
:103B60000000000000000000000000000000000055
:103B70000000000000000000000000000000000045
:103B80000000000000000800F20121009D1CCD2D66
:103B90004130F20A7202031CC52D1C082000C90026
:103BA00021001B082000C8004908F1004808F00067
:103BB0000800F401F501701CE12D7208F407730888
:103BC000F53DF235F30DF136F00C71087004031D6C
:103BD000DB2D7508F1007408F000080000302100AA
:103BE0005D020A3003195C020318F92DDC0A03197F
:103BF000DD0A22003835A03E860001308700200013
:103C00004A08C03F4B08C13F22000730B80AB80538
:103C1000AE308600AC3084000130850023002408DB
:103C200022072000A00023002508233D2000A1003A
:103C30002300260820002007A200230027082000D8
:103C4000213DA3002300280820002207A400230010
:103C500029082000233DA50023002A08200024076E
:103C6000A60023002B082000253DA700003F2607C3
:103C7000A800013F273DA900403F2807AA00413F77
:103C8000293DAB002300200820002A072200B200B3
:103C90002300210820002B3D2200B30020004B0808
:103CA0002300CE0020004A082300CD002000CE12C1
:103CB0002200E601E60A2000CE17CE1DCA2E230000
:103CC0004E08F1004D08F0006430F136F00CF1368A
:103CD000F00CF136F00CF200F301D9259C3171089B
:103CE0002200B1007008B0000730B136B00C890B6B
:103CF000752E20004B0822003102031D832E200068
:103D00004A08220030020318922E20009B31DC2347
:103D10009C31220030082400CC022200310824000B
:103D2000CD3BA92E2400CC01CD01A92EA630A52E75
:103D3000F4302200AE000130AF00B92E7D30A52E48
:103D40005330A52E2930A52E21302200AE00AF0120
:103D5000B92E21005D08003A0319AF2EA42E5C088D
:103D600084000A3004020318A42E80310435B83EC2
:103D7000820000302F02213003192E020318C32EB7
:103D80002130AE00AF0120004E1E012F0A3022006C
:103D9000D800012F571CD02E2400CC01CD01D52EE8
:103DA0009B31DC239C31CD36CC0C4D30CC01CD0188
:103DB0002200AE000130AF0020004E1FFF2E250074
:103DC0001108200053060319012F250011082000B7
:103DD00053020318F52E2500910311082000530209
:103DE0000318012F25009103012F2500910A2000BF
:103DF0005308250011020318012F910A012F2500F5
:103E000091012000CA01CB0121006908FF3A031D7E
:103E1000B42F0630E900B42F0130250096002000B1
:103E20004E1F162F22009B31F6239C3122000930B1
:103E30000D118D102100EB0022002530DC01DC0A81
:103E4000DD00023092008430910020000630922F75
:103E500001302500960020004E1F322F22009B319A
:103E6000FB239C31220009300D158D102100EB0041
:103E700022000530DC01DC0ADD00013092009430C4
:103E80009100200057102100E901E90AC82F0230F3
:103E90002500960020004E1F512F22009B31F12358
:103EA0009C31220035300E118D109B31EB239C315B
:103EB000DD01DD0A92018430910020000230922F52
:103EC00002302500960020004E1F6A2F22009B31F1
:103ED000F6239C31220035300E118D149B31EB23DB
:103EE0009C312530DD00023092009430910020009A
:103EF0000330AB2F04302500960020004E1F842F86
:103F000022009B31FB239C31220011300E119B318A
:103F1000E4239C310530DD000130920084309100B3
:103F2000200004305714AC2F0430250096002000E8
:103F30004E1F9E2F22009B31F1239C312200113015
:103F40000E159B31E4239C31DD01DD0A9201943092
:103F500091002000053057102100E900C82F2500EE
:103F6000960122009101412F6908013A03190C2F93
:103F7000033A0319282F013A0319472F073A031967
:103F8000602F013A03197A2F033A0319942FAF2FA8
:103F900028302200CF002000CA01CB010800F70022
:103FA000F80120004D087802031D08004C08770234
:103FB0000800F501F601710870040319F92FF401E6
:103FC000F40AF11BE62FF035F10DE02FF535F60D73
:103FD00071087302031DEE2F70087202031CF52F87
:103FE0007008F2027108F33B7514F136F00CF40B13
:103FF000E62F7608F1007508F0000800B700F80019
:020000040001F9
:04000E00BCFFFFDB59
:00000001FF
