:10000000000080312728FF3F803120001118111097
:10001000931C0F2893108731D5278031D90A2000EF
:10002000911C162891109D31DA2580312000931DF6
:100030001D2893119331742380312000131F23282E
:100040001313883130202000121812100900880183
:100050009431722C00346E346E346E3400340034BB
:1000600000340034003400340034D334D334D33477
:10007000D034CE34CC34C934C734C534C334C1349D
:10008000BF34BD34BB34BA34B834B634B434B2340B
:10009000B134AF34AD34AC34AA34A934A734A63467
:1000A000A434A334A234A0349F349D349C349B34B4
:1000B0009A349834973496349534943492349134F5
:1000C00090348F348E348D348C348B348A3489342C
:1000D000883487348634853484348334823481345C
:1000E00080347F347F347E347D347C347B347A3486
:1000F0007A347934783477347734763475347434A8
:1001000074347334723472347134703470346F34C4
:100110006E346E346E346E346E346E346E346E34CF
:100120009C31962C9C31982C9C319E2C9C31A02C7F
:100130009C31A22C9C31A42C9C31A42C9C31A42C4D
:100140009C31A42C9C31A42C9E31092E9E31212E51
:100150009E313C2E9E31C12E9E31F62E9E311E2E9A
:100160009E311E2E9E311E2E9E31FF2E9F31112F4D
:100170009A31B52A9A31B72A9A31BD2A9A31BF2AC3
:100180009A31C12A9A31C32A9A31C32A9A31C32A91
:100190009A31C32A9A31C32A8131342981313429D1
:1001A0008131342981313429813134298131342913
:1001B0008131342981313429182900302502333026
:1001C00003192402031CEE283E08F8390538BE0046
:1001D0002300DD012200A401A5012D292200A40A8B
:1001E0000319A50A2D29942680313E0C3C27803125
:1001F000031DEE282D29942680312D29003025025B
:100200001030E0283E08F8390338BE002300DD0135
:100210002D293E08F83906381629BE1A2D29BE1692
:100220006F0803192D293E08F8390438BE00EA2862
:100230003E080739013A03190929033A031902292B
:10024000013A0319FB28073A0319DD28013A03197B
:10025000F328033A0319FE280D2921006B08E60054
:1002600022003D1A3829462988318C2080315529B1
:100270003D080F39FF3E031C552984000830040255
:100280000318552980310435CC3E82003D166F0B92
:100290004A294B2955293D08F03901388931012176
:1002A0008031DA01D9012200B90123005908220066
:1002B000C9002100E71D8829671E6A296708F839E7
:1002C0000438E700DE30600203189429903145209D
:1002D00080319429E71E75296708F8390138E7004D
:1002E00032306002031866299429671F7C29670849
:1002F000F8390338E7006629E71F94296708F839B9
:100300000238E70043306002031866292D30632964
:10031000E71522006F0B9429210067172300DF01E6
:100320002200BA012300DE012100B30123005C0892
:100330000319A1292200BA08031DA1292100B30134
:10034000B30A21003308B200E51CB529513023005F
:100350005402031CB3292100E510E5152300D60142
:10036000D501D701E529D40A412A651DBA296511AD
:10037000E514412AE51DCE29003023004E02483005
:1003800003194D020318412A2100E51165162300C7
:10039000D601D60AD501D50AD701412A651EDB2927
:1003A000003023004E02BA3003194D02031C412ACB
:1003B00021006512AD296518412A651422006F08D5
:1003C0000319412A210065152300D401412A003078
:1003D0002302333003192202031CF5293C08F839A3
:1003E0000538BC00B801B701572A2200A20A031938
:1003F000A30A572AA92680313C0C3C278031031DD3
:10040000F529572AA9268031572A00302302C930FE
:1004100003192202031C162A3C08F8390338BC00D1
:10042000B801B701B70AA201A301572A4C08031962
:10043000F5293C08F8390138BC00A201A301B80134
:10044000B80AB701B70A572ACC0803190C2A00309A
:1004500023020230031922020318192AF529CC08B5
:10046000031DF5293C08F83904383F2ABC1A572ADD
:10047000BC166F080319572A3C08F8390638BC0027
:10048000132A22003C080739013A03192F2A033A9C
:100490000319242A013A0319FA29073A0319052AEC
:1004A000013A0319022A033A0319E729362A2100DF
:1004B000B401B40AB208031D6E2A2300DF08031D2D
:1004C0006E2AD708031D6E2A2200B808031D6E2A63
:1004D0002300DD08031D6E2A2100B4012100340829
:1004E000D50000302200EF08031D01302100CD00AF
:1004F000641F662BD508031D882A4D080319502B4D
:10050000882A2200A001A101F8302100E4059D2ADB
:1005100064080739013A0319842A033A0319842A23
:10052000013A0319812A073A0319842A013A031967
:10053000842A033A0319842A9D2A6413E417BB2AE8
:100540002200210820040319F82AA001A10121009A
:100550006408F8390238E400792B033022002102C4
:10056000E93003192002031CBF2A21006408F8396E
:100570000538342780312300D201D301792B61273C
:10058000803103195A02031CCC2A01305B022D3042
:1005900003195A02031CF82A6408F8390138E400E8
:1005A0002300D3012200A001A101792B00302400F7
:1005B0004502653003194402031CE72A2100640840
:1005C0004C278031D201D20AD301D30A792B61277B
:1005D000803103195A02031CF42A01305B022D30CA
:1005E00003195A02031CA72A2400C40A0319C50AC6
:1005F0002200A00A0319A10A792B0030220021024F
:100600000B3003192002031C362B003021005B0243
:10061000053003195A02031C142B01305B022D30E4
:1006200003195A02031C1D2B64084C278031183013
:10063000D201D20AD301D30A2D2B652780310319A9
:100640002002031C302B21006408F83905383427B8
:10065000803123001830D201D3012100E404392B6A
:1006600021006408E7390838E400392BE73021001D
:10067000E405640C3C278031031DF82A792B65279B
:10068000803103192002031CF82A21006408F8397C
:100690000638E4002200A001A1012300D201E42ACF
:1006A00064080739013A0319D62A033A0319AD2A17
:1006B000013A0319A02A073A03193F2B013A0319FB
:1006C000A72A033A0319FD2A792B792BE41F732BF0
:1006D000D508031D792BE41364176408F83903382F
:1006E00034278031792BE41A792BE4164D08031D49
:1006F0009E2A23005E082200CB002100B501B50A26
:100700002300DB08031D8A2B2200BA08031D8A2B55
:100710002100B50121003508CF0022004D08031942
:10072000982B24005F082100C40024005E08B42B2D
:1007300023005A080319A32B240059082100C400E0
:1007400024005808B42B21004F080319AE2B2400B5
:1007500057082100C40024005608B42B2400550873
:100760002100C400240054082100C3005B08D2000B
:100770005A08D1004308D1024408D23BE31C392C6B
:100780005D08EE2680317F2680312C082100C900CB
:1007900020002D082100CA00CB01CC014C08A30089
:1007A0004B08A2004A08A1004908A00024006B08D9
:1007B000FB3E2100BD00FF3024006C3D2100BE0047
:1007C000BF01C0014008C8003F08C7003E08C6007E
:1007D0003D08C5001F302000BA002100C837C70CF3
:1007E000C60CC50C2000BA0BED2B21004008CC0034
:1007F0003F08CB003E08CA003D08C90048085C27F6
:100800008031031D0D2C00304702031D0D2C0030DC
:100810004602031D0D2C0130450203182B2CC81B6A
:10082000242C4C082302031D1F2C4B082202031DFD
:100830001F2C4A082102031D1F2C490820020030EA
:10084000031C0130AC00252CAC01AD012D08AB0020
:100850002C08AA002E2CAA01AA0AAB012B082A04F4
:100860000319822CE310631563162400C201C3012F
:10087000802C631D782C14306B0203184A2C053031
:100880006B02031C4A2CE319562C631E482C63127E
:1008900063117F2CE31D582C5D08EE2680317F26E6
:1008A0008031232780310318822C2100E311482C4A
:1008B000631E822C5D08EE2680317F26803123273F
:1008C00080310318652C2100472C07302400430297
:1008D000D13003194202031C742C21006312E3156A
:1008E0002300D101D10A822CC20A0319C30A822C27
:1008F0006318822C631422006F0B822C2100E314F6
:100900002300D101230051082200C600230055080E
:100910002200C3002100621E982C2300FD26803196
:100920000318D52C21006212E2142200B401D52C48
:10093000621CAC2C2300FD2680310318A22C210060
:100940006210BC2C653022003402031CAA2C21004A
:100950006210D22CB40AD52CE21CC12C2300112722
:1009600080310318B52CE210D22C3330220034022F
:10097000031CAA2C2100E21062152300D801D80A1A
:10098000D52C621DCB2C2300112780310318D52CC8
:1009900062116214952CE219D52CE21522006F0B1E
:1009A000D52C210062162300D8012300580822000C
:1009B000C7003908CA002100B601B60A2300D308CF
:1009C000031DE82C2200B708031DE82C2100B60106
:1009D000210036082200C800230056082200C40067
:1009E00024005D082000AD0024005C082000AC005D
:1009F000432780317F2680312D082100A900200067
:100A00002C082100A800A835A90DA835A90DA835E6
:100A1000A90DB701B70AD508031D142D2300D2086C
:100A2000031D142D2100B70121003708CE00B801A5
:100A3000B80ACE08031D222D2200C508031D222D51
:100A40002100B80121003808D00023006D060319E9
:100A5000332DEC08031D332D0130EB01EA00383053
:100A6000E9008030E80021004E080319392DD30138
:100A7000992D2200450803199B2D21004F080319C9
:100A8000432DCA30982D6B082000AC00E03054276D
:100A90008031C92680312E082100D70020002D0882
:100AA0002100D600E0302000AC005F3054278031B8
:100AB000C92680312C08BA002D08BB002E08BC00C6
:100AC0002F08BD000730BD36BC0CBB0CBA0C890B1F
:100AD000632D3A082100D60220003B082100D73BB5
:100AE000C830D6070318D70A5708803AFF0080306D
:100AF0007F02031D7D2DC93056020318962D21005B
:100B00005708803AFF0080307F02031D892D3C305A
:100B10005602031C8E2D21005608902D3C302100DA
:100B2000AE00AF012F08D4002E08F32DC8302100ED
:100B3000D300D401F42D20000330AF01AE01AD008D
:100B40002030AC0023006B082000B30023006A08AB
:100B50002000B200230069082000B10023006808CB
:100B60002000B000692780312D082100D900200025
:100B70002C082100D800220052082000AC00AD0152
:100B8000432780317F2680312C082100D8072000A0
:100B90002D082100D93D5908803AFF0080307F029E
:100BA000031DD42D01305802031CDE2D003021001E
:100BB0005902CB30031958020318412D2100D91BCB
:100BC000ED2D00305902283003195802031CED2D79
:100BD0005908B1005808B000F02D2830B000B1011C
:100BE0003108D4003008D30054082000BB00210095
:100BF00053082000BA00BB36BA0C3A082200E300C2
:100C0000B51C052EB510B5150F2E35190F2EB51DB7
:100C10000C2EB51135150F2E35180F2E3514210059
:100C200050082300ED00210028082000BA00210010
:100C300029082000BB000030BB1BFF30BC00BD00FA
:100C40003A082300E80720003B082300E93D200084
:100C50003C082300EA3D20003D082300EB3D6B08E3
:100C60005C278031031D3E2E02306A02031D3E2E9A
:100C700077306902031D3E2E413068020318762E3C
:100C80006B085C278031031D4F2E00306A02031D64
:100C90004F2E7D306902031D4F2E00306802031C69
:100CA000612E6B082100A70023006A082100A6001E
:100CB000230069082100A500230068082100A40082
:100CC000672E21007D30A701A601A500A4012708F9
:100CD0002300EB00210026082300EA00210025085C
:100CE0002300E9002100240823007C2E0230EB01C0
:100CF000EA007730E9004030E800EC010800B0017C
:100D0000B1012C1C872E2E08B0072F08B13DAE353F
:100D1000AF0DAD36AC0C2D082C04031D812E31080F
:100D2000AD003008AC000800003025020630031981
:100D300024023E08031CA52EF8390338BE00230008
:100D40001830DD012200BE040800E7390838BE0073
:100D500008004C080319B52E3C08F8390238BC00CD
:100D60001830A201A301BC04080000302302653042
:100D7000031922023C08031CC52EF8390538BC00B3
:100D80001830B801B701BC040800E7390838BC00C6
:100D90000800B401B501B601B7012C1CD72E3008EC
:100DA000B4073108B53D3208B63D3308B73DB0351C
:100DB000B10DB20DB30DAF36AE0CAD0CAC0C2F08AF
:100DC0002E042D042C04031DCD2E3708AF00360849
:100DD000AE003508AD003408AC0008002000AD00BE
:100DE00021005C082000AC0021005B082000AF005F
:100DF00021005A082000AE0008006E08FE3E2000C8
:100E0000BA00FF3023006F3D2000BB0021005D08C9
:100E100020003B02031D080021005C0820003A026C
:100E200008006E08023E2000BA00003023006F3D2B
:100E30002000BB0021005D02031D080020003A08CD
:100E400021005C02080024006B08053E2000BA0067
:100E5000003024006C3D2000BB002D083B02031D28
:100E600008002C083A020800E4002200A001A101B9
:100E70002400C401C50108002000BA00BA0C3A0CD5
:100E80000339033A0800210052082000AF00210076
:100E900051082000AE000800F8390438E4002200B0
:100EA000A001A10123000800AD01AE01AF01B00017
:100EB000B101B201B3010800803AFF0080307F0227
:100EC0000800003021005B020534003022002102BE
:100ED000C934B501AF1F792FAC09AD09AE09AF090F
:100EE000AC0A0319AD0A0319AE0A0319AF0AB5011A
:100EF000B50AB31F882FB009B109B209B309B00A06
:100F00000319B10A0319B20A0319B30A0130B5066D
:100F1000B601B701B801B9012F082E042D042C0425
:100F20000319BE2FB401B40AAF1B9B2FAC35AD0D16
:100F3000AE0DAF0D932FB635B70DB80DB90D2F0807
:100F40003302031DAD2F2E083202031DAD2F2D08D5
:100F50003102031DAD2F2C083002031CB82F2C08C2
:100F6000B0022D08B13B2E08B23B2F08B33B36141C
:100F7000AF36AE0CAD0CAC0CB40B9B2F350803197F
:100F8000CC2FB609B709B809B909B60A0319B70AC7
:100F90000319B80A0319B90A3908AF003808AE00B6
:100FA0003708AD003608AC00080022006430D30AD0
:100FB0005302031CDE2FD3010E1008005608530203
:100FC00003180E140800640080010131890BE42F1E
:100FD0000034D90A0800FF3FFF3FFF3FFF3FFF3FBC
:100FE000FF3FFF3FFF3FFF3FFF3FFF3FFF3FFF3F11
:100FF000FF3FFF3FFF3FFF3FFF3FFF3FFF3FFF3F01
:10100000FF3FFF3FFF3FFF3FFF3FFF3FFF3FFF3FF0
:10101000FF3FFF3FFF3FFF3FFF3FFF3FFF3FFF3FE0
:10102000FF3FFF3FFF3FFF3FFF3FFF3FFF3FFF3FD0
:10103000FF3FFF3FFF3FFF3FFF3FFF3FFF3FFF3FC0
:10104000FF3FFF3FFF3FFF3FFF3FFF3FFF3FFF3FB0
:10105000FF3FFF3FFF3FFF3FFF3FFF3FFF3FFF3FA0
:10106000752882208831A60026001D082200A700CE
:1010700088280230D70026001C082200A80026007D
:101080001D082200A900053026009E0008008220CD
:101090008831AA0026001D082200AB002B0823007F
:1010A000C60022002A082300C500220026082300CB
:1010B000C502220027082300C63B2200290823007E
:1010C000E100220028082300E00022002608230077
:1010D000E002220027082300E13B22002B08A700A2
:1010E0002A08A6008828D701080022005708003ADD
:1010F00003193128013A03193928033A03194728FB
:1011000073280800D701D70A26001C08220008000F
:10111000043026009E000800210066080319942868
:10112000C8306602031C9F2822003D08F0390738AA
:101130000721DA01D9012200B901B90A08008C306F
:1011400023004802A03003194702031CAE28AB302D
:101150004802E13003194702031CC52822003D085C
:10116000F0390638B72822003D08F0390338072146
:101170008831BF2822003D08F03908380121DA0102
:10118000D901D90A2200B9010800063021006602FF
:10119000031CB32809306602031CBA28C03066025B
:1011A000031CD72822003D08F0390438B72817302F
:1011B0006602031CE62822003D08F0390238BD0013
:1011C0002300DC01DA01DB01D901C22814306602F8
:1011D000031CF52822003D08F0390538BD00230026
:1011E000DC01DB01DA01DA0AE428143066020318B4
:1011F000080022003D08F039013801218831DA0168
:10120000E428BD002300DC01DC0ADB010800BD008E
:101210002300DC01DB01DB0A0800220062083B3A04
:10122000031D2F2E20005308D8005308803A0319BD
:101230003529103A03194529013A0319C129023AFF
:101240000319062A073A0319832A013A0319DA2AED
:101250000D3A0319BD2C073A0319662D3F3A0319BD
:10126000B52D5A3A03191A2E2C2E5808803A031D10
:1012700008009030D80022003A30ED01ED0A20003D
:10128000B7008030E02690319B285808903A031D23
:1012900008009029F0309631C32689312100B4002E
:1012A000F1309631C32689312100B500F2309631F4
:1012B000C32689312100B600F3309631C326893127
:1012C0002100B7000230B301B2012200ED009929DC
:1012D000EB309631C32689312100B400EC309631D1
:1012E000C32689312100B500ED309631C3268931FE
:1012F0002100B600EE309631C32689312100B700B7
:10130000EF309631C32689312100B3009130B2010C
:101310002000D8009929903090318A20893199296C
:1013200022006D08013A03194A29033A0319682972
:101330008B2921003408FF3A0319BA293508FF3AEE
:101340000319BA293608FF3A0319BA293708FF3AB0
:101350000319BA293308FF3A0319BA293208FF3AA8
:101360000319BA293A3033268931E926BE001030F4
:1013700090319B287F302000B7009030B826903104
:101380009B285808913A031D0800F4309631C32673
:1013900089312100B400F5309631C326893121000E
:1013A000B500F6309631C32689312100B600F730FA
:1013B0009631C32689312100B700F8309631C32613
:1013C000893109278931031DFB293508FF3A031D9F
:1013D000FB293608FF3A031DFB293708FF3A031D96
:1013E000FB293308FF3A031DFB293A3033268931A4
:1013F000C1268931002A7F302000B7005308B82663
:1014000090319B2092302000D80008005808933A71
:10141000031D0800D22789312D082300BE002000BB
:101420002C082300BD00FF30FE2689311514000072
:101430000000230014082400BB002300130824002C
:10144000BA00FE302300FE2689311514000000008A
:10145000230014082400BD00230013082400BC004E
:101460000430383E8600023087003A082000C2006F
:10147000C101403F41072400B800413F2000423DE8
:101480002400B9003A082100B60024003C082100DD
:10149000B70023003E082100B30023003D082100CF
:1014A000B20023003E0824003906031D5B2A2300F6
:1014B0003D0824003806031D702A3A302000B7008A
:1014C0005308B8009730B901BA002100360820004F
:1014D000BB00210037082000BC00E92689317B2AA7
:1014E0007F302000B7005308B800FF30B900BA00C1
:1014F000BB00BC00BD00BE00103090319B2094307A
:101500002000D80008005808943A031D080052082B
:101510002200E400E408031D8F2A6F30E40023005A
:101520004A082000C200230049082000C100C2363A
:10153000C10CC236C10C41082100B400220064086D
:10154000FD3E2000C100FF3003180030C200803A89
:10155000C30080304302031DB12A2100340820005B
:1015600041020318CF2A22006408033E2000C10074
:10157000003003180130C200803A803C031DC32AAA
:101580004108210034020318CF2A3A302000B70066
:101590005F2689311030BA01F9268931D42A7F308B
:1015A0002000B7005308B82690319B2095302000CA
:1015B000D80008005808953A0319AB2CBA2C96317C
:1015C000FF2689310B138B13250093012200353040
:1015D0000D158E158E100E1221009D00A001F22A0D
:1015E000000000002100A00BF02AA101F92A000050
:1015F00000002100A10BF72AA201002B000000002F
:101600002100A20BFE2AA301072B000000002100ED
:10161000A30B052BA4010E2B000000002100A40B3E
:101620000C2BA501152B000000002100A50B132B8E
:101630009631CE26893121009D149631E7268931D5
:101640002D082300E50020002C082300E4003108C9
:10165000E402031CE503220009300E158E148E11DE
:101660000E1221009D00A601372B00000000210072
:10167000A60B352BA7013E2B000000002100A70B75
:101680003C2BA801452B000000002100A80B432B98
:10169000A9014C2B000000002100A90B4A2BAA0134
:1016A000532B000000002100AA0B512BAB015A2B39
:1016B000000000002100AB0B582B9631CE2689315B
:1016C00021009D149631E72689312D082300E3007F
:1016D00020002C082300E2003008E202031CE30390
:1016E000220011308D140E168E108E1121009D00D7
:1016F000AC017C2B000000002100AC0B7A2BAD016B
:10170000832B000000002100AD0B812BAE018A2B42
:10171000000000002100AE0B882BAF01912B0000D0
:1017200000002100AF0B8F2BB001982B00000000B0
:101730002100B00B962BB1019F2B0000000021006F
:10174000B10B9D2B9631CE26893121009D14963107
:10175000E7262D082300E70020002C082300E600E0
:101760003208E602031CE703E53022008E050C3048
:10177000250093000B178B172100EA01EA0A0800E5
:101780002300DA268931C8268931262789312D0898
:10179000B30002300E278931DA268931C826893113
:1017A000262789312C08B30003300E2703309631E9
:1017B000C3268931C10002309631C3268931220007
:1017C000E800200041082200E70021006A08B40078
:1017D000230063082000AD00230062082000AC0055
:1017E000220068082000AF00220067082000AE0039
:1017F00086317F2689312D082100B6002200680835
:101800002100B700220067086626893148269031FA
:101810009B2002302100EA0008002300D4268931F1
:10182000C8268931262789312D08B30004300E27B8
:101830008931D4268931C8268931262789312C0857
:10184000B30005300E2705309631C3268931C1001B
:1018500004309631C32689312200EA002000410875
:101860002200E90021006A08B40023006508200076
:10187000AD00230064082000AC0022006A082000AC
:10188000AF00220069082000AE0086317F26893132
:101890002D082100B60022006A082100B7002200AE
:1018A000690866268931482690319B200330210043
:1018B000EA0008002300CE268931C8268931262770
:1018C00089312D08B30006300E278931CE268931A3
:1018D000C8268931262789312C08B30007300E2706
:1018E00007309631C3268931C10006309631C326B0
:1018F00089312200EC00200041082200EB00210089
:101900006A08B400230067082000AD0023006608C1
:101910002000AC0022006C082000AF0022006B0801
:101920002000AE0086317F2689312D082100B600C7
:1019300022006C082100B70022006B08662689315E
:10194000482690319B2098302000D80008002000C5
:10195000530890318A2821006A08003A0319DF2AC7
:10196000013A0319C02B033A03190D2C013A03194C
:101970005A2CA72C530890318A285808983A031DEE
:10198000080052082100EF0020005208013A031914
:10199000D32C023A0319F72C073A03191B2D013AED
:1019A00003193F2D632D04278931031D08005208B8
:1019B0002100B4004B2789318D2686317F2689315D
:1019C000AA2680310A008C317D2689310318F42C37
:1019D00021006A2689310318F42C3A30332610305E
:1019E000BD01BE0190319B289C2690319B28042785
:1019F0008931031D080052082100B4004B278931AA
:101A00008D2686317F268931AA2680310A008D31C4
:101A10007D2689310318182D21006A268931031883
:101A2000182D3A3033261030BD01BE0190319B286D
:101A30009C2690319B2804278931031D08005208F9
:101A40002100B4004B2789318D2686317F268931CC
:101A5000AA2680310A008D317D26893103183C2D5C
:101A600021006A26893103183C2D3A303326103084
:101A7000BD01BE0190319B289C2690319B280427F4
:101A80008931031D080052082100B4004B27893119
:101A90008D2686317F268931AA2680310A008D3134
:101AA0007D2689310318602D21006A2689310318AB
:101AB000602D3A3033261030BD01BE0190319B2895
:101AC0009C2690319B28530890318A2858089F3AC9
:101AD000031D080052082200EE009C2D373097317C
:101AE000BC278931210037306D10ED10ED136D11D9
:101AF000ED156D126D13ED12B5000830B400033012
:101B00002200EE00A42D4D309731BC2789312100F1
:101B10004D30F1268931ED16B500B401B40A22002A
:101B2000EE01EE0AA42D0B309731BC27893121003C
:101B3000F1268931ED12A42D6E08023A0319832D86
:101B4000063A03196E2D932D21003A30B701B301E7
:101B5000B2012000B7005F2689312100350820003E
:101B6000BA001030F92690319B285808A03A031D7E
:101B700008005208B300F4300E27893122005E08B5
:101B80002000B300F5300E27893122005F082000C5
:101B9000B300F6300E278931220060082000B30020
:101BA000F7300E278931220061082000B300F83099
:101BB0000E27F4309631C32689312100B400F53068
:101BC0009631C32689312100B500F6309631C326FF
:101BD00089312100B600F7309631C32689312100C2
:101BE000B700F8309631C3268931092789310319A6
:101BF0000F2E3508FF3A03190F2E3608FF3A031946
:101C00000F2E3708FF3A03190F2E3308FF3A031936
:101C10000F2E3A3033268931C1268931142E7F3078
:101C20002000B7005308B82690319B20FA302000DE
:101C3000D80008005808FA3A031D08003A30B700E7
:101C40005308E02690319B20893155302000B300A5
:101C50000E2720008E120800580890318A28200094
:101C6000580890318A282000B7005308B800210096
:101C700034082000B900210035082000BA002100F6
:101C800036082000BB00210037082000BC000800F7
:101C9000B7005308B800210034082000B900BA0189
:101CA000210036082000BB00210037082000BC00BE
:101CB000210033082000BD001030BE010800530889
:101CC000B800210034082000B90008002100B3004A
:101CD00020003A343708FD3E2000C100FF300318D1
:101CE0000030C200803AC30080304302031D080068
:101CF00021003608200041020800B700033E200002
:101D0000C100003003180130C200803A803C031D3E
:101D10000800410821003602080089362100B5007C
:101D2000220033082000AD00220032082000AC0061
:101D30000530AE00AF0108007F302000B700530827
:101D4000B8005208B900FF30BA00BB00BC00BD00AB
:101D5000BE0010342C08C1002D08C200C236C10CD0
:101D6000C236C10C41082100B60035082B3E0800E0
:101D7000B800FF30B900BA00BB00BC00BD00BE0017
:101D80001034210033082000BD001030BE010800CF
:101D90002000AC007830AE01AF00080067082000DA
:101DA000AD0023006608080065082000AD00230090
:101DB0006408080063082000AD00230062080800E2
:101DC000B8001030B901BA01BB01BC01BD01BE01B0
:101DD0000800210033082000BD0021003208200047
:101DE00008006D10ED10ED136D11ED116D126D13F6
:101DF0000800BB01BC01BD01BE01080091001F30FD
:101E0000920015119517080021006F082000520656
:101E100008002100B3003408FF3A0800B400230092
:101E200091002000330823009300553015139513BB
:101E300015158B139600AA30960095148B17151163
:101E40002300951C080000000000202FB101B20102
:101E50002D082C040319462FB001B00AAD1B332FF7
:101E6000AC35AD0D2D2FB135B20D2D082F02031D50
:101E70003B2F2C082E02031C422F2C08AE022D08EB
:101E8000AF3B3114AD36AC0CB00B332F3208AD0084
:101E90003108AC000800230045082000B5002300ED
:101EA00046082000B600B701230060082000AC00FF
:101EB000230061082000AD00C830AE01AF00B001C2
:101EC000B101B52789312C08B8002D08B9002E08BA
:101ED000BA008327893135082200D400D408031DB5
:101EE000792F0530D50A5502031C7F2F5408D000E6
:101EF0007F2FD5015408D0002300E001E10122002A
:101F00005008C83C0800BB01BC01BD0137083604BD
:101F100035040319AE2FBE01BE0AB71B932FB5358A
:101F2000B60DB70D8C2FBB35BC0DBD0D37083A0271
:101F3000031DA02F36083902031DA02F35083802D3
:101F4000031CA92F3508B8023608B93B3708BA3B3D
:101F50003B14B736B60CB50CBE0B932F3B08B5003F
:101F60003C08B6003D08B7000800B201B301B40157
:101F70002C1CC02F2F08B2073008B33D3108B43DE8
:101F8000AF35B00DB10DAE36AD0CAC0C2E082D0436
:101F90002C04031DB82F3208AC003308AD00340800
:101FA000AE000800FE30B201B301B001B101AE00D5
:101FB0001F30AF000130AE020030AF3B2E0A0319D4
:101FC0002F0A0319FB2F3208230091002000330849
:101FD000230092001511951715140000000023002E
:101FE00013082000B007230014082000B13DB20AF6
:101FF0000319B30ADA2F3108AD003008AC0008002D
:10200000FF3FFF3FFF3FFF3FFF3FFF3FFF3FFF3FE0
:10201000FF3FFF3FFF3FFF3FFF3FFF3FFF3FFF3FD0
:10202000FF3FFF3FFF3FFF3FFF3FFF3FFF3FFF3FC0
:10203000FF3FFF3FFF3FFF3FFF3FFF3FFF3FFF3FB0
:10204000FF3FFF3FFF3FFF3FFF3FFF3FFF3FFF3FA0
:10205000FF3FFF3FFF3FFF3FFF3FFF3FFF3FFF3F90
:10206000FF3FFF3FFF3FFF3FFF3FFF3FFF3FFF3F80
:10207000FF3FFF3FFF3FFF3FFF3FFF3FFF3FFF3F70
:10208000FF3FFF3FFF3FFF3FFF3FE7302100600280
:10209000031C592874209031671650287420E716C5
:1020A0002300DF01DF0A2200BA012300DE01DE0A7D
:1020B00008002D306002031C4E28742090313F3000
:1020C000600203186C28E7172300DF012200BA0121
:1020D000BA0A2300DE01080067172300DF0122008F
:1020E000BA012300DE0108007D2867120800E7120C
:1020F0000800E71308006713080067080739013A6A
:1021000003197728033A03197928063A0319752821
:102110007B2808002000C000FF30D2002200DE0033
:10212000DF00E000E1007F302000B70040088E3182
:10213000B82690319B28BF00CF1D9C280230AC00F0
:1021400005302C219031D1008600023087003708FD
:102150008100D10A5108860038088100D10A51084F
:10216000860039088100D10A510886003A088100AA
:10217000D10A510886003B088100D10A5108860027
:102180003C088100D10A510886003D088100D10A2F
:10219000510886003E0881000830D10AAD00553054
:1021A000AE007730AF01B000B1013F0843214F08C6
:1021B0002200BB00F030BB050800BB00CF1DDE28AD
:1021C0003B08B7000830B80005302F219031CF1DF3
:1021D000E728F0304F05BA0022003B06031908003B
:1021E00020000530AC012C219031D1008600023056
:1021F000870001082400B000D1219031B100D12125
:102200009031B200D1219031B300D1219031B4008E
:10221000D1219031B500D1219031B600D121B70044
:1022200030082200E200240031082000D3002400FE
:1022300032082000D200240033082200DE002400EF
:1022400034082200DF00240035082200E0002400CA
:1022500036082200E10008002C08603E0800CF1D6F
:10226000080038082200C0002000CF142400C60156
:10227000C70120002430AD01AE003330AF01B00003
:10228000B10137084329B200B3000F30CF050D303C
:102290002300B5001330B6012400CA00CB01200092
:1022A0002F082300B40020002E082300B3002000D4
:1022B00031082400C900200030082400C800200094
:1022C000CF1D080055302400E00020003308AB216A
:1022D00090312400E1002100E8012000CF1C742986
:1022E00002302200BF009B292D08023E2200BF00C1
:1022F00020000230B401B501B60022003F082000E2
:10230000360203188E293608603E860002308700A8
:102310000108B4070318B50AB60A7D2922003F0850
:10232000603E860002308700200035083407FF3AFF
:1023300081002200BF0A2300FF309E159A000F3053
:102340002000CF054F142100E91469152200C101B6
:102350002000CF110800AC003F30AC052C1CB22986
:102360004030AC06AC1CB6294030AC062C1DBA2956
:102370004030AC062C1EBE294030AC06AC17AC1C5D
:10238000C3298030AC06AC1DC7298030AC062C1E9A
:10239000CB298030AC06AC1ECF298030AC062C088F
:1023A00008002000D10A5108860001082400080016
:1023B0008130210095002200EF01EF0A8B138B0181
:1023C00021009101920193012200DA01DB01210039
:1023D0008830EC012400EB001330EC00B83023000F
:1023E000EE00EF01F12291315722913172229131A9
:1023F0008A22913101301522913104301522913118
:102400000630152291310530902291314E229131C2
:10241000E5229131102391312400DA01DB013C26C1
:1024200091312C230B178B1708002000AD003C2A9C
:1024300000300D278B12080001300D277530200069
:10244000980021001110080002300D2707302000ED
:102450009C0021009110080004300D270E30280048
:10246000970021009314080006300D27053028003E
:102470009E002100931508002D08003A0319182A20
:10248000013A03191C2A033A0319242A063A0319AC
:102490002C2A023A0319342A4D2A0800A0302100C0
:1024A0009E009D0130301D1422009704080020007A
:1024B0008E12AC015D2A000000002000AC0B5B2AEC
:1024C0008E16AD01652A000000002000AD0B632AC6
:1024D0008E12AE016D2A000000002000AE0B6B2AA8
:1024E0008E1608009F3023009B0001309C00263090
:1024F0009E0090309D0048309F00210091012400F3
:102500005F242200C2012000CF012100E901200048
:10251000CF150800F0302100990011309700080015
:102520002000AC002200D401D501D22A250093015D
:102530009101920121001115200005301111250093
:102540009300080025009A019801990121001214B6
:1025500020000530121025009A0008002600930183
:10256000910192012100131620000530131226005C
:102570009300080026009A01980199012100931602
:1025800020000530931226009A00080026009E01C4
:102590009C019D0121001317200005301313260014
:1025A0009E00080020002C08013A0319962A033ADD
:1025B0000319A22A013A0319AE2A073A0319BA2AC3
:1025C000013A0319C62AE42A080021000B30ED0164
:1025D000BC272300E201E301E401E501E601E70194
:1025E000080027308C0029308D0022008C018D01DD
:1025F0008E015530C3269131553A0319012B8E1A9D
:10260000082B7F3021008C0039308D008E010800AE
:102610007F3021008C0039308D0080308E00080022
:102620002100EE0108306E020318080031309D00D1
:10263000CE269131E72691312D08D6002C08D50001
:1026400021006E35203E8600023087005E30C03F9C
:102650000130C13FEE0A122B250096018030220086
:10266000910092012100873092122500940095017B
:102670000C309300910121000430121025009A00C3
:10268000FF3098009900643020009B0005309C00CA
:1026900028302200CE00210091142000CE01502BC2
:1026A00020004E1B0800A630CE122200AE00AF0163
:1026B0002000D001D00A2100DE01DF012000D4017A
:1026C000CA01CB012400CC01CD01250096012000D8
:1026D000CE154E172200D801250091012200E601F7
:1026E00020004E169B31E92B23009E19F72B20006A
:1026F000911EF72BCF1D902B23001D080639031DBB
:10270000F72B1908803A031DF72B24005F24913121
:102710006C249131E91E8E2BE912F72B6914F72BEB
:102720004F1CCC2B23001D08063903199B2B2100BD
:102730006808031DD32B21006808023A0319E91029
:10274000220042080319A62BC203F72B41082300DD
:1027500019060319AD2B6C30F52B22003F08031925
:10276000C22B230019082200C100210066249131E8
:1027700001082200C10023009A002200BF032100AB
:10278000E80AF72B2000CF1CC92B4F102100E801CD
:10279000F72B21006911F42BCF1CF72B23001D0808
:1027A00006390319D52B7C30F52B2200400803197C
:1027B000EB2B2100662491312300190881002200AF
:1027C000C003230019082400C6070318C70A471CC2
:1027D000BF2BC60ABF2B2300190A2400C6074608D0
:1027E0000319F42B5C30F52B083052249131200072
:1027F000CF19382C2100691D312CE91C142C230021
:10280000360835040319082C0130B5020030B63BF8
:1028100024004B084A040319122C0130CA0200306C
:10282000CB3B1C2C2C301A2C230036083504031902
:102830001C2C1C305224913123003408330403191A
:10284000252C0130B3020030B43B24004908480471
:1028500003192F2C0130C8020030C93B08004C304E
:10286000522C230034083304031908003C30522C46
:102870002100E91A08002400410840043F043E04F6
:1028800003194F2C0130F100F201F301F401BE02F3
:102890007208BF3B7308C03B7408C13B08002100AD
:1028A00069170800F0006C249131E9012400C60189
:1028B000C70170082000CF0024005F2408002730E3
:1028C000C101C001BF00BB30BE0008006808603E07
:1028D0008600023087000800230019082200C1008A
:1028E000210008004830D7018400003085000F30F7
:1028F0008731E3279131DA308400003085001530CC
:102900008731E32791312030840001308500473042
:102910008731E3279131A0308400013085004830B1
:102920008731E327913120308400023085004B301D
:102930008731E32791318030D80021000130EF004A
:102940002200E700E801E900EA01EB00EC01ED00FC
:102950000730EE0023008030E8003830E900013015
:10296000EA00EB01EC00ED002000B62CD8219131FB
:1029700004300D2791312200E50122005908200082
:10298000C400C5014508C7002200650820004402B4
:10299000C600031CC70347040319BD2C22005908B5
:1029A000E500DA0ADB0A2100EC0AED1CDE2CC83057
:1029B00020009B00220063352000F62C7D30200093
:1029C0009B000430B200B301220063082000AC0079
:1029D0000530AD01AE00AF0186317F2691312D0863
:1029E000B5002C08B400FC2591313208D4002E2704
:1029F0009131033022005A020318DA0105305B02DC
:102A0000031CD32DDB0164008F314B279131210052
:102A1000EB0023004608C8004508C7002200330821
:102A20002100DB00220032082100DA0023004408E4
:102A3000CE004308CD0005302400DC00DD0122007B
:102A4000D2012100ED1C3B2D6B362B3E80310A005C
:102A500089362400D4008A30D50180310A008936B5
:102A6000D6003630D70180310A0095318936D8003A
:102A7000D9019531752D05302000B200B301210038
:102A80006B362B3E80310A00953120009731C127EB
:102A90009131FC2533082400D500200032082400A1
:102AA000D40005302000B2008A30B30180310A0022
:102AB0009531C1279131FC2533082400D70020002F
:102AC00032082400D60005302000B2003630B301B1
:102AD00080310A009531C1279131FC25330824004B
:102AE000D900200032082400D80023004A08200022
:102AF000C500230049082000C400C536C40CC536F3
:102B0000C40C44082100E000E10123004C0821002E
:102B1000DD0023004B082100DC00003020004E18AF
:102B200001302200CC00C5018031DC20913122002F
:102B3000EF01E308031D9F2DFF269131A12D5023A6
:102B4000913122004A0821006D10031D6D142200EE
:102B500043082100ED10031DED142200440821005C
:102B6000ED13031DED172200470821006D11031D11
:102B70006D15220048082100ED11031DED152200FE
:102B8000460821006D12031D6D1622004B0821001E
:102B90006D13031D6D17220049082100ED12031D5E
:102BA000ED1620004E1021006C08193A031DE52D8A
:102BB000982791315530C3269131553A031D8E1E09
:102BC000E52D11309031DD20913121006C08253A3E
:102BD000031DF42D5530C3269131553A031D8E1E29
:102BE000F42D89310D219131653021006C020318DB
:102BF000EC012200CD01BD2CB701B31F062EB20996
:102C0000B309B20A0319B30AB701B70AB51F0F2EE9
:102C1000B409B509B40A0319B50A0130B706B801F9
:102C2000B9013308320403192F2EB601B60AB31BBB
:102C30001C2EB235B30D162EB835B90D330835023A
:102C4000031D242E32083402031C2B2E3208B4023A
:102C50003308B53B3814B336B20CB60B1C2E37080C
:102C60000319372EB809B909B80A0319B90A39087E
:102C7000B3003808B20008000330C3269131003A8F
:102C80000319562E0330C3269131FF3A0319562EED
:102C90000330C3269131AF000230C32691312200A8
:102CA000E80020002F082200E7005A2E2200013001
:102CB000E701E8000530C3269131003A0319742E6C
:102CC0000530C3269131FF3A0319742E0530C3260F
:102CD0009131AF000430C32691312200EA00200078
:102CE0002F082200E900782E22000130E901EA00D5
:102CF0000730C3269131003A0319922E0730C326BC
:102D00009131FF3A0319922E0730C3269131AF005B
:102D10000630C32691312200EC0020002F0822004B
:102D2000EB00962E22000130EB01EC001A300E1160
:102D30000D118D108E04CE269131CE269131113099
:102D400021009D00CE26913121009D14E72691316E
:102D50002C082300B200353021009D00CE26913191
:102D600021009D14E72691312C082300B100093081
:102D700021009D00CE26913121009D14E7262C08CC
:102D80002300B00008002000AC0023009100951340
:102D90001513151413082000AD00080000000000F2
:102DA0000000000000000000000000000000000023
:102DB0000000000000000000000000000000000013
:102DC00000000000000000000000000008002000DB
:102DD000AE0121009D1CF22E20004130AE0A2E02D1
:102DE000031CE92E21001C082000C90021001B083B
:102DF0002000C8004908AD004808AC0008002000C9
:102E00004E1F080022008E108E110E122500951301
:102E1000910120004E13CE130800AC001C2F950129
:102E200008009601970108009A0108002800950102
:102E3000080028009C0108002C08003A03190F2FF5
:102E4000013A0319112F033A0319142F063A0319F3
:102E5000162F023A0319192F2D2F0800332791310D
:102E6000CC279131DF2F21006E35203E86000230C5
:102E7000870020005508C03F5608C13F2E3086000D
:102E80002C30840002308500240024082207200012
:102E9000AC0024002508233D2000AD0024002608B6
:102EA00020002C07AE002400270820002D3DAF0095
:102EB0002400280820002E07B00024002908200044
:102EC0002F3DB10024002A0820003007B200240062
:102ED0002B082000313DB300003F3207B400013F12
:102EE000333DB500403F3407B600413F353DB700A4
:102EF00024002008200036072300B7002400210802
:102F00002000373D2300B800CA003708C900083048
:102F1000CA36C90CCA36C90CCA36C90C2100EE0A19
:102F20006E02031C0800EE012300B701B80108007F
:102F30006D1F9C2F5830BC2F220043080319A22F6D
:102F40002130BC2F46080319A72F4230BC2F480858
:102F50000319AC2F3730BC2F47080319B12F2C3081
:102F6000BC2F2100ED1EB62F4D30BC2F6D1CBA2F8B
:102F70001630BC2F0B30BC2F2000AC002200D60036
:102F80000800C400C501C435C50DC435C50D4408CD
:102F9000B4004508B500080023003F08B907400801
:102FA000BA3D3A08CC003908CB000630CC36CB0C01
:102FB000890BD62F4B08B9024C08BA3B08002400F5
:102FC00052082300BB07240053082300BC3D3C08E3
:102FD000C2003B08C1000630C236C10C890BEC2F81
:102FE0004108BB024208BC3BC4004108C3002400A6
:102FF0005A082300C30724005B082300C43D0800CF
:10300000FF3FFF3FFF3FFF3FFF3FFF3FFF3FFF3FD0
:10301000FF3FFF3FFF3FFF3FFF3FFF3FFF3FFF3FC0
:10302000FF3FFF3FFF3FFF3FFF3FFF3FFF3FFF3FB0
:10303000FF3FFF3FFF3FFF3FFF3FFF3FFF3FFF3FA0
:10341000FF3FFF3FFF3FFF3F003021005F020A30C8
:1034200003195E020318172ADE0A0319DF0A2200B5
:103430003635A03E86000130870020004A08C03F94
:103440004B08C13F22000730B60AB605AE308600F1
:10345000AC308400013085002300240822072000BE
:10346000A00023002508233D2000A10023002608FA
:1034700020002007A200230027082000213DA300F0
:103480002300280820002207A40023002908200088
:10349000233DA50023002A0820002407A6002300BE
:1034A0002B082000253DA700003F2607A800013F6C
:1034B000273DA900403F2807AA00413F293DAB0016
:1034C0002300200820002A072200B2002300210840
:1034D00020002B3D2200B30020004B082300D00029
:1034E00020004A082300CF002000CE122200E6016F
:1034F000E60A2000CE17CE1DE92A23005008F1006D
:103500004F08F0006430F136F00CF136F00CF13673
:10351000F00CF200F3019F3199279A3171082200D3
:10352000B1007008B0000730B136B00C890B942A96
:1035300020004B0822003102031DA22A20004A0865
:10354000220030020318B12A20009D31C3259A3190
:10355000220030082400CC02220031082400CD3B98
:10356000C82A2400CC01CD01C82AA630C42AF430D0
:103570002200AE000130AF00D82A7D30C42A53307B
:10358000C42A2930C42A21302200AE00AF01D82A33
:1035900021005F08003A0319CE2AC32A5E0884007E
:1035A0000A3004020318C32A80310435B83E820071
:1035B00000302F02213003192E020318E22A213095
:1035C000AE00AF0120004E1E202B0A302200D80092
:1035D000202B571CEF2A2400CC01CD01F42A9D3169
:1035E000C3259A31CD36CC0C4D30CC01CD01220013
:1035F000AE000130AF0020004E1F1E2B2500110829
:10360000200054060319202B250011082000540225
:103610000318142B250091031108200054020318ED
:10362000202B25009103202B2500910A200054080F
:10363000250011020318202B910A202B250091014F
:103640002000CA01CB015008FF3A031DCE2B0630E3
:10365000D000CE2B01302500960020004E1F342BC9
:1036600022009D31CB259A31220009300D118D1099
:10367000D1002530DC01DC0ADD000230920084300C
:10368000910020000630AC2B013025009600200070
:103690004E1F4E2B22009D31D0259A312200093039
:1036A0000D158D10D1000530DC01DC0ADD00013084
:1036B00092009430910020005710D001D00AE22BE4
:1036C00002302500960020004E1F6A2B22009D31FB
:1036D000D5259A31220035300E118D10D1000530DC
:1036E000DC00DD01DD0A920184309100200002300F
:1036F000AC2B02302500960020004E1F832B2200A9
:103700009D31CB259A31220035300E118D14D10018
:103710000530DC002530DD0002309200943091004D
:1037200020000330C62B04302500960020004E1FD9
:103730009D2B22009D31D0259A31220011300E118F
:103740000D11D1002530DC000530DD000130920084
:1037500084309100200004305714C72B043025001A
:10376000960020004E1FB82B22009D31D5259A319E
:10377000220011300E150D11D1002530DC00DD01C5
:10378000DD0A920194309100200005305710D000DE
:10379000E22B25009601220091015B2B5008013A93
:1037A00003192A2B033A0319442B013A0319602BFE
:1037B000073A0319792B013A0319932B033A03199A
:1037C000AE2BC92B28302200CE002000CA01CB012D
:1037D0000800003021005F020A3003195E0203185E
:1037E000F42BDE0A0319DF0A22003635A03E8600DC
:1037F0000130870020004A08C03F4B08C13F22002B
:103800000730B60AB605AE308600AC308400013011
:1038100085002300240822072000B2002300250889
:10382000233D2000B3002300260820003207B40007
:10383000230027082000333DB5002300280820007E
:103840003407B600230029082000353DB7002300C7
:103850002A0820003607B80023002B082000373D37
:10386000B900003F3807BA00013F393DBB00403F77
:103870003A07BC00413F3B3DBD002300200820002B
:103880003C072200B2002300210820003D3D220019
:10389000B30020004B082300D00020004A0823007A
:1038A000CF002000CE122200E601E60A2000CE174B
:1038B000CE1DCA2C230050082000AD0023004F0865
:1038C0002000AC006430AD36AC0CAD36AC0CAD367F
:1038D000AC0CAE00AF0186317F269B312D08220053
:1038E000B10020002C082200B0000730B136B00C27
:1038F000890B762C20004B0822003102031D842CFA
:1039000020004A08220030020318922C2000C32510
:103910009B31220030082400CC0222003108240010
:10392000CD3BA92C2400CC01CD01A92CA630A52C7F
:10393000F4302200AE000130AF00B92C7D30A52C50
:103940005330A52C2930A52C21302200AE00AF0128
:10395000B92C21005F08003A0319AF2CA42C5E0893
:1039600084000A3004020318A42C80310435903EF0
:10397000820000302F02213003192E020318C32CBD
:103980002130AE00AF0120004E1E002D0A30220073
:10399000D800002D571CD02C2400CC01CD01D42CF4
:1039A000C3259B31CD36CC0C4D30CC01CD0122004E
:1039B000AE000130AF0020004E1FFE2C2500110884
:1039C000200054060319002D250011082000540280
:1039D0000318F42C25009103110820005402031849
:1039E000002D25009103002D2500910A2000540888
:1039F000250011020318002D910A002D25009101C8
:103A00002000CA01CB015008FF3A031DA82D063043
:103A1000D000A82D01302500960020004E1F132D48
:103A20002200CB259B31220009300D118D10D100D1
:103A30002530DC01DC0ADD00023092008430910088
:103A400020000630872D01302500960020004E1FF3
:103A50002C2D2200D0259B31220009300D158D1010
:103A6000D1000530DC01DC0ADD0001309200943029
:103A7000910020005710D001D00ABC2D0230250043
:103A8000960020004E1F472D2200D5259B31220095
:103A900035300E118D10D1000530DC00DD01DD0A5E
:103AA00092018430910020000230872D02302500E1
:103AB000960020004E1F5F2D2200CB259B31220057
:103AC00035300E118D14D1000530DC002530DD00BD
:103AD000023092009430910020000330A02D043079
:103AE0002500960020004E1F782D2200D0259B3106
:103AF000220011300E110D11D1002530DC000530EF
:103B0000DD00013092008430910020000430571411
:103B1000A12D04302500960020004E1F922D22007A
:103B2000D5259B31220011300E150D11D100253005
:103B3000DC00DD01DD0A92019430910020000530A7
:103B40005710D000BC2D2500960122009101392D7F
:103B50005008013A03190A2D033A0319232D013A9B
:103B600003193E2D073A0319562D013A03196F2DFB
:103B7000033A0319892DA32D28302200CE002000FE
:103B8000CA01CB0108004B082400CD0020004A08E0
:103B90002400CC0008000E08E5390A388E00080021
:103BA0000E08E53912388E0008000E08E53918387D
:103BB0008E000800CA0A0319CB0A4B0822002F0204
:103BC000031DE62D20004A0822002E020318EB2DCB
:103BD0009A310C229D31003021005F020A30031916
:103BE0005E02031CF52D2000CE11003021005F0283
:103BF000033003195E02031CFF2D20004E12D32751
:103C00009D312200111F062ECF01042FCF01CF0AB4
:103C1000042F2D3021009D0080279D3121009D140F
:103C20006B279D3171082400D3007008D200313019
:103C300021009D0080279D3121009D142200E60A6D
:103C4000112F510821009D001B082000D5002100E4
:103C50001C082000D600000000000000000000004A
:103C60000000000000000000000000000000000054
:103C70000000000000001A2E6B279D317108CD0056
:103C80007008CC004E1BA62E9D2E23003008F42772
:103C90009D3103185F2E4D08F1004C08F000230001
:103CA0003008F002031CF10322006808F3006708E3
:103CB000F20099279D3171082300BF00612E230077
:103CC000BF01C001B22E23003108F4279D31031833
:103CD0007D2E4D08F1004C08F00023003108F00261
:103CE000031CF10322006A08F3006908F200992717
:103CF0009D3171082400CE007F2E2400CE01CF011B
:103D0000B22E23003208F4279D3103189B2E4D0854
:103D1000F1004C08F00023003208F002031CF1030C
:103D200022006C08F3006B08F20099279D3171089E
:103D30002400D000A42E2400A32E2300BF01C00124
:103D40002400CE01CF01D001D101B22E22005108B2
:103D5000093A0319452E183A0319812E243A0319FA
:103D6000632E9D2E013020004D02553003194C0268
:103D7000031CBE2EE5304E1422008E0522005D0885
:103D8000182E21001B082200AC0021001C08220074
:103D9000AD0021009D1420004E1FE32E540803198E
:103DA000E32E571CED2E22002C08643EF700003055
:103DB0002D3DF800200056087802031DE12E55081D
:103DC00077020318112F2200E60A5C0821009D00EB
:103DD00080279D3121009D14112F003022002D02DB
:103DE0001F3003192C020318E32E112FCE016B276D
:103DF0009D31753021009D0080279D311E2E2100B0
:103E00009D146B279D311E2E6608FF3E031C112F4B
:103E100084000A3004020318112F80310435A43EB7
:103E2000820020004E1F492FCE1D4B2F2200413013
:103E3000CD01CD0A2400DE00DF0120004A0803394D
:103E4000031D4B2F4E1E392F5608550403193D2FC5
:103E50005608F1005508F0008030F2003E30F300C3
:103E6000AE279D317008F9007108FA00FB01FC01D2
:103E70003D2F56085504031D282F220058087902AB
:103E80000318442FD803452FD80A5808250091005D
:103E90004B2F250091012200CE08031D692F4F08EA
:103EA0000319562F2000CE1A562FCE162000CE1EF4
:103EB000080024004D084C04031D642F2000CE1977
:103EC00008009A310C220800FF30CC07031CCD03F8
:103ED0000800CE030800F20121009D1C742F413020
:103EE000F20A7202031C6C2F1C082000C90021007A
:103EF0001B082000C8004908F1004808F00008002D
:103F000000000000000000000000000000000000B1
:103F100000000000000000000000000000000000A1
:103F20000000000000000000000000000000000091
:103F30000800F401F501701CA12F7208F407730842
:103F4000F53DF235F30DF136F00C71087004031DE8
:103F50009B2F7508F1007408F0000800F501F601C8
:103F6000710870040319CE2FF401F40AF11BBB2F62
:103F7000F035F10DB52FF535F60D71087302031DFF
:103F8000C32F70087202031CCA2F7008F202710856
:103F9000F33B7514F136F00CF40BBB2F7608F100EF
:103FA0007508F0000800000000000000000000009C
:103FB0000000000000000000000000000000000001
:103FC00000000000000000000000000000000000F1
:103FD00000000000000000000000000000000000E1
:103FE0000000000000000800F700F80120004D0864
:103FF0007802031D08004C0877020800AB006B0034
:020000040001F9
:04000E00BCFFFFDB59
:00000001FF
