:1000000080312728FF3FFF3F803120001118111059
:10001000931C0F2893108731A5278031D90A20001F
:10002000911C162891109C31002480312000931DD2
:100030001D2893118F31022780312000131F2328A0
:1000400013139031002020001218121009008801AB
:100050008A316A2A00346E346E346E3400340034CF
:1000600000340034003400340034D334D334D33477
:10007000D034CE34CC34C934C734C534C334C1349D
:10008000BF34BD34BB34BA34B834B634B434B2340B
:10009000B134AF34AD34AC34AA34A934A734A63467
:1000A000A434A334A234A0349F349D349C349B34B4
:1000B0009A349834973496349534943492349134F5
:1000C00090348F348E348D348C348B348A3489342C
:1000D000883487348634853484348334823481345C
:1000E00080347F347F347E347D347C347B347A3486
:1000F0007A347934783477347734763475347434A8
:1001000074347334723472347134703470346F34C4
:100110006E346E346E346E346E346E346E346E34CF
:100120009A31BC2A9A31BE2A9A31C42A9A31C62AF7
:100130009A31C82A9A31CA2A9A31CA2A9A31CA2AC5
:100140009A31CA2A9A31CA2A9C312E2C9C31462CCB
:100150009C31612C9C31E62C9D311B2D9C31432C14
:100160009C31432C9C31432C9D31242D9D31362DC7
:100170009E317A2E9E317C2E9E31822E9E31842E8F
:100180009E31862E9E31882E9E31882E9E31882E5D
:100190009E31882E9E31882E9031B4289031B4281B
:1001A0009031B4289031B4289031B4289031B428DB
:1001B0009031B4289031B428220062083B3A031DE4
:1001C000E12D20005308D8005308803A0319042970
:1001D000103A03191429013A03198629023A03191E
:1001E000C629073A0319422A013A0319992A0D3AF6
:1001F0000319742C073A0319202D3F3A03196C2D6B
:100200005A3A0319CD2DDF2D5808803A031D0800F6
:100210009030D80022003A30ED01ED0A2000B700FE
:10022000803039278031072E5808903A031D080086
:100230005529F030E42580312100B400F130E42567
:1002400080312100B500F230E42580312100B60074
:10025000F330E42580312100B7000230B301B20150
:100260002200ED005E29EB30E42580312100B4004E
:10027000EC30E42580312100B500ED30E4258031FB
:100280002100B600EE30E42580312100B700EF30C8
:10029000E42580312100B3009130B2012000D80064
:1002A0005E299030672780315E2922006D08013A6F
:1002B00003191929033A0319332951292100340854
:1002C000FF3A03197F293508FF3A03197F293608B9
:1002D000FF3A03197F293708FF3A03197F293308AA
:1002E000FF3A03197F293208FF3A03197F293A3070
:1002F0008C26803142278031BE001030072E7F309F
:100300002000B700903011278031072E5808913A0D
:10031000031D0800F430E42580312100B400F530DD
:10032000E42580312100B500F630E425803121003C
:10033000B600F730E42580312100B700F830E4251D
:10034000803162278031031DBB293508FF3A031D28
:10035000BB293608FF3A031DBB293708FF3A031DA6
:10036000BB293308FF3A031DBB293A308C26803164
:100370001A278031C1297F302000B7005308112788
:100380008031072692302000D80008005808933AA0
:10039000031D0800772780312D082300BE002000B0
:1003A0002C082300BD00FF305227803115140000B7
:1003B0000000230014082400BB00230013082400BD
:1003C000BA00FE30230052278031151400000000CF
:1003D000230014082400BD00230013082400BC00DF
:1003E0000430383E8600023087003A082000C20000
:1003F000C101403F41072400B800413F2000423D79
:100400002400B9003A082100B60024003C0821006D
:10041000B70023003E082100B30023003D0821005F
:10042000B20023003E0824003906031D1B2A2300C6
:100430003D0824003806031D302A3A302000B7005A
:100440005308B800B901B90ABA01210036082000E2
:10045000BB00210037082000BC00422780313B2A26
:100460007F302000B7005308B800FF30B900BA0051
:10047000BB00BC00BD00BE00103007269430200039
:10048000D80008005808943A031D080052082200BA
:10049000E400E408031D4E2A6F30E40023004A08FC
:1004A0002000C200230049082000C100C236C10C50
:1004B000C236C10C41082100B40022006408FD3E90
:1004C0002000C100FF3003180030C200803AC30092
:1004D00080304302031D702A2100340820004102AD
:1004E00003188E2A22006408033E2000C100003059
:1004F00003180130C200803A803C031D822A410863
:100500002100340203188E2A3A302000B700B826A2
:1005100080311030BA015D278031942A7F3020006D
:10052000B700530811278031072695302000D800E6
:1005300008005808953A0319632C722C8C31332427
:1005400080310B138B1325009301220035300D15DC
:100550008E158E100E1221009D00A001B12A000000
:1005600000002100A00BAF2AA101B82A0000000062
:100570002100A10BB62AA201BF2A00000000210021
:10058000A20BBD2AA301C62A000000002100A30B74
:10059000C42AA401CD2A000000002100A40BCB2A0C
:1005A000A501D42A000000002100A50BD22A8A311F
:1005B0003922803121009D148A31522280312D0848
:1005C0002300E50020002C082300E4003108E402A9
:1005D000031CE503220009300E158E148E110E1235
:1005E00021009D00A601F62A000000002100A60BB4
:1005F000F42AA701FD2A000000002100A70BFB2A16
:10060000A801042B000000002100A80B022BA90167
:100610000B2B000000002100A90B092BAA01122BB3
:10062000000000002100AA0B102BAB01192B0000C9
:1006300000002100AB0B172B8A31392280312100B9
:100640009D148A31522280312D082300E3002000BE
:100650002C082300E2003008E202031CE30322001E
:1006600011308D140E168E108E1121009D00AC01DC
:100670003B2B000000002100AC0B392BAD01422BBD
:10068000000000002100AD0B402BAE01492B000003
:1006900000002100AE0B472BAF01502B00000000E3
:1006A0002100AF0B4E2BB001572B000000002100A2
:1006B000B00B552BB1015E2B000000002100B10BE7
:1006C0005C2B8A313922803121009D148A315222DB
:1006D0002D082300E70020002C082300E600320844
:1006E000E602031CE703E53022008E050C302500EE
:1006F00093000B178B172100EA01EA0A0800230078
:1007000033278031212780315F2680312D08B300C7
:100710000230EF25803133278031212780315F2659
:1007200080312C08B3000330EF2580310330E425FD
:100730008031C1000230E42580312200E800200031
:1007400041082200E70021006A08B4002300630882
:100750002000AD00230062082000AC0022006808E1
:100760002000AF00220067082000AE004A2680313A
:100770002D082100B600220068082100B7002200E1
:100780006708BF268031A12680310726023021006C
:10079000EA00080023002D278031212780315F26C1
:1007A00080312D08B3000430EF2580312D278031B2
:1007B000212780315F2680312C08B3000530EF25DA
:1007C00080310530E4258031C1000430E4258031DA
:1007D0002200EA00200041082200E90021006A0806
:1007E000B400230065082000AD0023006408200049
:1007F000AC0022006A082000AF0022006908200037
:10080000AE004A2680312D082100B60022006A0879
:100810002100B70022006908BF268031A12680315F
:10082000072603302100EA00080023002727803133
:10083000212780315F2680312D08B3000630EF2557
:10084000803127278031212780315F2680312C0895
:10085000B3000730EF2580310730E4258031C10037
:100860000630E42580312200EC00200041082200FF
:10087000EB0021006A08B400230067082000AD00E7
:10088000230066082000AC0022006C082000AF00A6
:1008900022006B082000AE004A2680312D0821007E
:1008A000B60022006C082100B70022006B08BF26AA
:1008B0008031A1268031072698302000D80008001A
:1008C00020005308672F21006A08003A03199E2A66
:1008D000013A03197F2B033A0319CA2B013A031972
:1008E000152C602C5308672F5808983A031D0800F0
:1008F00052082100EF0020005208013A03198A2C07
:10090000023A0319AF2C073A0319D42C013A031900
:10091000F92C1E2D58278031031D08005208210094
:10092000B4008C31F4248031F42680314A268031A1
:10093000032780310A008431D62680310318AC2C7D
:100940002100C32680310318AC2C3A308C2680312C
:100950001030BD01BE01072EE6268031072E582734
:100960008031031D080052082100B4008C31F424AA
:100970008031F42680314A268031032780310A00F5
:100980008431D62680310318D12C2100C326803132
:100990000318D12C3A308C2680311030BD01BE01B5
:1009A000072EE6268031072E58278031031D0800C8
:1009B00052082100B4008C31F4248031F4268031B7
:1009C0004A268031032780310A008431D6268031BF
:1009D0000318F62C2100C32680310318F62C3A3078
:1009E0008C2680311030BD01BE01072EE6268031F5
:1009F000072E58278031031D080052082100B4003B
:100A00008C31F4248031F42680314A26803103274A
:100A100080310A008531D626803103181B2D210034
:100A2000C326803103181B2D3A308C2680311030BC
:100A3000BD01BE01072EE6268031072E5308672F21
:100A400058089F3A031D080052082200EE00532D5B
:100A5000373084268031210037306D10ED10ED13D2
:100A60006D11ED156D126D13ED12B5000830B40067
:100A700003302200EE005B2D4D30842680312100B2
:100A80004D304A278031ED16B500B401B40A22007A
:100A9000EE01EE0A5B2D0B308426803121004A27BF
:100AA0008031ED125B2D6E08023A03193C2D063A97
:100AB0000319282D4B2D21003A30B701B301B201A3
:100AC0002000B700B8268031210035082000BA0088
:100AD00010305D278031072E5808A03A031D08000A
:100AE0005208B300F430EF25803122005E08200068
:100AF000B300F530EF25803122005F082000B300FD
:100B0000F630EF258031220060082000B300F73076
:100B1000EF258031220061082000B300F830EF2576
:100B20008031F430E42580312100B400F530E42533
:100B300080312100B500F630E42580312100B60077
:100B4000F730E42580312100B700F830E42580310A
:100B5000622780310319C22D3508FF3A0319C22DCF
:100B60003608FF3A0319C22D3708FF3A0319C22D80
:100B70003308FF3A0319C22D3A308C2680311A27E8
:100B80008031C82D7F302000B700530811278031F5
:100B90000726FA302000D80008005808FA3A031D4A
:100BA00008003A30B70053083927803107268031D2
:100BB00055302000B300EF2520008E1208005808A1
:100BC000672F20005808672F2000AC0023009100F9
:100BD00095131513151413082000AD000800B40078
:100BE0002300910020003308230093005530151393
:100BF000951315158B139600AA30960095148B1734
:100C000015112300951C080000000000012EBF00F4
:100C1000CF1D082E0230AC00053089268031D1006E
:100C200086000230870037088100D10A510886000B
:100C300038088100D10A5108860039088100D10A9C
:100C4000510886003A088100D10A510886003B0805
:100C50008100D10A510886003C088100D10A510860
:100C600086003D088100D10A510886003E088100B7
:100C70000830D10AAD005530AE007730AF01B0007A
:100C8000B1013F088E3137264F082200BB00F030FB
:100C9000BB050800B001B1012C1C522E2E08B00774
:100CA0002F08B13DAE35AF0DAD36AC0C2D082C0480
:100CB000031D4C2E3108AD003008AC000800B10116
:100CC000B2012D082C0403197F2EB001B00AAD1B10
:100CD0006C2EAC35AD0D662EB135B20D2D082F0240
:100CE000031D742E2C082E02031C7B2E2C08AE0232
:100CF0002D08AF3B3114AD36AC0CB00B6C2E320866
:100D0000AD003108AC0008002000AC002200D60085
:100D100008002C08603E08002000B7005308B80007
:100D2000210034082000B900210035082000BA0055
:100D3000210036082000BB00210037082000BC003D
:100D40000800B7005308B800210034082000B9009B
:100D5000BA01210036082000BB002100370820001E
:100D6000BC00210033082000BD001030BE01080087
:100D70005308B800210034082000B9000800210001
:100D8000B30020003A343708FD3E2000C100FF3098
:100D900003180030C200803AC30080304302031DB4
:100DA000080021003608200041020800B700033E79
:100DB0002000C100003003180130C200803A803C9E
:100DC000031D080041082100360208007F30200082
:100DD000B7005308B8005208B900FF30BA00BB0092
:100DE000BC00BD00BE00103489362100B5002200D1
:100DF00033082000AD00220032082000AC0005308E
:100E0000AE00AF0108002C08C1002D08C200C23698
:100E1000C10CC236C10C41082100B60035082B3E7A
:100E20000800B800FF30B900BA00BB00BC00BD002C
:100E3000BE001034210033082000BD001030BE0178
:100E400008002000AC007830AE01AF000800670851
:100E50002000AD0023006608080065082000AD00F2
:100E600023006408080063082000AD002300620826
:100E70000800B8001030B901BA01BB01BC01BD01C6
:100E8000BE010800210033082000BD002100320807
:100E9000200008006D10ED10ED136D11ED116D12B5
:100EA0006D13080091001F3092001511951708006E
:100EB00021006F08200052060800BB01BC01BD01E3
:100EC000BE0108002100B3003408FF3A08002000EA
:100ED000C000FF30D2002200DE00DF00E000E100B1
:100EE0007F302000B700400811278031072EFE30E8
:100EF000B201B301B001B101AE001F30AF0001304B
:100F0000AE020030AF3B2E0A03192F0A0319A02F9F
:100F100032082300910020003308230092001511AD
:100F20009517151400000000230013082000B007D7
:100F3000230014082000B13DB20A0319B30A7F2F21
:100F40003108AD003008AC00080022006430D30A3C
:100F50005302031CAE2FD3010E1008005608530293
:100F600003180E140800640080010131890BB42FAE
:100F70000034D90A0800FF3FFF3FFF3FFF3FFF3F1C
:100F8000FF3FFF3FFF3FFF3FFF3FFF3FFF3FFF3F71
:100F9000FF3FFF3FFF3FFF3FFF3FFF3FFF3FFF3F61
:100FA000FF3FFF3FFF3FFF3FFF3FFF3FFF3FFF3F51
:100FB000FF3FFF3FFF3FFF3FFF3FFF3FFF3FFF3F41
:100FC000FF3FFF3FFF3FFF3FFF3FFF3FFF3FFF3F31
:100FD000FF3FFF3FFF3FFF3FFF3FFF3FFF3FFF3F21
:100FE000FF3FFF3FFF3FFF3FFF3FFF3FFF3FFF3F11
:100FF000FF3FFF3FFF3FFF3FFF3FFF3FFF3FFF3F01
:10100000FF3FFF3FFF3FFF3FFF3FFF3FFF3FFF3FF0
:10101000FF3FFF3FFF3FFF3FFF3FFF3FFF3FFF3FE0
:10102000FF3FFF3FFF3FFF3FFF3FFF3FFF3FFF3FD0
:10103000FF3FFF3FFF3FFF3FFF3FFF3FFF3FFF3FC0
:10104000FF3FFF3FFF3FFF3FFF3FFF3FFF3FFF3FB0
:10105000FF3FFF3FFF3FFF3FFF3FFF3FFF3FFF3FA0
:10106000FF3FFF3FFF3FFF3FFF3FFF3FFF3FFF3F90
:10107000FF3FFF3FFF3FFF3FFF3FFF3FFF3FFF3F80
:10108000FF3FFF3FFF3FFF3FFF3FFF3FFF3FFF3F70
:10109000FF3FFF3FFF3FFF3FFF3FFF3FFF3FFF3F60
:1010A000FF3FFF3FFF3FFF3F8130210095002200BF
:1010B000EF01EF0A8B138B01210091019201930143
:1010C0002200DA01DB0121008830EC012400EB0072
:1010D0001330EC00B8302300EE00EF016E218831B0
:1010E000D3208831EE2088310621883101309120CB
:1010F00088310430912088310630912088310530C4
:101100000C218831CA208831612188318E218831B3
:101110002400DA01DB01A6218831C5260B178B17C5
:1011200008002000AD00B828003041248B120800D0
:101130000130412475302000980021001110080072
:1011400002304124073020009C002100911008004B
:10115000043041240E302800970021009314080029
:1011600006304124053028009E0021009315080018
:101170002D08003A03199428013A03199828033AD4
:101180000319A028063A0319A828023A0319B0281F
:10119000C9280800A03021009E009D0130301D1498
:1011A00022009704080020008E12AC01D92800000C
:1011B00000002000AC0BD7288E16AD01E1280000FE
:1011C00000002000AD0BDF288E12AE01E9280000E0
:1011D00000002000AE0BE7288E1608009F30230089
:1011E0009B0001309C0026309E0090309D004830CE
:1011F0009F00210091012400ED272200C201200060
:10120000CF012100E9012000CF150800F0302100B6
:1012100099001130970008002000AC002200D40192
:10122000D5014E292500930191019201210011154C
:1012300020000530111125009300080025009A01B7
:101240009801990121001214200005301210250088
:101250009A000800260093019101920121001316C3
:1012600020000530131226009300080026009A0182
:101270009801990121009316200005309312260051
:101280009A00080026009E019C019D012100131771
:1012900020000530131326009E00080020002C08B3
:1012A000013A03191229033A03191E29013A0319B5
:1012B0002A29073A03193629013A031942296029D4
:1012C000080021000B30ED01863184262300E20165
:1012D000E301E401E501E601E701080027308C00A5
:1012E00029308D0022008C018D018E015530853111
:1012F000E4258831553A03197F298E1A86297F30D3
:1013000021008C0039308D008E0108007F302100D3
:101310008C0039308D0080308E0008002100EE01F5
:1013200008306E020318080031309D0039228831E0
:10133000522288312D08D6002C08D500FB26883192
:101340005E30C03F0130C13FEE0A90290330853145
:10135000E4258831003A0319C42903308531E42596
:101360008831FF3A0319C42903308531E4258831D7
:10137000AF0002308531E42588312200E8002000EA
:101380002F082200E700C82922000130E701E80009
:1013900005308531E4258831003A0319E629053006
:1013A0008531E4258831FF3A0319E6290530853176
:1013B000E4258831AF0004308531E42588312200EE
:1013C000EA0020002F082200E900EA29220001306B
:1013D000E901EA0007308531E4258831003A031934
:1013E000082A07308531E4258831FF3A0319082A95
:1013F00007308531E4258831AF0006308531E4259A
:1014000088312200EC0020002F082200EB000C2A7B
:1014100022000130EB01EC001A300E110D118D107D
:101420008E043922883139228831113021009D0003
:101430003922883121009D14522288312C08230042
:10144000B200353021009D003922883121009D14E1
:10145000522288312C082300B100093021009D0060
:101460003922883121009D1452222C082300B0001B
:101470000800000000000000000000000000000064
:10148000000000000000000000000000000000005C
:10149000000000000000000000000000000000004C
:1014A000000008002000AE0121009D1C5D2A2000E4
:1014B0004130AE0A2E02031C542A21001C082000D1
:1014C000C90021001B082000C8004908AD004808D9
:1014D000AC0008004830D7018400003085000F3090
:1014E0008731B3278831DA30840000308500153029
:1014F0008731B327883120308400013085004730A0
:101500008731B3278831A03084000130850048300E
:101510008731B327883120308400023085004B307A
:101520008731B32788318030D80021000130EF00A7
:101530002200E700E801E900EA01EB00EC01ED0020
:101540000730EE0023008030E8003830E900013039
:10155000EA00EB01EC00ED002000AE2A54208831B7
:101560000430412488312200E5012200590820007E
:10157000C400C5014508C7002200650820004402D8
:10158000C600031CC70347040319B52A22005908E3
:10159000E500DA0ADB0A2100EC0AED1CD62AC83085
:1015A00020009B00220063352000EE2A7D302000C1
:1015B0009B000430B200B301220063082000AC009D
:1015C0000530AD01AE00AF0186314A2688312D08C5
:1015D000B5002C08B400F32388313208D40062240B
:1015E0008831033022005A020318DA0105305B0209
:1015F000031CCA2BDB016400F42488312100EB00BA
:1016000023004608C8004508C7002200330821000F
:10161000DB00220032082100DA0023004408CE005B
:101620004308CD0005302400DC00DD012200D2019A
:101630002100ED1C322B6B362B3E80310A0089369F
:101640002400D4008A30D50180310A008936D600C2
:101650003630D70180310A008B318936D800D90164
:101660008B316C2B05302000B200B30121006B36AA
:101670002B3E80310A008B3120008E31F0268831DC
:10168000F32333082400D500200032082400D400BE
:1016900005302000B2008A30B30180310A008B315E
:1016A000F0268831F32333082400D70020003208C5
:1016B0002400D60005302000B2003630B30180315E
:1016C0000A008B31F0268831F32333082400D90037
:1016D000200032082400D80023004A082000C5005A
:1016E000230049082000C400C536C40CC536C40C0C
:1016F00044082100E000E10123004C082100DD0046
:1017000023004B082100DC00003020004E1801307F
:101710002200CC00C50190315C2088312200EF010D
:10172000E308031D962B33248831982B7B258831C1
:1017300022004A0821006D10031D6D142200430889
:101740002100ED10031DED14220044082100ED13CB
:10175000031DED172200470821006D11031D6D15B3
:10176000220048082100ED11031DED152200460856
:1017700021006D12031D6D1622004B0821006D1310
:10178000031D6D17220049082100ED12031DED16FF
:1017900020004E1021006C08193A031DDB2BC824D1
:1017A00055308531E4258831553A031D8E1EDB2BDB
:1017B00011309F25883121006C08253A031DEB2B41
:1017C00055308531E4258831553A031D8E1EEB2BAB
:1017D0008031DC208831653021006C020318EC0177
:1017E0002200CD01B52AB701B31FFD2BB209B30901
:1017F000B20A0319B30AB701B70AB51F062CB40918
:10180000B509B40A0319B50A0130B706B801B90120
:10181000330832040319262CB601B60AB31B132C65
:10182000B235B30D0D2CB835B90D33083502031D93
:101830001B2C32083402031C222C3208B402330859
:10184000B53B3814B336B20CB60B132C370803195A
:101850002E2CB809B909B80A0319B90A3908B30016
:101860003808B200080020004E1F080022008E1029
:101870008E110E1225009513910120004E13CE13E8
:101880000800AC00502C9501080096019701080053
:101890009A01080028009501080028009C01080012
:1018A0002C08003A0319432C013A0319452C033A3A
:1018B0000319482C063A03194A2C023A03194D2CF5
:1018C000612C08006724883103268831162EFB26F8
:1018D000883120005508C03F5608C13F2E30860091
:1018E0002C308400023085002400240822072000C8
:1018F000AC0024002508233D2000AD00240026086C
:1019000020002C07AE002400270820002D3DAF004A
:101910002400280820002E07B000240029082000F9
:101920002F3DB10024002A0820003007B200240017
:101930002B082000313DB300003F3207B400013FC7
:10194000333DB500403F3407B600413F353DB70059
:1019500024002008200036072300B70024002108B7
:101960002000373D2300B800CA003708C9000830FE
:10197000CA36C90CCA36C90CCA36C90C2100EE0ACF
:101980006E02031C0800EE012300B701B801080035
:101990006D1FCD2C58308631842E22004308031948
:1019A000D42C21308631842E46080319DA2C42309B
:1019B0008631842E48080319E02C37308631842E76
:1019C00047080319E62C2C308631842E2100ED1EA9
:1019D000EC2C4D308631842E6D1CF12C1630863166
:1019E000842E0B308631842E230045082000B5005C
:1019F000230046082000B600B7012300600820003D
:101A0000AC00230061082000AD00C830AE01AF007B
:101A1000B001B1015E2588312C08B8002D08B9004D
:101A20002E08BA002C25883135082200D400D408AD
:101A3000031D222D0530D50A5502031C282D5408FC
:101A4000D000282DD5015408D0002300E001E10189
:101A500022005008C83C0800BB01BC01BD0137088A
:101A6000360435040319572DBE01BE0AB71B3C2DA1
:101A7000B535B60DB70D352DBB35BC0DBD0D3708D1
:101A80003A02031D492D36083902031D492D350838
:101A90003802031C522D3508B8023608B93B370806
:101AA000BA3B3B14B736B60CB50CBE0B3C2D3B080D
:101AB000B5003C08B6003D08B7000800B201B3010C
:101AC000B4012C1C692D2F08B2073008B33D310832
:101AD000B43DAF35B00DB10DAE36AD0CAC0C2E082B
:101AE0002D042C04031D612D3208AC003308AD0019
:101AF0003408AE00080020004E1B0800A630CE12AD
:101B00002200AE00AF012000D001D00A2100DE018A
:101B1000DF012000D401CA01CB012400CC01CD019A
:101B2000250096012000CE154E172200D801250071
:101B300091012200E60120004E169A310F2ABB00C7
:101B4000CF1DA02D3B08B7000830B8000530EF25A9
:101B50008831CF1DA92DF0304F05BA0022003B0679
:101B60000319080020000530AC0186318926883130
:101B7000D10086000230870001082400B000E92669
:101B80008831B100E9268831B200E9268831B300F6
:101B9000E9268831B400E9268831B500E926883184
:101BA000B600E926B70030082200E2002400310820
:101BB0002000D300240032082000D2002400330883
:101BC0002200DE00240034082200DF002400350853
:101BD0002200E000240036082200E1000800CF1DAA
:101BE000080038082200C0002000CF142400C601DD
:101BF000C70120002430AD01AE003330AF01B0008A
:101C0000B1013708372E23003F08B9074008BA3D15
:101C10003A08CC003908CB000630CC36CB0C890B07
:101C20000D2E4B08B9024C08BA3B0800240052089C
:101C30002300BB07240053082300BC3D3C08C2001E
:101C40003B08C1000630C236C10C890B232E410867
:101C5000BB024208BC3BC4004108C30024005A0830
:101C60002300C30724005B082300C43D0800B20022
:101C7000B3000F30CF050D302300B5001330B6018F
:101C80002400CA00CB0120002F082300B40020004C
:101C90002E082300B300200031082400C9002000D2
:101CA00030082400C8002000CF1D08005530240053
:101CB000E000200033089F2688312400E100210045
:101CC000E8012000CF1C682E02302200BF008F2EBA
:101CD0002D08023E2200BF0020000230B401B501F1
:101CE000B60022003F08200036020318822E360874
:101CF000603E8600023087000108B4070318B50A69
:101D0000B60A712E22003F08603E8600023087002E
:101D1000200035083407FF3A81002200BF0A230063
:101D2000FF309E159A000F302000CF054F14210080
:101D3000E91469152200C1012000CF110800AC0090
:101D40003F30AC052C1CA62E4030AC06AC1CAA2E95
:101D50004030AC062C1DAE2E4030AC062C1EB22EF0
:101D60004030AC06AC17AC1CB72E8030AC06AC1DB6
:101D7000BB2E8030AC062C1EBF2E8030AC06AC1EB5
:101D8000C32E8030AC062C08080025009601803058
:101D900022009100920121008730921225009400C8
:101DA00095010C30930091012100043012102500A0
:101DB0009A00FF3098009900643020009B000530A5
:101DC0009C0028302200CE00210091142000CE017A
:101DD0007B2D2000D10A510886000108240008004C
:101DE000C400C501C435C50DC435C50D4408B400D3
:101DF0004508B500080021006E35203E86000230FF
:101E00008700080023009E19852F2000911E852F32
:101E1000CF1D1E2F23001D080639031D852F19080D
:101E2000803A031D852F2400ED278831FA27883159
:101E3000E91E1C2FE912852F6914852F4F1C5A2F7C
:101E400023001D0806390319292F21006808031DE6
:101E5000612F21006808023A0319E91022004208A4
:101E60000319342FC203852F4108230019060319D3
:101E70003B2F6C30832F22003F080319502F230083
:101E800019082200C1002100F4278831010822002E
:101E9000C10023009A002200BF032100E80A852F19
:101EA0002000CF1C572F4F102100E801852F210063
:101EB0006911822FCF1C852F23001D0806390319B5
:101EC000632F7C30832F220040080319792F2100D3
:101ED000F42788312300190881002200C003230061
:101EE00019082400C6070318C70A471C4D2FC60A45
:101EF0004D2F2300190A2400C60746080319822F14
:101F00005C30832F0830E02788312000CF19C62F9E
:101F10002100691DBF2FE91CA22F230036083504BC
:101F20000319962F0130B5020030B63B24004B0850
:101F30004A040319A02F0130CA020030CB3BAA2F5C
:101F40002C30A82F2300360835040319AA2F1C3083
:101F5000E02788312300340833040319B32F0130FC
:101F6000B3020030B43B2400490848040319BD2FD4
:101F70000130C8020030C93B08004C30E02F23007C
:101F800034083304031908003C30E02F2100E91A1B
:101F900008002400410840043F043E040319DD2FDB
:101FA0000130F100F201F301F401BE027208BF3BFF
:101FB0007308C03B7408C13B080021006917080082
:101FC000F000FA278831E9012400C601C701700832
:101FD0002000CF002400ED2708002730C101C001F8
:101FE000BF00BB30BE0008006808603E86000230BB
:101FF00087000800230019082200C1002100080002
:10200000452852209031A60026001D082200A70076
:1020100058280230D70026001C082200A8002600FD
:102020001D082200A900053026009E00080052204D
:102030009031AA0026001D082200AB002B082300C7
:10204000C60022002A082300C5002200260823001B
:10205000C502220027082300C63B220029082300CE
:10206000E100220028082300E000220026082300C7
:10207000E002220027082300E13B22002B08A700F2
:102080002A08A6005828D701080022005708003A5D
:1020900003190128013A03190928033A03191728DB
:1020A00043280800D701D70A26001C082200080090
:1020B000043026009E0008009828003025023330A6
:1020C00003192402031C6E283E08F8390538BE00A7
:1020D0002300DD012200A401A501AD282200A40AED
:1020E0000319A50AAD28F32590313E0CAF27903196
:1020F000031D6E28AD28F3259031AD280030250250
:10210000103060283E08F8390338BE002300DD0196
:10211000AD283E08F83906389628BE1AAD28BE16F6
:102120006F080319AD283E08F8390438BE006A2844
:102130003E080739013A03198928033A031982280E
:10214000013A03197B28073A03195D28013A03195C
:102150007328033A03197E288D2821006B08E600B6
:1021600022003D1AB728C5284D269031CF283D08BA
:102170000F39FF3E031CCF288400083004020318E7
:10218000CF2880310435CC3E82003D166F0BC92824
:10219000CA28CF28A5279031D9012200B9012300F0
:1021A00059082200C9002100E71D0129671EE32804
:1021B0006708F8390438E700DE30600203180829A0
:1021C0002E2790310829E71EEE286708F8390138D4
:1021D000E700323060020318E0280829671FF5285D
:1021E0006708F8390338E700E028E71F082967087F
:1021F000F8390238E700433060020318E0282D3038
:10220000DD28E71522006F0B08292100CF27903128
:102210002100B30123005C08031915292200BA0824
:10222000031D15292100B301B30A21003308B200B0
:10223000E51C2929513023005402031C27292100C1
:10224000E510E5152300D601D501D7015929D40A97
:10225000B529651D2E296511E514B529E51D42290D
:10226000003023004E02483003194D020318B529EF
:102270002100E51165162300D601D60AD501D50A3D
:10228000D701B529651E4F29003023004E02BA3010
:1022900003194D02031CB529210065122129651877
:1022A000B529651422006F080319B52921006515A9
:1022B0002300D401B5290030230233300319220250
:1022C000031C69293C08F8390538BC00B801B7017E
:1022D000CB292200A20A0319A30ACB290826903190
:1022E0003C0CAF279031031D6929CB29082690317A
:1022F000CB2900302302C93003192202031C8A298A
:102300003C08F8390338BC00B801B701B70AA2018C
:10231000A301CB294C08031969293C08F839013875
:10232000BC00A201A301B801B80AB701B70ACB29C2
:10233000CC0803198029003023020230031922023D
:1023400003188D296929CC08031D69293C08F8392F
:102350000438B329BC1ACB29BC166F080319CB2942
:102360003C08F8390638BC00872922003C080739A8
:10237000013A0319A329033A03199829013A0319C9
:102380006E29073A03197929013A03197629033A84
:1023900003195B29AA292100B401B40AB208031D5C
:1023A000E2292300DF08031DE229D708031DE229E3
:1023B0002200B808031DE2292300DD08031DE229DD
:1023C0002100B40121003408D50000302200EF08BC
:1023D000031D01302100CD00641FDA2AD508031D3A
:1023E000FC294D080319C42AFC292200A001A101DF
:1023F000F8302100E405112A64080739013A03196D
:10240000F829033A0319F829013A0319F529073A7B
:102410000319F829013A0319F829033A0319F8298D
:10242000112A6413E4172F2A22002108200403191B
:102430006C2AA001A10121006408F8390238E400E7
:10244000ED2A033022002102E93003192002031C87
:10245000332A21006408F83905389D27903123007C
:10246000D201D301ED2AE227903103195A02031C4D
:10247000402A01305B022D3003195A02031C6C2ADA
:102480006408F8390138E4002300D3012200A001D8
:10249000A101ED2A003024004502653003194402F1
:1024A000031C5B2A21006408BF279031D201D20AA5
:1024B000D301D30AED2AE227903103195A02031CF3
:1024C000682A01305B022D3003195A02031C1B2AB3
:1024D0002400C40A0319C50A2200A00A0319A10A8C
:1024E000ED2A0030220021020B3003192002031CC8
:1024F000AA2A003021005B02053003195A02031C8E
:10250000882A01305B022D3003195A02031C912ADC
:102510006408BF2790311830D201D20AD301D30A00
:10252000A12AE627903103192002031CA42A2100C6
:102530006408F83905389D27903123001830D201FE
:10254000D3012100E404AD2A21006408E7390838EA
:10255000E400AD2AE7302100E405640CAF27903198
:10256000031D6C2AED2AE627903103192002031C73
:102570006C2A21006408F8390638E4002200A00122
:10258000A1012300D201582A64080739013A03192E
:102590004A2A033A0319212A013A0319142A073A4D
:1025A0000319B32A013A03191B2A033A0319712AA2
:1025B000ED2AED2AE41FE72AD508031DED2AE413CE
:1025C00064176408F83903389D279031ED2AE41A1E
:1025D000ED2AE4164D08031D122A23005E0822008E
:1025E000CB002100B501B50A2300DB08031DFE2A3C
:1025F0002200BA08031DFE2A2100B501210035087A
:10260000CF0022004D0803190C2B24005F08210085
:10261000C40024005E08282B23005A080319172B36
:10262000240059082100C40024005808282B210048
:102630004F080319222B240057082100C40024004E
:102640005608282B240055082100C40024005408F3
:102650002100C3005B08D2005A08D1004308D10210
:102660004408D23BE31CAD2B5D08572786314A2630
:1026700090312C082100C90020002D082100CA003B
:10268000CB01CC014C08A3004B08A2004A08A100D2
:102690004908A00024006B08FB3E2100BD00FF306C
:1026A00024006C3D2100BE00BF01C0014008C800ED
:1026B0003F08C7003E08C6003D08C5001F30200087
:1026C000BA002100C837C70CC60CC50C2000BA0BD5
:1026D000612B21004008CC003F08CB003E08CA0017
:1026E0003D08C9004808DD279031031D812B0030CB
:1026F0004702031D812B00304602031D812B013050
:10270000450203189F2BC81B982B4C082302031D5E
:10271000932B4B082202031D932B4A082102031D11
:10272000932B490820020030031C0130AC00992B88
:10273000AC01AD012D08AB002C08AA00A22BAA0108
:10274000AA0AAB012B082A040319F62BE310631520
:1027500063162400C201C301F42B631DEC2B14305B
:102760006B020318BE2B05306B02031CBE2BE31952
:10277000CA2B631EBC2B63126311F32BE31DCC2BFE
:102780005D08572786314A2690318C2790310318EF
:10279000F62B2100E311BC2B631EF62B5D08572797
:1027A00086314A2690318C2790310318D92B21008D
:1027B000BB2B073024004302D13003194202031C13
:1027C000E82B21006312E3152300D101D10AF62B77
:1027D000C20A0319C30AF62B6318F62B63142200EE
:1027E0006F0BF62B2100E3142300D10123005108C5
:1027F0002200C600230055082200C3002100621EEB
:102800000C2C2300662790310318492C21006212FA
:10281000E2142200B401492C621C202C23006627FC
:1028200090310318162C21006210302C65302200E4
:102830003402031C1E2C21006210462CB40A492CC1
:10284000E21C352C23007A2790310318292CE21042
:10285000462C333022003402031C1E2C2100E210CF
:1028600062152300D801D80A492C621D3F2C230091
:102870007A2790310318492C62116214092CE2194D
:10288000492CE21522006F0B492C2100621623000F
:10289000D801230058082200C7003908CA002100C7
:1028A000B601B60A2300D308031D5C2C2200B7082A
:1028B000031D5C2C2100B601210036082200C8004F
:1028C000230056082200C40024005D082000AD004B
:1028D00024005C082000AC00B62786314A269031DF
:1028E0002D082100A90020002C082100A800A835EF
:1028F000A90DA835A90DA835A90DB701B70AD508A6
:10290000031D882C2300D208031D882C2100B70149
:1029100021003708CE00B801B80ACE08031D962C56
:102920002200C508031D962C2100B801210038089B
:10293000D00023006D060319A72CEC08031DA72C5B
:102940000130EB01EA003830E9008030E800210076
:102950004E080319AD2CD3010D2D22004508031993
:102960000F2D21004F080319B72CCA300C2D6B080E
:102970002000AC00E030C7279031282690312E0887
:102980002100D70020002D082100D600E0302000D3
:10299000AC005F30C7279031282690312C08BA0050
:1029A0002D08BB002E08BC002F08BD000730BD3627
:1029B000BC0CBB0CBA0C890BD72C3A082100D602F0
:1029C00020003B082100D73BC830D6070318D70AA0
:1029D0005708803AFF0080307F02031DF12CC93078
:1029E000560203180A2D21005708803AFF00803054
:1029F0007F02031DFD2C3C305602031C022D2100DA
:102A00005608042D3C302100AE00AF012F08D40041
:102A10002E08672DC8302100D300D401682D200076
:102A20000330AF01AE01AD002030AC0023006B08D5
:102A30002000B30023006A082000B20023006908C8
:102A40002000B100230068082000B000C2269031A9
:102A50002D082100D90020002C082100D8002200D8
:102A600052082000AC00AD01B62786314A269031CD
:102A70002C082100D80720002D082100D93D590835
:102A8000803AFF0080307F02031D482D013058023C
:102A9000031C522D003021005902CB30031958027B
:102AA0000318B52C2100D91B612D003059022830A4
:102AB00003195802031C612D5908B1005808B000D1
:102AC000642D2830B000B1013108D4003008D300A3
:102AD00054082000BB00210053082000BA00BB3678
:102AE000BA0C3A082200E300B51C792DB510B515D3
:102AF000832D3519832DB51D802DB5113515832DE9
:102B00003518832D3514210050082300ED002100D5
:102B100028082000BA00210029082000BB0000304E
:102B2000BB1BFF30BC00BD003A082300E8072000B3
:102B30003B082300E93D20003C082300EA3D20003B
:102B40003D082300EB3D6B08DD279031031DB22DBE
:102B500002306A02031DB22D77306902031DB22DC7
:102B6000413068020318EA2D6B08DD279031031D00
:102B7000C32D00306A02031DC32D7D306902031D81
:102B8000C32D00306802031CD52D6B082100A7005F
:102B900023006A082100A600230069082100A5007F
:102BA000230068082100A400DB2D21007D30A7014F
:102BB000A601A500A40127082300EB002100260898
:102BC0002300EA00210025082300E9002100240851
:102BD0002300F02D0230EB01EA007730E9004030AD
:102BE000E800EC0108000030250206300319240239
:102BF0003E08031C042EF8390338BE0023001830A9
:102C0000DD012200BE040800E7390838BE000800D4
:102C10004C080319142E3C08F8390238BC0018304F
:102C2000A201A301BC04080000302302653003198F
:102C300022023C08031C242EF8390538BC00183049
:102C4000B801B701BC040800E7390838BC00080027
:102C5000B401B501B601B7012C1C362E3008B407FB
:102C60003108B53D3208B63D3308B73DB035B10D3A
:102C7000B20DB30DAF36AE0CAD0CAC0C2F082E045C
:102C80002D042C04031D2C2E3708AF003608AE008F
:102C90003508AD003408AC000800210066080319AF
:102CA000552EC8306602031C602E22003D08F03904
:102CB0000738D727DA01D9012200B901B90A08007B
:102CC0008C3023004802A03003194702031C6F2EEA
:102CD000AB304802E13003194702031C8A2E220060
:102CE0003D08F0390638782E22003D08F0390338C7
:102CF000D7279031842E22003D08F0390838BD00D6
:102D00002300DC01DC0ADB01DA01D901D90A220047
:102D1000B9010800063021006602031C742E093038
:102D20006602031C7B2EC0306602031C9C2E220010
:102D30003D08F0390438782E17306602031CAB2E9C
:102D400022003D08F0390238BD002300DC01DA0121
:102D5000DB01D901872E14306602031CBA2E220033
:102D60003D08F0390538BD002300DC01DB01DA0144
:102D7000DA0AA92E14306602031808002200A527DB
:102D80009031A92EB501AF1FD22EAC09AD09AE0905
:102D9000AF09AC0A0319AD0A0319AE0A0319AF0A49
:102DA000B501B50AB31FE12EB009B109B209B309E3
:102DB000B00A0319B10A0319B20A0319B30A0130A0
:102DC000B506B601B701B801B9012F082E042D04CC
:102DD0002C040319172FB401B40AAF1BF42EAC3521
:102DE000AD0DAE0DAF0DEC2EB635B70DB80DB90D5E
:102DF0002F083302031D062F2E083202031D062F53
:102E00002D083102031D062F2C083002031C112F40
:102E10002C08B0022D08B13B2E08B23B2F08B33B63
:102E20003614AF36AE0CAD0CAC0CB40BF42E35082A
:102E30000319252FB609B709B809B909B60A031944
:102E4000B70A0319B80A0319B90A3908AF003808D4
:102E5000AE003708AD003608AC000800E7302100AE
:102E60006002031C422FEA2790316716392FEA27A8
:102E7000E7162300DF01DF0A2200BA012300DE018A
:102E8000DE0A08002D306002031C372FEA2790313C
:102E90003F3060020318552FE7172300DF0122009F
:102EA000BA01BA0A2300DE010800CF27080020007B
:102EB000AD0021005C082000AC0021005B08200070
:102EC000AF0021005A082000AE0008006E08FE3E48
:102ED0002000BA00FF3023006F3D2000BB0021001E
:102EE0005D0820003B02031D080021005C08200053
:102EF0003A0208006E08023E2000BA0000302300AB
:102F00006F3D2000BB0021005D02031D0800200072
:102F10003A0821005C02080024006B08053E2000EE
:102F2000BA00003024006C3D2000BB002D083B029D
:102F3000031D08002C083A020800E4002200A0014A
:102F4000A1012400C401C50108003D08F039013881
:102F5000BD002300DC01DC0ADB01DA0108002000EF
:102F6000BA00BA0C3A0C0339033A0800210052089F
:102F70002000AF00210051082000AE000800F83901
:102F80000438E4002200A001A10123000800AD01E3
:102F9000AE01AF01B000B101B201B3010800671783
:102FA0002300DF012200BA012300DE010800BD007A
:102FB0002300DC01DB01DB0A0800803AFF008030DF
:102FC0007F020800003021005B020534003022003F
:102FD0002102C934F32F67120800E7120800E71333
:102FE00008006713080067080739013A0319ED2F35
:102FF000033A0319EF2F063A0319EB2FF12F0800BC
:10300000FF3FFF3FFF3FFF3FFF3FFF3FFF3FFF3FD0
:10301000FF3FFF3FFF3FFF3FFF3FFF3FFF3FFF3FC0
:10302000FF3FFF3FFF3FFF3FFF3FFF3FFF3FFF3FB0
:10303000FF3FFF3FFF3FFF3FFF3FFF3FFF3FFF3FA0
:10341000FF3FFF3FFF3FFF3FFF3FFF3FFF3F0030CA
:1034200021005F020A3003195E0203181A2ADE0A1D
:103430000319DF0A22003635A03E860001308700DE
:1034400020004A08C03F4B08C13F22000730B60A9F
:10345000B605AE308600AC30840001308500230014
:10346000240822072000B20023002508233D200065
:10347000B3002300260820003207B40023002708E9
:103480002000333DB5002300280820003407B60093
:10349000230029082000353DB70023002A0820001A
:1034A0003607B80023002B082000373DB900003F45
:1034B0003807BA00013F393DBB00403F3A07BC0026
:1034C000413F3B3DBD002300200820003C07220077
:1034D000B2002300210820003D3D2200B30020005F
:1034E0004B082300D00020004A082300CF00200012
:1034F000CE122200E601E60A2000CE17CE1DF02AE9
:10350000230050082000AD0023004F082000AC002D
:103510006430AD36AC0CAD36AC0CAD36AC0CAE0098
:10352000AF0186314A269A312D082200B1002000D1
:103530002C082200B0000730B136B00C890B9C2A51
:1035400020004B0822003102031DAA2A20004A084D
:10355000220030020318B82A2000E9239A31220001
:1035600030082400CC02220031082400CD3BCF2AB1
:103570002400CC01CD01CF2AA630CB2AF430220082
:10358000AE000130AF00DF2A7D30CB2A5330CB2A8A
:103590002930CB2A21302200AE00AF01DF2A2100E2
:1035A0005F08003A0319D52ACA2A5E0884000A3047
:1035B00004020318CA2A80310435903E820000308C
:1035C0002F02213003192E020318E92A2130AE0000
:1035D000AF0120004E1E262B0A302200D800262BD9
:1035E000571CF62A2400CC01CD01FA2AE9239A318E
:1035F000CD36CC0C4D30CC01CD012200AE000130D7
:10360000AF0020004E1F242B250011082000540677
:103610000319262B250011082000540203181A2B29
:10362000250091031108200054020318262B2500C1
:103630009103262B2500910A200054082500110231
:103640000318262B910A262B250091012000CA0180
:10365000CB015008FF3A031DCE2B0630D000CE2BF5
:1036600001302500960020004E1F392B2200FB233D
:103670009A31220009300D118D10D1002530DC0166
:10368000DC0ADD0002309200843091002000063018
:10369000AD2B01302500960020004E1F522B22003A
:1036A000F1239A31220009300D158D10D10005301B
:1036B000DC01DC0ADD000130920094309100200032
:1036C0005710D001D00AE22B0230250096002000CE
:1036D0004E1F6D2B2200F6239A31220035300E1139
:1036E0008D10D1000530DC00DD01DD0A920184304F
:1036F000910020000230AD2B023025009600200002
:103700004E1F852B2200FB239A31220035300E11EB
:103710008D14D1000530DC002530DD000230920030
:103720009430910020000330C62B04302500960011
:1037300020004E1F9E2B2200F1239A3122001130CF
:103740000E110D11D1002530DC000530DD000130F7
:10375000920084309100200004305714C72B0430AD
:103760002500960020004E1FB82B2200F6239A3128
:10377000220011300E150D11D1002530DC00DD01C5
:10378000DD0A920194309100200005305710D000DE
:10379000E22B25009601220091015F2B5008013A8F
:1037A0000319302B033A0319492B013A0319642BEF
:1037B000073A03197C2B013A0319952B033A031995
:1037C000AF2BC92B28302200CE002000CA01CB012C
:1037D00008004B082400CD0020004A082400CC003B
:1037E00008000E08E53912388E0008000E08E53989
:1037F00018388E0008000E08E5390A388E000800D7
:10380000CA0A0319CB0A4B0822002F02031D0C2CF5
:1038100020004A0822002E020318102CD2259C31C9
:10382000003021005F020A3003195E02031C1A2CCB
:103830002000CE11003021005F02033003195E0228
:10384000031C242C20004E12DD279C312200111F66
:103850002B2CCF01292DCF01CF0A292D2D3021006E
:103860009D00A4259C3121009D148F259C31710859
:103870002400D3007008D200313021009D00A4251F
:103880009C3121009D142200E60A362D51082100AA
:103890009D001B082000D50021001C082000D60038
:1038A0000000000000000000000000000000000018
:1038B0000000000000000000000000000000000008
:1038C0003F2C8F259C317108CD007008CC004E1B19
:1038D000CB2CC22C23003008D3279C310318842C16
:1038E0004D08F1004C08F00023003008F002031CE2
:1038F000F10322006808F3006708F200BD259C313F
:1039000071082300BF00862C2300BF01C001D72C03
:1039100023003108D3279C310318A22C4D08F10055
:103920004C08F00023003108F002031CF1032200D0
:103930006A08F3006908F200BD259C317108240073
:10394000CE00A42C2400CE01CF01D72C23003208B6
:10395000D3279C310318C02C4D08F1004C08F0000F
:1039600023003208F002031CF10322006C08F3006C
:103970006B08F200BD259C3171082400D000C92CD1
:103980002400C82C2300BF01C0012400CE01CF01B8
:10399000D001D101D72C22005108093A03196A2C11
:1039A000183A0319A62C243A0319882CC22C01308A
:1039B00020004D02553003194C02031CE32CE53066
:1039C0004E1422008E0522005D083D2C21001B08AC
:1039D0002200AC0021001C082200AD0021009D1433
:1039E00020004E1F082D54080319082D571C122DB6
:1039F00022002C08643EF70000302D3DF800200026
:103A000056087802031D062D550877020318362D37
:103A10002200E60A5C0821009D00A4259C312100BB
:103A20009D14362D003022002D021F3003192C0268
:103A30000318082D362DCE018F259C3175302100BD
:103A40009D00A4259C31432C21009D148F259C3181
:103A5000432C6608FF3E031C362D84000A30040206
:103A60000318362D80310435A43E820020004E1FFD
:103A70006E2DCE1D702D22004130CD01CD0A2400C7
:103A8000DE00DF0120004A080339031D702D4E1EA1
:103A90005E2D560855040319622D5608F10055088D
:103AA000F0008030F2003E30F300AE279C31700809
:103AB000F9007108FA00FB01FC01622D560855045B
:103AC000031D4D2D2200580879020318692DD803D3
:103AD0006A2DD80A580825009100702D2500910103
:103AE0002200CE08031D8D2D4F0803197B2D2000C9
:103AF000CE1A7B2DCE162000CE1E080024004D08C5
:103B00004C04031D882D2000CE190800D225080082
:103B1000FF30CC07031CCD030800CE030800F201E0
:103B200021009D1C982D4130F20A7202031C902D39
:103B30001C082000C90021001B082000C8004908FB
:103B4000F1004808F000080000000000000000003C
:103B50000000000000000000000000000000000065
:103B60000000000000000000000000000000000055
:103B700000000000000000000800F401F501701CC6
:103B8000C52D7208F4077308F53DF235F30DF136D3
:103B9000F00C71087004031DBF2D7508F100740846
:103BA000F0000800003021005F020A3003195E02B5
:103BB0000318DD2DDE0A0319DF0A22003635A03E88
:103BC00086000130870020004A08C03F4B08C13FF3
:103BD00022000730B60AB605AE308600AC3084004D
:103BE000013085002300240822072000A0002300C4
:103BF0002508233D2000A1002300260820002007DF
:103C0000A200230027082000213DA300230028084C
:103C100020002207A400230029082000233DA5003E
:103C200023002A0820002407A60023002B082000D8
:103C3000253DA700003F2607A800013F273DA9001A
:103C4000403F2807AA00413F293DAB002300200840
:103C500020002A072200B2002300210820002B3D6B
:103C60002200B30020004B082300D00020004A08A7
:103C70002300CF002000CE122200E601E60A200039
:103C8000CE17CE1DAE2E23005008F1004F08F000D5
:103C90006430F136F00CF136F00CF136F00CF20035
:103CA000F301BD259C3171082200B1007008B000FD
:103CB0000730B136B00C890B592E20004B0822007A
:103CC0003102031D672E20004A082200300203182B
:103CD000762E20009B31E9239C31220030082400FD
:103CE000CC02220031082400CD3B8D2E2400CC01D3
:103CF000CD018D2EA630892EF4302200AE00013089
:103D0000AF009D2E7D30892E5330892E2930892E8B
:103D100021302200AE00AF019D2E21005F08003A45
:103D20000319932E882E5E0884000A3004020318BB
:103D3000882E80310435B83E820000302F022130B9
:103D400003192E020318A72E2130AE00AF01200068
:103D50004E1EE52E0A302200D800E52E571CB42E48
:103D60002400CC01CD01B92E9B31E9239C31CD3605
:103D7000CC0C4D30CC01CD012200AE000130AF00A3
:103D800020004E1FE32E25001108200054060319C1
:103D9000E52E25001108200054020318D92E250015
:103DA00091031108200054020318E52E2500910309
:103DB000E52E2500910A2000540825001102031861
:103DC000E52E910AE52E250091012000CA01CB01C4
:103DD0005008FF3A031D932F0630D000932F013077
:103DE0002500960020004E1FF92E22009B31FB2358
:103DF0009C31220009300D118D10D1002530DC01DD
:103E0000DC0ADD0002309200843091002000063090
:103E1000712F01302500960020004E1F132F220025
:103E20009B31F1239C31220009300D158D10D100FA
:103E30000530DC01DC0ADD00013092009430910095
:103E400020005710D001D00AA72F0230250096007D
:103E500020004E1F2F2F22009B31F6239C31220081
:103E600035300E118D10D1000530DC00DD01DD0A8A
:103E700092018430910020000230712F0230250021
:103E8000960020004E1F482F22009B31FB239C31BF
:103E9000220035300E118D14D1000530DC002530A4
:103EA000DD000230920094309100200003308B2F0F
:103EB00004302500960020004E1F622F22009B3107
:103EC000F1239C31220011300E110D11D10025304B
:103ED000DC000530DD0001309200843091002000CC
:103EE000043057148C2F04302500960020004E1FFC
:103EF0007D2F22009B31F6239C31220011300E15BC
:103F00000D11D1002530DC00DD01DD0A9201943075
:103F10009100200005305710D000A72F25009601F2
:103F200022009101202F5008013A0319EF2E033A85
:103F30000319092F013A0319252F073A03193E2FB8
:103F4000013A0319582F033A0319732F8E2F283083
:103F50002200CE002000CA01CB010800F501F601C5
:103F6000710870040319CE2FF401F40AF11BBB2F62
:103F7000F035F10DB52FF535F60D71087302031DFF
:103F8000C32F70087202031CCA2F7008F202710856
:103F9000F33B7514F136F00CF40BBB2F7608F100EF
:103FA0007508F0000800F700F80120004D087802BD
:103FB000031D08004C087702080000000000000004
:103FC00000000000000000000000000000000000F1
:103FD00000000000000000000000000000000000E1
:103FE00000000000000000000000000000000000D1
:103FF00000000000000000000000080087006A00C8
:020000040001F9
:04000E00BCFFFFDB59
:00000001FF
