:1000000080312728FF3FFF3F803120001118111059
:10001000931C0F2893108731A8278031D30A200022
:10002000911C162891109C31002480312000931DD2
:100030001D2893118F31022780312000131F2328A0
:1000400013139931B32120001218121009008801EE
:100050008A31662A00346E346E346E3400340034D3
:1000600000340034003400340034D334D334D33477
:10007000D034CE34CC34C934C734C534C334C1349D
:10008000BF34BD34BB34BA34B834B634B434B2340B
:10009000B134AF34AD34AC34AA34A934A734A63467
:1000A000A434A334A234A0349F349D349C349B34B4
:1000B0009A349834973496349534943492349134F5
:1000C00090348F348E348D348C348B348A3489342C
:1000D000883487348634853484348334823481345C
:1000E00080347F347F347E347D347C347B347A3486
:1000F0007A347934783477347734763475347434A8
:1001000074347334723472347134703470346F34C4
:100110006E346E346E346E346E346E346E346E34CF
:100120009A31BC2A9A31BE2A9A31C42A9A31C62AF7
:100130009A31C82A9A31CA2A9A31CA2A9A31CA2AC5
:100140009A31CA2A9A31CA2A9C312E2C9C31462CCB
:100150009C31612C9C31E62C9D311B2D9C31432C14
:100160009C31432C9C31432C9D31242D9D31362DC7
:100170009E317A2E9E317C2E9E31822E9E31842E8F
:100180009E31862E9E31882E9E31882E9E31882E5D
:100190009E31882E9E31882E9031B2289031B2281F
:1001A0009031B2289031B2289031B2289031B228E3
:1001B0009031B2289031B22822005C083B3A031DEE
:1001C000D82D20005308D8005308803A0319042979
:1001D000103A03191429013A03198629023A03191E
:1001E000C629073A0319422A013A0319992A0D3AF6
:1001F00003196B2C073A0319172D3F3A0319632D86
:100200005A3A0319C42DD62D5808803A031D080008
:100210009030D80022003A30ED01ED0A2000B700FE
:10022000803027278031FE2D5808903A031D0800A2
:100230005529F030DB2580312100B400F130DB2579
:1002400080312100B500F230DB2580312100B7007C
:10025000F330DB2580312100B6000230B301B2015A
:100260002200ED005E29EB30DB2580312100B40057
:10027000EC30DB2580312100B500ED30DB2580310D
:100280002100B700EE30DB2580312100B600EF30D1
:10029000DB2580312100B3009130B2012000D8006D
:1002A0005E299030562680315E2922006D08013A81
:1002B00003191929033A0319332951292100340854
:1002C000FF3A03197F293508FF3A03197F293708B8
:1002D000FF3A03197F293608FF3A03197F293308AB
:1002E000FF3A03197F293208FF3A03197F293A3070
:1002F0006E26803130278031BE001030FE2D7F30D9
:100300002000B7009030F3268031FE2D5808913A36
:10031000031D0800F430DB2580312100B400F530E6
:10032000DB2580312100B500F630DB25803121004E
:10033000B700F730DB2580312100B600F830DB252F
:10034000803150278031031DBB293508FF3A031D3A
:10035000BB293708FF3A031DBB293608FF3A031DA6
:10036000BB293308FF3A031DBB293A306E26803182
:10037000FC268031C1297F302000B7005308F326C6
:100380008031FE2592302000D80008005808933AAA
:10039000031D08007A2780312D082300BE002000AD
:1003A0002C082300BD00FF304027803115140000C9
:1003B0000000230014082400BB00230013082400BD
:1003C000BA00FE30230040278031151400000000E1
:1003D000230014082400BD00230013082400BC00DF
:1003E0000430383E8600023087003A082000C20000
:1003F000C101403F41072400B800413F2000423D79
:100400002400B9003A082100B70024003C0821006C
:10041000B60023003E082100B30023003D08210060
:10042000B20023003E0824003906031D1B2A2300C6
:100430003D0824003806031D302A3A302000B7005A
:100440005308B8009730B901BA00210037082000DE
:10045000BB00210036082000BC00302780313B2A39
:100460007F302000B7005308B800FF30B900BA0051
:10047000BB00BC00BD00BE001030FE259430200043
:10048000D80008005808943A031D080052082200BA
:10049000DE00DE08031D4E2A6F30DE0023004A080E
:1004A0002000C200230049082000C100C236C10C50
:1004B000C236C10C41082100B40022005E08FD3E96
:1004C0002000C100FF3003180030C200803AC30092
:1004D00080304302031D702A2100340820004102AD
:1004E00003188E2A22005E08033E2000C10000305F
:1004F00003180130C200803A803C031D822A410863
:100500002100340203188E2A3A302000B7009A26C0
:1005100080311030BA014B278031942A7F3020007F
:10052000B7005308F3268031FE2595302000D8000F
:1005300008005808953A03195A2C692C8C312F243D
:1005400080310B138B1325009301220035300D15DC
:100550008E158E100E1221009D00A001B12A000000
:1005600000002100A00BAF2AA101B82A0000000062
:100570002100A10BB62AA201BF2A00000000210021
:10058000A20BBD2AA301C62A000000002100A30B74
:10059000C42AA401CD2A000000002100A40BCB2A0C
:1005A000A501D42A000000002100A50BD22A8A311F
:1005B0003522803121009D148A314E2280312D0850
:1005C0002200E40020002C082200E3002300310870
:1005D0002200E302031CE40309300E158E148E1171
:1005E0000E1221009D00A601F72A00000000210044
:1005F000A60BF52AA701FE2A000000002100A70B88
:10060000FC2AA801052B000000002100A80B032BE9
:10061000A9010C2B000000002100A90B0A2BAA0144
:10062000132B000000002100AA0B112BAB011A2B89
:10063000000000002100AB0B182B8A3135228031DD
:1006400021009D148A314E2280312D082200E200C3
:1006500020002C082200E100230030082200E102E3
:10066000031CE20311308D140E168E108E11210022
:100670009D00AC013D2B000000002100AC0B3B2B8A
:10068000AD01442B000000002100AD0B422BAE0158
:100690004B2B000000002100AE0B492BAF01522B69
:1006A000000000002100AF0B502BB001592B0000BF
:1006B00000002100B00B572BB101602B000000009F
:1006C0002100B10B5E2B8A313522803121009D142F
:1006D0008A314E222D082200E60020002C0822003C
:1006E000E500230032082200E502031CE603E530A2
:1006F0008E050C30250093000B178B172100EA01A3
:10070000EA0A08001B278031552780312D08B300E5
:100710000230E62580311B278031552780312C0897
:10072000B3000330E62580310330DB258031C10082
:100730000230DB2580312200E80020004108220041
:10074000E70021006A08B400220062082000AD0022
:10075000220061082000AC00220068082000AF00E1
:10076000220067082000AE00412680312200680880
:100770002100B600220067082100B30022006108B2
:10078000A126803183268031FE2502302100EA0037
:1007900008000F278031552780312D08B300043021
:1007A000E62580310F278031552780312C08B30092
:1007B0000530E62580310530DB258031C10004306D
:1007C000DB2580312200EA00200041082200E900F8
:1007D00021006A08B400220064082000AD00220055
:1007E00063082000AC0022006A082000AF0022004D
:1007F00069082000AE004126803122006A082100ED
:10080000B600220069082100B30022006308A12677
:10081000803183268031FE2503302100EA00080064
:1008200003278031552780312D08B3000630E62597
:10083000803103278031552780312C08B3000730E1
:10084000E62580310730DB258031C1000630DB250D
:1008500080312200EC00200041082200EB00210042
:100860006A08B400220066082000AD002200650876
:100870002000AC0022006C082000AF0022006B08B2
:100880002000AE004126803122006C082100B60015
:1008900022006B082100B30022006508A1268031E8
:1008A00083268031FE2598302000D80008002000E3
:1008B0005308562E21006A08003A03199E2A013A6D
:1008C0000319822B033A0319C92B013A0319102C7F
:1008D000572C5308562E5808983A031D0800520802
:1008E0002100EF0020005208013A0319812C023A3E
:1008F0000319A62C073A0319CB2C013A0319F02C43
:10090000152D46278031031D080052082100B40030
:100910008C31F0248031D626803141268031E52685
:1009200080310A008431B82680310318A32C2100BD
:10093000A52680310318A32C3A306E268031103062
:10094000BD01BE01FE2DC8268031FE2D4627803117
:10095000031D080052082100B4008C31F0248031BE
:10096000D626803141268031E52680310A00843147
:10097000B82680310318C82C2100A5268031031821
:10098000C82C3A306E2680311030BD01BE01FE2DDC
:10099000C8268031FE2D46278031031D08005208ED
:1009A0002100B4008C31F0248031D62680314126DC
:1009B0008031E52680310A008431B8268031031861
:1009C000ED2C2100A52680310318ED2C3A306E263F
:1009D00080311030BD01BE01FE2DC8268031FE2DB4
:1009E00046278031031D080052082100B4008C31D5
:1009F000F0248031D626803141268031E5268031B1
:100A00000A008531B82680310318122D2100A52651
:100A100080310318122D3A306E2680311030BD011E
:100A2000BE01FE2DC8268031FE2D5308562E5808D3
:100A30009F3A031D080052082200EE004A2D37306D
:100A400066268031210037306D10ED10ED136D11E9
:100A5000ED156D126D13ED12B5000830B4000330C2
:100A60002200EE00522D4D306626803121004D309F
:100A700038278031ED16B500B401B40A2200EE012A
:100A8000EE0A522D0B306626803121003827803146
:100A9000ED12522D6E08023A0319332D063A03194E
:100AA0001F2D422D21003A30B601B301B2012000C2
:100AB000B7009A268031210035082000BA00103096
:100AC0004B278031FE2D5808A03A031D080052081C
:100AD000B300F430E6258031220058082000B3002E
:100AE000F530E6258031220059082000B300F630A9
:100AF000E625803122005A082000B300F730E625B1
:100B0000803122005B082000B300F830E6258031F8
:100B1000F430DB2580312100B400F530DB25803155
:100B20002100B500F630DB2580312100B700F73019
:100B3000DB2580312100B600F830DB2580315027DD
:100B400080310319B92D3508FF3A0319B92D37083B
:100B5000FF3A0319B92D3608FF3A0319B92D3308A6
:100B6000FF3A0319B92D3A306E268031FC268031C8
:100B7000BF2D7F302000B7005308F3268031FE25BB
:100B8000FA302000D80008005808FA3A031D08007F
:100B90003A30B700530827278031FE258031553081
:100BA0002000B300E62520008E1208005808562EBB
:100BB00020005808562E2000AC0023009100951309
:100BC0001513151413082000AD000800B40023000D
:100BD000910020003308230093005530151395131E
:100BE00015158B139600AA30960095148B171511C6
:100BF0002300951C080000000000F82DBF00CF1D49
:100C0000FF2D0230AC0005306B268031D10086000C
:100C10000230870037088100D10A51088600380861
:100C20008100D10A5108860039088100D10A510893
:100C300086003A088100D10A510886003B088100ED
:100C4000D10A510886003C088100D10A510886006B
:100C50003D088100D10A510886003E088100083015
:100C6000D10AAD005530AE007730AF01B000B10110
:100C70003F088E3137264F082200B800F030B80503
:100C80000800B001B1012C1C492E2E08B0072F0816
:100C9000B13DAE35AF0DAD36AC0C2D082C04031DA7
:100CA000432E3108AD003008AC0008002000C00021
:100CB000FF30D2002200D800D900DA00DB007F30FC
:100CC0002000B7004008F3268031FE2D2000AC0044
:100CD0002200D10008002C08603E08002000B70068
:100CE0005308B800210034082000B900210035085D
:100CF0002000BA00210037082000BB002100360880
:100D00002000BC000800B7005308B80021003408D8
:100D10002000B900BA01210037082000BB002100E3
:100D200036082000BC00210033082000BD00103030
:100D3000BE0108005308B800210034082000B900A3
:100D400008002100B70020003A343608F63E2000A3
:100D5000C100FF3003180030C200803AC300803069
:100D60004302031D0800210037082000410208004B
:100D7000B6000A3E2000C100003003180130C20056
:100D8000803A803C031D080041082100370208001A
:100D90007F302000B7005308B8005208B900FF3078
:100DA000BA00BB00BC00BD00BE0010348936210073
:100DB000B500220033082000AD00220032082000D8
:100DC000AC000530AE00AF0108002C08C1002D08B2
:100DD000C200C236C10CC236C10C41082100B700A6
:100DE00035082B3E0800B800FF30B900BA00BB0040
:100DF000BC00BD00BE001034210033082000BD003F
:100E00001030BE010800220066082000AD0022005C
:100E100065082000AC007830AE01AF000800220069
:100E200064082000AD00220063082000AC00783088
:100E3000AE01AF000800220062082000AD002200D1
:100E400061082000AC007830AE01AF000800B800A7
:100E50001030B901BA01BB01BC01BD01BE010800DF
:100E6000210033082000BD002100320820000800C6
:100E70006D10ED10ED136D11ED116D126D13080075
:100E800091001F30920015119517080021006F087E
:100E9000200052060800BB01BC01BD01BE010800D4
:100EA0002100B3003408FF3A0800B101B2012D0857
:100EB0002C040319752FB001B00AAD1B622FAC359D
:100EC000AD0D5C2FB135B20D2D082F02031D6A2F19
:100ED0002C082E02031C712F2C08AE022D08AF3BEC
:100EE0003114AD36AC0CB00B622F3208AD003108B6
:100EF000AC000800FE30B201B301B001B101AE0098
:100F00001F30AF000130AE020030AF3B2E0A031994
:100F10002F0A0319A32F3208230091002000330861
:100F200023009200151195171514000000002300EE
:100F300013082000B007230014082000B13DB20AB6
:100F40000319B30A822F3108AD003008AC00080045
:100F500022006430CF0A4F02031CB12FCF010E10C4
:100F6000080051084F0203180E14080064008001A5
:100F70000131890BB72F0034D30A0800FF3FFF3F30
:100F8000FF3FFF3FFF3FFF3FFF3FFF3FFF3FFF3F71
:100F9000FF3FFF3FFF3FFF3FFF3FFF3FFF3FFF3F61
:100FA000FF3FFF3FFF3FFF3FFF3FFF3FFF3FFF3F51
:100FB000FF3FFF3FFF3FFF3FFF3FFF3FFF3FFF3F41
:100FC000FF3FFF3FFF3FFF3FFF3FFF3FFF3FFF3F31
:100FD000FF3FFF3FFF3FFF3FFF3FFF3FFF3FFF3F21
:100FE000FF3FFF3FFF3FFF3FFF3FFF3FFF3FFF3F11
:100FF000FF3FFF3FFF3FFF3FFF3FFF3FFF3FFF3F01
:10100000FF3FFF3FFF3FFF3FFF3FFF3FFF3FFF3FF0
:10101000FF3FFF3FFF3FFF3FFF3FFF3FFF3FFF3FE0
:10102000FF3FFF3FFF3FFF3FFF3FFF3FFF3FFF3FD0
:10103000FF3FFF3FFF3FFF3FFF3FFF3FFF3FFF3FC0
:10104000FF3FFF3FFF3FFF3FFF3FFF3FFF3FFF3FB0
:10105000FF3FFF3FFF3FFF3FFF3FFF3FFF3FFF3FA0
:10106000FF3FFF3FFF3FFF3FFF3FFF3FFF3FFF3F90
:10107000FF3FFF3FFF3FFF3FFF3FFF3FFF3FFF3F80
:10108000FF3FFF3FFF3FFF3FFF3FFF3FFF3FFF3F70
:10109000FF3FFF3FFF3FFF3FFF3FFF3FFF3FFF3F60
:1010A0008130210095002200EF01EF0A8B138B01A4
:1010B00021009101920193012200D401D501210068
:1010C0008830EC012400EB001330EC00B830230032
:1010D000EE00EF016A218831CF208831EA20883183
:1010E0000221883101308D20883104308D208831F3
:1010F00006308D208831053008218831C62088319E
:101100005E2188318A2188312400DA01DB01A221A5
:101110008831C5260B178B1708002000AD00B428B6
:1011200000303D248B12080001303D247530200032
:10113000980021001110080002303D2407302000E3
:101140009C0021009110080004303D240E3028003E
:10115000970021009314080006303D240530280034
:101160009E002100931508002D08003A03199028CD
:10117000013A03199428033A03199C28063A0319E3
:10118000A428023A0319AC28C5280800A030210081
:101190009E009D0130301D1422009704080020009D
:1011A0008E12AC01D528000000002000AC0BD32823
:1011B0008E16AD01DD28000000002000AD0BDB28FD
:1011C0008E12AE01E528000000002000AE0BE328DF
:1011D0008E1608009F3023009B0001309C002630B3
:1011E0009E0090309D0048309F0021009101240016
:1011F000ED272200BF012000CF012100E9012000DE
:10120000CF150800F0302100990011309700080038
:101210002000AC002200D0012300E4014B2925006E
:101220009301910192012100111520000530111147
:1012300025009300080025009A01980199012100DA
:10124000121420000530121025009A000800260014
:101250009301910192012100131620000530131211
:1012600026009300080026009A01980199012100A8
:10127000931620000530931226009A0008002600DD
:101280009E019C019D0121001317200005301313BE
:1012900026009E00080020002C08013A03190F299F
:1012A000033A03191B29013A03192729073A03199D
:1012B0003329013A03193F295D29080021000B3029
:1012C000ED0186316626E101E201E301E401E50179
:1012D000E601080027308C0029308D0022008C01A7
:1012E0008D018E0155308531DB258831553A031942
:1012F0007B298E1A82297F3021008C0039308D00A5
:101300008E0108007F3021008C0039308D00803044
:101310008E0008002100EE0108306E02031808005C
:1013200031309D00352288314E2288312D08D6007B
:101330002C08D500FB2688315E30C03F0130C13F0C
:10134000EE0A8C2903308531DB258831003A0319F8
:10135000C02903308531DB258831FF3A0319C029C4
:1013600003308531DB258831AF0002308531DB2544
:1013700088312200E80020002F082200E700C4295D
:1013800022000130E701E80005308531DB25883196
:10139000003A0319E22905308531DB258831FF3A0F
:1013A0000319E22905308531DB258831AF0004308F
:1013B0008531DB2588312200EA0020002F08220039
:1013C000E900E62922000130E901EA000730853111
:1013D000DB258831003A0319042A07308531DB25E3
:1013E0008831FF3A0319042A07308531DB2588311B
:1013F000AF0006308531DB2588312200EC0020006B
:101400002F082200EB00082A22000130EB01EC003B
:101410001A300E110D118D108E04352288313522AF
:101420008831093021009D003522883121009D142A
:101430004E2288312C082300B000353021009D0059
:101440003522883121009D144E2288312C0823003A
:10145000B100113021009D003522883121009D14FA
:101460004E222C082300B2000800000000000000FB
:10147000000000000000000000000000000000006C
:10148000000000000000000000000000000000005C
:101490000000000000000000000008002000AE0175
:1014A00021009D1C592A20004130AE0A2E02031C47
:1014B000502A21001C082000C90021001B08200020
:1014C000C8004908AD004808AC0008004830D70102
:1014D0008400003085000F308731B6278831DA303C
:1014E00084000030850015308731B62788312030E0
:1014F00084000130850047308731B6278831A0301D
:1015000084000130850048308731B627883120308B
:101510008400023085004B308731B6278831803017
:10152000D80021000130EF002200E700E801E900C7
:10153000EA01EB00EC01ED000730EE002300803003
:10154000E8003830E9000130EA00EB01EC00ED0082
:101550002000AA2A5020883104303D2488312200FE
:10156000DF01220053082000C400C5014508C70060
:1015700022005F0820004402C600031CC703470482
:101580000319B12A22005308DF00D40AD50A21002A
:10159000EC0AED1CD22AC83020009B0022005D35E9
:1015A0002000EA2A7D3020009B000430B200B30105
:1015B00022005D082000AC000530AD01AE00AF0197
:1015C0008631412688312D08B5002C08B400EF2360
:1015D00088313208D4005E2488310330220054025E
:1015E0000318D40105305502031CC62BD501640035
:1015F000F02488312100EB0023004608C80045088C
:10160000C700220033082100DB002200320821003D
:10161000DA0023004408CE004308CD000530240042
:10162000DC00DD012200CE012100ED1C2E2B6B36EB
:101630002B3E80310A0089362400D4008A30D5013F
:1016400080310A008936D6003630D70180310A0051
:101650008B318936D800D9018B31682B05302000B9
:10166000B200B30121006B362B3E80310A008B3172
:1016700020008E31F0268831EF2333082400D50076
:10168000200032082400D40005302000B2008A3047
:10169000B30180310A008B31F0268831EF23330803
:1016A0002400D700200032082400D6000530200096
:1016B000B2003630B30180310A008B31F026883118
:1016C000EF2333082400D900200032082400D8007A
:1016D00023004A082000C500230049082000C40058
:1016E000C536C40CC536C40C44082100E000E10135
:1016F00023004C082100DD0023004B082100DC0002
:10170000003020004E1801302200C900C201903183
:101710005A2088312200EF01DD08031D922B2F246F
:101720008831942B7B2588312200470821006D10D9
:10173000031D6D14220040082100ED10031DED145F
:10174000220041082100ED13031DED17220044087B
:1017500021006D11031D6D15220045082100ED11BA
:10176000031DED152200430821006D12031D6D16A7
:101770002200480821006D13031D6D172200460842
:101780002100ED12031DED1620004E1021006C0803
:10179000193A031DD72BC42455308531DB258831F8
:1017A000553A031D8E1ED72B11309F2588312100FD
:1017B0006C08253A031DE72B55308531DB25883130
:1017C000553A031D8E1EE72B8031DC2088316530B1
:1017D00021006C020318EC012200CA01B12AB701F2
:1017E000B31FF92BB209B309B20A0319B30AB7013F
:1017F000B70AB51F022CB409B509B40A0319B50A12
:101800000130B706B801B901330832040319222C9C
:10181000B601B60AB31B0F2CB235B30D092CB8357F
:10182000B90D33083502031D172C32083402031C8E
:101830001E2C3208B4023308B53B3814B336B20C50
:10184000B60B0F2C370803192A2CB809B909B80AA6
:101850000319B90A3908B3003808B200080020009B
:101860004E1F080022008E108E110E1225009513B7
:10187000910120004E13CE130800AC004C2C9501B2
:1018800008009601970108009A01080028009501B8
:10189000080028009C0108002C08003A03193F2C7E
:1018A000013A0319412C033A0319442C063A03194F
:1018B000462C023A0319492C5D2C08006324883118
:1018C00003268831162EFB26883120005508C03F9C
:1018D0005608C13F2E3086002C308400023085002F
:1018E0002400240822072000AC0024002508233D02
:1018F0002000AD002400260820002C07AE002400A4
:10190000270820002D3DAF002400280820002E07C6
:10191000B0002400290820002F3DB10024002A082F
:1019200020003007B20024002B082000313DB30016
:10193000003F3207B400013F333DB500403F34075C
:10194000B600413F353DB70024002008200036078F
:101950002300B700240021082000373D2300B800F1
:10196000CA003708C9000830CA36C90CCA36C90CC3
:10197000CA36C90C2100EE0A6E02031C0800EE01F3
:101980002300B701B80108006D1FC92C58308631FB
:10199000662E220040080319D02C21308631662E95
:1019A00043080319D62C42308631662E45080319A8
:1019B000DC2C37308631662E44080319E22C2C309B
:1019C0008631662E2100ED1EE82C4D308631662EC4
:1019D0006D1CED2C16308631662E0B308631662E4E
:1019E000230045082000B500230046082000B6006B
:1019F000B701230066082000AC0023006708200020
:101A0000AD00C830AE01AF00B001B1015E25883134
:101A10002C08B8002D08B9002E08BA002C258831F2
:101A200035082200D000D008031D212D23000530E9
:101A3000E40A6402031C292D220050082300E3005D
:101A4000292D2300E401220050082300E300E601D1
:101A5000E7016308C83C0800BB01BC01BD013708B1
:101A6000360435040319572DBE01BE0AB71B3C2DA1
:101A7000B535B60DB70D352DBB35BC0DBD0D3708D1
:101A80003A02031D492D36083902031D492D350838
:101A90003802031C522D3508B8023608B93B370806
:101AA000BA3B3B14B736B60CB50CBE0B3C2D3B080D
:101AB000B5003C08B6003D08B7000800B201B3010C
:101AC000B4012C1C692D2F08B2073008B33D310832
:101AD000B43DAF35B00DB10DAE36AD0CAC0C2E082B
:101AE0002D042C04031D612D3208AC003308AD0019
:101AF0003408AE00080020004E1B0800A630CE12AD
:101B00002200AE00AF012000D001D00A2100DE018A
:101B1000DF012000D401CA01CB012400CC01CD019A
:101B2000250096012000CE154E172200D201250077
:101B300091012200E00120004E169A310F2ABB00CD
:101B4000CF1DA02D3B08B7000830B8000530EF25A9
:101B50008831CF1DA92DF0304F05BA00220038067C
:101B60000319080020000530AC0186316B2688314E
:101B7000D10086000230870001082400B000E92669
:101B80008831B100E9268831B200E9268831B300F6
:101B9000E9268831B400E9268831B500E926883184
:101BA000B600E926B70030082200DC002400310826
:101BB0002000D300240032082000D2002400330883
:101BC0002200D800240034082200D900240035085F
:101BD0002200DA00240036082200DB000800CF1DB6
:101BE000080038082200BD002000CF142400C601E0
:101BF000C70120002430AD01AE003330AF01B0008A
:101C0000B1013708372E23003F08B9074008BA3D15
:101C10003A08CC003908CB000630CC36CB0C890B07
:101C20000D2E4B08B9024C08BA3B0800240052089C
:101C30002300BB07240053082300BC3D3C08C2001E
:101C40003B08C1000630C236C10C890B232E410867
:101C5000BB024208BC3BC4004108C30024005A0830
:101C60002300C30724005B082300C43D0800B20022
:101C7000B3000F30CF050D302300B5001330B6018F
:101C80002400CA00CB0120002F082300B40020004C
:101C90002E082300B300200031082400C9002000D2
:101CA00030082400C8002000CF1D08005530240053
:101CB000E000200033089F2688312400E100210045
:101CC000E8012000CF1C682E02302200BC008F2EBD
:101CD0002D08023E2200BC0020000230B401B501F4
:101CE000B60022003C08200036020318822E360877
:101CF000603E8600023087000108B4070318B50A69
:101D0000B60A712E22003C08603E86000230870031
:101D1000200035083407FF3A81002200BC0A230066
:101D2000FF309E159A000F302000CF054F14210080
:101D3000E91469152200BE012000CF110800AC0093
:101D40003F30AC052C1CA62E4030AC06AC1CAA2E95
:101D50004030AC062C1DAE2E4030AC062C1EB22EF0
:101D60004030AC06AC17AC1CB72E8030AC06AC1DB6
:101D7000BB2E8030AC062C1EBF2E8030AC06AC1EB5
:101D8000C32E8030AC062C08080025009601803058
:101D900022009100920121008730921225009400C8
:101DA00095010C30930091012100043012102500A0
:101DB0009A00FF3098009900643020009B000530A5
:101DC0009C0028302200CB00210091142000CE017D
:101DD0007B2D2000D10A510886000108240008004C
:101DE000C400C501C435C50DC435C50D4408B400D3
:101DF0004508B500080021006E35203E86000230FF
:101E00008700080023009E19852F2000911E852F32
:101E1000CF1D1E2F23001D080639031D852F19080D
:101E2000803A031D852F2400ED278831FA27883159
:101E3000E91E1C2FE912852F6914852F4F1C5A2F7C
:101E400023001D0806390319292F21006808031DE6
:101E5000612F21006808023A0319E91022003F08A7
:101E60000319342FBF03852F3E08230019060319D9
:101E70003B2F6C30832F22003C080319502F230086
:101E800019082200BE002100F42788310108220031
:101E9000BE0023009A002200BC032100E80A852F1F
:101EA0002000CF1C572F4F102100E801852F210063
:101EB0006911822FCF1C852F23001D0806390319B5
:101EC000632F7C30832F22003D080319792F2100D6
:101ED000F42788312300190881002200BD03230064
:101EE00019082400C6070318C70A471C4D2FC60A45
:101EF0004D2F2300190A2400C60746080319822F14
:101F00005C30832F0830E02788312000CF19C62F9E
:101F10002100691DBF2FE91CA22F230036083504BC
:101F20000319962F0130B5020030B63B24004B0850
:101F30004A040319A02F0130CA020030CB3BAA2F5C
:101F40002C30A82F2300360835040319AA2F1C3083
:101F5000E02788312300340833040319B32F0130FC
:101F6000B3020030B43B2400490848040319BD2FD4
:101F70000130C8020030C93B08004C30E02F23007C
:101F800034083304031908003C30E02F2100E91A1B
:101F900008002400410840043F043E040319DD2FDB
:101FA0000130F100F201F301F401BE027208BF3BFF
:101FB0007308C03B7408C13B080021006917080082
:101FC000F000FA278831E9012400C601C701700832
:101FD0002000CF002400ED2708002730C101C001F8
:101FE000BF00BB30BE0008006808603E86000230BB
:101FF00087000800230019082200BE002100080005
:10200000FF3FFF3FFF3FFF3FFF3FFF3FFF3FFF3FE0
:10201000FF3FFF3FFF3FFF3FFF3FFF3FFF3FFF3FD0
:10202000FF3FFF3FFF3FFF3FFF3FFF3FFF3FFF3FC0
:10203000FF3FFF3FFF3FFF3FFF3FFF3FFF3FFF3FB0
:10204000FF3FFF3FFF3FFF3FFF3FFF3FFF3FFF3FA0
:10205000FF3FFF3FFF3FFF3FFF3FFF3FFF3FFF3F90
:10206000FF3FFF3FFF3FFF3FFF3FFF3FFF3FFF3F80
:10207000FF3FFF3FFF3FFF3FFF3FFF3FFF3FFF3F70
:10208000FF3FFF3FFF3FFF3FFF3FFF3FFF3FFF3F60
:10209000FF3FFF3FFF3FFF3FFF3FFF3FFF3FFF3F50
:1020A000FF3FFF3FFF3FFF3FFF3FFF3FFF3FFF3F40
:1020B000FF3FFF3F962800302502333003192402EA
:1020C000031C6C283B08F8390538BB002300E001ED
:1020D0002200A401A501AB282200A40A0319A50A25
:1020E000AB28F32590313B0CAF279031031D6C28B2
:1020F000AB28F3259031AB280030250210305E2844
:102100003B08F8390338BB002300E001AB283B084B
:10211000F83906389428BB1AAB28BB166F08031988
:10212000AB283B08F8390438BB0068283B0807395E
:10213000013A03198728033A03198028013A031941
:102140007928073A03195B28013A03197128033AE1
:1021500003197C288B2821006B08E60022003A1A1C
:10216000B528C3284F269031CC283A080F39FF3EB6
:10217000031CCC288400083004020318CC288031CA
:102180000435CC3E82003A166F0BC728C828CC28ED
:10219000A5279031DC01DB0123005C082200C6008A
:1021A0002100E71DFE28671EE0286708F83904387B
:1021B000E700DE306002031805292E27903105293B
:1021C000E71EEB286708F8390138E7003230600273
:1021D0000318DD280529671FF2286708F839033836
:1021E000E700DD28E71F05296708F8390238E7000E
:1021F000433060020318DD282D30DA28E71522006D
:102200006F0B05292100CF2790312100B301230056
:102210005F08031912292200B708031D12292100A3
:10222000B301B30A21003308B200E51C262951305E
:1022300023005402031C24292100E510E515230086
:10224000D601D501D7015629D40AB629651D2B29F7
:102250006511E514B629E51D3F29003023004E0223
:10226000483003194D020318B6292100E5116516FF
:102270002300D601D60AD501D50AD701B629651E95
:102280004C29003023004E02BA3003194D02031CC2
:10229000B629210065121E296518B6296514220089
:1022A0006F080319B629210065152300D401B6294A
:1022B00000302302333003192202031C6729390836
:1022C000F8390538B9002300DA01D901CC292200F8
:1022D000A20A0319A30ACC2908269031390CAF278A
:1022E0009031031D6729CC2908269031CC29003074
:1022F0002302C93003192202031C8A293908F8393C
:102300000338B9002300DA01D901D90A2200A20159
:10231000A301CC294908031967293908F83901387C
:10232000B900A201A3012300DA01DA0AD901D90A0E
:10233000CC29C90803197E29003023020230031971
:10234000220203188D296729C908031D6729390846
:10235000F8390438B429B91ACC29B9166F08031909
:10236000CC293908F8390638B900862922003908FD
:102370000739013A0319A429033A03199929013AA3
:1023800003196C29073A03197729013A03197429AB
:10239000033A03195829AB292100B401B40AB20841
:1023A000031DE1292300E208031DE129D708031DCD
:1023B000E129DA08031DE129E008031DE1292100D4
:1023C000B40121003408D50000302200EF08031DBD
:1023D00001302100CD00641FD92AD508031DFB2937
:1023E0004D080319C32AFB292200A001A101F830DE
:1023F0002100E405102A64080739013A0319F72976
:10240000033A0319F729013A0319F429073A031982
:10241000F729013A0319F729033A0319F729102A72
:102420006413E4172E2A22002108200403196B2AC2
:10243000A001A10121006408F8390238E400EC2A67
:10244000033022002102E93003192002031C322A42
:1024500021006408F83905389D2790312300D20106
:10246000D301EC2AE227903103195A02031C3F2AB8
:1024700001305B022D3003195A02031C6B2A6408D9
:10248000F8390138E4002300D3012200A001A101A2
:10249000EC2A003024004502653003194402031C75
:1024A0005A2A21006408BF279031D201D20AD301F1
:1024B000D30AEC2AE227903103195A02031C672A37
:1024C00001305B022D3003195A02031C1A2A240022
:1024D000C40A0319C50A2200A00A0319A10AEC2A9A
:1024E0000030220021020B3003192002031CA92A0C
:1024F000003021005B02053003195A02031C872AB1
:1025000001305B022D3003195A02031C902A640823
:10251000BF2790311830D201D20AD301D30AA02AA2
:10252000E627903103192002031CA32A2100640826
:10253000F83905389D27903123001830D201D30196
:102540002100E404AC2A21006408E7390838E400DB
:10255000AC2AE7302100E405640CAF279031031D5D
:102560006B2AEC2AE627903103192002031C6B2A00
:1025700021006408F8390638E4002200A001A10116
:102580002300D201572A64080739013A0319492A5E
:10259000033A0319202A013A0319132A073A0319A7
:1025A000B22A013A03191A2A033A0319702AEC2AAB
:1025B000EC2AE41FE62AD508031DEC2AE41364176D
:1025C0006408F83903389D279031EC2AE41AEC2A84
:1025D000E4164D08031D112A230061082200C800DB
:1025E0002100B501B50A2300DE08031DFD2A2200E3
:1025F000B708031DFD2A2100B50121003508CF00D1
:1026000022004A0803190B2B24005F082100C40094
:1026100024005E08272B23005D080319162B2400D5
:1026200059082100C40024005808272B21004F0816
:102630000319212B240057082100C4002400560848
:10264000272B240055082100C40024005408210031
:10265000C3005B08D2005A08D1004308D1024408E5
:10266000D23BE31CAC2B5D085727863141269031C5
:102670002C082100C90020002D082100CA00CB0130
:10268000CC014C08A3004B08A2004A08A10049084D
:10269000A00024006B08FB3E2100BD00FF30240099
:1026A0006C3D2100BE00BF01C0014008C8003F08CA
:1026B000C7003E08C6003D08C5001F302000BA0014
:1026C0002100C837C70CC60CC50C2000BA0B602B04
:1026D00021004008CC003F08CB003E08CA003D085E
:1026E000C9004808DD279031031D802B00304702C8
:1026F000031D802B00304602031D802B0130450254
:1027000003189E2BC81B972B4C082302031D922BEA
:102710004B082202031D922B4A082102031D922B13
:10272000490820020030031C0130AC00982BAC019A
:10273000AD012D08AB002C08AA00A12BAA01AA0A02
:10274000AB012B082A040319F52BE310631563165C
:102750002400C201C301F32B631DEB2B14306B0269
:102760000318BD2B05306B02031CBD2BE319C92BCD
:10277000631EBB2B63126311F22BE31DCB2B5D0891
:1027800057278631412690318C2790310318F52B3D
:102790002100E311BB2B631EF52B5D085727863103
:1027A000412690318C2790310318D82B2100BA2B69
:1027B000073024004302D13003194202031CE72BE7
:1027C00021006312E3152300D101D10AF52BC20ABF
:1027D0000319C30AF52B6318F52B631422006F0B42
:1027E000F52B2100E3142300D1012300510822001E
:1027F000C300230055082200C0002100621E0B2CDC
:102800002300662790310318482C21006212E2143D
:102810002200B401482C621C1F2C23006627903133
:102820000318152C210062102F2C65302200340271
:10283000031C1D2C21006210452CB40A482CE21CFC
:10284000342C23007A2790310318282CE210452CD1
:10285000333022003402031C1D2C2100E2106215CB
:102860002300D801D80A482C621D3E2C23007A2769
:1028700090310318482C62116214082CE219482C7C
:10288000E21522006F0B482C210062162300D801AC
:10289000230058082200C40023005B082200C70060
:1028A0002100B601B60A2300D308031D5C2CD90809
:1028B000031D5C2C2100B601210036082200C50052
:1028C000230056082200C10024005D082000AD004E
:1028D00024005C082000AC00B627863141269031E8
:1028E0002D082100A90020002C082100A800A835EF
:1028F000A90DA835A90DA835A90DB701B70AD508A6
:10290000031D882C2300D208031D882C2100B70149
:1029100021003708CE00B801B80ACE08031D962C56
:102920002200C208031D962C2100B801210038089E
:10293000D00023006D060319A72CEC08031DA72C5B
:102940000130EB01EA003830E9008030E800210076
:102950004E080319AD2CD3010D2D22004208031996
:102960000F2D21004F080319B72CCA300C2D6B080E
:102970002000AC00E030C72790312A2690312E0885
:102980002100D70020002D082100D600E0302000D3
:10299000AC005F30C72790312A2690312C08BA004E
:1029A0002D08BB002E08BC002F08BD000730BD3627
:1029B000BC0CBB0CBA0C890BD72C3A082100D602F0
:1029C00020003B082100D73BC830D6070318D70AA0
:1029D0005708803AFF0080307F02031DF12CC93078
:1029E000560203180A2D21005708803AFF00803054
:1029F0007F02031DFD2C3C305602031C022D2100DA
:102A00005608042D3C302100AE00AF012F08D40041
:102A10002E08672DC8302100D300D401682D200076
:102A20000330AF01AE01AD002030AC0023006B08D5
:102A30002000B30023006A082000B20023006908C8
:102A40002000B100230068082000B000C2269031A9
:102A50002D082100D90020002C082100D8002200D8
:102A60004E082000AC00AD01B627863141269031DA
:102A70002C082100D80720002D082100D93D590835
:102A8000803AFF0080307F02031D482D013058023C
:102A9000031C522D003021005902CB30031958027B
:102AA0000318B52C2100D91B612D003059022830A4
:102AB00003195802031C612D5908B1005808B000D1
:102AC000642D2830B000B1013108D4003008D300A3
:102AD00054082000BB00210053082000BA00BB3678
:102AE000BA0C3A082200DD00B51C792DB510B515D9
:102AF000832D3519832DB51D802DB5113515832DE9
:102B00003518832D3514210050082300ED002100D5
:102B100028082000BA00210029082000BB0000304E
:102B2000BB1BFF30BC00BD003A082300E8072000B3
:102B30003B082300E93D20003C082300EA3D20003B
:102B40003D082300EB3D6B08DD279031031DB22DBE
:102B500002306A02031DB22D77306902031DB22DC7
:102B6000413068020318EA2D6B08DD279031031D00
:102B7000C32D00306A02031DC32D7D306902031D81
:102B8000C32D00306802031CD52D6B082100A7005F
:102B900023006A082100A600230069082100A5007F
:102BA000230068082100A400DB2D21007D30A7014F
:102BB000A601A500A40127082300EB002100260898
:102BC0002300EA00210025082300E9002100240851
:102BD0002300F02D0230EB01EA007730E9004030AD
:102BE000E800EC0108000030250206300319240239
:102BF0003B08031C042EF8390338BB0023001830AF
:102C0000E0012200BB040800E7390838BB000800D7
:102C100049080319142E3908F8390238B900183058
:102C2000A201A301B9040800003023026530031992
:102C300022023908031C262EF8390538B900230072
:102C40001830DA01D9012200B9040800E739083840
:102C5000B9000800B401B501B601B7012C1C382E2B
:102C60003008B4073108B53D3208B63D3308B73DEA
:102C7000B035B10DB20DB30DAF36AE0CAD0CAC0C22
:102C80002F082E042D042C04031D2E2E3708AF0010
:102C90003608AE003508AD003408AC00080021004D
:102CA00066080319572EC8306602031C612E2200E5
:102CB0003A08F0390738D727DD01DC01DB01DB0AF0
:102CC00008008C3023004802A03003194702031C7F
:102CD000702EAB304802E13003194702031C8A2EE4
:102CE00022003A08F0390638792E22003A08F039E5
:102CF0000338D7279031852E22003A08F03908385A
:102D0000BA002300DF01DF0ADE01DD01DC01DC0A9D
:102D1000DB010800063021006602031C752E093015
:102D20006602031C7C2EC0306602031C9C2E22000F
:102D30003A08F0390438792E17306602031CAB2E9E
:102D400022003A08F0390238BA002300DF01DD0121
:102D5000DE01DC01882E14306602031CBA2E22002C
:102D60003A08F0390538BA002300DF01DE01DD0141
:102D7000DD0AA92E14306602031808002200A527D8
:102D80009031A92EB501AF1FD22EAC09AD09AE0905
:102D9000AF09AC0A0319AD0A0319AE0A0319AF0A49
:102DA000B501B50AB31FE12EB009B109B209B309E3
:102DB000B00A0319B10A0319B20A0319B30A0130A0
:102DC000B506B601B701B801B9012F082E042D04CC
:102DD0002C040319172FB401B40AAF1BF42EAC3521
:102DE000AD0DAE0DAF0DEC2EB635B70DB80DB90D5E
:102DF0002F083302031D062F2E083202031D062F53
:102E00002D083102031D062F2C083002031C112F40
:102E10002C08B0022D08B13B2E08B23B2F08B33B63
:102E20003614AF36AE0CAD0CAC0CB40BF42E35082A
:102E30000319252FB609B709B809B909B60A031944
:102E4000B70A0319B80A0319B90A3908AF003808D4
:102E5000AE003708AD003608AC000800E7302100AE
:102E60006002031C422FEA2790316716392FEA27A8
:102E7000E7162300E201E20A2200B7012300E10184
:102E8000E10A08002D306002031C372FEA27903139
:102E90003F3060020318552FE7172300E20122009C
:102EA000B701B70A2300E1010800CF27080020007E
:102EB000AD0021005C082000AC0021005B08200070
:102EC000AF0021005A082000AE0008006E08FE3E48
:102ED0002000BA00FF3023006F3D2000BB0021001E
:102EE0005D0820003B02031D080021005C08200053
:102EF0003A0208006E08023E2000BA0000302300AB
:102F00006F3D2000BB0021005D02031D0800200072
:102F10003A0821005C02080024006B08053E2000EE
:102F2000BA00003024006C3D2000BB002D083B029D
:102F3000031D08002C083A020800E4002200A0014A
:102F4000A1012400C401C50108003A08F039013884
:102F5000BA002300DF01DF0ADE01DD0108002000E6
:102F6000BA00BA0C3A0C0339033A0800210052089F
:102F70002000AF00210051082000AE000800F83901
:102F80000438E4002200A001A10123000800AD01E3
:102F9000AE01AF01B000B101B201B3010800671783
:102FA0002300E2012200B7012300E1010800BA007A
:102FB0002300DF01DE01DE0A0800803AFF008030D6
:102FC0007F020800003021005B020534003022003F
:102FD0002102C934F32F67120800E7120800E71333
:102FE00008006713080067080739013A0319ED2F35
:102FF000033A0319EF2F063A0319EB2FF12F0800BC
:10300000FF3FFF3FFF3FFF3FFF3FFF3FFF3FFF3FD0
:10301000FF3FFF3FFF3FFF3FFF3FFF3FFF3FFF3FC0
:10302000FF3FFF3FFF3FFF3FFF3FFF3FFF3FFF3FB0
:10303000FF3FFF3FFF3FFF3FFF3FFF3FFF3FFF3FA0
:10336000FF3FFF3FFF3FF82905229931A6002600C5
:103370001D082200A7000B2A0230E50026001C08C9
:103380002200A80026001D082200A9000530260002
:103390009E00080005229931AA0026001D0822007F
:1033A000AB002B082300C60022002A082300C5001A
:1033B000220026082300C502220027082300C63B5E
:1033C000220029082300E700220028082300E60045
:1033D000220026082300E602220027082300E73BFC
:1033E00022002B08A7002A08A6000B2AE5010800E6
:1033F00023006508003A0319B429013A0319BC29CE
:10340000033A0319CA29F6290800E501E50A26004E
:103410001C0822000800043026009E00080000302E
:1034200021005F020A3003195E0203181A2ADE0A1D
:103430000319DF0A22003635A03E860001308700DE
:1034400020004A08C03F4B08C13F22000730B60A9F
:10345000B605AE308600AC30840001308500230014
:10346000240822072000B20023002508233D200065
:10347000B3002300260820003207B40023002708E9
:103480002000333DB5002300280820003407B60093
:10349000230029082000353DB70023002A0820001A
:1034A0003607B80023002B082000373DB900003F45
:1034B0003807BA00013F393DBB00403F3A07BC0026
:1034C000413F3B3DBD002300200820003C07220077
:1034D000B2002300210820003D3D2200B30020005F
:1034E0004B082300D00020004A082300CF00200012
:1034F000CE122200E001E00A2000CE17CE1DF02AF5
:10350000230050082000AD0023004F082000AC002D
:103510006430AD36AC0CAD36AC0CAD36AC0CAE0098
:10352000AF01863141269A312D082200B1002000DA
:103530002C082200B0000730B136B00C890B9C2A51
:1035400020004B0822003102031DAA2A20004A084D
:10355000220030020318B82A2000E9239A31220001
:1035600030082400CC02220031082400CD3BCF2AB1
:103570002400CC01CD01CF2AA630CB2AF430220082
:10358000AE000130AF00DF2A7D30CB2A5330CB2A8A
:103590002930CB2A21302200AE00AF01DF2A2100E2
:1035A0005F08003A0319D52ACA2A5E0884000A3047
:1035B00004020318CA2A80310435903E820000308C
:1035C0002F02213003192E020318E92A2130AE0000
:1035D000AF0120004E1E262B0A302200D200262BDF
:1035E000571CF62A2400CC01CD01FA2AE9239A318E
:1035F000CD36CC0C4D30CC01CD012200AE000130D7
:10360000AF0020004E1F242B250011082000540677
:103610000319262B250011082000540203181A2B29
:10362000250091031108200054020318262B2500C1
:103630009103262B2500910A200054082500110231
:103640000318262B910A262B250091012000CA0180
:10365000CB015008FF3A031DCE2B0630D000CE2BF5
:1036600001302500960020004E1F392B2200FB233D
:103670009A31220009300D118D10CD002530D60170
:10368000D60AD70002309200843091002000063024
:10369000AD2B01302500960020004E1F522B22003A
:1036A000F1239A31220009300D158D10CD0005301F
:1036B000D601D60AD7000130920094309100200044
:1036C0005710D001D00AE22B0230250096002000CE
:1036D0004E1F6D2B2200F6239A31220035300E1139
:1036E0008D10CD000530D600D701D70A9201843065
:1036F000910020000230AD2B023025009600200002
:103700004E1F852B2200FB239A31220035300E11EB
:103710008D14CD000530D6002530D7000230920040
:103720009430910020000330C62B04302500960011
:1037300020004E1F9E2B2200F1239A3122001130CF
:103740000E110D11CD002530D6000530D700013007
:10375000920084309100200004305714C72B0430AD
:103760002500960020004E1FB82B2200F6239A3128
:10377000220011300E150D11CD002530D600D701D5
:10378000D70A920194309100200005305710D000E4
:10379000E22B25009601220091015F2B5008013A8F
:1037A0000319302B033A0319492B013A0319642BEF
:1037B000073A03197C2B013A0319952B033A031995
:1037C000AF2BC92B28302200CB002000CA01CB012F
:1037D00008004B082400CD0020004A082400CC003B
:1037E00008000E08E53912388E0008000E08E53989
:1037F00018388E0008000E08E5390A388E000800D7
:10380000CA0A0319CB0A4B0822002F02031D0C2CF5
:1038100020004A0822002E020318102CD2259C31C9
:10382000003021005F020A3003195E02031C1A2CCB
:103830002000CE11003021005F02033003195E0228
:10384000031C242C20004E12DD279C312200111F66
:103850002B2CCC01292DCC01CC0A292D2D30210077
:103860009D00A4259C3121009D148F259C31710859
:103870002400D3007008D200313021009D00A4251F
:103880009C3121009D142200E00A362D4D082100B4
:103890009D001B082000D50021001C082000D60038
:1038A0000000000000000000000000000000000018
:1038B0000000000000000000000000000000000008
:1038C0003F2C8F259C317108CD007008CC004E1B19
:1038D000CB2CC22C23003008D3279C310318842C16
:1038E0004D08F1004C08F00023003008F002031CE2
:1038F000F10322006808F3006708F200BD259C313F
:1039000071082300BF00862C2300BF01C001D72C03
:1039100023003108D3279C310318A22C4D08F10055
:103920004C08F00023003108F002031CF1032200D0
:103930006A08F3006908F200BD259C317108240073
:10394000CE00A42C2400CE01CF01D72C23003208B6
:10395000D3279C310318C02C4D08F1004C08F0000F
:1039600023003208F002031CF10322006C08F3006C
:103970006B08F200BD259C3171082400D000C92CD1
:103980002400C82C2300BF01C0012400CE01CF01B8
:10399000D001D101D72C22004D08093A03196A2C15
:1039A000183A0319A62C243A0319882CC22C01308A
:1039B00020004D02553003194C02031CE32CE53066
:1039C0004E1422008E05220057083D2C21001B08B2
:1039D0002200AC0021001C082200AD0021009D1433
:1039E00020004E1F082D54080319082D571C122DB6
:1039F00022002C08643EF70000302D3DF800200026
:103A000056087802031D062D550877020318362D37
:103A10002200E00A560821009D00A4259C312100C7
:103A20009D14362D003022002D021F3003192C0268
:103A30000318082D362DCB018F259C3175302100C0
:103A40009D00A4259C31432C21009D148F259C3181
:103A5000432C6008FF3E031C362D84000A3004020C
:103A60000318362D80310435A43E820020004E1FFD
:103A70006E2DCE1D702D22004130CA01CA0A2400CD
:103A8000DE00DF0120004A080339031D702D4E1EA1
:103A90005E2D560855040319622D5608F10055088D
:103AA000F0008030F2003E30F300AE279C31700809
:103AB000F9007108FA00FB01FC01622D560855045B
:103AC000031D4D2D2200520879020318692DD203DF
:103AD0006A2DD20A520825009100702D250091010F
:103AE0002200CB08031D8D2D4C0803197B2D2000CF
:103AF000CE1A7B2DCE162000CE1E080024004D08C5
:103B00004C04031D882D2000CE190800D225080082
:103B1000FF30CC07031CCD030800CB030800F201E3
:103B200021009D1C982D4130F20A7202031C902D39
:103B30001C082000C90021001B082000C8004908FB
:103B4000F1004808F000080000000000000000003C
:103B50000000000000000000000000000000000065
:103B60000000000000000000000000000000000055
:103B700000000000000000000800F401F501701CC6
:103B8000C52D7208F4077308F53DF235F30DF136D3
:103B9000F00C71087004031DBF2D7508F100740846
:103BA000F0000800003021005F020A3003195E02B5
:103BB0000318DD2DDE0A0319DF0A22003635A03E88
:103BC00086000130870020004A08C03F4B08C13FF3
:103BD00022000730B60AB605AE308600AC3084004D
:103BE000013085002300240822072000A0002300C4
:103BF0002508233D2000A1002300260820002007DF
:103C0000A200230027082000213DA300230028084C
:103C100020002207A400230029082000233DA5003E
:103C200023002A0820002407A60023002B082000D8
:103C3000253DA700003F2607A800013F273DA9001A
:103C4000403F2807AA00413F293DAB002300200840
:103C500020002A072200B2002300210820002B3D6B
:103C60002200B30020004B082300D00020004A08A7
:103C70002300CF002000CE122200E001E00A200045
:103C8000CE17CE1DAE2E23005008F1004F08F000D5
:103C90006430F136F00CF136F00CF136F00CF20035
:103CA000F301BD259C3171082200B1007008B000FD
:103CB0000730B136B00C890B592E20004B0822007A
:103CC0003102031D672E20004A082200300203182B
:103CD000762E20009B31E9239C31220030082400FD
:103CE000CC02220031082400CD3B8D2E2400CC01D3
:103CF000CD018D2EA630892EF4302200AE00013089
:103D0000AF009D2E7D30892E5330892E2930892E8B
:103D100021302200AE00AF019D2E21005F08003A45
:103D20000319932E882E5E0884000A3004020318BB
:103D3000882E80310435B83E820000302F022130B9
:103D400003192E020318A72E2130AE00AF01200068
:103D50004E1EE52E0A302200D200E52E571CB42E4E
:103D60002400CC01CD01B92E9B31E9239C31CD3605
:103D7000CC0C4D30CC01CD012200AE000130AF00A3
:103D800020004E1FE32E25001108200054060319C1
:103D9000E52E25001108200054020318D92E250015
:103DA00091031108200054020318E52E2500910309
:103DB000E52E2500910A2000540825001102031861
:103DC000E52E910AE52E250091012000CA01CB01C4
:103DD0005008FF3A031D932F0630D000932F013077
:103DE0002500960020004E1FF92E22009B31FB2358
:103DF0009C31220009300D118D10CD002530D601E7
:103E0000D60AD7000230920084309100200006309C
:103E1000712F01302500960020004E1F132F220025
:103E20009B31F1239C31220009300D158D10CD00FE
:103E30000530D601D60AD7000130920094309100A7
:103E400020005710D001D00AA72F0230250096007D
:103E500020004E1F2F2F22009B31F6239C31220081
:103E600035300E118D10CD000530D600D701D70AA0
:103E700092018430910020000230712F0230250021
:103E8000960020004E1F482F22009B31FB239C31BF
:103E9000220035300E118D14CD000530D6002530AE
:103EA000D7000230920094309100200003308B2F15
:103EB00004302500960020004E1F622F22009B3107
:103EC000F1239C31220011300E110D11CD0025304F
:103ED000D6000530D70001309200843091002000D8
:103EE000043057148C2F04302500960020004E1FFC
:103EF0007D2F22009B31F6239C31220011300E15BC
:103F00000D11CD002530D600D701D70A920194308B
:103F10009100200005305710D000A72F25009601F2
:103F200022009101202F5008013A0319EF2E033A85
:103F30000319092F013A0319252F073A03193E2FB8
:103F4000013A0319582F033A0319732F8E2F283083
:103F50002200CB002000CA01CB010800F501F601C8
:103F6000710870040319CE2FF401F40AF11BBB2F62
:103F7000F035F10DB52FF535F60D71087302031DFF
:103F8000C32F70087202031CCA2F7008F202710856
:103F9000F33B7514F136F00CF40BBB2F7608F100EF
:103FA0007508F0000800F700F80120004D087802BD
:103FB000031D08004C087702080000000000000004
:103FC00000000000000000000000000000000000F1
:103FD00000000000000000000000000000000000E1
:103FE00000000000000000000000000000000000D1
:103FF000000000000000000000000800C000AB004E
:020000040001F9
:04000E00BCFFFFDB59
:00000001FF
