:1000000080312928FF3FFF3F803120001118111057
:10001000931C1128931088312220803188311920B7
:1000200080312000911C182891109C310A248031C5
:100030002000931D1F2893118F3107278031200046
:10004000131F252813138731A4272000121812101C
:10005000090088018A31692A00346E346E346E34A6
:100060000034003400340034003400340034D3341D
:10007000D334D334D034CE34CC34C934C734C5347B
:10008000C334C134BF34BD34BB34BA34B834B634ED
:10009000B434B234B134AF34AD34AC34AA34A9344E
:1000A000A734A634A434A334A234A0349F349D349E
:1000B0009C349B349A3498349734963495349434E1
:1000C0009234913490348F348E348D348C348B341C
:1000D0008A3489348834873486348534843483344C
:1000E0008234813480347F347F347E347D347C3478
:1000F0007B347A347A34793478347734773476349C
:1001000075347434743473347234723471347034BA
:1001100070346F346E346E346E346E346E346E34CC
:100120006E346E349A31BB2A9A31BD2A9A31C22A72
:100130009A31C42A9A31C62A9A31C82A9A31C82AD1
:100140009A31C82A9A31C82A9A31C82A9C31392C46
:100150009C31512C9C316C2C9C319D2C9C314E2C13
:100160009C314E2C9C314E2C9C31B02C9C31B62CA9
:100170009D31552D9E31962E9E31982E9E319D2E6D
:100180009E319F2E9E31A12E9E31A32E9E31A32EF5
:100190009E31A32E9E31A32E9E31A32E9031DB28BB
:1001A0009031DB289031DB289031DB289031DB283F
:1001B0009031DB289031DB289031DB2822005E086B
:1001C0003B3A031DD32D20004F08D4004F08803A3E
:1001D00003190629103A03191629013A0319882927
:1001E000023A0319C829073A03193F2A013A0319A9
:1001F000962A0D3A0319642C073A0319102D3F3A39
:1002000003195E2D5A3A0319BF2DD12D5408803A97
:10021000031D08009030D40022003A30ED01ED0AB1
:100220002000B700803038278031F92D5408903AEB
:10023000031D08005729F030D62580312400B40072
:10024000F130D62580312400B500F230D62580313A
:100250002400B600F330D62580312400B7000230E8
:10026000B301B2012200ED006029EB30D6258031C8
:100270002400B400EC30D62580312400B500ED30E8
:10028000D62580312400B600EE30D62580312400FA
:10029000B700EF30D62580312400B3009130B20191
:1002A0002000D40060299030662780316029220028
:1002B0006D08013A03191B29033A031935295329FB
:1002C00024003408FF3A031981293508FF3A03193D
:1002D00081293608FF3A031981293708FF3A0319A3
:1002E00081293308FF3A031981293208FF3A03199B
:1002F00081293A307E26803149278031BE00103076
:10030000F92D7F302000B700903003278031F92D80
:100310005408913A031D0800F430D625803124009A
:10032000B400F530D62580312400B500F630D6254E
:1003300080312400B600F730D62580312400B70084
:10034000F830D625803161278031031DBD2935085D
:10035000FF3A031DBD293608FF3A031DBD293708A2
:10036000FF3A031DBD293308FF3A031DBD293A306A
:100370007E2680310C278031C3297F302000B700D2
:100380004F0803278031F92592302000D40008005F
:100390005408933A031D0800762780312D08220067
:1003A000A80020002C082200A700FF3023005127BE
:1003B000803115140000000023001408BB0013084E
:1003C000BA00FE30512780311514000000002300D0
:1003D0001408BD001308BC000430B83E860001308C
:1003E00087003A082000C200C101403F41072300B6
:1003F000B800413F2000423D2300B9003A082400E4
:10040000B60023003C082400B7002200280824007E
:10041000B300220027082400B2002200280823008D
:100420003906031D172A2200270823003806031D5A
:100430002D2A3A302000B7004F08B8000230B9002A
:10044000BA01BA0A240036082000BB00240037088D
:100450002000BC0049278031382A7F302000B700B7
:100460004F08B800FF30B900BA00BB00BC00BD00A7
:10047000BE001030F92594302000D4000800540844
:10048000943A031D08004E082100E600E608031D0B
:100490004B2A6F30E600220030082000C200220004
:1004A0002F082000C100C236C10CC236C10C410861
:1004B0002400B40021006608FD3E2000C100FF308A
:1004C00003180030C200803AC30080304302031D8D
:1004D0006D2A240034082000410203188B2A2100D1
:1004E0006608033E2000C100003003180130C2003E
:1004F000803A803C031D7F2A4108240034020318FF
:100500008B2A3A302000B700AA2680311030BA0179
:100510005C278031912A7F302000B7004F080327E5
:100520008031F92595302000D40008005408953A10
:100530000319532C622C8C31292480310B138B131B
:1005400025009301220035300D158E158E100E12E8
:1005500021009D002400A001AF2A0000000024001B
:10056000A00BAD2AA101B62A000000002400A10BB7
:10057000B42AA201BD2A000000002400A20BBB2A5D
:10058000A301C42A000000002400A30BC22AA40176
:10059000CB2A000000002400A40BC92AA501D22AFE
:1005A000000000002400A50BD02A8A3138228031B7
:1005B00021009D148A31512280312D082200E4004F
:1005C00020002C082200E3002108E302031CE403BE
:1005D00009300E158E148E110E1221009D0024007C
:1005E000A601F42A000000002400A60BF22AA701AD
:1005F000FB2A000000002400A70BF92AA801022B07
:10060000000000002400A80B002BA901092B00000A
:1006100000002400A90B072BAA01102B00000000EA
:100620002400AA0B0E2BAB01172B000000002400A6
:10063000AB0B152B8A313822803121009D148A3171
:10064000512280312D082200E20020002C082200D7
:10065000E1002008E102031CE20311308D140E16A4
:100660008E108E1121009D002400AC01392B00005A
:1006700000002400AC0B372BAD01402B0000000024
:100680002400AD0B3E2BAE01472B000000002400E0
:10069000AE0B452BAF014E2B000000002400AF0B2A
:1006A0004C2BB001552B000000002400B00B532B45
:1006B000B1015C2B000000002400B10B5A2B8A31E1
:1006C0003822803121009D148A3151222D082200C8
:1006D000E60020002C082200E5002208E502031CA9
:1006E000E603E5308E050C30250093000B178B17C1
:1006F0002100DA01DA0A08001F27803151268031F3
:100700002D08B3000230E12580311F2780315126AA
:1007100080312C08B3000330E12580310330D62529
:100720008031C1000230D62580312100E90020004F
:1007300041082100E8005A082400B40022006208A1
:100740002000AD00220061082000AC0021006908F3
:100750002000AF00210068082000AE003C26803158
:100760002D082400B600210069082400B7002100EC
:100770006808B126803193268031F9250230DA00ED
:10078000080013278031512680312D08B300043032
:10079000E125803113278031512680312C08B300A8
:1007A0000530E12580310530D6258031C100043087
:1007B000D62580312100EB00200041082100EA000D
:1007C0005A082400B400220064082000AD00220072
:1007D00063082000AC0021006B082000AF0021005E
:1007E0006A082000AE003C2680312D082400B600A7
:1007F00021006B082400B70021006A08B12680316F
:1008000093268031F9250330DA0008003127803142
:100810002B278031512680312D08B3000630E12589
:100820008031312780312B278031512680312C08AF
:10083000B3000730E12580310730D6258031C10073
:100840000630D62580312100ED002000410821002E
:10085000EC005A082400B400220066082000AD0015
:10086000220065082000AC0021006D082000AF00C8
:1008700021006C082000AE003C2680312D082400A9
:10088000B60021006D082400B70021006C08B126D5
:10089000803193268031F92598302000D40008005B
:1008A00020004F08662F21005A08003A03199B2A9E
:1008B000013A03197C2B033A0319C12B013A03199E
:1008C000062C502C4F08662F5408983A031D080038
:1008D0004E082100EE0020004E08013A03197A2C40
:1008E000023A03199F2C073A0319C42C013A031941
:1008F000E92C0E2D57278031031D08004E082400D7
:10090000B4008C31EB248031E62680313C268031E6
:10091000F52680310A008431C826803103189C2CCA
:100920002400B526803103189C2C3A307E26803175
:100930001030BD01BE01F92DD8268031F92D572781
:100940008031031D08004E082400B4008C31EB24D4
:100950008031E62680313C268031F52680310A0040
:100960008431C82680310318C12C2400B52680317B
:100970000318C12C3A307E2680311030BD01BE01F3
:10098000F92DD8268031F92D57278031031D080015
:100990004E082400B4008C31EB248031E6268031EF
:1009A0003C268031F52680310A008431C82680310A
:1009B0000318E62C2400B52680310318E62C3A30C3
:1009C0007E2680311030BD01BE01F92DD826803140
:1009D000F92D57278031031D08004E082400B4006C
:1009E0008C31EB248031E62680313C268031F5269F
:1009F00080310A008431C826803103180B2D240071
:100A0000B526803103180B2D3A307E268031103008
:100A1000BD01BE01F92DD8268031F92D4F08662F72
:100A200054089F3A031D08004E082200EE00452D91
:100A3000373076268031210037306510E510E51318
:100A40006511E51565126513E5122400B50008303F
:100A5000B40003302200EE004D2D4D30762680315B
:100A600021004D3041278031E5162400B500B40146
:100A7000B40A2200EE01EE0A4D2D0B3076268031AD
:100A8000210041278031E5124D2D6E08023A0319ED
:100A90002D2D063A0319182D3D2D24003A30B701AB
:100AA000B301B2012000B700AA2680312400350826
:100AB0002000BA0010305C278031F92D5408A03A8C
:100AC000031D08004E08B300F430E12580312200F8
:100AD0005A082000B300F530E125803122005B0880
:100AE0002000B300F630E125803122005C082000B0
:100AF000B300F730E125803122005D082000B3000B
:100B0000F830E1258031F430D62580312400B4005E
:100B1000F530D62580312400B500F630D625803159
:100B20002400B600F730D62580312400B700F83015
:100B3000D6258031612780310319B42D3508FF3A5D
:100B40000319B42D3608FF3A0319B42D3708FF3ABC
:100B50000319B42D3308FF3A0319B42D3A307E2619
:100B600080310C278031BA2D7F302000B7004F082C
:100B700003278031F925FA302000D40008005408FA
:100B8000FA3A031D08003A30B7004F083827803181
:100B9000F925803155302000B300E12520008E1268
:100BA00008005408662F20005408662F2000AC006F
:100BB0002300910095131513151413082000AD00A0
:100BC0000800B400230091002000330823009300A4
:100BD00055301513951315158B139600AA309600F2
:100BE00095148B1715112300951C080000000000B8
:100BF000F32DBF00CC1DFA2D0230AC0005307B2652
:100C00008031CD0086000230870037088100CD0A90
:100C10004D08860038088100CD0A4D088600390845
:100C20008100CD0A4D0886003A088100CD0A4D08A2
:100C300086003B088100CD0A4D0886003C088100F3
:100C4000CD0A4D0886003D088100CD0A4D0886007A
:100C50003E0881000830CD0AAD005530AE00773037
:100C6000AF01B000B1013F088E313E264C08210093
:100C7000CA00F030CA050800B001B1012C1C442E96
:100C80002E08B0072F08B13DAE35AF0DAD36AC0C18
:100C90002D082C04031D3E2E3108AD003008AC0099
:100CA0000800B101B2012D082C040319712EB00106
:100CB000B00AAD1B5E2EAC35AD0D582EB135B20D60
:100CC0002D082F02031D662E2C082E02031C6D2EEC
:100CD0002C08AE022D08AF3B3114AD36AC0CB00B76
:100CE0005E2E3208AD003108AC0008002000AC00D8
:100CF0002200D50008002C08543E08002000B70050
:100D00004F08B800240034082000B900240035083A
:100D10002000BA00240036082000BB002400370859
:100D20002000BC000800B7004F08B80024003408B9
:100D30002000B900BA01240036082000BB002400BE
:100D400037082000BC00240033082000BD0010300C
:100D5000BE0108004F08B800240034082000B90084
:100D600008002400B30020003A343708FD3E20007C
:100D7000C100FF3003180030C200803AC300803049
:100D80004302031D08002400360820004102080029
:100D9000B700033E2000C100003003180130C2003C
:100DA000803A803C031D08004108240036020800F8
:100DB0007F302000B7004F08B8004E08B900FF3060
:100DC000BA00BB00BC00BD00BE0010348936240050
:100DD000B50021003D082000AD0021003C082000A6
:100DE000AC000530AE00AF0108002C08C1002D0892
:100DF000C200C236C10CC236C10C41082400B60084
:100E000035082D3E0800B800FF30B900BA00BB001D
:100E1000BC00BD00BE001034240033082000BD001B
:100E20001030BE010800220064082000AD0022003E
:100E300063082000AC007830AE01AF00080022004B
:100E400062082000AD00220061082000AC0078306C
:100E5000AE01AF0008002000AC007830AE01AF005A
:100E60000800220066082000AD0022006508080086
:100E7000B8001030B901BA01BB01BC01BD01BE010F
:100E800008006510E510E5136511E511651265139D
:100E90000800240033082000BD0024003208200090
:100EA000080091001F3092001511951708002100CD
:100EB0006E0820004E060800BB01BC01BD01BE014A
:100EC00008002400B3003408FF3A08002000C000E6
:100ED000FF30CE002200DA00DB00DC00DD007F30D6
:100EE0002000B700400803278031F92DFE30B20101
:100EF000B301B001B101AE001F30AF000130AE024E
:100F00000030AF3B2E0A03192F0A03199F2F320816
:100F1000230091002000330823009200151195173B
:100F2000151400000000230013082000B007230060
:100F300014082000B13DB20A0319B30A7E2F31080C
:100F4000AD003008AC000800E92FF6278731AA0071
:100F500026001D082100AB00FC2F0230D600260021
:100F60001C082100AC0026001D082100AD00053042
:100F700026009E000800F6278731AE0026001D08D7
:100F80002100AF002F082300DB0021002E082300E2
:100F9000DA0021002A082300DA0221002B082300AE
:100FA000DB3B21002D082300EB0021002C0823004F
:100FB000EA0021002A082300EA0221002B0823006E
:100FC000EB3B21002F08AB002E08AA00FC2FD60116
:100FD000080022005608003A0319A52F013A031908
:100FE000AD2F033A0319BB2FE72F0800D601D60A0D
:100FF00026001C0821000800043026009E0008007E
:10100000FF3FFF3FFF3FFF3FFF3FFF3FFF3FFF3FF0
:10101000FF3FFF3FFF3FFF3FFF3FFF3FFF3FFF3FE0
:10102000FF3FFF3FFF3FFF3FFF3FFF3FFF3FFF3FD0
:10103000FF3F2100E20A0800640080010131890BB2
:101040001D28003421006430DD0A5D02031C2C28B9
:10105000DD0122000E1008002200550821005D026B
:10106000031C080022000E1408000000000000000D
:101070000000000000000000000000000000000070
:101080000000000000000000000000000000000060
:101090000000000000000000000000000000000050
:1010A0000000000000000000000008008130210066
:1010B0009500EF01EF0A8B138B01910192019301CF
:1010C0002200D701D80121004930E1012300EE00C0
:1010D000CD30EF01EC00ED016C218831D120883159
:1010E000EC2088310421883101308F208831043090
:1010F0008F20883106308F20883105300A218831D1
:10110000C8208831602188318C2188312300E20198
:10111000E301A4218831CB260B178B170800200090
:10112000AD00B628003037248B1208000130372478
:10113000753020009800210011100800023037247B
:10114000073020009C002100911008000430372453
:101150000E30280097002100931408000630372431
:10116000053028009E002100931508002D08003A44
:1011700003199228013A03199628033A03199E2865
:10118000063A0319A628023A0319AE28C728080010
:10119000A03021009E009D0130301D1422009704D4
:1011A000080020008E12AC01D728000000002000AB
:1011B000AC0BD5288E16AD01DF2800000000200002
:1011C000AD0BDD288E12AE01E728000000002000E4
:1011D000AE0BE5288E1608009F3023009B000130DF
:1011E0009C0026309E0090309D0048309F002100DA
:1011F00091012400F3272200CB012000CC01210023
:10120000D2012000CC150800F030210099001130E7
:10121000970008002000AC002100DF012200D4016B
:101220004D29250093019101920121001115200003
:101230000530111125009300080025009A0198013E
:1012400099012100121420000530121025009A0087
:10125000080026009301910192012100131620003D
:101260000530131226009300080026009A01980109
:1012700099012100931620000530931226009A0050
:10128000080026009E019C019D01210013172000EB
:101290000530131326009E00080020002C08013A98
:1012A00003191129033A03191D29013A03192929A0
:1012B000073A03193529013A031941295F29080022
:1012C00021000B30E50186317626E101E201E301E0
:1012D000E401E501E601080027308C0029308D008B
:1012E00022008C018D018E0155308531D625883143
:1012F000553A03197D298E1A84297F3021008C00EC
:1013000039308D008E0108007F3021008C0039308B
:101310008D0080308E0008002100E7010830670250
:101320000318080031309D0038228831512288315D
:101330002D08D2002C08D100002788315E30C03F34
:101340000130C13FE70A8E2903308531D625883127
:10135000003A0319C22903308531D6258831FF3A76
:101360000319C22903308531D6258831AF000230F8
:101370008531D62588312100E90020002F08210081
:10138000E800C62921000130E801E9000530853177
:10139000D6258831003A0319E42905308531D62550
:1013A0008831FF3A0319E42905308531D625883183
:1013B000AF0004308531D62588312100EB002000B4
:1013C0002F082100EA00E82921000130EA01EB00A2
:1013D00007308531D6258831003A0319062A0730AF
:1013E0008531D6258831FF3A0319062A0730853121
:1013F000D6258831AF0006308531D62588312100C9
:10140000ED0020002F082100EC000A2A2100013005
:10141000EC01ED0022001A300E110D118D108E041A
:101420003822883138228831113021009D0038223D
:10143000883121009D14512288312C082200A200FD
:10144000353021009D003822883121009D14512221
:1014500088312C082200A100093021009D0038228B
:10146000883121009D1451222C082200A000080080
:10147000000000000000000000000000000000006C
:10148000000000000000000000000000000000005C
:10149000000000000000000000000000000000004C
:1014A00008002000AE0121009D1C5C2A2000413074
:1014B000AE0A2E02031C532A21001C08A9001B0897
:1014C000A80029082000AD00210028082000AC0059
:1014D00008004830D3018400003085000B3088318B
:1014E0001C208831A03084000030850048308831CD
:1014F0001C2088312030840001308500473088313D
:101500001C208831A0308400013085004C308831A7
:101510001C20883140308400023085001F30883123
:101520001C2088318030D40021000130E800E9011E
:10153000EA00EB01EC00ED01EE0022008030E70054
:101540003830E8000130E900EA01EB00EC00ED0082
:101550000730EE002000AC2A5620883104303724B2
:1015600088312200DF01210062082000C400C5018B
:101570004508C70022005F0820004402C600031C83
:10158000C70347040319B32A210062082200DF00C1
:10159000D70AD80A2100E10AE51CD52AC830200064
:1015A0009B00210064352000ED2A7D3020009B0047
:1015B0000430B200B301210064082000AC00053003
:1015C000AD01AE00AF0186313C2688312D08B50053
:1015D0002C08B400E92388313208D000582488311F
:1015E0000330220057020318D70105305802031CAC
:1015F000C02BD8016400EB2488312100DE002300D9
:101600005B082200AE0023005A082200AD00210032
:101610003D08B3003C08B20023005908E500580813
:10162000E4000530E600E7012200D3012100E51CBB
:10163000302B5E362D3E80310A0089362300DC00D7
:101640008C30DD0180310A008936DE003830DF0160
:1016500080310A008B318936E000E1018B316A2B41
:1016600005302000B200B30121005E362D3E8031EE
:101670000A008B3120008E31F5268831E9233308AA
:101680002300DD00200032082300DC0005302000AC
:10169000B2008C30B30180310A008B31F5268831DD
:1016A000E92333082300DF00200032082300DE0096
:1016B00005302000B2003830B30180310A008B3190
:1016C000F5268831E92333082300E10020003208A1
:1016D0002300E000220030082000C50022002F086F
:1016E0002000C400C536C40CC536C40C4408210013
:1016F000C000C101220032082100B90022003108D7
:101700002100B800003020004B1801302100D80023
:10171000D4019031822088312100EF01E408031DBB
:10172000942B29248831962B7825883122004E0865
:1017300021006510031D65145308E510031DE51411
:1017400022004C082100E513031DE517560865111A
:10175000031D65155708E511031DE51555086512AC
:10176000031D651622004F0821006513031D651730
:1017700022004D082100E512031DE51620004B1044
:1017800021006108193A031DD12BC1245530853140
:10179000D6258831553A031D8E1ED12B11309A253E
:1017A000883121006108253A031DE12B5530853130
:1017B000D6258831553A031D8E1EE12B8031DE205F
:1017C00088316530210061020318E1012200D00157
:1017D000B32AB701B31FF32BB209B309B20A031935
:1017E000B30AB701B70AB51FFC2BB409B509B40A8F
:1017F0000319B50A0130B706B801B901330832043C
:1018000003191C2CB601B60AB31B092CB235B30D53
:10181000032CB835B90D33083502031D112C3208DD
:101820003402031C182C3208B4023308B53B3814B8
:10183000B336B20CB60B092C37080319242CB8099F
:10184000B909B80A0319B90A3908B3003808B2004F
:10185000080020004B1F080022008E108E110E126F
:1018600025009513910120004B13CB130800AC0009
:10187000462C950108009601970108009A0108007E
:1018800028009501080028009C0108002C08003A57
:101890000319392C013A03193B2C033A03193E2C46
:1018A000063A0319402C023A0319432C572C08001E
:1018B0005D248831FE2588311A2E002788312000CA
:1018C0005108C03F5208C13F4E3086004C30840062
:1018D000023085002400440842072000AC002400A8
:1018E0004508433D2000AD002400460820002C0799
:1018F000AE002400470820002D3DAF00240048081A
:1019000020002E07B0002400490820002F3DB10020
:1019100024004A0820003007B20024004B082000B1
:10192000313DB300003F3207B400013F333DB50005
:10193000403F3407B600413F353DB7002400400822
:10194000200036072300CA00240041082000373D4C
:101950002300CB002200B00023004A082200AF0081
:101960000830B036AF0CB036AF0CB036AF0C21003B
:10197000E70A6702031C0800E7012300CA01CB0144
:101980000800651FC62C58308631762E530803197F
:10199000CC2C21308631762E55080319D22C4230BA
:1019A0008631762E57080319D82C37308631762E9B
:1019B00056080319DE2C2C308631762EE51EE32CDA
:1019C0004D308631762E651CE82C16308631762E09
:1019D0000B308631762E23005A082000B5002300F4
:1019E0005B082000B600B70123006A082000AC00A5
:1019F00023006B082000AD00C830AE01AF00B0017D
:101A0000B1015B2588312C08B8002D08B9002E08DB
:101A1000BA002925883135082100DF00DF08031DC1
:101A20001C2D22000530D40A5402031C252D210050
:101A30005F082200D200252D2200D40121005F087A
:101A40002200D2002300EA01EB0122005208C83C28
:101A50000800BB01BC01BD01370836043504031979
:101A6000542DBE01BE0AB71B392DB535B60DB70DC5
:101A7000322DBB35BC0DBD0D37083A02031D462D76
:101A800036083902031D462D35083802031C4F2D38
:101A90003508B8023608B93B3708BA3B3B14B736AD
:101AA000B60CB50CBE0B392D3B08B5003C08B60092
:101AB0003D08B7000800B201B301B4012C1C662D2B
:101AC0002F08B2073008B33D3108B43DAF35B00D33
:101AD000B10DAE36AD0CAC0C2E082D042C04031D3C
:101AE0005E2D3208AC003308AD003408AE000800AB
:101AF00020004B1B0800A630CB122100B600B70116
:101B0000D901D90ABE01BF012000D001C801C90115
:101B10002300D001D101250096012000CB154B17E1
:101B20002100E001250091012200E00120004B1678
:101B30009A310F2ABB00CC1D9B2D3B08B700083003
:101B4000B8000530EA258831CC1DA42DF0304C05B5
:101B5000BA0021004A060319080020000530AC0134
:101B600086317B268831CD0086000230870001084F
:101B70002300B000EE268831B100EE268831B20095
:101B8000EE268831B300EE268831B400EE26883187
:101B9000B500EE268831B600EE26B70030082200E8
:101BA000DE00230031082000CF002300320820008F
:101BB000CE00230033082200DA002300340822007C
:101BC000DB00230035082200DC0023003608220059
:101BD000DD000800CC1D080038082200CA002000E3
:101BE000CC142300C401C50120002430AD01AE0097
:101BF0003330AF01B000B10137083E2E2200290872
:101C00002300CC0722002A082300CD3D4D082200E6
:101C1000B20023004C082200B1000630B236B10CED
:101C2000890B0E2E31082300CC022200320823003B
:101C3000CD3B08005608CE075708CF3D4F0822007D
:101C4000AC0023004E082200AB000630AC36AB0CD3
:101C5000890B262E2B082300CE0222002C082300FD
:101C6000CF3B22002C082300D90022002B082300A0
:101C7000D8006208D8076308D93D0800B200B30055
:101C80000F30CC050D302200A5001330A601230033
:101C9000C800C90120002F082200A40020002E083F
:101CA0002200A300200031082300C70020003008D4
:101CB0002300C6002000CC1D080055302400D400AD
:101CC00020003308A52688312400D5002100CF014B
:101CD0002000CC1C6F2E02302100D000962E2D0843
:101CE000023E2100D00020000230B401B501B60050
:101CF00021005008200036020318892E3608543E71
:101D00008600023087000108B4070318B50AB60A36
:101D1000782E21005008543E8600023087002000B3
:101D200035083407FF3A81002100D00A2300FF3034
:101D30009E159A000F302000CC054C142100D214BF
:101D40005215D1012000CC110800AC003F30AC0589
:101D50002C1CAC2E4030AC06AC1CB02E4030AC0677
:101D60002C1DB42E4030AC062C1EB82E4030AC06D4
:101D7000AC17AC1CBD2E8030AC06AC1DC12E803023
:101D8000AC062C1EC52E8030AC06AC1EC92E803091
:101D9000AC062C0808002500960180302200910036
:101DA00092012100873092122500940095010C3099
:101DB0009300910121000430121025009A00FF3099
:101DC00098009900643020009B0005309C0028306A
:101DD0002100DB0091142000CB01782D2000CD0ADA
:101DE0004D088600010823000800C400C501C43561
:101DF000C50DC435C50D4408B4004508B50008003C
:101E000021006735403E860002308700080023002D
:101E10009E19892F2000911E892FCC1D252F23006C
:101E20001D080639031D892F1908803A031D892FC3
:101E30002400F3278831230019082100D100D21E85
:101E4000232FD212892F5214892F4C1C602F23006C
:101E50001D0806390319302F21004F08031D672F75
:101E600021004F08023A0319D21022004B0803192F
:101E70003B2FCB03892F210051082300190603199A
:101E8000432F6C30872F210050080319562F230051
:101E900019082100D100FA2788310108D100230058
:101EA0009A002100D0032100CF0A892F2000CC1CEA
:101EB0005D2F4C102100CF01892F21005211862F58
:101EC000CC1C892F23001D0806390319692F7C308B
:101ED000872F22004A0803197E2F2100FA27883114
:101EE0002300190881002200CA0323001908C4072F
:101EF0000318C50A451C532FC40A532F2300190A7F
:101F0000C40744080319862F5C30872F0830E42764
:101F100088312000CC19CA2F2100521DC32FD21C9A
:101F2000A62F22002608250403199A2F0130A502A6
:101F30000030A63B2300490848040319A42F0130B0
:101F4000C8020030C93BAE2F2C30AC2F220026082F
:101F500025040319AE2F1C30E42788312200240801
:101F600023040319B72F0130A3020030A43B230040
:101F7000470846040319C12F0130C6020030C73B91
:101F800008004C30E42F2200240823040319080021
:101F90003C30E42F2100D21A0800240053085204D8
:101FA000510450040319E12F0130F100F201F30153
:101FB000F401D0027208D13B7308D23B7408D33BC2
:101FC0000800210052170800F00023001908210022
:101FD000D100D2012300C401C50170082000CC004B
:101FE0002400F32708002730D301D201D100BB30F1
:101FF000D00008004F08543E8600023087000800D9
:10200000FF3FFF3FFF3FFF3FFF3FFF3FFF3FFF3FE0
:10201000FF3FFF3FFF3FFF3FFF3FFF3FFF3FFF3FD0
:10202000FF3FFF3FFF3FFF3FFF3FFF3FFF3FFF3FC0
:10203000FF3FFF3FFF3FFF3FFF3FFF3FFF3FFF3FB0
:10204000FF3FFF3FFF3FFF3FFF3FFF3FFF3FFF3FA0
:10205000FF3FFF3FFF3FFF3FFF3FFF3FFF3FFF3F90
:10206000FF3FFF3FFF3FFF3FFF3FFF3FFF3FFF3F80
:10207000FF3FFF3FFF3FFF3FFF3FFF3FFF3FFF3F70
:10208000FF3FFF3FFF3FFF3FFF3FFF3FFF3FFF3F60
:10209000FF3FFF3FFF3FFF3FFF3FFF3FFF3FFF3F50
:1020A000FF3FFF3FFF3FFF3FFF3FFF3FFF3FFF3F40
:1020B000FF3FFF3FFF3FFF3FFF3FFF3FFF3FFF3F30
:1020C000FF3FFF3FFF3FFF3FFF3FFF3FFF3FFF3F20
:1020D000FF3FFF3FFF3FFF3FFF3FFF3FFF3FFF3F10
:1020E000FF3FFF3FFF3FFF3FFF3FFF3FFF3FFF3F00
:1020F000FF3FFF3FFF3FFF3FFF3FFF3FFF3FFF3FF0
:10210000FF3FFF3FBE28003027023330031926026D
:10211000031C94284D08F8390538CD002200C7016A
:102120002100A601A701D3282100A60A0319A70AA6
:10213000D3281B2690314D0CDD279031031D9428A8
:10214000D3281B269031D328003027021030862850
:102150004D08F8390338CD002200C701D3284D08B7
:10216000F8390638BC28CD1AD328CD166F080319C4
:10217000D3284D08F8390438CD0090284D08073988
:10218000013A0319AF28033A0319A828013A0319A1
:10219000A128073A03198328013A03199928033A19
:1021A0000319A428B32821005E082000CA002100DA
:1021B0004C1ADE28EC2871269031F5284C080F398E
:1021C000FF3E031CF5288400083004020318F5289C
:1021D00080310435CE3E82004C166F0BF028F1287A
:1021E000F528AD279031C301C20122004308CD007C
:1021F0002100CE1D1A294E1E08294E08F839023832
:10220000CE00DE30400203182029E4269031202938
:10221000CE1E13294E08F8390338CE003230400262
:102220000318052920294E1F20294E08F8390138A6
:10223000CE000529CE156F0B20294E17E4279031CB
:102240002400A9012200460803192D292100C908EC
:10225000031D2D292400A901A90A24002908A8008A
:102260002100C71C4229513022003A02031C402998
:102270002100C710C7152200BC01BB01BD01702998
:10228000BA0ADD29471D47294711C714DD29C71D93
:102290005B290030230065024830031964020318EB
:1022A000DD292100C71147162200BC01BC0ABB0171
:1022B000BB0ABD01DD29471E6829003023006502E5
:1022C000BA3003196402031CDD29210047123A29A0
:1022D0004718DD2947146F080319DD294715220027
:1022E000BA01DD2900302502333003192402031C12
:1022F0007F294B08D62790312200BF01F629A40A76
:102300000319A50AF629302690314B0E0339033AFA
:10231000031D7F29F6290A3022003F020318F629FF
:1023200021004B08F0390338CB002200C101C00165
:10233000C00A2100A401A501F62930269031F62912
:1023400000302502C93003192402031CAE294B08B2
:10235000F0390738CB002200BF0AF62958080319C4
:102360007F294B08F0390138CB00A401A5012200D8
:10237000C101C10AC001C00AF629D8080319902971
:10238000003025020230031924020318B1297F29E5
:10239000D808031D7F294B08F0390438CB00992950
:1023A0004B1BF6294B176F080319F6294B08F03918
:1023B0000638CB00A401A5017C2921004B080F3968
:1023C000013A0319C829033A0319BD29013A03192F
:1023D0008329073A0319A029013A03199D29033AD1
:1023E00003197229013A03198B29D0292400AA0163
:1023F000AA0AA808031D0B2A2200C908031D0B2ADC
:10240000BD08031D0B2AC108031D0B2AC708031DA5
:102410000B2A2400AA0124002A08BB000030210056
:10242000EF08031D01302400B3002100221F0E2BF2
:102430002400BB08031D252A33080319F72A252A7F
:10244000A001A101F830A2053B2A2100220807398A
:10245000013A0319222A033A0319222A013A0319DD
:10246000202A073A0319222A013A0319222A033A99
:102470000319222A3B2A2213262B210820040319A0
:10248000922AA001A1012208F8390238A2002B2BC0
:1024900003302102E93003192002031C582A2208C4
:1024A000F8390538B72790312200B801B9012B2B34
:1024B00000303302053003193202031C662A013052
:1024C00033022D3003193202031C922A2208F839F4
:1024D0000138A2002200B9012100A001A1012B2B8B
:1024E000003023004302653003194202031C812A95
:1024F00021002208CF279031B801B80AB901B90AE2
:102500002B2BFC27903103193202031C8E2A013039
:1025100033022D3003193202031C432A2300C20A5E
:102520000319C30A2100A00A0319A10A2B2B0030AA
:1025300021020B3003192002031CDC2A2200370879
:102540000A3A031DAF2AF8302100A20522132314F2
:1025500022001830B901B90AB801B80AD52AFC27F7
:10256000903103193202031CBC2A013033022D3092
:1025700003193202031CC52A2208CF2790311830D4
:10258000B801B80AB901B90AD52A00302102C93008
:10259000031920022208031CD82AF8390538B72766
:1025A000903122001830B801B9012100A204DE2ABE
:1025B000E7390838A200DE2AE730A205220CDD2721
:1025C0009031031D922A2B2B00302102C9300319B0
:1025D0002002031C922A2208F8390638A200A00122
:1025E000A1012200B801B901B90AB70A2B2B2100B9
:1025F00022080739013A0319702A033A0319482AB5
:10260000013A03193D2A073A0319E42A013A03194A
:10261000432A033A0319972A2B2B2B2BA21F1D2B7E
:102620002400BB08031D2B2B2100A2132217220814
:10263000F8390338B72790312B2B231CA21A2B2BE8
:10264000A2162400330803192B2B2100A217220005
:10265000B801B901B7012400AB01AB0A2200C508DB
:10266000031D382B2100C908031D382B2400AB01A2
:1026700024002B08B500220050080319462B230024
:1026800069082400B20023006808612B440803197C
:10269000502B230061082400B20023006008612B46
:1026A0002400350803195B2B23005F082400B200C7
:1026B00023005E08612B23005D082400B200230084
:1026C0005C082400B100210033082400B800210078
:1026D00032082400B7003108B7023208B83B2100A5
:1026E000C61C9C2B23006E08FB3E2000BA00FF3066
:1026F00023006F3D2000BB0021003902031D842B05
:1027000020003A08210038020318E12B013033027F
:102710009030031932020318E12B0030330251309C
:1027200003193202031CE12BC6104615461623007E
:10273000BE01BF012100E02B461DDA2BC61D461E3F
:10274000E12B23006E08053E2000BA000030230074
:102750006F3D86279031031CBC2B013021003302D2
:102760009130031932020318BC2B00303302503071
:10277000031932020318C02B210046124611DF2B29
:1027800014305E020318C82B05305E020318BC2B00
:10279000073023003F02D13003193E02031CD62B21
:1027A00021004612C615C201C20AE12BBE0A031956
:1027B000BF0AE12B4618E12B46146F0BE12BC61420
:1027C000C2012100C51CEF2B420803192D2CC51096
:1027D0004515C515EB279031B60AB5012D2C451DC1
:1027E000202CC208031DFD2BC51DF82BC511FB2B8A
:1027F000451EFB2B45124511262CC51D132C0130FF
:1028000023004102913003194002031C0F2C2100C8
:10281000C5114516EB279031B501B50A2D2CC00A1C
:102820000319C10A2D2C451E2D2C01302300410215
:10283000913003194002031C0F2C21004512E92B93
:1028400045182D2C4514C208031D2D2CC51422003B
:10285000B501B6012300C001C101220036082100E4
:10286000D50022003B082100D300441C432C230048
:10287000932790318627903103187D2C2100441036
:102880004415C3017D2CC41C582C23009327903180
:102890008627903103184F2C2100C410662C653018
:1028A00021004302031C562CC4107A2CC30A7D2C31
:1028B000441D6B2C23009B2790310318612C44117D
:1028C0007A2C33304302031C562C4411C4152200C9
:1028D000BE01BE0A7D2CC41D752C23009B279031A0
:1028E00003187D2CC411C414412C441A7D2C4416A9
:1028F0006F0B7D2C44142200BE0122003E082100F3
:10290000D60022004208CE004808CF002400AC01C7
:10291000AC0A2200B908031D952CC008031D952C94
:10292000B508031D952C2400AC0124002C082100BF
:10293000D70022003C08CC002400AD01AD0ABB0842
:10294000031DAC2C2200B808031DAC2C2100C208CA
:10295000031DAC2C2400AD0124002D08B400AE01F1
:10296000AE0AB408031DBA2C2100D408031DBA2CEA
:102970002400AE0124002E08B60022006C060319C4
:10298000CB2CEB08031DCB2C0130EA01E9003830D9
:10299000E8008030E700240034080319D12CB90185
:1029A000322D210054080319342D24003508031951
:1029B000DB2CCA30312D21005E082000AC00E03055
:1029C000C72790314C2690312E082400BD002000EE
:1029D0002D082400BC00E0302000AC005F30C72789
:1029E00090314C2690312C08BA002D08BB002E08DF
:1029F000BC002F08BD000730BD36BC0CBB0CBA0CA8
:102A0000890BFC2C3A082400BC0220003B0824005F
:102A1000BD3BC830BC070318BD0A3D08803AFF0023
:102A200080307F02031D162DC9303C0203182F2D64
:102A300024003D08803AFF0080307F02031D222DD4
:102A40003C303C02031C272D24003C08292D3C303F
:102A50002400A400A5012508BA0024088C2DC83044
:102A60002400B900BA018D2D20000330AF01AE0162
:102A7000AD002030AC0022006A082000B300220024
:102A800069082000B200220068082000B10022007E
:102A900067082000B0001A2790312D082400BF00DD
:102AA00020002C082400BE00220053082000AC00A7
:102AB000AD01BE2786313C2690312C082400BE078C
:102AC00020002D082400BF3D3F08803AFF008030E1
:102AD0007F02031D6D2D01303E02031C772D003057
:102AE00024003F02CB3003193E020318D92C2400E6
:102AF000BF1B862D00303F02283003193E02031C05
:102B0000862D3F08A7003E08A600892D2830A60084
:102B1000A7012708BA002608B9003A082000BB0020
:102B2000240039082000BA00BB36BA0C3A0821004C
:102B3000E400240036082200EC002300670820008F
:102B4000AD00230066082000AC00BE2786313C267D
:102B500090312C08BA002D08BB00BA35BB0DBA3530
:102B6000BB0DBA35BB0D3A08BC003B08BD000030B8
:102B7000BD1BFF30BE00BF003C082200E70720005D
:102B80003D082200E83D20003E082200E93D2000EB
:102B90003F082200EA3D6A08F7279031031DDA2D2D
:102BA00002306902031DDA2D77306802031DDA2D29
:102BB000413067020318122E6A08F7279031031D6F
:102BC000EB2D00306902031DEB2D7D306802031DE3
:102BD000EB2D00306702031CFD2D6A082400A300C2
:102BE000220069082400A200220068082400A10035
:102BF000220067082400A000032E24007D30A301DA
:102C0000A201A100A00123082200EA00240022085A
:102C10002200E900240021082200E8002400200806
:102C20002200182E0230EA01E9007730E800403037
:102C3000E700EB01080000302702063003192602E6
:102C40004D08031C2C2EF8390338CD002200183013
:102C5000C7012100CD040800E7390838CD0008007D
:102C600058080319402E4B08F0390238CB00A40154
:102C7000A5013C2ED627BF0130302100CB0408002F
:102C8000003025026530031924024B0803183A2E40
:102C9000CF391038CB000800B401B501B601B70137
:102CA0002C1C5A2E3008B4073108B53D3208B63D09
:102CB0003308B73DB035B10DB20DB30DAF36AE0C24
:102CC000AD0CAC0C2F082E042D042C04031D502E2B
:102CD0003708AF003608AE003508AD003408AC0048
:102CE000080020004A080319792EC8304A02031C44
:102CF000832E21004C08F0390738F127C401C301A5
:102D0000C201C20A08008C3022002E02A030031932
:102D10002D02031C922EAB302E02E13003192D023E
:102D2000031CAC2E21004C08F03906389B2E2100E4
:102D30004C08F0390338F1279031A72E21004C08B8
:102D4000F0390838CC002200C601C60AC501C4010A
:102D5000C301C30AC2010800063020004A02031C56
:102D6000972E09304A02031C9E2EC0304A02031CD3
:102D7000BE2E21004C08F03904389B2E17304A0231
:102D8000031CCD2E21004C08F0390238CC00220063
:102D9000C601C401C501C301AA2E14304A02031C96
:102DA000DC2E21004C08F0390538CC002200C60189
:102DB000C501C401C40ACB2E14304A02031808000E
:102DC0002100AD279031CB2EE73040020318EF2EC3
:102DD000082F4E12F82ECE12F82E4E13F82E4E0853
:102DE0000739023A0319E92E013A0319EB2EED2EA9
:102DF0004E162200C901C90A2100C9012200C801DA
:102E0000C80A08004E12112FCE12112F4E13112F87
:102E10004E080739023A0319022F013A0319042F09
:102E2000062F2D3040020318172FCE16F92E4E17FD
:102E3000E4270800B501AF1F2A2FAC09AD09AE0980
:102E4000AF09AC0A0319AD0A0319AE0A0319AF0A98
:102E5000B501B50AB31F392FB009B109B209B309D9
:102E6000B00A0319B10A0319B20A0319B30A0130EF
:102E7000B506B601B701B801B9012F082E042D041B
:102E80002C0403196F2FB401B40AAF1B4C2FAC35BF
:102E9000AD0DAE0DAF0D442FB635B70DB80DB90D54
:102EA0002F083302031D5E2F2E083202031D5E2FF2
:102EB0002D083102031D5E2F2C083002031C692FE0
:102EC0002C08B0022D08B13B2E08B23B2F08B33BB3
:102ED0003614AF36AE0CAD0CAC0CB40B4C2F350821
:102EE00003197D2FB609B709B809B909B60A03193C
:102EF000B70A0319B80A0319B90A3908AF00380824
:102F0000AE003708AD003608AC0008002000BB005A
:102F10002100390820003B02031D08002100380869
:102F200020003A0208006C08FE3E2000BA00FF3084
:102F300023006D3D08006C08023E2000BA000030FE
:102F400023006D3D2000BB0021003902031D080055
:102F500020003A082100380208004C08F0390138F6
:102F6000CC002200C601C60AC501C4010800A200A7
:102F7000A001A1012300C201C301080024003808F8
:102F80002000AF00240037082000AE000800AD018B
:102F9000AE01AF01B000B101B201B3010800F839D0
:102FA0000438A200A001A10122000800F039053870
:102FB000CB002200C101C00108002000BA00BA0CF9
:102FC0003A0C0339033A08002200C9012100C90163
:102FD0002200C80108002300C001C1012200B6017F
:102FE0000800CC002200C601C501C50A0800803ACD
:102FF000FF0080307F0208000030210033020534DA
:10300000FF3FFF3FFF3FFF3FFF3FFF3FFF3FFF3FD0
:10301000FF3FFF3FFF3FFF3FFF3FFF3FFF3FFF3FC0
:10302000FF3FFF3FFF3FFF3FFF3FFF3FFF3FFF3FB0
:10303000FF3FFF3FFF3FFF3FFF3FFF3FFF3FFF3FA0
:10341000FF3FFF3FFF3FFF3FFF3FFF3FFF3F0030CA
:1034200021003F020A3003193E0203181A2ABE0A7D
:103430000319BF0A4835A03E8600013087002000EE
:103440004808C03F4908C13F21000730C80AC805E5
:10345000AE308600AC3084000130850023002408A3
:1034600022072000B20023002508233D2000B300DE
:103470002300260820003207B4002300270820007C
:10348000333DB5002300280820003407B600230090
:1034900029082000353DB70023002A082000360700
:1034A000B80023002B082000373DB900003F380743
:1034B000BA00013F393DBB00403F3A07BC00413FE5
:1034C0003B3DBD002300200820003C072100BC003C
:1034D0002300210820003D3D2100BD0020004908B7
:1034E0002200B400200048082200B3002000CB12C4
:1034F0002200E001E00A2000CB17CB1DED2A2200BC
:1035000034082000AD00220033082000AC006430F5
:10351000AD36AC0CAD36AC0CAD36AC0CAE00AF017C
:1035200086313C269A312D082100BB0020002C0852
:103530002100BA000730BB36BA0C890B9B2A200049
:10354000490821003B02031DA92A20004808210048
:103550003A020318B72A2000E9239A3121003A08D9
:103560002300D00221003B082300D13BCC2A2300BA
:10357000D001D101CC2AA630C92AF430B6000130DE
:10358000B700DC2A7D30C92A5330C92A2930C92A1C
:103590002130B600B701DC2A21003F08003A0319A8
:1035A000D22AC82A3E0884000A3004020318C82A16
:1035B00080310435923E82000030370221300319F9
:1035C00036020318E62A2130B600B70120004B1E50
:1035D000222B0A302100E000222B531CF32A230067
:1035E000D001D101F72AE9239A31D136D00C21300C
:1035F000D001D1012100B600B70120004B1F202BC4
:1036000025001108200050060319222B250011085F
:10361000200050020318162B2500910311082000EA
:1036200050020318222B25009103222B2500910A1A
:1036300020005008250011020318222B910A222B8A
:10364000250091012000C801C90121005908FF3A55
:10365000031DCF2B0630D900CF2B0130250096005B
:1036600020004B1F362B220000249A312200093003
:103670000D118D102100DC002530E301E30A22004A
:10368000D900023092008430910020000630B02B27
:1036900001302500960020004B1F512B22000524ED
:1036A0009A31220009300D158D102100DC00053003
:1036B000E301E30A2200D900013092009430910026
:1036C000200053102100D901D90AE32B0230250034
:1036D000960020004B1F6F2B2200FB239A31220003
:1036E00035300E118D102100DC000530F1239A31A8
:1036F0008430910020000230B02B0230250096006B
:1037000020004B1F862B220000249A3122003530E6
:103710000E118D142100DC000530E300253022005D
:10372000D900023092009430910020000330C62B63
:1037300004302500960020004B1FA12B22000524F9
:103740009A31220011300E11F7239A31E30005302F
:103750002200D90001309200843091002000043012
:103760005314C72B04302500960020004B1FBB2BA1
:103770002200FB239A31220011300E15F7239A31D3
:10378000F1239A319430910020000530531021002C
:10379000D900E32B2500960122009101602B5908E6
:1037A000013A03192D2B033A0319482B013A031947
:1037B000662B073A03197D2B013A0319982B033A1C
:1037C0000319B22BCA2B2830DB002000C801C90125
:1037D000080049082300D100200048082300D00039
:1037E0000800E3002200D901D90A920108000D1156
:1037F0002100DC0025340E08E53918388E00080059
:103800000E08E5390A388E0008000E08E53912382E
:103810008E000800C80A0319C90A490821003702A6
:10382000031D162C200048082100360203181A2C0C
:10383000EF259C31003021003F020A3003193E027F
:10384000031C242C2000CB11003021003F02033048
:1038500003193E02031C2E2C20004B128831352008
:103860009C312200111F362CD101482DD101D10AE3
:10387000482D2D3021009D00AF259C3121009D1445
:10388000C8259C3171082300D7007008D60031305C
:1038900021009D00AF259C3121009D142200E00AEB
:1038A000552D590821009D001B082000D100210042
:1038B0001C082000D20000000000000000000000F2
:1038C00000000000000000000000000000000000F8
:1038D0000000000000004A2C21001B08B4001C0856
:1038E000B5009D1420004B1F8A2C500803198A2C08
:1038F000531C942C21003408643EF7000030353D01
:10390000F800200052087802031D882C5108770225
:103910000318552D2200E00A210063089D00AF2501
:103920009C3121009D14552D0030210035021F309F
:103930000319340203188A2C552D2100DB01C825F8
:103940009C31E51CAB2C5C089D00AF259C3121000F
:1039500009309D14452D75309D00AF259C314E2CAE
:1039600021009D14C8259C315C08492CC8259C3138
:103970007108B1007008B00020004B1B212D182DDC
:1039800022002008CF279C310318DA2C3108F100DF
:103990003008F00022002008F002031CF10321008F
:1039A0006908F3006808F200DA259C3171082200EA
:1039B000A900DC2C2200A901AA012D2D220021083A
:1039C000CF279C310318F82C3108F1003008F000A3
:1039D00022002108F002031CF10321006B08F30010
:1039E0006A08F200DA259C3171082300D200FA2C13
:1039F0002300D201D3012D2D22002208CF279C3194
:103A00000318162D3108F1003008F00022002208BA
:103A1000F002031CF10321006D08F3006C08F200B2
:103A2000DA259C3171082300D4001F2D23001E2DA0
:103A30002200A901AA012300D201D301D401D5019A
:103A40002D2D21005C08093A0319C02C183A0319DE
:103A5000FC2C243A0319DE2C182D013021003102F0
:103A6000553003193002031C3A2D2000E5304B1469
:103A700022008E05AF259C3121009D14E51C4E2CA3
:103A800075309D00AF259C3105302200E000552D9A
:103A90006008FF3E031C552D84000A300402031801
:103AA000552D80310435A63E820020004B1F8D2D00
:103AB000CB1D8F2D22004130D001D00A2300E80019
:103AC000E901200048080339031D8F2D4B1E7D2D71
:103AD000520851040319812D5208F1005108F000D9
:103AE0008030F2003E30F300D9279C317008F90095
:103AF0007108FA00FB01FC01812D52085104031DDD
:103B00006C2D2100600879020318882DE003892DAF
:103B1000E00A6008250091008F2D25009101210009
:103B2000DB08031DAD2D2200510803199B2D200039
:103B3000CB1A9B2DCB162000CB1E0800230051086A
:103B40005004031DA82D2000CB190800EF25080004
:103B5000FF30D007031CD1030800DB03080000007E
:103B60000000000000000000000000000000000055
:103B70000000000000000000000000000000000045
:103B8000000000000000000000000000000008002D
:103B9000F20121009D1CD12D4130F20A7202031C5A
:103BA000C92D1C08A9001B08A8002908F100280835
:103BB000F0000800F401F501701CE22D7208F40712
:103BC0007308F53DF235F30DF136F00C7108700411
:103BD000031DDC2D7508F1007408F00008000030AA
:103BE00021003F020A3003193E020318FA2DBE0AD3
:103BF0000319BF0A4835A03E860001308700200027
:103C00004808C03F4908C13F21000730C80AC8051D
:103C1000AE308600AC3084000130850023002408DB
:103C200022072000A00023002508233D2000A1003A
:103C30002300260820002007A200230027082000D8
:103C4000213DA3002300280820002207A400230010
:103C500029082000233DA50023002A08200024076E
:103C6000A60023002B082000253DA700003F2607C3
:103C7000A800013F273DA900403F2807AA00413F77
:103C8000293DAB002300200820002A072100BC00AA
:103C90002300210820002B3D2100BD002000490801
:103CA0002200B400200048082200B3002000CB12FC
:103CB0002200E001E00A2000CB17CB1DC82E220015
:103CC0003408F1003308F0006430F136F00CF136BE
:103CD000F00CF136F00CF200F301DA259C3171089A
:103CE0002100BB007008BA000730BB36BA0C890B44
:103CF000752E2000490821003B02031D832E200061
:103D0000480821003A020318922E20009B31E92333
:103D10009C3121003A082300D00221003B082300F7
:103D2000D13BA72E2300D001D101A72EA630A42E6F
:103D3000F430B6000130B700B72E7D30A42E5330DA
:103D4000A42E2930A42E2130B600B701B72E2100B1
:103D50003F08003A0319AD2EA32E3E0884000A3016
:103D600004020318A32E80310435BA3E82000030CD
:103D700037022130031936020318C12E2130B60054
:103D8000B70120004B1EFE2E0A302100E000FE2E5F
:103D9000531CCE2E2300D001D101D32E9B31E92319
:103DA0009C31D136D00C2130D001D1012100B60098
:103DB000B70120004B1FFC2E2500110820005006E3
:103DC0000319FE2E25001108200050020318F22EC0
:103DD000250091031108200050020318FE2E250033
:103DE0009103FE2E2500910A2000500825001102A3
:103DF0000318FE2E910AFE2E250091012000C80115
:103E0000C90121005908FF3A031DB52F0630D9001A
:103E1000B52F01302500960020004B1F132F2200E4
:103E20009C3100249C31220009300D118D1021009D
:103E3000DC002530E301E30A2200D90002309200C1
:103E40008430910020000630932F01302500960029
:103E500020004B1F2F2F22009C3105249C31220073
:103E600009300D158D102100DC000530E301E30A57
:103E70002200D900013092009430910020005310AC
:103E80002100D901D90AC92F02302500960020004F
:103E90004B1F4E2F22009B31FB239C3122003530DB
:103EA0000E118D102100DC0005309B31F1239C3177
:103EB0008430910020000230932F023025009600BC
:103EC00020004B1F672F22009C3100249C312200D0
:103ED00035300E118D142100DC000530E300253053
:103EE0002200D9000230920094309100200003306B
:103EF000AC2F04302500960020004B1F832F22009A
:103F00009C3105249C31220011300E119B31F72386
:103F10009C31E30005302200D9000130920084304A
:103F20009100200004305314AD2F0430250096007A
:103F300020004B1F9F2F22009B31FB239C3122002E
:103F400011300E159B31F7239C319B31F1239C31AD
:103F5000943091002000053053102100D900C92F62
:103F600025009601220091013E2F5908013A0319BC
:103F7000092F033A0319252F013A0319442F073A51
:103F800003195D2F013A0319792F033A0319952F6D
:103F9000B02F2830DB002000C801C9010800F7005D
:103FA000F801210031087802031D0800300877026B
:103FB0000800F501F601710870040319F92FF401E6
:103FC000F40AF11BE62FF035F10DE02FF535F60D73
:103FD00071087302031DEE2F70087202031CF52F87
:103FE0007008F2027108F33B7514F136F00CF40B13
:103FF000E62F7608F1007508F00008008A0034000A
:020000040001F9
:04000E00BCFFFFDB59
:00000001FF
