:1000000080312728FF3FFF3F803120001118111059
:10001000931C0F2893108731C7278031D90A2000FD
:10002000911C162891109C31022480312000931DD0
:100030001D2893118F31022780312000131F2328A0
:10004000131399314621200012181210090088015B
:100050008A31572A00346E346E346E3400340034E2
:1000600000340034003400340034D334D334D33477
:10007000D034CE34CC34C934C734C534C334C1349D
:10008000BF34BD34BB34BA34B834B634B434B2340B
:10009000B134AF34AD34AC34AA34A934A734A63467
:1000A000A434A334A234A0349F349D349C349B34B4
:1000B0009A349834973496349534943492349134F5
:1000C00090348F348E348D348C348B348A3489342C
:1000D000883487348634853484348334823481345C
:1000E00080347F347F347E347D347C347B347A3486
:1000F0007A347934783477347734763475347434A8
:1001000074347334723472347134703470346F34C4
:100110006E346E346E346E346E346E346E346E34CF
:100120009A31BB2A9A31BD2A9A31C32A9A31C52AFB
:100130009A31C72A9A31C92A9A31C92A9A31C92AC9
:100140009A31C92A9A31C92A9C31312C9C31492CC7
:100150009C31642C9C31992C9C31462C9C31462C32
:100160009C31462C9C31AE2C9C31B52C9D31542DAC
:100170009E31982E9E319A2E9E31A02E9E31A22E17
:100180009E31A42E9E31A62E9E31A62E9E31A62EE5
:100190009E31A62E9E31A62E9031A5289031A528FD
:1001A0009031A5289031A5289031A5289031A52817
:1001B0009031A5289031A528220062083B3A031D02
:1001C000E72D20005208D8005208803A031904296C
:1001D000103A03191429013A03198629023A03191E
:1001E000C629073A0319432A013A03199A2A0D3AF4
:1001F0000319752C073A0319212D3F3A0319722D63
:100200005A3A0319D32DE52D5808803A031D0800EA
:100210009030D80022003A30ED01ED0A2000B700FE
:1002200080303A2780310D2E5808903A031D08007F
:100230005529F030EA2580312100B400F130EA255B
:1002400080312100B500F230EA2580312100B6006E
:10025000F330EA2580312100B7000230B301B2014A
:100260002200ED005E29EB30EA2580312100B40048
:10027000EC30EA2580312100B500ED30EA258031EF
:100280002100B600EE30EA2580312100B700EF30C2
:10029000EA2580312100B3009130B2012000D8005E
:1002A0005E299030682780315E2922006D08013A6E
:1002B00003191929033A0319332951292100340854
:1002C000FF3A03197F293508FF3A03197F293608B9
:1002D000FF3A03197F293708FF3A03197F293308AA
:1002E000FF3A03197F293208FF3A03197F293A3070
:1002F0008D26803143278031BE0010300D2E7F3097
:100300002000B7009030122780310D2E5808913A06
:10031000031D0800F430EA2580312100B400F530D7
:10032000EA2580312100B500F630EA258031210030
:10033000B600F730EA2580312100B700F830EA2511
:10034000803163278031031DBB293508FF3A031D27
:10035000BB293608FF3A031DBB293708FF3A031DA6
:10036000BB293308FF3A031DBB293A308D26803163
:100370001B278031C1297F302000B7005208122787
:1003800080310D2692302000D80008005808933A9A
:10039000031D0800782780312D082300BC002000B1
:1003A0002C082300BB00FF305327803115140000B8
:1003B0000000230014082400BB00230013082400BD
:1003C000BA00FE30230053278031151400000000CE
:1003D000230014082400BD00230013082400BC00DF
:1003E0000430383E8600023087003A082000C20000
:1003F000C101403F41072400B800413F2000423D79
:100400002400B9003A082100B60024003C0821006D
:10041000B70023003C082100B30023003B08210063
:10042000B20023003C0824003906031D1B2A2300C8
:100430003B0824003806031D312A3A302000B7005B
:100440005208B8000230B901B90ABA0021003608D2
:100450002000BB00210037082000BC00432780316A
:100460003C2A7F302000B7005208B800FF30B900A6
:10047000BA00BB00BC00BD00BE0010300D26943099
:100480002000D80008005808943A031D08005108BD
:100490002200E400E408031D4F2A6F30E40023002B
:1004A00046082000C200230045082000C100C236D3
:1004B000C10CC236C10C41082100B40022006408FE
:1004C000FD3E2000C100FF3003180030C200803A1A
:1004D000C30080304302031D712A2100340820002C
:1004E000410203188F2A22006408033E2000C10045
:1004F000003003180130C200803A803C031D832A7B
:1005000041082100340203188F2A3A302000B70036
:10051000B92680311030BA015E278031952A7F30AC
:100520002000B7005208122780310D269530200098
:10053000D80008005808953A0319642C732C8C31A4
:100540002A2480310B138B132500930122003530B0
:100550000D158E158E100E1221009D00A001B22ADD
:10056000000000002100A00BB02AA101B92A000060
:1005700000002100A10BB72AA201C02A0000000040
:100580002100A20BBE2AA301C72A000000002100FF
:10059000A30BC52AA401CE2A000000002100A40B51
:1005A000CC2AA501D52A000000002100A50BD32AE2
:1005B0008A312622803121009D148A313F228031E8
:1005C0002D082300E40020002C082300E30031085C
:1005D000E302031CE403220009300E158E148E1171
:1005E0000E1221009D00A601F72A00000000210044
:1005F000A60BF52AA701FE2A000000002100A70B88
:10060000FC2AA801052B000000002100A80B032BE9
:10061000A9010C2B000000002100A90B0A2BAA0144
:10062000132B000000002100AA0B112BAB011A2B89
:10063000000000002100AB0B182B8A3126228031EC
:1006400021009D148A313F2280312D082300E200D1
:1006500020002C082300E1003008E102031CE20323
:10066000220011308D140E168E108E1121009D0067
:10067000AC013C2B000000002100AC0B3A2BAD017B
:10068000432B000000002100AD0B412BAE014A2B93
:10069000000000002100AE0B482BAF01512B0000E1
:1006A00000002100AF0B4F2BB001582B00000000C1
:1006B0002100B00B562BB1015F2B00000000210080
:1006C000B10B5D2B8A312622803121009D148A31A5
:1006D0003F222D082300E60020002C082300E5001F
:1006E0003208E502031CE603E53022008E050C30DB
:1006F000250093000B178B172100EB01EB0A080074
:1007000023003427803122278031652680312D084F
:10071000B3000230F5258031342780312227803123
:10072000652680312C08B3000330F5258031033075
:10073000EA258031C1000230EA2580312200E8003C
:10074000200041082200E70021006B08B4002300CC
:1007500062082000AD00230061082000AC002200E8
:1007600068082000AF00220067082000AE00502675
:1007700080312D082100B600220068082100B70052
:1007800022006708C0268031A22680310D26023063
:100790002100EB00080023002E2780312227803122
:1007A000652680312D08B3000430F52580312E27D1
:1007B000803122278031652680312C08B300053036
:1007C000F52580310530EA258031C1000430EA2565
:1007D00080312200EA00200041082200E9002100C7
:1007E0006B08B400230064082000AD0023006308F8
:1007F0002000AC0022006A082000AF002200690837
:100800002000AE00502680312D082100B6002200C5
:100810006A082100B70022006908C0268031A2269C
:1008200080310D2603302100EB000800230028272B
:10083000803122278031652680312D08B3000630B3
:10084000F5258031282780312227803165268031A7
:100850002C08B3000730F52580310730EA258031B8
:10086000C1000630EA2580312200EC00200041085A
:100870002200EB0021006B08B40023006608200072
:10088000AD00230065082000AC0022006C082000A9
:10089000AF0022006B082000AE00502680312D08EA
:1008A0002100B60022006C082100B70022006B086E
:1008B000C0268031A22680310D2698302000D80035
:1008C000080020005208682F21006B08003A031925
:1008D0009F2A013A0319802B033A0319CB2B013AC3
:1008E0000319162C612C5208682F5808983A031DDA
:1008F000080051082100EF0020005108013A0319B7
:100900008B2C023A0319B02C073A0319D52C013A63
:100910000319FA2C1F2D59278031031D0800510897
:100920002100B4008C31E9248031F5268031502635
:100930008031042780310A008431D72680310318A2
:10094000AD2C2100C42680310318AD2C3A308D2601
:1009500080311030BD01BE010D2EE72680310D2EF5
:1009600059278031031D080051082100B4008C3143
:10097000E9248031F52680315026803104278031EA
:100980000A008431D72680310318D22C2100C426D6
:1009900080310318D22C3A308D2680311030BD01C1
:1009A000BE010D2EE72680310D2E59278031031D03
:1009B000080051082100B4008C31E9248031F5266B
:1009C000803150268031042780310A008431D726B7
:1009D00080310318F72C2100C42680310318F72C2E
:1009E0003A308D2680311030BD01BE010D2EE72634
:1009F00080310D2E59278031031D08005108210038
:100A0000B4008C31E9248031F526803150268031C4
:100A1000042780310A008531D726803103181C2D28
:100A20002100C426803103181C2D3A308D268031D8
:100A30001030BD01BE010D2EE72680310D2E52086B
:100A4000682F58089F3A031D080051082200EE0045
:100A5000592D37308C31E424803120003730541048
:100A6000D410D4135411D41554125413D412210099
:100A7000B5000830B40003302200EE00612D4D3087
:100A80008C31E424803120004D304B278031D41646
:100A90002100B500B401B40A2200EE01EE0A612D76
:100AA0000B308C31E424803120004B278031D4126C
:100AB000612D6E08023A03193F2D063A0319292DBC
:100AC000502D21003A30B701B301B2012000B70028
:100AD000B9268031210035082000BA0010305E2789
:100AE00080310D2E5808A03A031D08005108B300AC
:100AF000F430F525803122005E082000B300F53087
:100B0000F525803122005F082000B300F630F5257E
:100B10008031220060082000B300F730F5258031D5
:100B2000220061082000B300F830F5258031F43050
:100B3000EA2580312100B400F530EA25803121001A
:100B4000B500F630EA2580312100B600F730EA25FD
:100B500080312100B700F830EA25803163278031E9
:100B60000319C82D3508FF3A0319C82D3608FF3A76
:100B70000319C82D3708FF3A0319C82D3308FF3A67
:100B80000319C82D3A308D2680311B278031CE2D98
:100B90007F302000B7005208122780310D26FA302E
:100BA0002000D80008005808FA3A031D08003A301F
:100BB000B70052083A2780310D2680315530200089
:100BC000B300F52520008E1208005808682F200079
:100BD0005808682F2000AC002300910095131513CE
:100BE000151413082000AD000800B4002300910084
:100BF0002000330823009300553015139513151565
:100C00008B139600AA30960095148B1715112300AC
:100C1000951C080000000000072EBF00CF1D0E2EFF
:100C20000230AC0005308A268031D00086000230C8
:100C3000870037088100D00A5008860038088100F4
:100C4000D00A5008860039088100D00A5008860072
:100C50003A088100D00A500886003B088100D00A7B
:100C6000500886003C088100D00A500886003D08E4
:100C70008100D00A500886003E0881000830D00A62
:100C8000AD005530AE007730AF01B000B1013F0884
:100C90008E3137264F082200BC00F030BC0508001A
:100CA000B001B1012C1C582E2E08B0072F08B13D01
:100CB000AE35AF0DAD36AC0C2D082C04031D522EF5
:100CC0003108AD003008AC000800B101B2012D08B8
:100CD0002C040319852EB001B00AAD1B722EAC3561
:100CE000AD0D6C2EB135B20D2D082F02031D7A2EDD
:100CF0002C082E02031C812E2C08AE022D08AF3BBF
:100D00003114AD36AC0CB00B722E3208AD00310888
:100D1000AC0008002C08A03E08002000B7005208D4
:100D2000B800210034082000B90021003508200057
:100D3000BA00210036082000BB002100370820003F
:100D4000BC000800B7005208B80021003408200099
:100D5000B900BA01210036082000BB002100370885
:100D60002000BC00210033082000BD001030BE016F
:100D700008005208B800210034082000B90008001B
:100D80002100B30020003A343708FD3E2000C100A6
:100D9000FF3003180030C200803AC30080304302A5
:100DA000031D080021003608200041020800B7009A
:100DB000033E2000C100003003180130C200803A19
:100DC000803C031D080041082100360208007F30E6
:100DD0002000B7005208B8005108B900FF30BA002F
:100DE000BB00BC00BD00BE00103489362100B50038
:100DF000220033082000AD00220032082000AC00A1
:100E00000530AE00AF0108002C08C1002D08C2005B
:100E1000C236C10CC236C10C41082100B6003508EB
:100E20002B3E0800B800FF30B900BA00BB00BC0080
:100E3000BD00BE001034210033082000BD0010307A
:100E4000BE0108002000AC007830AE01AF00080001
:100E500066082000AD002300650808006408200033
:100E6000AD0023006308080062082000AD002300E5
:100E700061080800B8001030B901BA01BB01BC011B
:100E8000BD01BE010800210033082000BD00210083
:100E90003208200008005410D410D4135411D41177
:100EA00054125413080091001F3092001511951729
:100EB000080021006F08200051060800BB01BC019A
:100EC000BD01BE0108002100B3003408FF3A08004C
:100ED0002000C000FF30D1002200DE00DF00E00073
:100EE000E1007F302000B7004008122780310D2E2E
:100EF000FE30B201B301B001B101AE001F30AF004E
:100F00000130AE020030AF3B2E0A03192F0A03193D
:100F1000A12F320823009100200033082300920003
:100F20001511951715140000000023001308200068
:100F3000B007230014082000B13DB20A0319B30A18
:100F4000802F3108AD003008AC0008000000000020
:100F50000000000000000000000000000000000091
:100F60000000000000000000000000000000000081
:100F70000000000000000000000000000000000071
:100F80000000000000000000000000000800220037
:100F90006430D30A5302031CD02FD3010E10080073
:100FA0005608530203180E14080064008001013132
:100FB000890BD62F0034D90A0800FF3FFF3FFF3FBF
:100FC000FF3FFF3FFF3FFF3FFF3FFF3FFF3FFF3F31
:100FD000FF3FFF3FFF3FFF3FFF3FFF3FFF3FFF3F21
:100FE000FF3FFF3FFF3FFF3FFF3FFF3FFF3FFF3F11
:100FF000FF3FFF3FFF3FFF3FFF3FFF3FFF3FFF3F01
:10100000FF3FFF3FFF3FFF3FFF3FFF3FFF3FFF3FF0
:10101000FF3FFF3FFF3FFF3FFF3FFF3FFF3FFF3FE0
:10102000FF3FFF3FFF3FFF3FFF3FFF3FFF3FFF3FD0
:10103000FF3FFF3FFF3FFF3FFF3FFF3FFF3FFF3FC0
:10104000FF3FFF3FFF3FFF3FFF3FFF3FFF3FFF3FB0
:10105000FF3FFF3FFF3FFF3FFF3FFF3FFF3FFF3FA0
:10106000FF3FFF3FFF3FFF3FFF3FFF3FFF3FFF3F90
:10107000FF3FFF3FFF3FFF3FFF3FFF3FFF3FFF3F80
:10108000FF3FFF3F8130210095002200EF01EF0A72
:101090008B138B0121009101920193012200DA014F
:1010A000DB012100E030ED012400E6002E30E700F6
:1010B000CD302300ED00EE015B218831C120883165
:1010C000DC208831F420883101307F2088310430E1
:1010D0007F20883106307F2088310530FA20883122
:1010E000B82088314F2188317B2188312400E001EC
:1010F000E10193218831C5260B178B1708002000CA
:10110000AD00A628003038248B12080001303824A6
:10111000753020009800210011100800023038249A
:10112000073020009C002100911008000430382472
:101130000E30280097002100931408000630382450
:10114000053028009E002100931508002D08003A64
:1011500003198228013A03198628033A03198E28B5
:10116000063A03199628023A03199E28B728080060
:10117000A03021009E009D0130301D1422009704F4
:10118000080020008E12AC01C728000000002000DB
:10119000AC0BC5288E16AD01CF2800000000200042
:1011A000AD0BCD288E12AE01D72800000000200024
:1011B000AE0BD5288E1608009F3023009B0001300F
:1011C0009C0026309E0090309D0048309F002100FA
:1011D00091012400ED272200C3012000CF0121004E
:1011E000E8012000CF150800F030210099001130EF
:1011F000970008002000AC002200D401D5013C2952
:101200002500930191019201210011152000053064
:10121000111125009300080025009A0198019901F9
:101220002100121420000530121025009A00080039
:101230002600930191019201210013162000053030
:10124000131226009300080026009A0198019901C4
:101250002100931620000530931226009A00080002
:1012600026009E019C019D012100131720000530DE
:10127000131326009E00080020002C08013A0319D1
:101280000029033A03190C29013A03191829073ACE
:1012900003192429013A031930294E290800200096
:1012A0000B30D401E4242300E101E201E301E40175
:1012B000E501E601080027308C0029308D0022006E
:1012C0008C018D018E0155308531EA258831553AE2
:1012D00003196C298E1A73297F3021008C00393054
:1012E0008D008E0108007F3021008C0039308D0088
:1012F00080308E0008002100EE0108306E020318D5
:10130000080031309D00262288313F2288312D0887
:10131000D6002C08D500FB2688315E30C03F013056
:10132000C13FEE0A7D2903308531EA258831003A34
:101330000319B12903308531EA258831FF3A0319B1
:10134000B12903308531EA258831AF00023085317B
:10135000EA2588312200E80020002F082200E7005B
:10136000B52922000130E701E80005308531EA2582
:101370008831003A0319D32905308531EA258831AF
:10138000FF3A0319D32905308531EA258831AF00AA
:1013900004308531EA2588312200EA0020002F0838
:1013A0002200E900D72922000130E901EA000730D4
:1013B0008531EA258831003A0319F529073085314E
:1013C000EA258831FF3A0319F52907308531EA25E6
:1013D0008831AF0006308531EA2588312200EC00E3
:1013E00020002F082200EB00F92922000130EB0138
:1013F000EC001A300E110D118D108E04262288314A
:1014000026228831113021009D00262288312100BA
:101410009D143F2288312C082300B2003530210072
:101420009D002622883121009D143F2288312C08FE
:101430002300B100093021009D00262288312100BF
:101440009D143F222C082300B0000800000000007B
:10145000000000000000000000000000000000008C
:10146000000000000000000000000000000000007C
:101470000000000000000000000000000800200044
:10148000AE0121009D1C4A2A20004130AE0A2E02E6
:10149000031C412A21001C082000C90021001B0850
:1014A0002000C8004908AD004808AC0008004830DA
:1014B000D7018400003085000F308731D52788316F
:1014C000D83084000030850017308731D527883127
:1014D000203084000130850047308731D52788319E
:1014E000A03084000130850047308731D52788310E
:1014F000203084000230850046308731D52788317E
:10150000A0308400023085000B308731D527883128
:101510008030D80021000130EF002200E700E80110
:10152000E900EA01EB00EC01ED000730EE002300DA
:101530008030E7003830E8000130E900EA01EB00D4
:10154000EC002000A32A422088310430382488315E
:101550002200E501220059082000C400C501450809
:10156000C7002200650820004402C600031CC70310
:1015700047040319AA2A22005908E500DA0ADB0AFF
:101580002100ED0A2000D41CCB2AC8309B00220089
:1015900063352000E22A7D309B000430B200B301A5
:1015A000220063082000AC000530AD01AE00AF01A1
:1015B0008631502688312D08B5002C08B400EA2366
:1015C00088313208D30059248831033022005A026E
:1015D0000318DA0105305B02031CC12BDB01640038
:1015E000E92488312100EC0023004208C4004108AE
:1015F000C300220033082100DB0022003208210052
:10160000DA00240059082300CA00240058082300E7
:10161000C90005302400E200E3012200D2012000CD
:10162000D41C2A2B21006C362B3E80310A008936CF
:101630002400DA008A30DB0180310A008936DC00C0
:101640003630DD0180310A008B318936DE00DF0162
:101650008B31632B0530B200B30121006C362B3E79
:1016600080310A008B3120008E31F0268831EA2348
:1016700033082400DB00200032082400DA000530A3
:101680002000B2008A30B30180310A008B31F0268D
:101690008831EA2333082400DD00200032082400CA
:1016A000DC0005302000B2003630B30180310A0082
:1016B0008B31F0268831EA2333082400DF00200034
:1016C00032082400DE00230046082000C500230065
:1016D00045082000C400C536C40CC536C40C4408F7
:1016E0002200B400B501230048082200B100230005
:1016F00047082200B000003020004E1801302100C1
:10170000E9002200C60190314D2088312200EF010E
:10171000E308031D8E2B2A248831902B70258831F5
:1017200022004B0820005410031D541422004408CA
:101730002000D410031DD414220045082000D41327
:10174000031DD4172200480820005411031D54150E
:10175000220049082000D411031DD4152200470897
:1017600020005412031D541622004C08200054136C
:10177000031D541722004A082000D412031DD4165A
:101780004E1021006D08193A031DD22BBF2455308D
:101790008531EA258831553A031D8E1ED22B113032
:1017A0009325883121006D08253A031DE22B553021
:1017B0008531EA258831553A031D8E1EE22B803192
:1017C000DC208831653021006D020318ED01220014
:1017D000CD01AA2AB701B31FF42BB209B309B20A8B
:1017E0000319B30AB701B70AB51FFD2BB409B50930
:1017F000B40A0319B50A0130B706B801B9013308B4
:10180000320403191D2CB601B60AB31B0A2CB235DB
:10181000B30D042CB835B90D33083502031D122C55
:1018200032083402031C192C3208B4023308B53BC9
:101830003814B336B20CB60B0A2C37080319252C12
:10184000B809B909B80A0319B90A3908B300380840
:10185000B200080020004E1F080022008E108E11DA
:101860000E1225009513910120004E13CE1308008F
:10187000AC00472C950108009601970108009A01D9
:10188000080028009501080028009C0108002C0889
:10189000003A03193A2C013A03193C2C033A031974
:1018A0003F2C063A0319412C023A0319442C582CB8
:1018B00008005E248831F7258831132EFB268831F5
:1018C00020005508C03F5608C13F2E3086002C30FE
:1018D0008400023085002400240822072000AC0088
:1018E00024002508233D2000AD0024002608200008
:1018F0002C07AE002400270820002D3DAF00240057
:10190000280820002E07B0002400290820002F3DC1
:10191000B10024002A0820003007B20024002B0860
:101920002000313DB300003F3207B400013F333D9A
:10193000B500403F3407B600413F353DB7002400B5
:101940002008200036072300B900240021082000C9
:10195000373D2300BA00C6003908C5000830C63636
:10196000C50CC636C50CC636C50C2100EE0A6E0283
:10197000031C0800EE012300B901BA010800200091
:10198000541FC42C5830E42C220044080319CA2CDC
:101990002130E42C47080319CF2C4230E42C4908AD
:1019A0000319D42C3730E42C48080319D92C2C30D7
:1019B000E42C2000D41EDE2C4D30E42C541CE22CF0
:1019C0001630E42C0B30E42C2000AC002200D600B2
:1019D0000800230041082000B50023004208200031
:1019E000B600B70123005F082000AC0023006008A8
:1019F0002000AD00C830AE01AF00B001B1015325E9
:101A000088312C08B8002D08B9002E08BA0021250D
:101A1000883135082200D400D408031D172D053065
:101A2000D50A5502031C1D2D5408D0001D2DD501CB
:101A30005408D0002300DF01E00122005008C83C18
:101A40000800BB01BC01BD01370836043504031989
:101A50004C2DBE01BE0AB71B312DB535B60DB70DE5
:101A60002A2DBB35BC0DBD0D37083A02031D3E2D96
:101A700036083902031D3E2D35083802031C472D58
:101A80003508B8023608B93B3708BA3B3B14B736BD
:101A9000B60CB50CBE0B312D3B08B5003C08B600AA
:101AA0003D08B7000800B201B301B4012C1C5E2D43
:101AB0002F08B2073008B33D3108B43DAF35B00D43
:101AC000B10DAE36AD0CAC0C2E082D042C04031D4C
:101AD000562D3208AC003308AD003408AE000800C3
:101AE00020004E1B0800A630CE122200AE00AF012F
:101AF0002100EA01EA0ADE01DF012000D301CA0168
:101B0000CB012400D001D101250096012000CE1583
:101B10004E172200D801250091012200E601200085
:101B20004E169A310E2ABB00CF1D942D3B08B700EC
:101B30000830B8000530E3258831CF1D9D2DF030E9
:101B40004F05BA0022003C060319080020000530AA
:101B5000AC0186318A268831D000860002308700A9
:101B600001082400B000E9268831B100E926883157
:101B7000B200E9268831B300E9268831B400E926AD
:101B80008831B500E9268831B600E926B70030086B
:101B90002200E200240031082000D2002400320894
:101BA0002000D100240033082200DE002400340885
:101BB0002200DF00240035082200E000240036085F
:101BC0002200E1000800CF1D080038082200C100F3
:101BD0002000CF142400C601C70120002430AD012D
:101BE000AE003330AF01B000B1013708372E23000B
:101BF0003D082400CC0723003E082400CD3D4D08BD
:101C00002300C80024004C082300C7000630C83653
:101C1000C70C890B072E47082400CC022300480874
:101C20002400CD3B08005608CE075708CF3D4F088B
:101C30002300C00024004E082300BF000630C03639
:101C4000BF0C890B1F2E3F082400CE022300400842
:101C50002400CF3B230040082400D90023003F0884
:101C60002400D8006008D8076108D93D0800B200F8
:101C7000B3000F30CF050D302300B7001330B8018B
:101C80002400CA00CB0120002F082300B60020004A
:101C90002E082300B500200031082400C9002000D0
:101CA00030082400C8002000CF1D08005530250052
:101CB000A000200033089F2688312500A1002100C4
:101CC000E7012000CF1C682E02302200C0008F2EBA
:101CD0002D08023E2200C00020000230B401B501F0
:101CE000B60022004008200036020318822E360873
:101CF000A03E8600023087000108B4070318B50A29
:101D0000B60A712E22004008A03E860002308700ED
:101D1000200035083407FF3A81002200C00A230062
:101D2000FF309E159A000F302000CF054F14210080
:101D3000E81468152200C2012000CF110800AC0091
:101D40003F30AC052C1CA62E4030AC06AC1CAA2E95
:101D50004030AC062C1DAE2E4030AC062C1EB22EF0
:101D60004030AC06AC17AC1CB72E8030AC06AC1DB6
:101D7000BB2E8030AC062C1EBF2E8030AC06AC1EB5
:101D8000C32E8030AC062C08080025009601803058
:101D900022009100920121008730921225009400C8
:101DA00095010C30930091012100043012102500A0
:101DB0009A00FF3098009900643020009B000530A5
:101DC0009C0028302200CE00210091142000CE017A
:101DD000702D2000D00A5008860001082400080059
:101DE000C400C501C435C50DC435C50D4408B400D3
:101DF0004508B500080021006E35203E86000230FF
:101E00008700080023009E19852F2000911E852F32
:101E1000CF1D1E2F23001D080639031D852F19080D
:101E2000803A031D852F2400ED278831FA27883159
:101E3000E81E1C2FE812852F6814852F4F1C5A2F7F
:101E400023001D0806390319292F21006708031DE7
:101E5000612F21006708023A0319E81022004308A5
:101E60000319342FC303852F4208230019060319D1
:101E70003B2F6C30832F220040080319502F230082
:101E800019082200C2002100F4278831010822002D
:101E9000C20023009A002200C0032100E70A852F18
:101EA0002000CF1C572F4F102100E701852F210064
:101EB0006811822FCF1C852F23001D0806390319B6
:101EC000632F7C30832F220041080319792F2100D2
:101ED000F42788312300190881002200C103230060
:101EE00019082400C6070318C70A471C4D2FC60A45
:101EF0004D2F2300190A2400C60746080319822F14
:101F00005C30832F0830E02788312000CF19C62F9E
:101F10002100681DBF2FE81CA22F230038083704BA
:101F20000319962F0130B7020030B83B24004B084C
:101F30004A040319A02F0130CA020030CB3BAA2F5C
:101F40002C30A82F2300380837040319AA2F1C307F
:101F5000E02788312300360835040319B32F0130F8
:101F6000B5020030B63B2400490848040319BD2FD0
:101F70000130C8020030C93B08004C30E02F23007C
:101F800036083504031908003C30E02F2100E81A18
:101F900008002400410840043F043E040319DD2FDB
:101FA0000130F100F201F301F401BE027208BF3BFF
:101FB0007308C03B7408C13B080021006817080083
:101FC000F000FA278831E8012400C601C701700833
:101FD0002000CF002400ED2708002730C101C001F8
:101FE000BF00BB30BE0008006708A03E860002307C
:101FF00087000800230019082200C2002100080001
:10200000FF3FFF3FFF3FFF3FFF3FFF3FFF3FFF3FE0
:10201000FF3FFF3FFF3FFF3FFF3FFF3FFF3FFF3FD0
:10202000FF3FFF3FFF3FFF3FFF3FFF3FFF3FFF3FC0
:10203000FF3FFF3FFF3FFF3FFF3FFF3FFF3FFF3FB0
:10204000FF3FFF3FFF3FFF3FFF3FFF3FFF3FFF3FA0
:10205000FF3FFF3FFF3FFF3FFF3FFF3FFF3FFF3F90
:10206000FF3FFF3FFF3FFF3FFF3FFF3FFF3FFF3F80
:10207000FF3FFF3FFF3FFF3FFF3FFF3FFF3FFF3F70
:10208000FF3FFF3FFF3FFF3FFF3FFF3FFF3FFF3F60
:10209000FF3FFF3FFF3FFF3FFF3F89280030250202
:1020A000333003192402031C5F283F08F839053830
:1020B000BF002300DC012200A401A5019E2822000C
:1020C000A40A0319A50A9E28702690313F0CE62722
:1020D0009031031D5F289E28702690319E28003085
:1020E0002502103051283F08F8390338BF0023007B
:1020F000DC019E283F08F83906388728BF1A9E2839
:10210000BF166F0803199E283F08F8390438BF002E
:102110005B283F080739013A03197A28033A031963
:102120007328013A03196C28073A03194E28013A1B
:1021300003196428033A03196F287E2821006C08CC
:10214000E50022003E1AA828B628CD269031C028E6
:102150003E080F39FF3E031CC028840008300402EB
:102160000318C02880310435CC3E82003E166F0B28
:10217000BA28BB28C028BB279031D8012200BA0159
:10218000230058082200CA002100E61DE828661E28
:10219000D5286608F8390138E600DE30220034021E
:1021A0000318EF2842279031EF28E61EE128660841
:1021B000F8390338E6003230220034020318D228FE
:1021C000EF28661FEF286608F8390238E600D228A3
:1021D000E61522006F0BEF282100CE279031210059
:1021E000B10123005B080319FC282200BB08031D72
:1021F000FC282100B101B10A21003108B000E41C23
:102200001029513023005302031C0E292100E41031
:10221000E4152300D501D401D6014029D30AB429FD
:10222000641D15296411E414B429E41D2929003022
:1022300023004A024830031949020318B429210037
:10224000E41164162300D501D50AD401D40AD601BD
:10225000B429641E3629003023004A02BA3003191B
:102260004902031CB4292100641208296418B42906
:10227000641422006F080319B42921006415230097
:10228000D301B42900302302333003192202031C86
:1022900050293D08F0390538BD00B901B801CD29F4
:1022A0002200A20A0319A30ACD29852690313D0EEA
:1022B0000339033A031D5029CD290A3023004F0268
:1022C0000318CD2922003D08F0390338BD00B901BB
:1022D000B801B80AA201A301CD2985269031CD29E4
:1022E00000302302C93003192202031C7E293D0855
:1022F000F0390738BD002300CF0ACD292100690835
:102300000319502922003D08F0390138BD00A2010F
:10231000A301B901B90AB801B80ACD292100E90819
:10232000031962290030220023020230031922021D
:102330000318822950292100E908031D5029220091
:102340003D08F0390438BD006A293D1BCD293D17F1
:102350006F080319CD293D08F0390638BD00A201E8
:10236000A3012300CF01CD2922003D080F39013AF6
:1023700003199B29033A03198E29013A0319552998
:10238000073A03197029013A03196D29033A031911
:102390004229013A03195D29A5292100B201B20A97
:1023A000B008031DE4292300DE08031DE429D60834
:1023B000031DE4292200B908031DE4292300DC08D9
:1023C000031DE4292100B20121003208D3000030AE
:1023D0002200EF08031D01302100D200581FEE2A11
:1023E000D308031DFE2952080319D82AFE2922000A
:1023F000A001A101F8302100D805132A5808073997
:10240000013A0319FA29033A0319FA29013A03197F
:10241000F729073A0319FA29013A0319FA29033A65
:102420000319FA29132A5813D817312A2200210830
:10243000200403196E2AA001A10121005808F839CF
:102440000238D8000F2B033022002102E930031993
:102450002002031C352A21005808F8390538B32713
:1024600090312300D101D2010F2BF32790310319B2
:102470005A02031C422A01305B022D3003195A0212
:10248000031C6E2A5808F8390138D8002300D201FD
:102490002200A001A1010F2B00302400450265306D
:1024A00003194402031C5D2A21005808DE279031DD
:1024B000D101D10AD201D20A0F2BF327903103198F
:1024C0005A02031C6A2A01305B022D3003195A029A
:1024D000031C1D2A2400C40A0319C50A2200A00AED
:1024E0000319A10A0F2B0030220021020B3003191F
:1024F0002002031CBB2A230050080A3A031D8C2A21
:10250000F8302100D8055813D91423001830D2010F
:10251000D20AD101D10AB22AF327903103195A0203
:10252000031C992A01305B022D3003195A02031C47
:10253000A22A5808DE2790311830D101D10AD201E1
:10254000D20AB22AFC27903103192002031CB52AB3
:1025500021005808F8390538B32790312300183086
:10256000D101D2012100D804BE2A21005808E73940
:102570000838D800BE2AE7302100D805580CE627D5
:102580009031031D6E2A0F2BFC2790310319200276
:10259000031C6E2A21005808F8390638D80022009A
:1025A000A001A1012300D101D201D20AD00A0F2B30
:1025B00058080739013A03194C2A033A0319232A08
:1025C000013A0319162A073A0319C42A013A0319D2
:1025D0001D2A033A0319732A0F2B0F2BD81FFB2A2E
:1025E000D308031D0F2BD81358175808F839033890
:1025F000B32790310F2B591CFF2A5910142AD91CCC
:10260000062B520803190F2BD9100C2BD81A0F2B9D
:10261000D816520803190F2B59142300D00121009A
:10262000B301B30A2300DA08031D1C2B2200BB08E8
:10263000031D1C2B2100B30121003308CC00220014
:102640004D0803192A2B240065082100C20024002C
:102650006408462B230059080319352B24005F0812
:102660002100C20024005E08462B21004C080319FB
:10267000402B24005D082100C20024005C08462B8A
:1026800024005B082100C20024005A082100C10078
:102690005B08CF005A08CE004108CE024208CF3B6B
:1026A000E31CDA2B2200A3278631502690312C0818
:1026B0002100C70020002D082100C800C901CA015F
:1026C0004A08A3004908A2004808A1004708A00042
:1026D00024006608FB3E2100BB00FF302400673D5C
:1026E0002100BC00BD01BE013E08C6003D08C5007A
:1026F0003C08C4003B08C3001F302000BA00210082
:10270000C637C50CC40CC30C2000BA0B7F2B2100AC
:102710003E08CA003D08C9003C08C8003B08C70085
:102720004608F7279031031D9F2B00304502031DFB
:102730009F2B00304402031D9F2B013043020318DE
:10274000BD2BC61BB62B4A082302031DB12B49081B
:102750002202031DB12B48082102031DB12B47089B
:1027600020020030031C0130AA00B72BAA01AB01E4
:102770002B08A9002A08A800C02BA801A80AA901B3
:102780002908280403192C2C01305B02903003190E
:102790005A0203182C2C00305B02513003195A02E4
:1027A000031C2C2CE310631563162400C201C30123
:1027B00021002B2C631D232CE31D631E2C2C2200D7
:1027C000A32786315026903124006608053E20005C
:1027D000BA0000302400673D2000BB002D083B02FA
:1027E000031DF42B2C083A02031C052C0130210098
:1027F0005B02913003195A020318052C00305B026A
:10280000503003195A020318092C21006312631176
:102810002A2C14306C020318112C05306C0203189A
:10282000052C073024004302D13003194202031C57
:102830001F2C21006312E315E001E00A2C2CC20AD0
:102840000319C30A2C2C63182C2C631422006F0B61
:102850002C2C2100E314E0012100E21C3C2C600838
:1028600003197B2CE2106215E2152300B301B401B9
:10287000CE01CE0ACD017B2C621D6F2CE008031D1A
:102880004A2CE21D452CE211482C621E482C621293
:102890006211752CE21D622C01302300340291304C
:1028A00003193302031C5E2C2100E211621623007F
:1028B000B301B401CE01CD01CD0A7B2CB30A0319BB
:1028C000B40A7B2C621E7B2C013023003402913031
:1028D00003193302031C5E2C21006212342C62188F
:1028E0007B2C6214E008031D7B2CE2142300CD0135
:1028F000CE01B301B40123004E082200C70023001B
:1029000054082200C4002100611C912C23007D2763
:1029100090310318CF2C2100611061152200B601FF
:10292000CF2CE11CA52C23007D27903103189B2C74
:102930002100E110B52C653022003602031CA32CC7
:102940002100E110CC2CB60ACF2C611DBA2C23003B
:10295000912790310318AF2C21006111CC2C33301A
:102960003602031CA32C21006111E1152300D701BD
:10297000D70ACF2CE11DC52C2300912790310318D5
:10298000CF2C2100E111E1148E2C611ACF2C61169D
:1029900022006F0BCF2C210061142300D7012300EC
:1029A00057082200C8003A08CB0023005D08220027
:1029B000CC002100B401B40A2300D208031DEA2C84
:1029C0002200B808031DEA2C2300CD08031DEA2CC1
:1029D0002100B401210034082200C9002300550859
:1029E0002200C5002100B501B50AD308031D012D41
:1029F0002300D108031D012D2100E008031D012D36
:102A0000B50121003508CB00B601B60ACB08031D7D
:102A10000F2D2200C608031D0F2D2100B601210035
:102A20003608CD0023006C060319202DEB08031D8A
:102A3000202D0130EA01E9003830E8008030E7005D
:102A400021004B080319262DD001862D22004608AF
:102A50000319882D21004C080319302DCA30852D0B
:102A60006C082000AC00E030D6279031A8269031C9
:102A70002E082100D50020002D082100D400E030D0
:102A80002000AC005F30D6279031A82690312C086A
:102A9000BA002D08BB002E08BC002F08BD0007306F
:102AA000BD36BC0CBB0CBA0C890B502D3A0821006A
:102AB000D40220003B082100D53BC830D4070318BE
:102AC000D50A5508803AFF0080307F02031D6A2D29
:102AD000C93054020318832D21005508803AFF00A5
:102AE00080307F02031D762D3C305402031C7B2D69
:102AF000210054087D2D3C302100AC00AD012D0893
:102B0000D1002C08E12DC8302100D000D101E22DE8
:102B100020000330AF01AE01AD002030AC00230037
:102B20006A082000B300230069082000B2002300D7
:102B300068082000B100230067082000B000993128
:102B4000A22190312D082100D70020002C0821005F
:102B5000D600220052082000AC00AD01C527863106
:102B6000502690312C082100D60720002D08210086
:102B7000D73D5708803AFF0080307F02031DC22DE9
:102B800001305602031CCC2D003021005702CB30FF
:102B90000319560203182E2D2100D71BDB2D003000
:102BA0005702283003195602031CDB2D5708AF00CB
:102BB0005608AE00DE2D2830AE00AF012F08D10040
:102BC0002E08D00051082000BB0021005008200032
:102BD000BA00BB36BA0C3A082200E30021004D08C7
:102BE0002300EC00240063082000AD0024006208EC
:102BF0002000AC00C5278631502690312C08BA0041
:102C00002D08BB00BA35BB0DBA35BB0DBA35BB0DAF
:102C10003A08BC003B08BD000030BD1BFF30BE00C1
:102C2000BF003C082300E70720003D082300E83DE3
:102C300020003E082300E93D20003F082300EA3D34
:102C40006A08F7279031031D2F2E02306902031DF9
:102C50002F2E77306802031D2F2E41306702031894
:102C6000672E6A08F7279031031D402E0030690255
:102C7000031D402E7D306802031D402E0030670288
:102C8000031C522E6A082100A700230069082100B6
:102C9000A600230068082100A50023006708210082
:102CA000A400582E21007D30A701A601A500A40193
:102CB00027082300EA00210026082300E90021005C
:102CC00025082300E8002100240823006D2E02308F
:102CD000EA01E9007730E8004030E700EB01080046
:102CE000003025020630031924023F08031C812E00
:102CF000F8390338BF0023001830DC012200BF047C
:102D00000800E7390838BF000800210069080319E6
:102D1000932E22003D08F0390238BD003030A20168
:102D2000A301BD040800003022002302653003190E
:102D300022023D08031CA42EF0390538BD003030B6
:102D4000B901B801BD040800CF391038BD00080032
:102D5000B401B501B601B7012C1CB62E3008B4077A
:102D60003108B53D3208B63D3308B73DB035B10D39
:102D7000B20DB30DAF36AE0CAD0CAC0C2F082E045B
:102D80002D042C04031DAC2E3708AF003608AE000E
:102D90003508AD003408AC000800210065080319AF
:102DA000D52EC8306502031CE02E22003E08F03903
:102DB0000738ED27D901D8012200BA01BA0A080064
:102DC0008C3023004402A03003194302031CEF2E71
:102DD000AB304402E13003194302031C0A2F2200E6
:102DE0003E08F0390638F82E22003E08F039033844
:102DF000ED279031042F22003E08F0390838BE003C
:102E00002300DB01DB0ADA01D901D801D80A22004C
:102E1000BA010800063021006502031CF42E0930B7
:102E20006502031CFB2EC0306502031C1C2F220010
:102E30003E08F0390438F82E17306502031C2B2F9A
:102E400022003E08F0390238BE002300DB01D90120
:102E5000DA01D801072F14306502031C3A2F220033
:102E60003E08F0390538BE002300DB01DA01D90144
:102E7000D90A292F14306502031808002200BB2745
:102E80009031292FE7302200340203184E2F682F8B
:102E90006612582FE612582F6613582F2100660825
:102EA0000739013A0319482F023A03194A2F4C2FC8
:102EB00066162300DE01DE0A2200BB012300DD01CD
:102EC000DD0A08006612722FE612722F6613722F47
:102ED000210066080739013A0319622F023A0319E3
:102EE000642F662F2D302200340203187A2F210020
:102EF000E616592F2100CE2708006D08FE3E20005F
:102F0000BA00FF3023006E3D2000BB0022003108D4
:102F100020003B02031D08002200300820003A0276
:102F200008006D08023E2000BA00003023006E3D0C
:102F30002000BB0022003102031D080020003A08D7
:102F400022003002080031082000AD0022003008C5
:102F50002000AC0021005B082000AF0021005A08CF
:102F60002000AE000800D8002200A001A10124002A
:102F7000C401C50108003E08F0390138BE00230035
:102F8000DB01DB0ADA01D901080021004F0820002B
:102F9000AF0021004E082000AE0008006617230095
:102FA000DE012200BB012300DD010800AD01AE01FE
:102FB000AF01B000B101B201B3010800F839043823
:102FC000D8002200A001A101230008002000BA00BF
:102FD000BA0C3A0C0339033A0800BE002300DB01A7
:102FE000DA01DA0A0800003021005B020534803A79
:102FF000FF0080307F020800003022002102C93427
:10300000FF3FFF3FFF3FFF3FFF3FFF3FFF3FFF3FD0
:10301000FF3FFF3FFF3FFF3FFF3FFF3FFF3FFF3FC0
:10302000FF3FFF3FFF3FFF3FFF3FFF3FFF3FFF3FB0
:10303000FF3FFF3FFF3FFF3FFF3FFF3FFF3FFF3FA0
:10328000FF3FFF3FFF3FFF3FFF3FFF3F8B2998215D
:103290009931A60026001D082200A7009E290230B1
:1032A000D70026001C082200A80026001D082200C6
:1032B000A900053026009E00080098219931AA0037
:1032C00026001D082200AB002B082300C2002200AC
:1032D0002A082300C100220026082300C102220080
:1032E00027082300C23B220029082300E000220017
:1032F00028082300DF00220026082300DF02220026
:1033000027082300E03B22002B08A7002A08A6007C
:103310009E29D701080022005708003A03194729BF
:10332000013A03194F29033A03195D298929080035
:10333000D701D70A26001C08220008000430260006
:103340009E000800B501AF1FB229AC09AD09AE0956
:10335000AF09AC0A0319AD0A0319AE0A0319AF0A83
:10336000B501B50AB31FC129B009B109B209B30942
:10337000B00A0319B10A0319B20A0319B30A0130DA
:10338000B506B601B701B801B9012F082E042D0406
:103390002C040319F729B401B40AAF1BD429AC35A6
:1033A000AD0DAE0DAF0DCC29B635B70DB80DB90DBD
:1033B0002F083302031DE6292E083202031DE629D9
:1033C0002D083102031DE6292C083002031CF129C7
:1033D0002C08B0022D08B13B2E08B23B2F08B33B9E
:1033E0003614AF36AE0CAD0CAC0CB40BD42935088A
:1033F0000319052AB609B709B809B909B60A0319A4
:10340000B70A0319B80A0319B90A3908AF0038080E
:10341000AE003708AD003608AC00080000302100CF
:103420005F020A3003195E020318192ADE0A031923
:10343000DF0A22003735A03E8600013087002000D9
:103440004A08C03F4B08C13F22000730B70AB70502
:10345000AE308600AC3084000130850023002408A3
:1034600022072000B20023002508233D2000B300DE
:103470002300260820003207B4002300270820007C
:10348000333DB5002300280820003407B600230090
:1034900029082000353DB70023002A082000360700
:1034A000B80023002B082000373DB900003F380743
:1034B000BA00013F393DBB00403F3A07BC00413FE5
:1034C0003B3DBD002300200820003C072200B20045
:1034D0002300210820003D3D2200B30020004B08BE
:1034E0002300CC0020004A082300CB002000CE128D
:1034F0002200E601E60A2000CE17CE1DEF2A2300A7
:103500004C082000AD0023004B082000AC006430C4
:10351000AD36AC0CAD36AC0CAD36AC0CAE00AF017C
:10352000863150269A312D082100DD0020002C081C
:103530002100DC000730DD36DC0C890B9B2A2000E3
:103540004B0821005D02031DA92A20004A08210022
:103550005C020318B72A2000EB239A3121005C0893
:103560002400D00221005D082400D13BCE2A240093
:10357000D001D101CE2AA630CA2AF4302200AE00F2
:103580000130AF00DE2A7D30CA2A5330CA2A2930E2
:10359000CA2A21302200AE00AF01DE2A21005F08D6
:1035A000003A0319D42AC92A5E0884000A300402AA
:1035B0000318C92A80310435903E820000302F0262
:1035C000213003192E020318E82A2130AE00AF0182
:1035D00020004E1E252B0A302200D800252B571C18
:1035E000F52A2400D001D101F92AEB239A31D136F2
:1035F000D00C4D30D001D1012200AE000130AF001F
:1036000020004E1F232B250011082000530603190C
:10361000252B25001108200053020318192B250023
:1036200091031108200053020318252B2500910354
:10363000252B2500910A20005308250011020318AC
:10364000252B910A252B250091012000CA01CB01D1
:1036500021006A08FF3A031DD02B0630EA00D02B68
:1036600001302500960020004E1F392B2200FD233B
:103670009A31220009300D118D10D1002530DC0166
:10368000DC0ADD0002309200843091002000063018
:10369000AE2B01302500960020004E1F522B220039
:1036A000F3239A31220009300D158D10D100053019
:1036B000DC01DC0ADD000130920094309100200032
:1036C00057102100EA01EA0AE42B02302500960097
:1036D00020004E1F6E2B2200F8239A312200353035
:1036E0000E118D10D1000530DC00DD01DD0A9201E4
:1036F0008430910020000230AE2B0230250096006D
:1037000020004E1F862B2200FD239A3122003530E7
:103710000E118D14D1000530DC002530DD000230A3
:1037200092009430910020000330C72B0430250014
:10373000960020004E1F9F2B2200F3239A31220077
:1037400011300E110D11D1002530DC000530DD00E7
:103750000130920084309100200004305714C82BAF
:1037600004302500960020004E1FB92B2200F823BC
:103770009A31220011300E150D11D1002530DC00D8
:10378000DD01DD0A920194309100200005305710D0
:103790002100EA00E42B25009601220091015F2B15
:1037A0006A08013A0319302B033A0319492B013AED
:1037B0000319652B073A03197D2B013A0319962B40
:1037C000033A0319B02BCB2B28302200CE00200067
:1037D000CA01CB0108004B082400D10020004A0890
:1037E0002400D00008000E08E53912388E000800C9
:1037F0000E08E53918388E0008000E08E5390A3839
:103800008E000800CA0A0319CB0A4B0822002F02B7
:10381000031D0E2C20004A0822002E020318122C31
:10382000F0259C31003021005F020A3003195E024E
:10383000031C1C2C2000CE11003021005F0203303D
:1038400003195E02031C262C20004E128731A62786
:103850009C312200111F2E2CCF01472DCF01CF0A02
:10386000472D2D3021009D00AD259C3121009D1458
:10387000C6259C3171082400D7007008D60031306D
:1038800021009D00AD259C3121009D142200E60AF7
:10389000542D5D0821009D001B082000D50021004B
:1038A0001C082000D60000000000000000000000FE
:1038B0000000000000000000000000000000000008
:1038C000000000000000422C21001B082200AC0078
:1038D00021001C082200AD0021009D1420004E1F75
:1038E000862C53080319862C571C902C22002C0878
:1038F000643EF70000302D3DF800200056087802A5
:10390000031D842C550877020318542D2200E60A63
:103910005C0821009D00AD259C3121009D14542D93
:10392000003022002D021F3003192C020318862CB0
:10393000542DCE01C6259C31D41CA82C2200510840
:1039400021009D00AD259C31210009309D14442D9E
:10395000753021009D00AD259C31462C21009D1421
:10396000C6259C3122005108402CC6259C31710887
:10397000CD007008CC004E1B1F2D162D23003008E3
:10398000CF279C310318D82C4D08F1004C08F000CB
:1039900023003008F002031CF10322006808F30042
:1039A0006708F200DB259C3171082300BD00DA2C8A
:1039B0002300BD01BE012B2D23003108CF279C31F0
:1039C0000318F62C4D08F1004C08F00023003108D4
:1039D000F002031CF10322006A08F3006908F200F8
:1039E000DB259C3171082400D200F82C2400D20180
:1039F000D3012B2D23003208CF279C310318142D1F
:103A00004D08F1004C08F00023003208F002031CBE
:103A1000F10322006C08F3006B08F200DB259C31F7
:103A200071082400D4001D2D24001C2D2300BD018D
:103A3000BE012400D201D301D401D5012B2D2200D7
:103A40005108093A0319BE2C183A0319FA2C243AE2
:103A50000319DC2C162D013020004D0255300319BE
:103A60004C02031C372DE5304E1422008E05AD2587
:103A70009C3121009D142000D41C462C753021005F
:103A80009D00AD259C3105302200E600542D6608CE
:103A9000FF3E031C542D84000A3004020318542DE9
:103AA00080310435A43E820020004E1F8C2DCE1D97
:103AB0008E2D22004130CD01CD0A2400E400E50125
:103AC00020004A080339031D8E2D4E1E7C2D5608FA
:103AD00055040319802D5608F1005508F000803078
:103AE000F2003E30F300D9279C317008F9007108CC
:103AF000FA00FB01FC01802D56085504031D6B2DB7
:103B00002200580879020318872DD803882DD80A77
:103B10005808250091008E2D250091012200CE0825
:103B2000031DAB2D4F080319992D2000CE1A992D96
:103B3000CE162000CE1E0800240051085004031D9C
:103B4000A62D2000CE190800F0250800FF30D00770
:103B5000031CD1030800CE03080000000000000091
:103B60000000000000000000000000000000000055
:103B70000000000000000000000000000000000045
:103B8000000000000000000000000800F201210019
:103B90009D1CCF2D4130F20A7202031CC72D1C0858
:103BA0002000C90021001B082000C8004908F100BE
:103BB0004808F0000800F401F501701CE32D7208BC
:103BC000F4077308F53DF235F30DF136F00C71088A
:103BD0007004031DDD2D7508F1007408F000080065
:103BE000003021005F020A3003195E020318FB2D2A
:103BF000DE0A0319DF0A22003735A03E86000130B5
:103C0000870020004A08C03F4B08C13F2200073010
:103C1000B70AB705AE308600AC30840001308500AD
:103C20002300240822072000A00023002508233DAC
:103C30002000A1002300260820002007A200230066
:103C400027082000213DA300230028082000220788
:103C5000A400230029082000233DA50023002A08F2
:103C600020002407A60023002B082000253DA700E4
:103C7000003F2607A800013F273DA900403F280735
:103C8000AA00413F293DAB002300200820002A075D
:103C90002200B2002300210820002B3D2200B300A7
:103CA00020004B082300CC0020004A082300CB0052
:103CB0002000CE122200E601E60A2000CE17CE1D1B
:103CC000CC2E23004C08F1004B08F0006430F13694
:103CD000F00CF136F00CF136F00CF200F301DB25BC
:103CE0009C3171082100DD007008DC000730DD36F2
:103CF000DC0C890B772E20004B0821005D02031D90
:103D0000852E20004A0821005C020318942E200012
:103D10009B31EB239C3121005C082400D002210060
:103D20005D082400D13BAB2E2400D001D101AB2E85
:103D3000A630A72EF4302200AE000130AF00BB2E1B
:103D40007D30A72E5330A72E2930A72E21302200F8
:103D5000AE00AF01BB2E21005F08003A0319B12E5F
:103D6000A62E5E0884000A3004020318A62E8031B5
:103D70000435B83E820000302F02213003192E0294
:103D80000318C52E2130AE00AF0120004E1E032FB8
:103D90000A302200D800032F571CD22E2400D00155
:103DA000D101D72E9B31EB239C31D136D00C4D3035
:103DB000D001D1012200AE000130AF0020004E1F23
:103DC000012F25001108200053060319032F250099
:103DD0001108200053020318F72E25009103110843
:103DE000200053020318032F25009103032F250001
:103DF000910A20005308250011020318032F910A8D
:103E0000032F250091012000CA01CB0121006A087F
:103E1000FF3A031DB42F0630EA00B42F013025000D
:103E2000960020004E1F182F22009B31FD239C314D
:103E3000220009300D118D10D1002530DC01DC0A83
:103E4000DD00023092008430910020000630912F76
:103E500001302500960020004E1F322F22009B319A
:103E6000F3239C31220009300D158D10D10005304F
:103E7000DC01DC0ADD00013092009430910020006A
:103E800057102100EA01EA0AC82F023025009600E7
:103E900020004E1F4F2F22009B31F8239C3122001F
:103EA00035300E118D10D1000530DC00DD01DD0A4A
:103EB00092018430910020000230912F02302500C1
:103EC000960020004E1F682F22009B31FD239C315D
:103ED000220035300E118D14D1000530DC00253064
:103EE000DD00023092009430910020000330AB2FAF
:103EF00004302500960020004E1F822F22009B31A7
:103F0000F3239C31220011300E110D11D100253008
:103F1000DC000530DD00013092008430910020008B
:103F200004305714AC2F04302500960020004E1F9B
:103F30009D2F22009B31F8239C31220011300E1559
:103F40000D11D1002530DC00DD01DD0A9201943035
:103F500091002000053057102100EA00C82F2500ED
:103F60009601220091013F2F6A08013A03190E2F92
:103F7000033A0319282F013A0319452F073A031969
:103F80005E2F013A0319782F033A0319932FAF2FAD
:103F900028302200CE002000CA01CB010800F70023
:103FA000F80120004D087802031D08004C08770234
:103FB0000800F501F601710870040319F92FF401E6
:103FC000F40AF11BE62FF035F10DE02FF535F60D73
:103FD00071087302031DEE2F70087202031CF52F87
:103FE0007008F2027108F33B7514F136F00CF40B13
:103FF000E62F7608F1007508F000080069000F0050
:020000040001F9
:04000E00BCFFFFDB59
:00000001FF
