:1000000080312728FF3FFF3F803120001118111059
:10001000931C0F2893108731C8278031D90A2000FC
:10002000911C162891109C31072480312000931DCB
:100030001D2893118F31022780312000131F2328A0
:1000400013139031062020001218121009008801A5
:100050008A31542A00346E346E346E3400340034E5
:1000600000340034003400340034D334D334D33477
:10007000D034CE34CC34C934C734C534C334C1349D
:10008000BF34BD34BB34BA34B834B634B434B2340B
:10009000B134AF34AD34AC34AA34A934A734A63467
:1000A000A434A334A234A0349F349D349C349B34B4
:1000B0009A349834973496349534943492349134F5
:1000C00090348F348E348D348C348B348A3489342C
:1000D000883487348634853484348334823481345C
:1000E00080347F347F347E347D347C347B347A3486
:1000F0007A347934783477347734763475347434A8
:1001000074347334723472347134703470346F34C4
:100110006E346E346E346E346E346E346E346E34CF
:100120009A31C12A9A31C32A9A31C92A9A31CB2AE3
:100130009A31CD2A9A31CF2A9A31CF2A9A31CF2AB1
:100140009A31CF2A9A31CF2A9C31362C9C314E2CB1
:100150009C31692C9C319A2C9C314B2C9C314B2C22
:100160009C314B2C9C31AF2C9C31B62C9D31552DA4
:100170009E31992E9E319B2E9E31A12E9E31A32E13
:100180009E31A52E9E31A72E9E31A72E9E31A72EE1
:100190009E31A72E9E31A72E9031BA289031BA28D1
:1001A0009031BA289031BA289031BA289031BA28C3
:1001B0009031BA289031BA28220062083B3A031DD8
:1001C000E32D20005208D8005208803A0319042970
:1001D000103A03191429013A03198629023A03191E
:1001E000C629073A0319422A013A0319992A0D3AF6
:1001F0000319742C073A0319202D3F3A03196E2D69
:100200005A3A0319CF2DE12D5808803A031D0800F2
:100210009030D80022003A30ED01ED0A2000B700FE
:1002200080303B278031092E5808903A031D080082
:100230005529F030E62580312100B400F130E62563
:1002400080312100B500F230E62580312100B60072
:10025000F330E62580312100B7000230B301B2014E
:100260002200ED005E29EB30E62580312100B4004C
:10027000EC30E62580312100B500ED30E6258031F7
:100280002100B600EE30E62580312100B700EF30C6
:10029000E62580312100B3009130B2012000D80062
:1002A0005E299030692780315E2922006D08013A6D
:1002B00003191929033A0319332951292100340854
:1002C000FF3A03197F293508FF3A03197F293608B9
:1002D000FF3A03197F293708FF3A03197F293308AA
:1002E000FF3A03197F293208FF3A03197F293A3070
:1002F0008E26803144278031BE001030092E7F3099
:100300002000B700903013278031092E5808913A09
:10031000031D0800F430E62580312100B400F530DB
:10032000E62580312100B500F630E6258031210038
:10033000B600F730E62580312100B700F830E62519
:10034000803164278031031DBB293508FF3A031D26
:10035000BB293608FF3A031DBB293708FF3A031DA6
:10036000BB293308FF3A031DBB293A308E26803162
:100370001C278031C1297F302000B7005208132785
:100380008031092692302000D80008005808933A9E
:10039000031D0800792780312D082300BC002000B0
:1003A0002C082300BB00FF305427803115140000B7
:1003B0000000230014082400BB00230013082400BD
:1003C000BA00FE30230054278031151400000000CD
:1003D000230014082400BD00230013082400BC00DF
:1003E0000430383E8600023087003A082000C20000
:1003F000C101403F41072400B800413F2000423D79
:100400002400B9003A082100B60024003C0821006D
:10041000B70023003C082100B30023003B08210063
:10042000B20023003C0824003906031D1B2A2300C8
:100430003B0824003806031D302A3A302000B7005C
:100440005208B8000230B900BA0121003608200075
:10045000BB00210037082000BC00442780313B2A24
:100460007F302000B7005208B800FF30B900BA0052
:10047000BB00BC00BD00BE00103009269430200037
:10048000D80008005808943A031D080051082200BB
:10049000E400E408031D4E2A6F30E4002300460800
:1004A0002000C200230045082000C100C236C10C54
:1004B000C236C10C41082100B40022006408FD3E90
:1004C0002000C100FF3003180030C200803AC30092
:1004D00080304302031D702A2100340820004102AD
:1004E00003188E2A22006408033E2000C100003059
:1004F00003180130C200803A803C031D822A410863
:100500002100340203188E2A3A302000B700BA26A0
:1005100080311030BA015F278031942A7F3020006B
:10052000B700520813278031092695302000D800E3
:1005300008005808953A0319632C722C8C31272433
:1005400080310B138B1325009301220035300D15DC
:100550008E158E100E1221009D00A001B12A000000
:1005600000002100A00BAF2AA101B82A0000000062
:100570002100A10BB62AA201BF2A00000000210021
:10058000A20BBD2AA301C62A000000002100A30B74
:10059000C42AA401CD2A000000002100A40BCB2A0C
:1005A000A501D42A000000002100A50BD22A8A311F
:1005B0002322803121009D148A313C2280312D0874
:1005C0002300E40020002C082300E3003108E302AC
:1005D000031CE403220009300E158E148E110E1236
:1005E00021009D00A601F62A000000002100A60BB4
:1005F000F42AA701FD2A000000002100A70BFB2A16
:10060000A801042B000000002100A80B022BA90167
:100610000B2B000000002100A90B092BAA01122BB3
:10062000000000002100AA0B102BAB01192B0000C9
:1006300000002100AB0B172B8A31232280312100CF
:100640009D148A313C2280312D082300E2002000D5
:100650002C082300E1003008E102031CE203220021
:1006600011308D140E168E108E1121009D00AC01DC
:100670003B2B000000002100AC0B392BAD01422BBD
:10068000000000002100AD0B402BAE01492B000003
:1006900000002100AE0B472BAF01502B00000000E3
:1006A0002100AF0B4E2BB001572B000000002100A2
:1006B000B00B552BB1015E2B000000002100B10BE7
:1006C0005C2B8A312322803121009D148A313C2207
:1006D0002D082300E60020002C082300E500320846
:1006E000E502031CE603E53022008E050C302500F0
:1006F00093000B178B172100EB01EB0A0800230076
:100700003527803123278031612680312D08B300C1
:100710000230F12580313527803123278031612651
:1007200080312C08B3000330F12580310330E625F9
:100730008031C1000230E62580312200E80020002F
:1007400041082200E70021006B08B4002300620882
:100750002000AD00230061082000AC0022006808E2
:100760002000AF00220067082000AE004C26803138
:100770002D082100B600220068082100B7002200E1
:100780006708C1268031A326803109260230210066
:10079000EB00080023002F278031232780316126BA
:1007A00080312D08B3000430F12580312F278031AE
:1007B00023278031612680312C08B3000530F125D4
:1007C00080310530E6258031C1000430E6258031D6
:1007D0002200EA00200041082200E90021006B0805
:1007E000B400230064082000AD002300630820004B
:1007F000AC0022006A082000AF0022006908200037
:10080000AE004C2680312D082100B60022006A0877
:100810002100B70022006908C1268031A32680315B
:10082000092603302100EB0008002300292780312E
:1008300023278031612680312D08B3000630F12551
:1008400080312927803123278031612680312C088F
:10085000B3000730F12580310730E6258031C10033
:100860000630E62580312200EC00200041082200FD
:10087000EB0021006B08B400230066082000AD00E7
:10088000230065082000AC0022006C082000AF00A7
:1008900022006B082000AE004C2680312D0821007C
:1008A000B60022006C082100B70022006B08C126A8
:1008B0008031A3268031092698302000D800080016
:1008C00020005208692F21006B08003A03199E2A64
:1008D000013A03197F2B033A0319CA2B013A031972
:1008E000152C602C5208692F5808983A031D0800EF
:1008F00051082100EF0020005108013A03198A2C09
:10090000023A0319AF2C073A0319D42C013A031900
:10091000F92C1E2D5A278031031D08005108210093
:10092000B4008C31E9248031F62680314C268031A8
:10093000052780310A008431D82680310318AC2C79
:100940002100C52680310318AC2C3A308E26803128
:100950001030BD01BE01092EE8268031092E5A272C
:100960008031031D080051082100B4008C31E924B6
:100970008031F62680314C268031052780310A00EF
:100980008431D82680310318D12C2100C52680312E
:100990000318D12C3A308E2680311030BD01BE01B3
:1009A000092EE8268031092E5A278031031D0800C0
:1009B00051082100B4008C31E9248031F6268031C1
:1009C0004C268031052780310A008431D8268031B9
:1009D0000318F62C2100C52680310318F62C3A3076
:1009E0008E2680311030BD01BE01092EE8268031EF
:1009F000092E5A278031031D080051082100B40038
:100A00008C31E9248031F62680314C26803105274F
:100A100080310A008531D826803103181B2D210032
:100A2000C526803103181B2D3A308E2680311030B8
:100A3000BD01BE01092EE8268031092E5208692F1A
:100A400058089F3A031D080051082200EE00552D5A
:100A5000373086268031200037305410D410D4131C
:100A60005411D41554125413D4122100B500083077
:100A7000B40003302200EE005D2D4D30862680311B
:100A800020004D304C278031D4162100B500B40130
:100A9000B40A2200EE01EE0A5D2D0B30862680316D
:100AA00020004C278031D4125D2D6E08023A0319C4
:100AB0003D2D063A0319282D4D2D21003A30B7015E
:100AC000B301B2012000B700BA26803121003508F9
:100AD0002000BA0010305F278031092E5808A03A54
:100AE000031D08005108B300F430F12580312200C5
:100AF0005E082000B300F530F125803122005F0848
:100B00002000B300F630F12580312200600820007B
:100B1000B300F730F1258031220061082000B300D6
:100B2000F830F1258031F430E62580312100B40021
:100B3000F530E62580312100B500F630E62580311C
:100B40002100B600F730E62580312100B700F830EB
:100B5000E6258031642780310319C42D3508FF3A1A
:100B60000319C42D3608FF3A0319C42D3708FF3A7C
:100B70000319C42D3308FF3A0319C42D3A308E26C9
:100B800080311C278031CA2D7F302000B7005208E9
:100B9000132780310926FA302000D80008005808B1
:100BA000FA3A031D08003A30B70052083B2780315B
:100BB0000926803155302000B300F12520008E1227
:100BC00008005808692F20005808692F2000AC0041
:100BD0002300910095131513151413082000AD0080
:100BE0000800B40023009100200033082300930084
:100BF00055301513951315158B139600AA309600D2
:100C000095148B1715112300951C08000000000097
:100C1000032EBF00CF1D0A2E0230AC0005308B26FC
:100C20008031D00086000230870037088100D00A6A
:100C30005008860038088100D00A5008860039081C
:100C40008100D00A500886003A088100D00A500876
:100C500086003B088100D00A500886003C088100CD
:100C6000D00A500886003D088100D00A500886004E
:100C70003E0881000830D00AAD005530AE00773014
:100C8000AF01B000B1013F088E3137264F08220076
:100C9000BC00F030BC050800B001B1012C1C542E82
:100CA0002E08B0072F08B13DAE35AF0DAD36AC0CF8
:100CB0002D082C04031D4E2E3108AD003008AC0069
:100CC0000800B101B2012D082C040319812EB001D6
:100CD000B00AAD1B6E2EAC35AD0D682EB135B20D20
:100CE0002D082F02031D762E2C082E02031C7D2EAC
:100CF0002C08AE022D08AF3B3114AD36AC0CB00B56
:100D00006E2E3208AD003108AC0008002000AC00A7
:100D10002200D60008002C08A03E08002000B700E2
:100D20005208B800210034082000B900210035081D
:100D30002000BA00210036082000BB00210037083F
:100D40002000BC000800B7005208B8002100340899
:100D50002000B900BA01210036082000BB002100A4
:100D600037082000BC00210033082000BD001030EF
:100D7000BE0108005208B800210034082000B90064
:100D800008002100B30020003A343708FD3E20005F
:100D9000C100FF3003180030C200803AC300803029
:100DA0004302031D0800210036082000410208000C
:100DB000B700033E2000C100003003180130C2001C
:100DC000803A803C031D08004108210036020800DB
:100DD0007F302000B7005208B8005108B900FF303A
:100DE000BA00BB00BC00BD00BE0010348936210033
:100DF000B500220033082000AD0022003208200098
:100E0000AC000530AE00AF0108002C08C1002D0871
:100E1000C200C236C10CC236C10C41082100B60066
:100E200035082B3E0800B800FF30B900BA00BB00FF
:100E3000BC00BD00BE001034210033082000BD00FE
:100E40001030BE0108002000AC007830AE01AF00C9
:100E5000080066082000AD0023006508080064084B
:100E60002000AD0023006308080062082000AD00E8
:100E7000230061080800B8001030B901BA01BB01B5
:100E8000BC01BD01BE010800210033082000BD00E7
:100E900021003208200008005410D410D41354113B
:100EA000D41154125413080091001F3092001511F0
:100EB0009517080021006F08200051060800BB01AB
:100EC000BC01BD01BE0108002100B3003408FF3A97
:100ED00008002000C000FF30D1002200DE00DF004B
:100EE000E000E1007F302000B70040081327803188
:100EF000092EFE30B201B301B001B101AE001F30C6
:100F0000AF000130AE020030AF3B2E0A03192F0AAA
:100F10000319A22F32082300910020003308230078
:100F200092001511951715140000000023001308F6
:100F30002000B007230014082000B13DB20A0319B5
:100F4000B30A812F3108AD003008AC000800000062
:100F50000000000000000000000000000000000091
:100F60000000000000000000000000000000000081
:100F70000000000000000000000000000000000071
:100F80000000000000000000000000000000080059
:100F900022006430D30A5302031CD12FD3010E1058
:100FA00008005608530203180E140800640080015C
:100FB0000131890BD72F0034D90A0800FF3FFF3FCA
:100FC000FF3FFF3FFF3FFF3FFF3FFF3FFF3FFF3F31
:100FD000FF3FFF3FFF3FFF3FFF3FFF3FFF3FFF3F21
:100FE000FF3FFF3FFF3FFF3FFF3FFF3FFF3FFF3F11
:100FF000FF3FFF3FFF3FFF3FFF3FFF3FFF3FFF3F01
:10100000FF3FFF3FFF3FFF3FFF3FFF3FFF3FFF3FF0
:10101000FF3FFF3FFF3FFF3FFF3FFF3FFF3FFF3FE0
:10102000FF3FFF3FFF3FFF3FFF3FFF3FFF3FFF3FD0
:10103000FF3FFF3FFF3FFF3FFF3FFF3FFF3FFF3FC0
:10104000FF3FFF3FFF3FFF3FFF3FFF3FFF3FFF3FB0
:10105000FF3FFF3FFF3FFF3FFF3FFF3FFF3FFF3FA0
:10106000FF3FFF3FFF3FFF3FFF3FFF3FFF3FFF3F90
:10107000FF3FFF3FFF3FFF3FFF3FFF3F813021002A
:1010800095002200EF01EF0A8B138B0121009101E3
:10109000920193012200DA01DB012100E030ED0131
:1010A0002400E6002E30E700CD302300ED00EE01F5
:1010B00058218831BD208831D8208831F0208831EE
:1010C00001307B20883104307B20883106307B2042
:1010D00088310530F6208831B42088314B218831A1
:1010E000782188312400E001E10190218831C52672
:1010F0000B178B1708002000AD00A2280030352404
:101100008B12080001303524753020009800210032
:101110001110080002303524073020009C00210007
:1011200091100800043035240E302800970021006B
:101130009314080006303524053028009E00210055
:10114000931508002D08003A03197E28013A031967
:101150008228033A03198A28063A03199228023A88
:1011600003199A28B3280800A03021009E009D0191
:1011700030301D1422009704080020008E12AC01AC
:10118000C328000000002000AC0BC1288E16AD0162
:10119000CB28000000002000AD0BC9288E12AE0144
:1011A000D328000000002000AE0BD1288E160800C6
:1011B0009F3023009B0001309C0026309E00903021
:1011C0009D0048309F00210091012400ED2722005E
:1011D000C3012000CF012100E8012000CF15080045
:1011E000F030210099001130970008002000AC0079
:1011F0002200D401D50138292500930191019201E3
:101200002100111520000530111125009300080060
:1012100025009A019801990121001214200005303F
:10122000121025009A0008002600930191019201F6
:101230002100131620000530131226009300080029
:1012400026009A019801990121009316200005308B
:10125000931226009A00080026009E019C019D0121
:101260002100131720000530131326009E000800EC
:1012700020002C08013A0319FC28033A0319082915
:10128000013A03191429073A03192029013A0319CD
:101290002C294A29080020000B30D40186318626EB
:1012A0002300E101E201E301E401E501E6010800B8
:1012B00027308C0029308D0022008C018D018E0199
:1012C00055308531E6258831553A031969298E1A3A
:1012D00070297F3021008C0039308D008E0108008C
:1012E0007F3021008C0039308D0080308E00080066
:1012F0002100EE0108306E020318080031309D0015
:10130000232288313C2288312D08D6002C08D500B4
:10131000FB2688315E30C03F0130C13FEE0A7A299A
:1013200003308531E6258831003A0319AE290330B0
:101330008531E6258831FF3A0319AE29033085311E
:10134000E6258831AF0002308531E625883122005C
:10135000E80020002F082200E700B2292200013017
:10136000E701E80005308531E6258831003A0319A8
:10137000D02905308531E6258831FF3A0319D02977
:1013800005308531E6258831AF0004308531E6250A
:1013900088312200EA0020002F082200E900D42929
:1013A00022000130E901EA0007308531E625883165
:1013B000003A0319F22907308531E6258831FF3AD2
:1013C0000319F22907308531E6258831AF00063050
:1013D0008531E62588312200EC0020002F0822000C
:1013E000EB00F62922000130EB01EC001A300E115F
:1013F0000D118D108E042322883123228831113063
:1014000021009D002322883121009D143C22883137
:101410002C082300B200353021009D0023228831A2
:1014200021009D143C2288312C082300B100093092
:1014300021009D002322883121009D143C222C088C
:101440002300B000080000000000000000000000C1
:10145000000000000000000000000000000000008C
:10146000000000000000000000000000000000007C
:1014700000000000000008002000AE0121009D1CBB
:10148000472A20004130AE0A2E02031C3E2A2100CA
:101490001C082000C90021001B082000C8004908C2
:1014A000AD004808AC0008004830D7018400003087
:1014B00085000F308731D6278831D830840000303E
:1014C000850017308731D6278831203084000130DD
:1014D000850047308731D6278831A030840001301D
:1014E000850047308731D62788312030840002308C
:1014F000850046308731D6278831A03084000230FD
:1015000085000B308731D62788318030D800210004
:101510000130EF002200E700E801E900EA01EB00FA
:10152000EC01ED000730EE0023008030E70038309A
:10153000E8000130E900EA01EB00EC002000A02AFD
:101540003E2088310430352488312200E501220014
:1015500059082000C400C5014508C70022006508DD
:1015600020004402C600031CC70347040319A72A2E
:1015700022005908E500DA0ADB0A2100ED0A200002
:10158000D41CC82AC8309B00220063352000DF2A03
:101590007D309B000430B200B301220063082000BC
:1015A000AC000530AD01AE00AF0186314C2688316C
:1015B0002D08B5002C08B400E72388313208D30089
:1015C00056248831033022005A020318DA0105300C
:1015D0005B02031CBE2BDB016400E924883121007F
:1015E000EC0023004208C4004108C3002200330875
:1015F0002100D900220032082100D8002400590817
:101600002300CA00240058082300C9000530240024
:10161000E200E3012200D2012000D41C272B21008C
:101620006C362B3E80310A0089362400DA008A307D
:10163000DB0180310A008936DC003630DD01803183
:101640000A008B318936DE00DF018B31602B0530DB
:10165000B200B30121006C362B3E80310A008B3181
:1016600020008E31F0268831E72333082400DB0088
:10167000200032082400DA0005302000B2008A3051
:10168000B30180310A008B31F0268831E72333081B
:101690002400DD00200032082400DC00053020009A
:1016A000B2003630B30180310A008B31F026883128
:1016B000E72333082400DF00200032082400DE0086
:1016C000230046082000C500230045082000C40070
:1016D000C536C40CC536C40C44082200B400B5019C
:1016E000230048082200B100230047082200B00070
:1016F000003020004E1801302100E9002200C60110
:101700009031622088312200EF01E308031D8B2B0A
:10171000272488318D2B7025883122004B0820002A
:101720005410031D5414220044082000D410031D3B
:10173000D414220045082000D413031DD41722001E
:10174000480820005411031D5415220049082000A8
:10175000D411031DD4152200470820005412031D84
:10176000541622004C0820005413031D5417220065
:101770004A082000D412031DD4164E1021006D0813
:10178000193A031DCF2BBC2455308531E62588310D
:10179000553A031D8E1ECF2B113093258831210021
:1017A0006D08253A031DDF2B55308531E62588313C
:1017B000553A031D8E1EDF2B8031DC2088316530C9
:1017C00021006D020318ED012200CD01A72AB70107
:1017D000B31FF12BB209B309B20A0319B30AB70157
:1017E000B70AB51FFA2BB409B509B40A0319B50A2B
:1017F0000130B706B801B9013308320403191A2CB5
:10180000B601B60AB31B072CB235B30D012CB8359F
:10181000B90D33083502031D0F2C32083402031CA6
:10182000162C3208B4023308B53B3814B336B20C68
:10183000B60B072C37080319222CB809B909B80AC6
:101840000319B90A3908B3003808B20008002000AB
:101850004E1F080022008E108E110E1225009513C7
:10186000910120004E13CE130800AC00442C9501CA
:1018700008009601970108009A01080028009501C8
:10188000080028009C0108002C08003A0319372C96
:10189000013A0319392C033A03193C2C063A03196F
:1018A0003E2C023A0319412C552C08005B24883148
:1018B000F7258831132EFB26883120005508C03FBC
:1018C0005608C13F2E3086002C308400023085003F
:1018D0002400240822072000AC0024002508233D12
:1018E0002000AD002400260820002C07AE002400B4
:1018F000270820002D3DAF002400280820002E07D7
:10190000B0002400290820002F3DB10024002A083F
:1019100020003007B20024002B082000313DB30026
:10192000003F3207B400013F333DB500403F34076C
:10193000B600413F353DB70024002008200036079F
:101940002300B900240021082000373D2300BA00FD
:10195000C6003908C5000830C636C50CC636C50CE9
:10196000C636C50C2100EE0A6E02031C0800EE010B
:101970002300B901BA0108002000541FC22C5830BE
:101980008631862E220044080319C92C2130863165
:10199000862E47080319CF2C42308631862E4908FF
:1019A0000319D52C37308631862E48080319DB2CD5
:1019B0002C308631862E2000D41EE12C4D3086310D
:1019C000862E541CE62C16308631862E0B3086313E
:1019D000862E230041082000B50023004208200085
:1019E000B600B70123005F082000AC0023006008A8
:1019F0002000AD00C830AE01AF00B001B1015325E9
:101A000088312C08B8002D08B9002E08BA0021250D
:101A1000883135082200D400D408031D172D053065
:101A2000D50A5502031C1D2D5408D0001D2DD501CB
:101A30005408D0002300DF01E00122005008C83C18
:101A40000800BB01BC01BD01370836043504031989
:101A50004C2DBE01BE0AB71B312DB535B60DB70DE5
:101A60002A2DBB35BC0DBD0D37083A02031D3E2D96
:101A700036083902031D3E2D35083802031C472D58
:101A80003508B8023608B93B3708BA3B3B14B736BD
:101A9000B60CB50CBE0B312D3B08B5003C08B600AA
:101AA0003D08B7000800B201B301B4012C1C5E2D43
:101AB0002F08B2073008B33D3108B43DAF35B00D43
:101AC000B10DAE36AD0CAC0C2E082D042C04031D4C
:101AD000562D3208AC003308AD003408AE000800C3
:101AE00020004E1B0800A630CE122200AE00AF012F
:101AF0002100EA01EA0ADE01DF012000D301CA0168
:101B0000CB012400D001D101250096012000CE1583
:101B10004E172200D801250091012200E601200085
:101B20004E169A31142ABB00CF1D942D3B08B700E6
:101B30000830B8000530E3258831CF1D9D2DF030E9
:101B40004F05BA0022003C060319080020000530AA
:101B5000AC0186318B268831D000860002308700A8
:101B600001082400B000E9268831B100E926883157
:101B7000B200E9268831B300E9268831B400E926AD
:101B80008831B500E9268831B600E926B70030086B
:101B90002200E200240031082000D2002400320894
:101BA0002000D100240033082200DE002400340885
:101BB0002200DF00240035082200E000240036085F
:101BC0002200E1000800CF1D080038082200C100F3
:101BD0002000CF142400C601C70120002430AD012D
:101BE000AE003330AF01B000B1013708372E23000B
:101BF0003D082400CC0723003E082400CD3D4D08BD
:101C00002300C80024004C082300C7000630C83653
:101C1000C70C890B072E47082400CC022300480874
:101C20002400CD3B08005608CE075708CF3D4F088B
:101C30002300C00024004E082300BF000630C03639
:101C4000BF0C890B1F2E3F082400CE022300400842
:101C50002400CF3B230040082400D90023003F0884
:101C60002400D8006008D8076108D93D0800B200F8
:101C7000B3000F30CF050D302300B7001330B8018B
:101C80002400CA00CB0120002F082300B60020004A
:101C90002E082300B500200031082400C9002000D0
:101CA00030082400C8002000CF1D08005530250052
:101CB000A000200033089F2688312500A1002100C4
:101CC000E7012000CF1C682E02302200C0008F2EBA
:101CD0002D08023E2200C00020000230B401B501F0
:101CE000B60022004008200036020318822E360873
:101CF000A03E8600023087000108B4070318B50A29
:101D0000B60A712E22004008A03E860002308700ED
:101D1000200035083407FF3A81002200C00A230062
:101D2000FF309E159A000F302000CF054F14210080
:101D3000E81468152200C2012000CF110800AC0091
:101D40003F30AC052C1CA62E4030AC06AC1CAA2E95
:101D50004030AC062C1DAE2E4030AC062C1EB22EF0
:101D60004030AC06AC17AC1CB72E8030AC06AC1DB6
:101D7000BB2E8030AC062C1EBF2E8030AC06AC1EB5
:101D8000C32E8030AC062C08080025009601803058
:101D900022009100920121008730921225009400C8
:101DA00095010C30930091012100043012102500A0
:101DB0009A00FF3098009900643020009B000530A5
:101DC0009C0028302200CE00210091142000CE017A
:101DD000702D2000D00A5008860001082400080059
:101DE000C400C501C435C50DC435C50D4408B400D3
:101DF0004508B500080021006E35203E86000230FF
:101E00008700080023009E19852F2000911E852F32
:101E1000CF1D1E2F23001D080639031D852F19080D
:101E2000803A031D852F2400ED278831F42788315F
:101E3000E81E1C2FE812852F6814852F4F1C5A2F7F
:101E400023001D0806390319292F21006708031DE7
:101E5000612F21006708023A0319E81022004308A5
:101E60000319342FC303852F4208230019060319D1
:101E70003B2F6C30832F220040080319502F230082
:101E800019082200C2002100FA2788310108220027
:101E9000C20023009A002200C0032100E70A852F18
:101EA0002000CF1C572F4F102100E701852F210064
:101EB0006811822FCF1C852F23001D0806390319B6
:101EC000632F7C30832F220041080319792F2100D2
:101ED000FA2788312300190881002200C10323005A
:101EE00019082400C6070318C70A471C4D2FC60A45
:101EF0004D2F2300190A2400C60746080319822F14
:101F00005C30832F0830E02788312000CF19C62F9E
:101F10002100681DBF2FE81CA22F230038083704BA
:101F20000319962F0130B7020030B83B24004B084C
:101F30004A040319A02F0130CA020030CB3BAA2F5C
:101F40002C30A82F2300380837040319AA2F1C307F
:101F5000E02788312300360835040319B32F0130F8
:101F6000B5020030B63B2400490848040319BD2FD0
:101F70000130C8020030C93B08004C30E02F23007C
:101F800036083504031908003C30E02F2100E81A18
:101F900008002400410840043F043E040319DD2FDB
:101FA0000130F100F201F301F401BE027208BF3BFF
:101FB0007308C03B7408C13B080021006817080083
:101FC000F000F4278831E8012400C601C701700839
:101FD0002000CF002400ED2708002730C101C001F8
:101FE000BF00BB30BE000800230019082200C20059
:101FF000210008006708A03E860002308700080024
:10200000FF3FFF3FFF3FFF3FFF3FFF3F4B28582071
:102010009031A80026001D082200A9005E28023089
:10202000D70026001C082200AA0026001D08220056
:10203000AB00053026009E00080058209031AC000F
:1020400026001D082200AD002D082300C20022003A
:102050002C082300C100220028082300C10222000E
:1020600029082300C23B22002B082300E0002200A5
:102070002A082300DF00220028082300DF022200B4
:1020800029082300E03B22002D08A9002C08A80005
:102090005E28D701080022005708003A03190728D4
:1020A000013A03190F28033A03191D28492808008B
:1020B000D701D70A26001C08220008000430260099
:1020C0009E0008009E2800302702333003192602A4
:1020D000031C74283F08F8390538BF002300DC01D1
:1020E0002200A601A701B3282200A60A0319A70A05
:1020F000B328762690313F0CE4279031031D7428D5
:10210000B32876269031B328003027021030662895
:102110003F08F8390338BF002300DC01B3283F082B
:10212000F83906389C28BF1AB328BF166F08031960
:10213000B3283F08F8390438BF0070283F08073932
:10214000013A03198F28033A03198828013A031921
:102150008128073A03196328013A03197928033AB9
:1021600003198428932821006C08E50022003E1AF8
:10217000BD28CB28CE269031D4283E080F39FF3E0B
:10218000031CD4288400083004020318D4288031AA
:102190000435CC3E82003E166F0BCF28D028D428C1
:1021A000B2279031D801D701230058082200CA0075
:1021B0002100E61DFC28661EE9286608F839023869
:1021C000E600DE3022003402031803294127903153
:1021D0000329E61EF5286608F8390338E600323090
:1021E000220034020318E6280329661F0329660823
:1021F000F8390138E600E628E61522006F0B0329BE
:102200002100DC2790312100B10123005B08031974
:1022100010292200BB08031D10292100B101B10AB9
:1022200021003108B000E41C24295130230052025F
:10223000031C22292100E410E4152300D401D3015A
:10224000D5015429D20AC229641D29296411E41434
:10225000C229E41D3D29003023004A0248300319F9
:1022600049020318C2292100E41164162300D40195
:10227000D40AD301D30AD501C229641E4A290030E9
:1022800023004A02BA3003194902031CC229210063
:1022900064121C296418C229641422006F080319EF
:1022A000C229210064152300D201C2290030250271
:1022B000333003192402031C62293D08EB279031B7
:1022C000B801DB292200A40A0319A50ADB298B2601
:1022D00090313D0E0339033A031D6229DB290A3090
:1022E00038020318DB2922003D08F0390338BD000D
:1022F000BA01B901B90AA401A501DB298B269031E5
:10230000DB2900302502C93003192402031C8E2961
:102310003D08F0390738BD00B80ADB2921006908FB
:102320000319622922003D08F0390138BD00A401DB
:10233000A501BA01BA0AB901B90ADB292100E908E5
:1023400003197329003022002502023003192402E8
:102350000318922962292100E908031D622922003D
:102360003D08F0390438BD007B293D1BDB293D17B2
:102370006F080319DB293D08F0390638BD00A401B8
:10238000A501602922003D080F39013A0319AB2944
:10239000033A03199E29013A03196729073A0319D9
:1023A0008129013A03197E29033A03195629013A72
:1023B00003196F29B5292100B201B20AB008031D23
:1023C000F2292300DE08031DF229D508031DF22996
:1023D0002200BA08031DF2292300DC08031DF2299C
:1023E0002100B20121003208D30000302200EF08A2
:1023F000031D01302100CB002200221FF62A2100FC
:10240000D308031D0C2A4B080319DF2A0C2AA0014C
:10241000A101F830A205222A220022080739013A38
:102420000319092A033A0319092A013A0319072A49
:10243000073A0319092A013A0319092A033A031929
:10244000092A222A22130E2B210820040319792A93
:10245000A001A10122002208F8390238A200132BA2
:1024600003302102E93003192002031C402A22080C
:10247000F8390538BC2790312300D001D101132B46
:10248000F727903103195802031C4D2A01305902D5
:102490002D3003195802031C792A22002208F8392A
:1024A0000138A2002300D1012200A001A101132BB9
:1024B000003024004502653003194402031C682AD9
:1024C0002200D4279031D001D00AD101D10A132B98
:1024D000F727903103195802031C752A013059025D
:1024E0002D3003195802031C2A2A2400C40A031998
:1024F000C50A2200A00A0319A10A132B00302102E9
:102500000B3003192002031CC42A23004F080A3A87
:10251000031D962AF8302200A2052213231423005B
:102520001830D101D10AD001D00ABD2AF727903145
:1025300003195802031CA32A013059022D30031934
:102540005802031CAC2A2200D42790311830D00145
:10255000D00AD101D10ABD2A003022002102C9309F
:10256000031920022208031CC02AF8390538BC27A9
:10257000903123001830D001D1012200A204C62AD4
:10258000E7390838A200C62AE730A205220CE42762
:102590009031031D792A132B00302102C930031911
:1025A0002002031C792A2208F8390638A200A0016B
:1025B000A1012300D001D101D10ACF0A132B22009F
:1025C00022080739013A0319582A033A0319302A15
:1025D000013A0319242A073A0319CC2A013A0319AC
:1025E0002A2A033A03197E2A132B132BA21F052B29
:1025F0002100D308031D132B2200A2132217220847
:10260000F8390338BC279031132B231CA21A132B43
:10261000A21621004B080319132B2200A217230036
:10262000D001D101CF012100B301B30A2300DA08A0
:10263000031D202B2200BB08031D202B2100B3010A
:1026400021003308CD0022004D0803192E2B240051
:1026500065082100C200240064084A2B23005908A1
:102660000319392B24005F082100C20024005E08F2
:102670004A2B21004D080319442B24005D0821003A
:10268000C20024005C084A2B24005B082100C20021
:1026900024005A082100C1005908D0005808CF0072
:1026A0004108CF024208D03BE31CDE2B2200A227C8
:1026B00086314C2690312C082100C70020002D08BF
:1026C0002100C800C901CA014A08A3004908A200A4
:1026D0004808A1004708A00024006608FB3E21002E
:1026E000BB00FF302400673D2100BC00BD01BE01DE
:1026F0003E08C6003D08C5003C08C4003B08C300B6
:102700001F302000BA002100C637C50CC40CC30C12
:102710002000BA0B832B21003E08CA003D08C900E7
:102720003C08C8003B08C7004608FB279031031D42
:10273000A32B00304502031DA32B00304402031DD0
:10274000A32B013043020318C12BC61BBA2B4A0826
:102750002302031DB52B49082202031DB52B48088F
:102760002102031DB52B470820020030031C013055
:10277000AA00BB2BAA01AB012B08A9002A08A800BC
:10278000C42BA801A80AA901290828040319302C80
:10279000013059029030031958020318302C0030D0
:1027A0005902513003195802031C302CE3106315F1
:1027B00063162400C201C30121002F2C631D272CA6
:1027C000E31D631E302C2200A22786314C26903157
:1027D00024006608053E2000BA0000302400673D52
:1027E0002000BB002D083B02031DF82B2C083A02E9
:1027F000031C092C013021005902913003195802A1
:102800000318092C003059025030031958020318DC
:102810000D2C2100631263112E2C14306C0203184E
:10282000152C05306C020318092C073024004302D4
:10283000D13003194202031C232C21006312E3153B
:10284000E001E00A302CC20A0319C30A302C6318D5
:10285000302C631422006F0B302C2100E314E001B4
:102860002100E21C402C600803197F2CE210621545
:10287000E2152300B301B401CE01CE0ACD017F2CB5
:10288000621D732CE008031D4E2CE21D492CE21141
:102890004C2C621E4C2C62126211792CE21D662CAB
:1028A000013023003402913003193302031C622CDF
:1028B0002100E21162162300B301B401CE01CD0163
:1028C000CD0A7F2CB30A0319B40A7F2C621E7F2C19
:1028D000013023003402913003193302031C622CAF
:1028E00021006212382C62187F2C6214E008031D4C
:1028F0007F2CE2142300CD01CE01B301B4012300EB
:102900004E082200C700230053082200C400210003
:10291000611C952C23007C2790310318D32C2100B7
:10292000611061152200B601D32CE11CA92C2300F3
:102930007C27903103189F2C2100E110B92C6530C1
:1029400022003602031CA72C2100E110D02CB60A6D
:10295000D32C611DBE2C2300902790310318B32C7B
:1029600021006111D02C33303602031CA72C21002A
:102970006111E1152300D601D60AD32CE11DC92C23
:102980002300902790310318D32C2100E111E1148A
:10299000922C611AD32C611622006F0BD32C2100CC
:1029A00061142300D601230056082200C80023002A
:1029B00057082200CB0023005D082200CC00210034
:1029C000B401B40A2300D108031DF02C2200B90879
:1029D000031DF02C2300CD08031DF02C2100B401B1
:1029E000210034082200C900230054082200C50039
:1029F0002100B501B50AD308031D072D2300D00817
:102A0000031D072D2100E008031D072DB50121003E
:102A10003508CC00B601B60ACC08031D152D2200DE
:102A2000C608031D152D2100B60121003608CE0071
:102A300023006C060319262DEB08031D262D0130FB
:102A4000EA01E9003830E8008030E70021004C0856
:102A500003192C2DD1018C2D2200460803198E2D2F
:102A600021004D080319362DCA308B2D6C0820002B
:102A7000AC00E030CC279031A92690312E082100FF
:102A8000D50020002D082100D400E0302000AC004B
:102A90005F30CC279031A92690312C08BA002D0840
:102AA000BB002E08BC002F08BD000730BD36BC0C93
:102AB000BB0CBA0C890B562D3A082100D402200019
:102AC0003B082100D53BC830D4070318D50A550868
:102AD000803AFF0080307F02031D702DC930540200
:102AE0000318892D21005508803AFF0080307F02AD
:102AF000031D7C2D3C305402031C812D2100540801
:102B0000832D3C302100AC00AD012D08D2002C08F3
:102B1000E72DC8302100D100D201E82D200003307C
:102B2000AF01AE01AD002030AC0023006A082000E8
:102B3000B300230069082000B200230068082000C9
:102B4000B100230067082000B0009931A82190311E
:102B50002D082100D70020002C082100D6002200DB
:102B600052082000AC00AD01C32786314C269031BD
:102B70002C082100D60720002D082100D73D57083A
:102B8000803AFF0080307F02031DC82D01305602BD
:102B9000031CD22D003021005702CB3003195602FE
:102BA0000318342D2100D71BE12D003057022830A7
:102BB00003195602031CE12D5708AF005608AE005A
:102BC000E42D2830AE00AF012F08D2002E08D1002E
:102BD00052082000BB00210051082000BA00BB367B
:102BE000BA0C3A082200E30021004E082300EC0052
:102BF000240063082000AD00240062082000AC001F
:102C0000C32786314C2690312C08BA002D08BB0012
:102C1000BA35BB0DBA35BB0DBA35BB0D3A08BC0091
:102C20003B08BD000030BD1BFF30BE00BF003C08AC
:102C30002300E70720003D082300E83D20003E0870
:102C40002300E93D20003F082300EA3D6A08FB27F6
:102C50009031031D352E02306902031D352E773069
:102C60006802031D352E4130670203186D2E6A0875
:102C7000FB279031031D462E00306902031D462EAE
:102C80007D306802031D462E00306702031C582E5B
:102C90006A082100A700230069082100A60023007C
:102CA00068082100A500230067082100A4005E2E0B
:102CB00021007D30A701A601A500A401270823005B
:102CC000EA00210026082300E9002100250823004E
:102CD000E800210024082300732E0230EA01E900F5
:102CE0007730E8004030E700EB01080000302702B1
:102CF0000630031926023F08031C872EF8390338D3
:102D0000BF0023001830DC012200BF040800E739AF
:102D10000838BF0008002100690803199C2E220012
:102D20003D08F0390238BD00A401A501992EEB271A
:102D3000B8013030BD0408000030220025026530A3
:102D4000031924023D080318972ECF391038BD000F
:102D50000800B401B501B601B7012C1CB72E30082C
:102D6000B4073108B53D3208B63D3308B73DB0353C
:102D7000B10DB20DB30DAF36AE0CAD0CAC0C2F08CF
:102D80002E042D042C04031DAD2E3708AF00360889
:102D9000AE003508AD003408AC000800210065081D
:102DA0000319D62EC8306502031CE02E22003E080F
:102DB000F0390738F127D901D801D701D70A08001F
:102DC0008C3023004402A03003194302031CEF2E71
:102DD000AB304402E13003194302031C092F2200E7
:102DE0003E08F0390638F82E22003E08F039033844
:102DF000F1279031042F22003E08F0390838BE0038
:102E00002300DB01DB0ADA01D901D801D80AD70196
:102E10000800063021006502031CF42E093065020B
:102E2000031CFB2EC0306502031C1B2F22003E0832
:102E3000F0390438F82E17306502031C2A2F2200BF
:102E40003E08F0390238BE002300DB01D901DA0167
:102E5000D801072F14306502031C392F22003E08C9
:102E6000F0390538BE002300DB01DA01D901D90AA7
:102E7000282F14306502031808002200B227903171
:102E8000282FE7302200340203184D2F672F6612D7
:102E9000572FE612572F6613572F21006608073960
:102EA000023A0319472F013A0319492F4B2F66168F
:102EB0002300DE01DE0A2200BB012300DD01DD0A62
:102EC00008006612712FE612712F6613712F210010
:102ED00066080739023A0319612F013A0319632F73
:102EE000652F2D30220034020318792F2100E616B9
:102EF000582F2100DC2708006D08FE3E2000BA0094
:102F0000FF3023006E3D2000BB002200310820006E
:102F10003B02031D08002200300820003A0208008E
:102F20006D08023E2000BA00003023006E3D2000F4
:102F3000BB0022003102031D080020003A082200D5
:102F40003002080031082000AD00220030082000C7
:102F5000AC00210059082000AF00210058082000D3
:102F6000AE0008003E08F0390138BE002300DB0146
:102F7000DB0ADA01D9010800A200A001A1012400A6
:102F8000C401C5010800210050082000AF00210045
:102F90004F082000AE000800AD01AE01AF01B00047
:102FA000B101B201B30108002208F8390438A200C7
:102FB000A001A1012300080066172300DE01220002
:102FC000BB012300DD0108002000BA00BA0C3A0C56
:102FD0000339033A0800F0390538BD00BA01B901D8
:102FE0000800BE002300DB01DA01DA0A0800003025
:102FF000210059020534803AFF0080307F0208002A
:10300000FF3FFF3FFF3FFF3FFF3FFF3FFF3FFF3FD0
:10301000FF3FFF3FFF3FFF3FFF3FFF3FFF3FFF3FC0
:10302000FF3FFF3FFF3FFF3FFF3FFF3FFF3FFF3FB0
:10303000FF3FFF3FFF3FFF3FFF3FFF3FFF3FFF3FA0
:10335000B501AF1FB829AC09AD09AE09AF09AC0A78
:103360000319AD0A0319AE0A0319AF0AB501B50A6C
:10337000B31FC729B009B109B209B309B00A0319CB
:10338000B10A0319B20A0319B30A0130B506B6012E
:10339000B701B801B9012F082E042D042C0403191C
:1033A000FD29B401B40AAF1BDA29AC35AD0DAE0D61
:1033B000AF0DD229B635B70DB80DB90D2F083302B0
:1033C000031DEC292E083202031DEC292D083102C1
:1033D000031DEC292C083002031CF7292C08B0022D
:1033E0002D08B13B2E08B23B2F08B33B3614AF3645
:1033F000AE0CAD0CAC0CB40BDA29350803190B2A52
:10340000B609B709B809B909B60A0319B70A031901
:10341000B80A0319B90A3908AF003808AE003708EE
:10342000AD003608AC000800003021005F020A3011
:1034300003195E0203181F2ADE0A0319DF0A22009D
:103440003735A03E86000130870020004A08C03F83
:103450004B08C13F22000730B70AB705AE308600DF
:10346000AC308400013085002300240822072000AE
:10347000B20023002508233D2000B30023002608C6
:1034800020003207B400230027082000333DB50098
:103490002300280820003407B60023002908200054
:1034A000353DB70023002A0820003607B800230066
:1034B0002B082000373DB900003F3807BA00013F14
:1034C000393DBB00403F3A07BC00413F3B3DBD009A
:1034D0002300200820003C072200B200230021081E
:1034E00020003D3D2200B30020004B082300CC000B
:1034F00020004A082300CB002000CE122200E60163
:10350000E60A2000CE17CE1DF52A23004C08200025
:10351000AD0023004B082000AC006430AD36AC0C8D
:10352000AD36AC0CAD36AC0CAE00AF0186314C26DE
:103530009A312D082100DD0020002C082100DC003C
:103540000730DD36DC0C890BA12A20004B08210056
:103550005D02031DAF2A20004A0821005C02031807
:10356000BD2A2000F0239A3121005C082400D002FB
:1035700021005D082400D13BD42A2400D001D101D0
:10358000D42AA630D02AF4302200AE000130AF0099
:10359000E42A7D30D02A5330D02A2930D02A213055
:1035A0002200AE00AF01E42A21005F08003A0319AF
:1035B000DA2ACF2A5E0884000A3004020318CF2AD0
:1035C00080310435903E820000302F0221300319F3
:1035D0002E020318EE2A2130AE00AF0120004E1E4D
:1035E0002A2B0A302200D8002A2B571CFB2A240041
:1035F000D001D101FF2AF0239A31D136D00C2130ED
:10360000D001D1012200AE00AF0120004E1F282BB7
:10361000250011082000530603192A2B2500110844
:103620002000530203181E2B2500910311082000CF
:10363000530203182A2B250091032A2B2500910AF7
:10364000200053082500110203182A2B910A2A2B67
:10365000250091012000CA01CB0121006A08FF3A30
:10366000031DD52B0630EA00D52B0130250096002E
:1036700020004E1F3E2B220002249A3122000930E6
:103680000D118D10D1002530DC01DC0ADD00023087
:1036900092008430910020000630B32B01302500C9
:1036A000960020004E1F572B2200F8239A3122004B
:1036B00009300D158D10D1000530DC01DC0ADD006C
:1036C0000130920094309100200057102100EA014F
:1036D000EA0AE92B02302500960020004E1F732BCA
:1036E0002200FD239A31220035300E118D10D100B9
:1036F0000530DC00DD01DD0A9201843091002000FC
:103700000230B32B02302500960020004E1F8B2B79
:10371000220002249A31220035300E118D14D1007E
:103720000530DC002530DD0002309200943091003D
:1037300020000330CC2B04302500960020004E1FC3
:10374000A42B2200F8239A31220011300E110D1102
:10375000D1002530DC000530DD00013092008430DE
:103760009100200004305714CD2B04302500960022
:1037700020004E1FBE2B2200FD239A312200113063
:103780000E150D11D1002530DC00DD01DD0A92019E
:10379000943091002000053057102100EA00E92BF9
:1037A0002500960122009101642B6A08013A031951
:1037B000352B033A03194E2B013A03196A2B073AAA
:1037C0000319822B013A03199B2B033A0319B52BDA
:1037D000D02B28302200CE002000CA01CB010800E7
:1037E0004B082400D10020004A082400D000080023
:1037F0000E08E53912388E0008000E08E539183831
:103800008E0008000E08E5390A388E000800CA0A42
:103810000319CB0A4B0822002F02031D132C200092
:103820004A0822002E020318172CF1259C31003083
:1038300021005F020A3003195E02031C212C2000C4
:10384000CE11003021005F02033003195E02031C19
:103850002B2C20004E128731A7279C312200111FEC
:10386000332CCF01482DCF01CF0A482D2D30210018
:103870009D00AE259C3121009D14C7259C31710807
:103880002400D7007008D600313021009D00AE25FD
:103890009C3121009D142200E60A552D5D0821006F
:1038A0009D001B082000D50021001C082000D60028
:1038B0000000000000000000000000000000000008
:1038C00000000000000000000000000000000000F8
:1038D000472C21001B08DA001C08DB009D14200087
:1038E0004E1F872C53080319872C571C912C21003D
:1038F0005A08643EF70000305B3DF800200056088F
:103900007802031D852C550877020318552D2200D7
:10391000E60A5C0821009D00AE259C3121009D1423
:10392000552D003021005B021F3003195A02031885
:10393000872C552DCE01C7259C31D41CA92C2200E3
:10394000510821009D00AE259C31210009309D14B5
:10395000452D753021009D00AE259C314B2C21005A
:103960009D14C7259C3122005108452CC7259C3148
:103970007108CD007008CC004E1B202D172D2300A0
:103980003008CF279C310318D92C4D08F1004C0882
:10399000F00023003008F002031CF1032200680845
:1039A000F3006708F200DC259C3171082300BD009C
:1039B000DB2C2300BD01BE012C2D23003108CF27B5
:1039C0009C310318F72C4D08F1004C08F00023003F
:1039D0003108F002031CF10322006A08F3006908B1
:1039E000F200DC259C3171082400D200F92C24005F
:1039F000D201D3012C2D23003208CF279C3103188C
:103A0000152D4D08F1004C08F00023003208F0029B
:103A1000031CF10322006C08F3006B08F200DC25A4
:103A20009C3171082400D4001E2D24001D2D23007C
:103A3000BD01BE012400D201D301D401D5012C2D3A
:103A400022005108093A0319BF2C183A0319FB2C1C
:103A5000243A0319DD2C172D013020004D0255307A
:103A600003194C02031C382DE5304E1422008E053C
:103A7000AE259C3121009D142000D41C4B2C7530A8
:103A800021009D00AE259C3105302200E600552D19
:103A90006608FF3E031C552D84000A3004020318FB
:103AA000552D80310435A43E820020004E1F8D2DFF
:103AB000CE1D8F2D22004130CD01CD0A2400E4001F
:103AC000E50120004A080339031D8F2D4E1E7D2D70
:103AD000560855040319812D5608F1005508F000C9
:103AE0008030F2003E30F300D9279C317008F90095
:103AF0007108FA00FB01FC01812D56085504031DD5
:103B00006C2D2200580879020318882DD803892DBE
:103B1000D80A5808250091008F2D25009101220018
:103B2000CE08031DAC2D4F0803199A2D2000CE1A84
:103B30009A2DCE162000CE1E0800240051085004F5
:103B4000031DA72D2000CE190800F1250800FF3025
:103B5000D007031CD1030800CE03080000000000BA
:103B60000000000000000000000000000000000055
:103B70000000000000000000000000000000000045
:103B80000000000000000000000000000800F2013A
:103B900021009D1CD02D4130F20A7202031CC82D59
:103BA0001C082000C90021001B082000C80049088B
:103BB000F1004808F0000800F401F501701CE42D44
:103BC0007208F4077308F53DF235F30DF136F00C89
:103BD00071087004031DDE2D7508F1007408F000F3
:103BE0000800003021005F020A3003195E0203184A
:103BF000FC2DDE0A0319DF0A22003735A03E8600BD
:103C00000130870020004A08C03F4B08C13F220016
:103C10000730B70AB705AE308600AC3084000130FB
:103C200085002300240822072000A0002300250887
:103C3000233D2000A1002300260820002007A20029
:103C4000230027082000213DA3002300280820008E
:103C50002207A400230029082000233DA5002300FB
:103C60002A0820002407A60023002B082000253D59
:103C7000A700003F2607A800013F273DA900403FBD
:103C80002807AA00413F293DAB002300200820005F
:103C90002A072200B2002300210820002B3D220029
:103CA000B30020004B082300CC0020004A0823006A
:103CB000CB002000CE122200E601E60A2000CE173B
:103CC000CE1DCD2E23004C08F1004B08F0006430CF
:103CD000F136F00CF136F00CF136F00CF200F30195
:103CE000DC259C3171082100DD007008DC00073004
:103CF000DD36DC0C890B782E20004B0821005D029C
:103D0000031D862E20004A0821005C020318952E10
:103D100020009B31F0239C3121005C082400D0025C
:103D200021005D082400D13BAC2E2400D001D1013C
:103D3000AC2EA630A82EF4302200AE000130AF0029
:103D4000BC2E7D30A82E5330A82E2930A82E21302D
:103D50002200AE00AF01BC2E21005F08003A03191B
:103D6000B22EA72E5E0884000A3004020318A72E84
:103D700080310435B83E820000302F022130031913
:103D80002E020318C62E2130AE00AF0120004E1EB9
:103D9000032F0A302200D800032F571CD32E2400F3
:103DA000D001D101D82E9B31F0239C31D136D00CDB
:103DB0002130D001D1012200AE00AF0120004E1F02
:103DC000012F25001108200053060319032F250099
:103DD0001108200053020318F72E25009103110843
:103DE000200053020318032F25009103032F250001
:103DF000910A20005308250011020318032F910A8D
:103E0000032F250091012000CA01CB0121006A087F
:103E1000FF3A031DB42F0630EA00B42F013025000D
:103E2000960020004E1F182F22009C3102249C3146
:103E3000220009300D118D10D1002530DC01DC0A83
:103E4000DD00023092008430910020000630912F76
:103E500001302500960020004E1F322F22009B319A
:103E6000F8239C31220009300D158D10D10005304A
:103E7000DC01DC0ADD00013092009430910020006A
:103E800057102100EA01EA0AC82F023025009600E7
:103E900020004E1F4F2F22009B31FD239C3122001A
:103EA00035300E118D10D1000530DC00DD01DD0A4A
:103EB00092018430910020000230912F02302500C1
:103EC000960020004E1F682F22009C3102249C3156
:103ED000220035300E118D14D1000530DC00253064
:103EE000DD00023092009430910020000330AB2FAF
:103EF00004302500960020004E1F822F22009B31A7
:103F0000F8239C31220011300E110D11D100253003
:103F1000DC000530DD00013092008430910020008B
:103F200004305714AC2F04302500960020004E1F9B
:103F30009D2F22009B31FD239C31220011300E1554
:103F40000D11D1002530DC00DD01DD0A9201943035
:103F500091002000053057102100EA00C82F2500ED
:103F60009601220091013F2F6A08013A03190E2F92
:103F7000033A0319282F013A0319452F073A031969
:103F80005E2F013A0319782F033A0319932FAF2FAD
:103F900028302200CE002000CA01CB010800F70023
:103FA000F80120004D087802031D08004C08770234
:103FB0000800F501F601710870040319F92FF401E6
:103FC000F40AF11BE62FF035F10DE02FF535F60D73
:103FD00071087302031DEE2F70087202031CF52F87
:103FE0007008F2027108F33B7514F136F00CF40B13
:103FF000E62F7608F1007508F0000800AA00B1006D
:020000040001F9
:04000E00BCFFFFDB59
:00000001FF
