:1000000080312928FF3FFF3F803120001118111057
:10001000931C1128931088310920803188310620E3
:1000200080312000911C18289110943109248031CE
:100030002000931D1F2893119C3110248031200033
:10004000131F252813139B31B523200012181210FB
:10005000090088019B31792B00346E346E346E3484
:100060000034003400340034003400340034D3341D
:10007000D334D334D034CE34CC34C934C734C5347B
:10008000C334C134BF34BD34BB34BA34B834B634ED
:10009000B434B234B134AF34AD34AC34AA34A9344E
:1000A000A734A634A434A334A234A0349F349D349E
:1000B0009C349B349A3498349734963495349434E1
:1000C0009234913490348F348E348D348C348B341C
:1000D0008A3489348834873486348534843483344C
:1000E0008234813480347F347F347E347D347C3478
:1000F0007B347A347A34793478347734773476349C
:1001000075347434743473347234723471347034BA
:1001100070346F346E346E346E346E346E346E34CC
:100120006E346E349E31AC2E9E31AE2E9E31B42E86
:100130009E31B62E9E31B82E9E31BA2E9E31BA2EE9
:100140009E31BA2E9E31BA2E9E31BA2E9431382C61
:100150009431502C94316B2C9431FA2C95312B2DF9
:1001600094314D2C94314D2C94314D2C95313A2DA8
:100170009531512D9631952E9631972E96319D2E93
:1001800096319F2E9631A12E9631A32E9631A32E15
:100190009631A32E9631A32E9631A32E8131372985
:1001A0008131372981313729813137298131372907
:1001B0008131372981313729813137291A29003096
:1001C00022002602333003192502031CF2282100E5
:1001D0004B08F8390538CB002200C8012200A501E0
:1001E000A6012F292200A50A0319A60A2F291A26DB
:1001F00080314B0CBC278031031DF2282F291A2691
:1002000080312F290030220026021030E328E22717
:100210008031C8012F294B08F83906381829CB1A24
:100220002F29CB166F0803192F294B08F8390438EA
:10023000CB00EE284B080739013A03190B29033A82
:1002400003190729013A0319FF28073A0319DF2880
:10025000013A0319F728033A031902290F2921004B
:100260005D082000D60021004A1A3A29482978263C
:10027000803151294A080F39FF3E031C512984005F
:10028000083004020318512980310435CE3E820023
:100290004A166F0B4C294D295129AB278031C401D7
:1002A000C30122004408D1002100CD1D82294D1E2A
:1002B00064294D08F8390338CD00DE3040020318B8
:1002C00088295D2780318829CD1E6F294D08F8398E
:1002D0000438CD00323040020318612988294D1FAF
:1002E00076294D08F8390138CD006129CD1F8829BC
:1002F0004D08F8390238CD00433040020318612917
:100300002D305E29CD156F0B88294D17D4278031EC
:100310002400A90122004708031995292100C708D4
:10032000031D95292400A901A90A24002908A80071
:100330002100CC1CAF2900303902483003193802A3
:100340000318542A013039022C30031938020318DB
:10035000542ACC10CC152200C901C90A542A4C1DBC
:10036000C32900303902BA3003193802031C542A59
:10037000013039022C30031938020318542A4C1169
:10038000EB268031542ACC1DEC2900303902BA30DA
:1003900003193802031CD529013039022C30031906
:1003A00038020318D529CC11C02900303902483051
:1003B000031938020318542A013039022C3003196A
:1003C00038020318542ACC114C152200CA01CA0A5B
:1003D000C901C90ACB01542A4C18542A4C146F0B7A
:1003E000542AC0290030220024023330031923028A
:1003F000031C002A2100EE278031C201C1016A2AB4
:100400002200A30A0319A40A6A2A2F268031490C64
:10041000BC278031031D002A6A2A2F2680316A2AD0
:10042000003022002402C93003192302031C252AAC
:1004300021004908F8390338C9002200C201C1016E
:10044000C10A2200A301A4016A2A21005708031946
:10045000002A21004908F8390138C9002200A30107
:10046000A401C201C20AC101C10A6A2AD70803193C
:10047000182A003022002402023003192302031834
:10048000292A002AD708031D002A4908F839043808
:10049000522AC91A6A2AC9166F0803196A2A490812
:1004A000F8390638C900212A210049080739013ADC
:1004B0000319422A033A0319362A013A0319052A75
:1004C000073A0319102A013A03190D2A033A0319AE
:1004D000F229492A2400AA01AA0AA808031D7F2A92
:1004E0002200CD08031D7F2ACB08031D7F2AC208E6
:1004F000031D7F2AC808031D7F2A2400AA012400A7
:100500002A08BB0000302100EF08031D0130240041
:10051000B3002100451F722B2400BB08031D992A3C
:10052000330803195B2B992AA001A101F830C505F6
:10053000AF2A210045080739013A0319962A033AE0
:100540000319962A013A0319942A073A0319962A9D
:10055000013A0319962A033A0319962AAF2A45133A
:10056000C517C92A210820040319092BA001A101DC
:100570004508F8390238C5008A2B03302102E930DA
:1005800003192002031CCD2A4508F8390538B52780
:1005900080312200BE01BF018A2B003033020530BA
:1005A00003193202031CDB2A013033022D300319F8
:1005B0003202031C092B4508F8390138C500220016
:1005C000BF012100A001A1018A2B003023004502B8
:1005D000653003194402031CF62A21004508DB2775
:1005E0008031BE01BE0ABF01BF0A8A2B0030210044
:1005F0003302053003193202031C052B013033028C
:100600002D3003193202031CB82A2300C40A03192F
:10061000C50A2100A00A0319A10A8A2B0030210271
:100620000B3003192002031C432B0030330205302A
:1006300003193202031C232B013033022D3003191E
:100640003202031C2C2B4508DB2780311830BE01F9
:10065000BE0ABF01BF0A3C2B00302102C93003197A
:1006600020024508031C3F2BF8390538B527803197
:1006700022001830BE01BF012100C504452BE73917
:100680000838C500452BE730C505450CBC2780312F
:10069000031D092B8A2B00302102C93003192002C7
:1006A000031C092B4508F8390638C500A001A10133
:1006B0002200BE01F32A210045080739013A031937
:1006C000E52A033A0319BD2A013A0319B22A073A67
:1006D00003194B2B013A0319B82A033A03190E2BBD
:1006E0008A2B8A2BC51F812B2400BB08031D8A2B54
:1006F0002100C51345174508F8390338B52780315F
:100700008A2BC51A8A2BC5162400330803198A2B95
:100710002100B02A2400AB01AB0A2200C608031D49
:10072000972B2100C708031D972B2400AB01240041
:100730002B08B500220054080319A52B23006508D7
:100740002400B20023006408C02B45080319AF2B16
:1007500023005F082400B20023005E08C02B2400A1
:1007600035080319BA2B23005D082400B2002300CA
:100770005C08C02B23005B082400B20023005A0849
:100780002400B100210033082400B8002100320801
:100790002400B7003108B7023208B83B2100C41C5E
:1007A000E52B37089C2792319B22803121302D0286
:1007B000B83003192C020318322C2100C410441540
:1007C00044162300C201C301302C441D2A2C1430CE
:1007D0005D020318F62B05305D02031CF62BC419CD
:1007E000052C441EF42B441244112F2CC41D072C3D
:1007F00037089C2792319B22803121302D026530B1
:1008000003192C02031C322C2100C411F42B441EAA
:10081000322C37089C2792319B22803121302D02C7
:10082000653003192C02031C172C2100F32B073011
:1008300023004302D13003194202031C262C21005D
:100840004412C4152200BD01BD0A322CC20A03198C
:10085000C30A322C4418322C44146F0B322CC414AB
:100860002200BD0122003D082100D40022004908D9
:100870002100D200431E472C00303702B930031943
:100880003602031C832C4312C314C201832C431C65
:100890005A2C00303702B93003193602031C522C8F
:1008A00043106A2C65304202031C582C4310802CE4
:1008B000C20A832CC31C6F2C00303702B8300319D6
:1008C00036020318652CC310802C33304202031CFF
:1008D000582CC31043152200C001C00A832C431DAD
:1008E0007B2C00303702B830031936020318832CF2
:1008F00043114314452CC319832CC3156F0B832C50
:1009000043162200C001220040082100D500220029
:100910004308D2004C08D3002400AC01AC0A2200EA
:10092000BF08031D982CC108031D982C2400AC019E
:1009300024002C082100D60022004A08D000240000
:10094000AD01AD0ABB08031DAB2C2200BE08031D80
:10095000AB2C2400AD0124002D08B400AE01AE0A7A
:10096000B408031DB92C2100D308031DB92C2400A1
:10097000AE0124002E08B60022006E060319CA2C10
:10098000ED08031DCA2C0130E601E5003830E40013
:100990008030E300240034080319D02CB901312D34
:1009A000210053080319332D240035080319DA2CCC
:1009B000CA30302D21005D082000AC00E030CC278B
:1009C0008031532680312E082400BD0020002D08E0
:1009D0002400BC00E0302000AC005F30CC27803128
:1009E000532680312C08BA002D08BB002E08BC000D
:1009F0002F08BD000730BD36BC0CBB0CBA0C890BF0
:100A0000FB2C3A082400BC0220003B082400BD3B1C
:100A1000C830BC070318BD0A3D08803AFF0080308B
:100A20007F02031D152DC9303C0203182E2D240012
:100A30003D08803AFF0080307F02031D212D3C30AD
:100A40003C02031C262D24003C08282D3C302400A9
:100A5000A400A5012508BA0024088B2DC830240065
:100A6000B900BA018C2D20000330AF01AE01AD00FA
:100A70002030AC00220066082000B3002200650888
:100A80002000B200220064082000B10022006308A8
:100A90002000B000F12680312D082400BF00200086
:100AA0002C082400BE0021005B082000AC00AD0132
:100AB000C32792319B2280312C082400BE072000DE
:100AC0002D082400BF3D3F08803AFF0080307F02A0
:100AD000031D6C2D01303E02031C762D00302400D6
:100AE0003F02CB3003193E020318D82C2400BF1B51
:100AF000852D00303F02283003193E02031C852D4E
:100B00003F08A7003E08A600882D2830A600A701B0
:100B10002708BA002608B9003A082000BB002400C4
:100B200039082000BA00BB36BA0C3A082100E500AB
:100B3000240036082200EE00230063082000AD00E8
:100B4000230062082000AC00C32792319B22803131
:100B50002C08BA002D08BB00BA35BB0DBA35BB0D49
:100B6000BA35BB0D3A08BC003B08BD000030BD1BC8
:100B7000FF30BE00BF003C082200E30720003D0814
:100B80002200E43D20003E082200E53D20003F0811
:100B90002200E63D6608F4278031031DD92D02307E
:100BA0006502031DD92D77306402031DD92D413014
:100BB00063020318112E6608F4278031031DEA2D05
:100BC00000306502031DEA2D7D306402031DEA2D0D
:100BD00000306302031CFC2D66082400A3002200E1
:100BE00065082400A200220064082400A10022005D
:100BF00063082400A000022E24007D30A301A2017E
:100C0000A100A00123082200E600240022082200FF
:100C1000E500240021082200E4002400200822002E
:100C2000172E0230E601E5007730E4004030E300A3
:100C3000ED010800003022002602063003192502CB
:100C4000031C292E2100E2271830C8012100CB0403
:100C5000080021004B08E7390838CB000800570886
:100C600003193D2E4908F8390238C900220018300E
:100C7000A301A4012100C9040800003022002402BD
:100C8000653003192302031C4D2E2100EE27183076
:100C9000C201C1012100C904080021004908E73947
:100CA0000838C9000800B401B501B601B7012C1C11
:100CB000612E3008B4073108B53D3208B63D33081F
:100CC000B73DB035B10DB20DB30DAF36AE0CAD0CB6
:100CD000AC0C2F082E042D042C04031D572E3708AE
:100CE000AF003608AE003508AD003408AC0008008F
:100CF000200056080319802EC8305602031C8A2E85
:100D000021004A08F0390738E827C501C401C301AA
:100D1000C30A08008C3022003202A03003193102CD
:100D2000031C992EAB303202E13003193102031C4F
:100D3000B32E21004A08F0390638A22E21004A08B5
:100D4000F0390338E8278031AE2E21004A08F03907
:100D50000838CA002200C701C70AC601C501C4017C
:100D6000C40AC3010800063020005602031C9E2E50
:100D700009305602031CA52EC0305602031CC52E96
:100D800021004A08F0390438A22E17305602031CFD
:100D9000D42E21004A08F0390238CA002200C701C7
:100DA000C501C601C401B12E14305602031CE32E46
:100DB00021004A08F0390538CA002200C701C601DF
:100DC000C501C50AD22E14305602031808002100AE
:100DD000AB278031D22ECC142200CA01C901CB012D
:100DE0000800B501AF1F012FAC09AD09AE09AF096D
:100DF000AC0A0319AD0A0319AE0A0319AF0AB5010B
:100E0000B50AB31F102FB009B109B209B309B00A6E
:100E10000319B10A0319B20A0319B30A0130B5065E
:100E2000B601B701B801B9012F082E042D042C0416
:100E30000319462FB401B40AAF1B232FAC35AD0DF7
:100E4000AE0DAF0D1B2FB635B70DB80DB90D2F0870
:100E50003302031D352F2E083202031D352F2D08B6
:100E60003102031D352F2C083002031C402F2C08A3
:100E7000B0022D08B13B2E08B23B2F08B33B36140D
:100E8000AF36AE0CAD0CAC0CB40B232F35080319E8
:100E9000542FB609B709B809B909B60A0319B70A30
:100EA0000319B80A0319B90A3908AF003808AE00A7
:100EB0003708AD003608AC000800E7304002031CDC
:100EC000702F862780314D16672F8627CD1622007A
:100ED000CD01CD0A2100C7012200CC01CC0A0800B7
:100EE0002D304002031C652F862780313F304002A1
:100EF0000318832FCD172200CD012100C701C70A97
:100F00002200CC0108004D17D42708008F2F4D1266
:100F10000800CD120800CD1308004D1308004D083D
:100F20000739023A03198B2F013A0319872F073A21
:100F30000319892F8D2F08002000AD0021003608ED
:100F40002000AC00210033082000AF00210032084F
:100F50002000AE0008004A08F0390138CA0022001B
:100F6000C701C70AC601C5010800C500A001A1014B
:100F70002300C401C50108002000BA00BA0C3A0CD5
:100F80000339033A0800240038082000AF00240089
:100F900037082000AE000800AD01AE01AF01B0007F
:100FA000B101B201B30108002200CD012100C70147
:100FB0002200CC010800F8390438C500A001A101C5
:100FC000220008004B08F8390338CB002200080043
:100FD000CA002200C701C601C60A08004908F8393C
:100FE0000538C90022000800803AFF0080307F02E7
:100FF0000800640080010131890BFA2F0034FF3FA3
:10100000FF3FFF3FFF3FFF3FFF3FFF3F2100E20A5F
:10101000080021006430DC0A5C02031C1328DC0198
:1010200022000E1008005F085C02031C080022006A
:101030000E140800813021009500EF01EF0A8B1398
:101040008B019101920193012200DA01DB01210061
:10105000E101C520883190208831AB208831D6202D
:1010600088310130492088310430492088310630E8
:10107000492088310530DC208831872088313221B1
:1010800088313721883152218831E8210B178B179D
:1010900008002000AD007528003092317A228B12B2
:1010A0000800013092317A2275302000980021002A
:1010B00011100800023092317A22073020009C0083
:1010C000210091100800043092317A220E3028005D
:1010D0009700210093140800063092317A220530DF
:1010E00028009E002100931508002D08003A0319DE
:1010F0004C28013A03195128033A03195A28063A91
:1011000003196328023A03196C2886280800A030C6
:1011100021009E009D0130301D142200970408001C
:1011200020008E12AC019628000000002000AC0BBD
:1011300094288E16AD019E28000000002000AD0B03
:101140009C288E12AE01A628000000002000AE0BE5
:10115000A4288E1608009F3023009B0001309C00BD
:1011600026309E0090309D0048309F002100910164
:10117000230027309C31FC242200CF012000D8011D
:101180002100D1012000D8150800273023008C0051
:1011900029308D0022008C018D018E017F302100CD
:1011A0008C0039308D0080308E000800F030210036
:1011B00099001130970008002000AC002100DE01EA
:1011C0002200D8011F2925009301910192012100DD
:1011D000111520000530111125009300080025008D
:1011E0009A01980199012100121420000530121073
:1011F00025009A0008002600930191019201210028
:101200001316200005301312260093000800260054
:101210009A0198019901210093162000053093123C
:1012200026009A00080026009E019C019D012100D5
:10123000131720000530131326009E00080020001D
:101240002C08013A0319E328033A0319EF28013A5D
:101250000319FB28073A03190729013A031913292F
:101260003129080021000B30E6019231D22AE70132
:10127000083067020318080031309D00FC268831D1
:10128000D02188312D08DE002C08DD0021006735D3
:10129000403E8600023087005E30C03F0130C13FD3
:1012A000E70A382903307126883100380330031DDE
:1012B0005F2971268831FF3A031986290330712688
:1012C0008831AF000230712688312200E80020000A
:1012D0002F082200E700053071268831AF00043066
:1012E000712688312200EA0020002F082200E90040
:1012F000073071268831AF00063071268831220010
:10130000EC0020002F082200EB008E292200013083
:10131000E701E800E901EA00EB01EC001A300E11E8
:101320000D118D108E04FC268831FC268831093081
:1013300021009D00FC26883121009D14D021883198
:101340002D082100AB0020002C082100AA002A084B
:101350002200A000353021009D00FC2688312100AC
:101360009D14D02188312D082100AD0020002C08CB
:101370002100AC002C082200A100113021009D00AA
:10138000FC26883121009D14D0212D082100AF00BA
:1013900020002C082100AE002E082200A200080028
:1013A0002000AE0121009D1CDB2920004130AE0A47
:1013B0002E02031CD22921001C082000D10021008C
:1013C0001B082000D0005108AD005008AC000800F8
:1013D0002500960180302200910092012100873083
:1013E00092122500940095010C3093009101210088
:1013F0000430121025009A00FF30980099006430E4
:1014000020009B0005309C0028302100D900911459
:101410002000D7019331D12B210064083B3A031DF2
:101420006C2E20005B08E0005B08803A03193D2A1F
:10143000103A03194D2A013A0319C02A033A031935
:10144000FA2A013A0319562B073A0319B92B013A24
:101450000319E12B033A0319552C013A03199E2C69
:101460000F3A0319EA2C073A0319EB2D3F3A0319F7
:10147000FA2D5A3A0319552E672E6008803A031D3B
:1014800008009030E00022003A30D501D50A200053
:10149000B7008030C82788317C2E6008903A031D41
:1014A0000800912AF03071268831CC00F130712685
:1014B0008831CD00F23071268831CE00F3307126AC
:1014C0008831CF000230CB01CA012200D5009A2A10
:1014D000EB3071268831CC00EC3071268831CD009C
:1014E000ED3071268831CE00EE3071268831CF0084
:1014F000EF3071268831CB009130CA01E0009A2A82
:10150000FF302000DA002200DD00DE00DF00E00016
:101510007F302000B7009030712788317C268831D9
:101520009A2A22005508013A0319522A033A03194C
:10153000682A802A20004C08FF3A0319BA2A4D086D
:10154000FF3A0319BA2A4E08FF3A0319BA2A4F087C
:10155000FF3A0319BA2A4B08FF3A0319BA2A4A0874
:10156000FF3A0319BA2A3A30832788314A08BE0065
:1015700010307C2E7F30B7009030712788317C2E60
:101580006008913A031D0800F43071268831CC00C0
:10159000F53071268831CD00F63071268831CE00C5
:1015A000F73071268831CF00F83071268831CB00B2
:1015B0004C08FF3A031DF22A4D08FF3A031DF22A98
:1015C0004E08FF3A031DF22A4F08FF3A031DF22A84
:1015D0004B08FF3A031DF22A3A3083278831103036
:1015E000BE01F52A7F30462788317C2692302000C4
:1015F000E00008006008923A031D08002830C0008F
:101600000230C1002100220820004002C200210057
:1016100023082000413BC300B3000030BF268831BF
:1016200021002208283C2000B3000130BF26883169
:10163000013071268831C0000030712688312200C7
:10164000B400200040082200B3002100220720003F
:10165000C000220034082100233D2000C100C13613
:10166000C00CC136C00C4008CC0022003408200059
:10167000C10022003308DA278831CD004C088A3AAD
:10168000031D4E2B3A30B7005B08B8004C08B90078
:101690004D08BA001030FB278831512B7F30462788
:1016A00088317C2693302000E00008006008933ADF
:1016B000031D0800182788312D082200AC002000E7
:1016C0002C082200AB00FF302300F52788311514C9
:1016D0000000000023001408BB001308BA00FE300D
:1016E000F527883115140000000023001408BD0000
:1016F0001308BC000430B83E8600013087003A0869
:101700002000C100C001403F40072300B800413F16
:101710002000413D2300B90038082000CE002200FF
:101720002B082000CF0022002C0823003906031DBF
:101730009D2B22002B0823003806031DB02B3A30C6
:101740002000B7005B08B8000830B9000330BA00C9
:101750004E08BB004F08BC001030BD01BE01B42BC9
:101760007F302000462788317C2694302000E0001E
:1017700008006008943A031D080022003808200081
:10178000C10022003708DA278831CC006D304C02C6
:10179000031CD92B72304C020318D92B3A30B700F6
:1017A0005B08B8004C08B9001030BA01FB2788313B
:1017B000DC2B7F30462788317C2695302000E000E6
:1017C00008006008953A031D502C92316C22883134
:1017D00022001A300E110D118D108E04FC26883156
:1017E000FC268831093021009D00FC26883121002B
:1017F0009D14D02188312D08C5002C08C400353037
:1018000021009D00FC26883121009D14D0218831C3
:10181000113021009D00FC26883121009D14D0212B
:101820008831FC268831D1278831D72688312D0888
:10183000B3000230BF268831D1278831D7268831BE
:101840002C08B3000330BF2688310330712688315D
:10185000C000023071262200E8002000400822006B
:10186000E70020004508AD004408AC0022006808ED
:101870002000AF00220067082000AE0092319B22BA
:1018800088312D08CD00220068082000CF002200FA
:101890006708B72788317C2696302000E0000800D2
:1018A0007A278831462788317C2E6008963A031DB6
:1018B000992C4708EE278831D72688312D08B300A8
:1018C0000430BF26883120004708EE278831D7260C
:1018D00088312C08B3000530BF26883105307126C9
:1018E0008831C000043071262200EA002000400840
:1018F0002200E90020004708AD004608AC002200A5
:101900006A082000AF00220069082000AE00923172
:101910009B2288312D08CD0022006A082000CF00CC
:1019200022006908B72788317C2697302000E00024
:1019300008007A278831462788317C2E6008973A3C
:10194000031DE52C4908E7278831D72688312D0863
:10195000B3000630BF26883120004908E7278831C8
:10196000D72688312C08B3000730BF2688310730CE
:1019700071268831C000063071262200EC0020005C
:1019800040082200EB0020004908AD004808AC00E8
:1019900022006C082000AF0022006B082000AE007F
:1019A00092319B2288312D08CD0022006C08200046
:1019B000CF0022006B08B72788317C2698302000A2
:1019C000E0002100E801E80A08007A27883146276C
:1019D00088317C2E6008983A031D08005A08013AA5
:1019E0000319052D033A0319252D013A0319452D35
:1019F000073A0319652D013A0319852D033A031996
:101A0000A52D013A0319C52DE62DE2278831031DC6
:101A100008005A08CC009231D7228831AD27803196
:101A20000A008D319F27883103181F2D2000612760
:101A3000883103181F2D3A3051278831212D9127E5
:101A400088317C260230E8000800E2278831031D37
:101A500008005A08CC009231D7228831AD27803156
:101A60000A008D319F27883103183F2D2000612700
:101A7000883103183F2D3A3051278831412D912765
:101A800088317C260330E8000800E2278831031DF6
:101A900008005A08CC009231D7228831AD27803116
:101AA0000A008D319F27883103185F2D20006127A0
:101AB000883103185F2D3A3051278831612D9127E5
:101AC00088317C260430E8000800E2278831031DB5
:101AD00008005A08CC009231D7228831AD278031D6
:101AE0000A008D319F27883103187F2D2000612740
:101AF000883103187F2D3A3051278831812D912765
:101B000088317C260530E8000800E2278831031D73
:101B100008005A08CC009231D7228831AD27803195
:101B20000A008D319F27883103189F2D20006127DF
:101B3000883103189F2D3A3051278831A12D9127E4
:101B400088317C260630E8000800E2278831031D32
:101B500008005A08CC009231D7228831AD27803155
:101B60000A008D319F2788310318BF2D200061277F
:101B700088310318BF2D3A3051278831C12D912764
:101B800088317C260730E8000800E2278831031DF1
:101B900008005A08CC009231D7228831AD27803115
:101BA0000A008D319F2788310318DF2D200061271F
:101BB00088310318DF2D3A3051278831E12D9127E4
:101BC00088317C269F302000E00008007A27883189
:101BD000462788317C2E60089F3A031D08003A3062
:101BE000832788314A08BE0010307C26A0302000B0
:101BF000E00008006008A03A031D08005A08B3007E
:101C0000F430BF26883122005D082000B300F53093
:101C1000BF26883122005E082000B300F630BF26C0
:101C2000883122005F082000B300F730BF268831DA
:101C3000220060082000B300F830BF268831F4305D
:101C400071268831CC00F53071268831CD00F63010
:101C500071268831CE00F73071268831CF00F830F8
:101C600071268831CB004C08FF3A03194D2E4D08E0
:101C7000FF3A03194D2E4E08FF3A03194D2E4F0817
:101C8000FF3A03194D2E4B08FF3A03194D2E3A30F7
:101C9000832788311030BE01502E7F30462788318F
:101CA0007C26FA302000E00008006008FA3A031DA4
:101CB00008003A30B7005B08C82788317C26883195
:101CC00055302000B300BF2620008E1208007A276E
:101CD0008831462788317C2E7F3020004627883186
:101CE0007C2E2000AC0023009100951315131514D1
:101CF00013082000AD000800BF00D81D7D2E023063
:101D0000AC00053015278831D900860002308700E5
:101D100037088100D90A5908860038088100D90A95
:101D20005908860039088100D90A590886003A08FE
:101D30008100D90A590886003B088100D90A590850
:101D400086003C088100D90A590886003D088100B8
:101D5000D90A590886003E0881000830D90AAD002A
:101D60005530AE007730AF01B000B1013F089D3172
:101D70006C2558082100C800F030C8050800B400E0
:101D800023009100200033082300930055301513E1
:101D9000951315158B139600AA30960095148B1782
:101DA00015112300951C080000000000D12EB00181
:101DB000B1012D082C040319F72EB201B20AAD1B94
:101DC000E42EAC35AD0DDE2EB035B10D2D082F0251
:101DD000031DEC2E2C082E02031CF32E2C08AE0241
:101DE0002D08AF3B3014AD36AC0CB20BE42E3108ED
:101DF000AD003008AC00080000000000000000004A
:101E000000000000000000000000000000000000D2
:101E100000000000000000000000000000000000C2
:101E2000000000000000000008002C08503E0800E0
:101E3000FE30B201B301B001B101AE001F30AF00FE
:101E40000130AE020030AF3B2E0A03192F0A0319EE
:101E5000412F320823009100200033082300920014
:101E60001511951715140000000023001308200019
:101E7000B007230014082000B13DB20A0319B30AC9
:101E8000202F3108AD003008AC000800B7005B0817
:101E9000B800FF30B900BA00BB00BC00BD00BE00F6
:101EA00010342000B7005B08B8004C08B9004D089A
:101EB000BA004E08BB004F08BC001030BD01BE0187
:101EC00008004F08FE3EC000FF3003180030C1007C
:101ED000803AC20080304202031D08004E084002D2
:101EE0000800B800FF30B900BA00BB00BC00BD005C
:101EF000BE001034FF30DA002200DD00DE00DF001B
:101F0000E00020007F34B7005B08B8004C08B9003F
:101F10004D08BA004E08BB004F08BC004B08BD007E
:101F200008007F302000B7005B08B8005A08B900ED
:101F3000FF30BA00BB00BC00BD00BE001034CF00B3
:101F4000023EC000003003180130C100803A803CDE
:101F5000031D080040084E02080089362000CD000D
:101F600021003C082000CE004D082D3E0800200036
:101F7000CB003A30B7005B08B800B9014D08BA0091
:101F8000BB014F08BC004B08BD001030BE0108006B
:101F9000B8001030B901BA01BB01BC01BD01BE01DE
:101FA000080020004508AD004408AC007830AE01C0
:101FB000AF0008002000C000C136C00CC136C00C04
:101FC000400808002100680820005A060800AD00FB
:101FD0004808AC007830AE01AF000800AD004608FC
:101FE000AC007830AE01AF00080091001F309200C5
:101FF000151195170800BB01BC01BD01BE01080009
:10200000FF3FFF3FFF3FFF3FFF3FFF3FFF3FFF3FE0
:10201000FF3FFF3FFF3FFF3FFF3FFF3FFF3FFF3FD0
:10202000FF3FFF3FFF3F00000000000000000000F6
:1020300000000000000000000000000000000000A0
:102040000000000000000000000000000000000090
:102050000000000000000000000000000000000080
:10206000000000000000080088311A209031043080
:102070007A2290312200E10121006208E900EA01A0
:102080006A08EC002200610821006902EB00031CD1
:10209000EC036C0403193C2862082200E100DA0A10
:1020A000DB0A2100E10AE61C5C28C83020009B0006
:1020B00021006535200073287D3020009B0004300E
:1020C000B200B301210065082000AC000530AD016D
:1020D000AE00AF019B2290312D08B5002C08B40052
:1020E0002C2290313208DC0064239031033022002E
:1020F0005A020318DA0105305B02031C6329DB0175
:102100006400D72290312100DD0022003008B200A7
:102110002F08B10021003D08B3003C08B200053093
:102120002300E200E3012100DB01E61CAE285D365E
:102130002D3E80310A0089362300DA008C30DB0125
:1021400080310A008936DC003830DD0180310A0038
:1021500090318936DE00DF019031EA280530200019
:10216000B200B30121005D362D3E80310A0090316E
:102170009331F42390312C2233082300DB0020001C
:1021800032082300DA0005302000B2008C30B301A1
:1021900080310A0090312100F42390312C22330841
:1021A0002300DD00200032082300DC000530200081
:1021B000B2003830B30180310A0090312100F4239D
:1021C00090312C22903133082300DF0020003208A8
:1021D0002300DE00003021003102B9300319300243
:1021E0000318FD2802302502603003192402031869
:1021F000FD283108B9003008B80000303102BA308B
:1022000003193002031C08292508B9002408B80066
:1022100002302502613003192402031C13293108FE
:10222000B9003008B800220038082100EA00220076
:10223000370821000224C000C10122003A08210011
:10224000B700220039082100B600003020005718DE
:1022500001302100D700D3018031DE2090312100F0
:10226000EF01E508031D37296C2290313929D1236C
:1022700090312200520821006610031D6614520896
:10228000E610031DE614220050082100E613031D8A
:10229000E61755086611031D66155608E611031D5D
:1022A000E61554086612031D661622005308210025
:1022B0006613031D6617220051082100E612031D54
:1022C000E6162000571021006108193A031D7829ED
:1022D000B02255308E3171269031553A031D8E1E35
:1022E000782911308C179D310825903120008C13EE
:1022F00021006108253A031D8B2955308E31712646
:102300009031553A031D8E1E8B298C178A310C2271
:10231000903120008C1321006108323A031DB72947
:1023200055308E3171269031553A031D8E1EB729D6
:10233000210066082000B700230062082000B800D2
:1023400021005B082000B90021003C082000BA00F1
:102350005708BB0023005A082000BC0021005F087A
:102360002000BD002A30BE018E317C269031210034
:1023700061084B3A031DF72955308E317126903193
:10238000553A031D8E1EF7291B08B700210064086B
:102390002000B800220030082000B9005C08BA0014
:1023A00021005D082000BB0021003108EA00300850
:1023B00002242000BC0021002508EC002408EB00CA
:1023C000EC36EB0CEC36EB0C6B082000BD0021006A
:1023D0003908EE003808ED00EE36ED0CEE36ED0C67
:1023E0006D082000BE002B308E317C269031653088
:1023F00021006102031C292A5530E1018E3171262A
:102400009031553A031D8E1E292A210036082000DE
:10241000B700230060082000B80021002A0820002F
:10242000B90021002C082000BA0021002E0820004D
:10243000BB00220020082000BC0022002108200050
:10244000BD00220022082000BE002C308E317C26E8
:1024500090312200D4013C28B701B31F362AB209BB
:10246000B309B20A0319B30AB701B70AB51F3F2A65
:10247000B409B509B40A0319B50A0130B706B801A1
:10248000B9013308320403195F2AB601B60AB31B37
:102490004C2AB235B30D462AB835B90D330835028A
:1024A000031D542A32083402031C5B2A3208B4028A
:1024B0003308B53B3814B336B20CB60B4C2A370888
:1024C0000319672AB809B909B80A0319B90A3908FA
:1024D000B3003808B20008002000571F080022008F
:1024E0008E108E110E1225009513910120005713A6
:1024F000D7130800AC00892A9501080096019701BE
:1025000008009A01080028009501080028009C0195
:1025100008002C08003A03197C2A013A03197E2A84
:10252000033A0319812A063A0319832A023A031946
:10253000862A9A2A0800B001B1012C1CA32A2E0871
:10254000B0072F08B13DAE35AF0DAD36AC0C2D0840
:102550002C04031D9D2A3108AD003008AC00080092
:10256000661FB42A5830D22A52080319B92A2130DA
:10257000D22A54080319BE2A4230D22A5608031917
:10258000C32A3730D22A55080319C82A2C30D22A38
:10259000E61ECC2A4D30D22A661CD02A1630D22A0A
:1025A0000B30D22A2000AC002100DF0008002200FE
:1025B0002F082000B500220030082000B600B70127
:1025C000230066082000AC00230067082000AD004F
:1025D000C830AE01AF00B001B101472390312C08E3
:1025E000B8002D08B9002E08BA001523903135081F
:1025F0002100DE00DE08031D082B22000530D80A6A
:102600005802031C112B21005E082200D700112B59
:102610002200D80121005E082200D7002300E60135
:10262000E70122005708C83C0800BB01BC01BD01FE
:102630003708360435040319402BBE01BE0AB71B08
:10264000252BB535B60DB70D1E2BBB35BC0DBD0DFD
:1026500037083A02031D322B36083902031D322B8C
:1026600035083802031C3B2B3508B8023608B93B45
:102670003708BA3B3B14B736B60CB50CBE0B252B4E
:102680003B08B5003C08B6003D08B7000800B201A1
:10269000B301B4012C1C522B2F08B2073008B33DF4
:1026A0003108B43DAF35B00DB10DAE36AD0CAC0C4C
:1026B0002E082D042C04031D4A2B3208AC003308CD
:1026C000AD003408AE00080069239B3107239B311D
:1026D0003D2B21006735403E8600023087002000F8
:1026E0005D08C03F5E08C13F4E3086004C3084001C
:1026F000023085002400440842072000AC0024007A
:102700004508433D2000AD002400460820002C076A
:10271000AE002400470820002D3DAF0024004808EB
:1027200020002E07B0002400490820002F3DB100F2
:1027300024004A0820003007B20024004B08200083
:10274000313DB300003F3207B400013F333DB500D7
:10275000403F3407B600413F353DB70024004008F4
:10276000200036072300CC00240041082000373D1C
:102770002300CD002200B80023004C082200B7003F
:102780000830B836B70CB836B70CB836B70C2100DD
:10279000E70A6702031C0800E7012300CC01CD0112
:1027A00008002000571B0800A630D7122200B500F1
:1027B000B6012100D801D80ABE01BF012000DC010A
:1027C000D201D3012300D401D501250096012000B8
:1027D000D71557172100E001250091012200E201E1
:1027E000200057169E31002EE900EA01E935EA0D76
:1027F000E935EA0D69082000B40021006A082000CC
:10280000B5000800E900EA36E90CEA36E90C690887
:102810000800D20A0319D30A530822003602031D06
:10282000152C20005208220035020318192CEE2521
:102830009431003021003F020A3003193E02031C8C
:10284000232C2000D711003021003F020330031950
:102850003E02031C2D2C200057129031132094317E
:102860002200111F352CD601442DD601D60A442D45
:102870002D3021009D00C025943121009D14AB25F1
:10288000943171082300D9007008D800313021003C
:102890009D00C025943121009D142200E20A512D93
:1028A00021005A089D001B082000DD0021001C08A3
:1028B0002000DE000000000000000000000000001A
:1028C0000000000000000000000000000000000008
:1028D00000000000492CAB2594317108D500700828
:1028E000D400571BD12CC92C22002008D1279431A9
:1028F00003188D2C5508F1005408F0002200200820
:10290000F002031CF1036808F3006708F200D92500
:10291000943171082100AA008F2C2100AA01AB017B
:10292000DD2C22002108D12794310318AA2C550848
:10293000F1005408F00022002108F002031CF1030A
:102940006A08F3006908F200D92594317108210062
:10295000AC00AC2C2100AC01AD01DD2C2200220822
:10296000D12794310318C72C5508F1005408F00002
:1029700022002208F002031CF1036C08F3006B082C
:10298000F200D925943171082100AE00CF2C21002E
:10299000CE2C2100AA01AB01AC01AD01AE01AF010B
:1029A000DD2C21005A08093A0319742C183A03192E
:1029B000AE2C243A0319912CC92C01302B022D3056
:1029C00003192A020318F22C01302D022D300319AD
:1029D0002C020318F22C01302F022D3003192E0285
:1029E000031CF72C2000E530571422008E0522002E
:1029F0005C08472C21001B08B4001C08B5009D147E
:102A00002000571F182D5C080319182D5F1C222D5C
:102A100021003408643EF7000030353DF800200006
:102A20005E087802031D162D5D0877020318512DEC
:102A30002200E20A210063089D00C0259431210094
:102A40009D14512D0030210035021F30031934022E
:102A50000318182D512D2100D901AB25943171088F
:102A60002300E1007008E000753021009D00C025C2
:102A700094314D2C21009D14AB2594317108230015
:102A8000D7007008D6004D2C6208FF3E031C512D64
:102A900084000A3004020318512D80310435A63E0B
:102AA00082002000571F892DD71D8B2D2200413019
:102AB000D401D40A2300E400E501200052080339C0
:102AC000031D8B2D571E792D5E085D0403197D2D86
:102AD0005E08F1005D08F0008030F2003E30F30047
:102AE000DB2794317008F9007108FA00FB01FC0142
:102AF0007D2D5E085D04031D682D210060087902AC
:102B00000318842DE003852DE00A6008250091005C
:102B10008B2D250091012100D908031DA92D22002C
:102B200056080319972D2000D71A972DD716200085
:102B3000D71E0800230055085404031DA42D2000AF
:102B4000D7190800EE250800FF30D407031CD50371
:102B50000800D9030800F20121009D1CB42D41306A
:102B6000F20A7202031CAC2D1C082000D1002100C7
:102B70001B082000D0005108F1005008F0000800A8
:102B80000000000000000000000000000000000045
:102B90000000000000000000000000000000000035
:102BA0000000000000000000000000000000000025
:102BB0000800F401F501701CE12D7208F407730898
:102BC000F53DF235F30DF136F00C71087004031D7C
:102BD000DB2D7508F1007408F000080000302100BA
:102BE0003F020A3003193E020318F92DBE0A0319E9
:102BF000BF0A4635A03E86000130870020005208FB
:102C0000C03F5308C13F21000730C60AC605AE3099
:102C10008600AC30840001308500230024082207A0
:102C20002000A00023002508233D2000A100230050
:102C3000260820002007A200230027082000213DAD
:102C4000A3002300280820002207A400230029084D
:102C50002000233DA50023002A0820002407A60009
:102C600023002B082000253DA700003F2607A800D1
:102C7000013F273DA900403F2807AA00413F293DC9
:102C8000AB002300200820002A072100BC002300FD
:102C9000210820002B3D2100BD0020005308220008
:102CA000BC00200052082200BB002000D7122200E6
:102CB000E201E20A2000D717D71DC92E22003C08E6
:102CC000F1003B08F0006430F136F00CF136F00C06
:102CD000F136F00CF200F301D9259431710821008E
:102CE000BB007008BA000730BB36BA0C890B742ED3
:102CF0002000530821003B02031D822E20005208B1
:102D000021003A020318912E20009F31DD279431D3
:102D100021003A082300D40221003B082300D53BC0
:102D2000A82E2300D401D501A82EA630A42EF4305D
:102D30002200B5000130B600B82E7D30A42E5330ED
:102D4000A42E2930A42E21302200B500B601B82EC1
:102D500021003F08003A0319AE2EA32E3E0884003E
:102D60000A3004020318A32E80310435BA3E8200D3
:102D7000003036022130031935020318C22E2130EB
:102D8000B500B6012000571E002F0A302100E000D8
:102D9000002F5F1CCF2E2300D401D501D42E9F31EC
:102DA000DD279431D536D40C4D30D401D501220025
:102DB000B5000130B6002000571FFE2E2500110877
:102DC00020005C060319002F2500110820005C027A
:102DD0000318F42E25009103110820005C0203184B
:102DE000002F25009103002F2500910A20005C0888
:102DF000250011020318002F910A002F25009101D0
:102E00002000D201D30121005808FF3A031DB72F3B
:102E10000630D800B72F0130250096002000571F3C
:102E2000152F22009F31F9279431220009300D110E
:102E30008D102100DA002530E301E30A2200DC00D6
:102E4000023092008430910020000630952F01302E
:102E5000250096002000571F312F22009F31EF27B9
:102E60009431220009300D158D102100DA00053053
:102E7000E301E30A2200DC0001309200943091006B
:102E800020005F102100D801D80ACB2F0230250086
:102E900096002000571F502F22009F31F4279431B5
:102EA000220035300E118D102100DA0005309F31DF
:102EB000E52794318430910020000230952F0230B4
:102EC000250096002000571F692F22009F31F92707
:102ED0009431220035300E118D142100DA000530B6
:102EE000E30025302200DC00023092009430910093
:102EF00020000330AE2F0430250096002000571F1D
:102F0000852F22009F31EF279431220011300E11BE
:102F10009F31EB279431E30005302200DC000130C3
:102F2000920084309100200004305F14AF2F0430F1
:102F3000250096002000571FA12F22009F31F42763
:102F40009431220011300E159F31EB2794319F31BF
:102F5000E527943194309100200005305F10210066
:102F6000D800CB2F2500960122009101402F580850
:102F7000013A03190B2F033A0319272F013A0319BA
:102F8000462F073A03195F2F013A03197B2F033AA3
:102F90000319972FB22F2830D9002000D201D30176
:102FA0000800F700F801200055087802031D08000A
:102FB000540877020800F501F6017108700403193E
:102FC000FB2FF401F40AF11BE82FF035F10DE22F8D
:102FD000F535F60D71087302031DF02F70087202AB
:102FE000031CF72F7008F2027108F33B7514F136D9
:102FF000F00CF40BE82F7608F1007508F0000800DB
:10300000FF3FFF3FFF3FFF3FFF3FFF3FFF3FFF3FD0
:10301000FF3FFF3FFF3FFF3FFF3FFF3FFF3FFF3FC0
:10302000FF3FFF3FFF3FFF3FFF3FFF3FFF3FFF3FB0
:10303000FF3FFF3FFF3FFF3FFF3FFF3FFF3FFF3FA0
:10360000FF3FFF3FFF3FFF3FFF3FFF3FFF3F0330D5
:103610002000AC00AD0121002C082A072000B300D7
:1036200021002D082B3D2000B40021002E08200091
:103630003307AE0021002F082000343DAF008E314B
:10364000D7269B312C082300CE0720002D0823000D
:10365000CF3D4F082200BA0023004E082200B900D7
:103660000630BA36B90C890B312B39082300CE024B
:1036700022003A082300CF3B08005808D207590817
:10368000D33D53082100B100230052082100B000AF
:103690000630B136B00C890B492B30082300D2021A
:1036A000210031082300D33B5608D0075708D13DED
:1036B00051082100A300230050082100A200063079
:1036C000A336A20C890B602B22082300D002210014
:1036D00023082300D13B21002308A5002208A400D1
:1036E000220033082100A407220034082100A53D50
:1036F00008005030DF018400003085000F30873132
:10370000F9279B31A0308400003085004930873193
:10371000F9279B3120308400013085004330873108
:10372000F9279B31A0308400013085004830873173
:10373000F9279B3140308400023085001B308731EF
:10374000F9278030E0002200E3003830E400013047
:10375000E500E601E700E801E900EA01EB00EC0121
:10376000ED00EE00200090313428F92B06249B3127
:10377000A60026001D082100A7000C2C0230D9004D
:1037800026001C082200AD0026001D082200AE0005
:10379000053026009E00080006249B31A800260064
:1037A0001D082100A90029082200B00021002808D6
:1037B0002200AF00210026082200AF0221002708C6
:1037C0002200B03B2E082300E70022002D08230032
:1037D000E600210026082300E60221002708230036
:1037E000E73B21002908A7002808A6000C2CD901D6
:1037F000080022005908003A0319B62B013A0319B0
:10380000BE2B033A0319CC2BF72B0800D901D90A98
:1038100026001C0821000800043026009E00080035
:1038200023009E19912C2000911E912CD81D2D2C27
:1038300023001D080639031D912C1908803A031D29
:10384000912C2730FC249C3119082100D000D11E76
:103850002B2CD112912C5114912C581C682C230024
:103860001D0806390319382C21004E08031D6F2C42
:1038700021004E08023A0319D11022004F08031903
:10388000432CCF03912C2100500823001906031963
:103890004B2C6C308F2C21004F0803195E2C230019
:1038A00019082100D00002259C310108D000230016
:1038B0009A002100CF032100CE0A912C2000D81CB1
:1038C000652C58102100CE01912C210051118E2C15
:1038D000D81C912C23001D0806390319712C7C304B
:1038E0008F2C22004E080319862C210002259C31C2
:1038F0002300190881002200CE0323001908C607FF
:103900000318C70A471C5B2CC60A5B2C2300190A44
:10391000C607460803198E2C5C308F2C0830EC2427
:103920009C312000D819D22C2100511DCB2CD11C48
:10393000AE2C22002A0829040319A22C0130A90266
:103940000030AA3B23004B084A040319AC2C013079
:10395000CA020030CB3BB62C2C30B42C22002A08F3
:1039600029040319B62C1C30EC249C3122002808B1
:1039700027040319BF2C0130A7020030A83B230005
:10398000490848040319C92C0130C8020030C93B5A
:1039900008004C30EC2C22002808270403190800EA
:1039A0003C30EC2C2100D11A0800230041084004CF
:1039B0003F043E040319E92C0130F100F201F30148
:1039C000F401BE027208BF3B7308C03B7408C13BE0
:1039D0000800210051170800F000230019082100F9
:1039E000D000D1012300C601C70170082000D80013
:1039F00023002730FC240800C101C001BF00BB30F8
:103A0000BE0008004E08503E8600023087000800C5
:103A1000BB00D81D092D3B08B7000830B8000530A1
:103A200058259D31D81D122DF0305805BA002100BF
:103A300048060319080020000530AC018F31152716
:103A40009D31D90086000230870001082300B000B4
:103A5000F9259D31B100F9259D31B200F9259D313F
:103A6000B300F9259D31B400F9259D31B500F92544
:103A70009D31B600F925B70030082100E40023008D
:103A800031082000DB00230032082000DA00230088
:103A900033082200DD00230034082200DE0023006A
:103AA00035082200DF00230036082200E00008006D
:103AB000D81D080038082200CE002000D8142300AA
:103AC000C601C70120002430AD01AE003330AF0184
:103AD000B000B10137086C2DB200B3000F30D8052B
:103AE0000D302200A9001330AA012300CA00CB0127
:103AF00020002F082200A80020002E082200A70086
:103B0000200031082300C900200030082300C8002D
:103B10002000D81D080055302400D00020003308B4
:103B2000D3259D312400D1002100CE012000D81CD6
:103B30009D2D02302100CF00C42D2D08023E210012
:103B4000CF0020000230B401B501B60021004F08BB
:103B5000200036020318B72D3608503E860002308A
:103B600087000108B4070318B50AB60AA62D21007C
:103B70004F08503E86000230870020003508340789
:103B8000FF3A81002100CF0A2300FF309E159A00E2
:103B90000F302000D80558142100D1145115D00140
:103BA0002000D8110800AC003F30AC052C1CDA2DE9
:103BB0004030AC06AC1CDE2D4030AC062C1DE22D96
:103BC0004030AC062C1EE62D4030AC06AC17AC1CC9
:103BD000EB2D8030AC06AC1DEF2D8030AC062C1EDA
:103BE000F32D8030AC06AC1EF72D8030AC062C08CF
:103BF00008002000D90A590886000108230008009F
:103C0000003021003F020A3003193E0203180B2E38
:103C1000BE0A0319BF0A4635A03E86000130870060
:103C200020005208C03F5308C13F21000730C60A98
:103C3000C605AE308600AC3084000130850023001C
:103C4000240822072000B20023002508233D20007D
:103C5000B3002300260820003207B4002300270801
:103C60002000333DB5002300280820003407B600AB
:103C7000230029082000353DB70023002A08200032
:103C80003607B80023002B082000373DB900003F5D
:103C90003807BA00013F393DBB00403F3A07BC003E
:103CA000413F3B3DBD002300200820003C07210090
:103CB000BC002300210820003D3D2100BD00200064
:103CC00053082200BC00200052082200BB00200044
:103CD000D7122200E201E20A2000D717D71DE02EFA
:103CE00022003C082000AD0022003B082000AC0070
:103CF0006430AD36AC0CAD36AC0CAD36AC0CAE00B1
:103D0000AF0192319B229E312D082100BB00200083
:103D10002C082100BA000730BB36BA0C890B8C2E58
:103D20002000530821003B02031D9A2E2000520858
:103D300021003A020318A82E2000DD279E31210021
:103D40003A082300D40221003B082300D53BBF2EB4
:103D50002300D401D501BF2EA630BB2EF4302200A3
:103D6000B5000130B600CF2E7D30BB2E5330BB2EB8
:103D70002930BB2E21302200B500B601CF2E210004
:103D80003F08003A0319C52EBA2E3E0884000A30B7
:103D900004020318BA2E80310435923E82000030AE
:103DA00036022130031935020318D92E2130B5000F
:103DB000B6012000571E162F0A302100E000162FF2
:103DC0005F1CE62E2300D401D501EA2EDD279E31AB
:103DD000D536D40C4D30D401D5012200B5000130C8
:103DE000B6002000571F142F2500110820005C0684
:103DF0000319162F2500110820005C0203180A2F52
:103E000025009103110820005C020318162F2500DD
:103E10009103162F2500910A20005C08250011024D
:103E20000318162F910A162F250091012000D201A8
:103E3000D30121005808FF3A031DC32F0630D800D4
:103E4000C32F0130250096002000571F2A2F220083
:103E5000F9279E31220009300D118D102100DA0062
:103E60002530E301E30A2200DC00023092008430B6
:103E7000910020000630A42F01302500960020007C
:103E8000571F452F2200EF279E31220009300D15C4
:103E90008D102100DA000530E301E30A2200DC0086
:103EA000013092009430910020005F102100D80171
:103EB000D80AD72F0230250096002000571F632F05
:103EC0002200F4279E31220035300E118D10210082
:103ED000DA000530E5279E31843091002000023061
:103EE000A42F0230250096002000571F7A2F2200B1
:103EF000F9279E31220035300E118D142100DA0091
:103F00000530E30025302200DC00023092009430BE
:103F1000910020000330BA2F0430250096002000C5
:103F2000571F952F2200EF279E31220011300E11CE
:103F3000EB279E31E30005302200DC0001309200C7
:103F400084309100200004305F14BB2F0430250022
:103F500096002000571FAF2F2200F4279E31220029
:103F600011300E15EB279E31E5279E3194309100DC
:103F7000200005305F102100D800D72F25009601C2
:103F800022009101542F5808013A0319212F033AB6
:103F900003193C2F013A03195A2F073A0319712FBD
:103FA000013A03198C2F033A0319A62FBE2F28308C
:103FB000D9002000D201D301080053082300D50006
:103FC000200052082300D4000800E3002200DC0196
:103FD000DC0A920108000D112100DA0025340E08D8
:103FE000E53912388E0008000E08E53918388E00C1
:103FF00008000E08E5390A388E0008001900530041
:020000040001F9
:04000E00BCFFFFDB59
:00000001FF
