:1000000080312728FF3FFF3F803120001118111059
:10001000931C0F2893108731C7278031D90A2000FD
:10002000911C162891109C31022480312000931DD0
:100030001D2893119731022780312000131F232898
:1000400013139931B22120001218121009008801EF
:1000500092315F2A00346E346E346E3400340034D2
:1000600000340034003400340034D334D334D33477
:10007000D034CE34CC34C934C734C534C334C1349D
:10008000BF34BD34BB34BA34B834B634B434B2340B
:10009000B134AF34AD34AC34AA34A934A734A63467
:1000A000A434A334A234A0349F349D349C349B34B4
:1000B0009A349834973496349534943492349134F5
:1000C00090348F348E348D348C348B348A3489342C
:1000D000883487348634853484348334823481345C
:1000E00080347F347F347E347D347C347B347A3486
:1000F0007A347934783477347734763475347434A8
:1001000074347334723472347134703470346F34C4
:100110006E346E346E346E346E346E346E346E34CF
:100120009A31BB2A9A31BD2A9A31C32A9A31C52AFB
:100130009A31C72A9A31C92A9A31C92A9A31C92AC9
:100140009A31C92A9A31C92A9C31312C9C31492CC7
:100150009C31642C9C31992C9C31462C9C31462C32
:100160009C31462C9C31AE2C9C31B52C9D31542DAC
:100170009E31982E9E319A2E9E31A02E9E31A22E17
:100180009E31A42E9E31A62E9E31A62E9E31A62EE5
:100190009E31A62E9E31A62E883188288831882847
:1001A00088318828883188288831882888318828AB
:1001B0008831882888318828220062083B3A031D4C
:1001C000E72D20005208D8005208803A031904296C
:1001D000103A03191429013A03198629023A03191E
:1001E000C629073A0319432A013A03199A2A0D3AF4
:1001F0000319752C073A0319212D3F3A0319722D63
:100200005A3A0319D32DE52D5808803A031D0800EA
:100210009030D80022003A30ED01ED0A2000B700FE
:1002200080303A2780310D2E5808903A031D08007F
:100230005529F030EA2580312100B400F130EA255B
:1002400080312100B500F230EA2580312100B6006E
:10025000F330EA2580312100B7000230B301B2014A
:100260002200ED005E29EB30EA2580312100B40048
:10027000EC30EA2580312100B500ED30EA258031EF
:100280002100B600EE30EA2580312100B700EF30C2
:10029000EA2580312100B3009130B2012000D8005E
:1002A0005E299030682780315E2922006D08013A6E
:1002B00003191929033A0319332951292100340854
:1002C000FF3A03197F293508FF3A03197F293608B9
:1002D000FF3A03197F293708FF3A03197F293308AA
:1002E000FF3A03197F293208FF3A03197F293A3070
:1002F0008D26803143278031BE0010300D2E7F3097
:100300002000B7009030122780310D2E5808913A06
:10031000031D0800F430EA2580312100B400F530D7
:10032000EA2580312100B500F630EA258031210030
:10033000B600F730EA2580312100B700F830EA2511
:10034000803163278031031DBB293508FF3A031D27
:10035000BB293608FF3A031DBB293708FF3A031DA6
:10036000BB293308FF3A031DBB293A308D26803163
:100370001B278031C1297F302000B7005208122787
:1003800080310D2692302000D80008005808933A9A
:10039000031D0800782780312D082300BC002000B1
:1003A0002C082300BB00FF305327803115140000B8
:1003B0000000230014082400BB00230013082400BD
:1003C000BA00FE30230053278031151400000000CE
:1003D000230014082400BD00230013082400BC00DF
:1003E0000430383E8600023087003A082000C20000
:1003F000C101403F41072400B800413F2000423D79
:100400002400B9003A082100B60024003C0821006D
:10041000B70023003C082100B30023003B08210063
:10042000B20023003C0824003906031D1B2A2300C8
:100430003B0824003806031D312A3A302000B7005B
:100440005208B8000230B901B90ABA0021003608D2
:100450002000BB00210037082000BC00432780316A
:100460003C2A7F302000B7005208B800FF30B900A6
:10047000BA00BB00BC00BD00BE0010300D26943099
:100480002000D80008005808943A031D08005108BD
:100490002200E400E408031D4F2A6F30E40023002B
:1004A00046082000C200230045082000C100C236D3
:1004B000C10CC236C10C41082100B40022006408FE
:1004C000FD3E2000C100FF3003180030C200803A1A
:1004D000C30080304302031D712A2100340820002C
:1004E000410203188F2A22006408033E2000C10045
:1004F000003003180130C200803A803C031D832A7B
:1005000041082100340203188F2A3A302000B70036
:10051000B92680311030BA015E278031952A7F30AC
:100520002000B7005208122780310D269530200098
:10053000D80008005808953A0319642C732C94319C
:10054000322480310B138B132500930122003530A8
:100550000D158E158E100E1221009D00A001B22ADD
:10056000000000002100A00BB02AA101B92A000060
:1005700000002100A10BB72AA201C02A0000000040
:100580002100A20BBE2AA301C72A000000002100FF
:10059000A30BC52AA401CE2A000000002100A40B51
:1005A000CC2AA501D52A000000002100A50BD32AE2
:1005B00092312E22803121009D14923147228031C8
:1005C0002D082300E40020002C082300E30031085C
:1005D000E302031CE403220009300E158E148E1171
:1005E0000E1221009D00A601F72A00000000210044
:1005F000A60BF52AA701FE2A000000002100A70B88
:10060000FC2AA801052B000000002100A80B032BE9
:10061000A9010C2B000000002100A90B0A2BAA0144
:10062000132B000000002100AA0B112BAB011A2B89
:10063000000000002100AB0B182B92312E228031DC
:1006400021009D149231472280312D082300E200C1
:1006500020002C082300E1003008E102031CE20323
:10066000220011308D140E168E108E1121009D0067
:10067000AC013C2B000000002100AC0B3A2BAD017B
:10068000432B000000002100AD0B412BAE014A2B93
:10069000000000002100AE0B482BAF01512B0000E1
:1006A00000002100AF0B4F2BB001582B00000000C1
:1006B0002100B00B562BB1015F2B00000000210080
:1006C000B10B5D2B92312E22803121009D1492318D
:1006D00047222D082300E60020002C082300E50017
:1006E0003208E502031CE603E53022008E050C30DB
:1006F000250093000B178B172100EB01EB0A080074
:1007000023003427803122278031652680312D084F
:10071000B3000230F5258031342780312227803123
:10072000652680312C08B3000330F5258031033075
:10073000EA258031C1000230EA2580312200E8003C
:10074000200041082200E70021006B08B4002300CC
:1007500062082000AD00230061082000AC002200E8
:1007600068082000AF00220067082000AE00502675
:1007700080312D082100B600220068082100B70052
:1007800022006708C0268031A22680310D26023063
:100790002100EB00080023002E2780312227803122
:1007A000652680312D08B3000430F52580312E27D1
:1007B000803122278031652680312C08B300053036
:1007C000F52580310530EA258031C1000430EA2565
:1007D00080312200EA00200041082200E9002100C7
:1007E0006B08B400230064082000AD0023006308F8
:1007F0002000AC0022006A082000AF002200690837
:100800002000AE00502680312D082100B6002200C5
:100810006A082100B70022006908C0268031A2269C
:1008200080310D2603302100EB000800230028272B
:10083000803122278031652680312D08B3000630B3
:10084000F5258031282780312227803165268031A7
:100850002C08B3000730F52580310730EA258031B8
:10086000C1000630EA2580312200EC00200041085A
:100870002200EB0021006B08B40023006608200072
:10088000AD00230065082000AC0022006C082000A9
:10089000AF0022006B082000AE00502680312D08EA
:1008A0002100B60022006C082100B70022006B086E
:1008B000C0268031A22680310D2698302000D80035
:1008C000080020005208682F21006B08003A031925
:1008D0009F2A013A0319802B033A0319CB2B013AC3
:1008E0000319162C612C5208682F5808983A031DDA
:1008F000080051082100EF0020005108013A0319B7
:100900008B2C023A0319B02C073A0319D52C013A63
:100910000319FA2C1F2D59278031031D0800510897
:100920002100B4009431F1248031F5268031502625
:100930008031042780310A008431D72680310318A2
:10094000AD2C2100C42680310318AD2C3A308D2601
:1009500080311030BD01BE010D2EE72680310D2EF5
:1009600059278031031D080051082100B40094313B
:10097000F1248031F52680315026803104278031E2
:100980000A008431D72680310318D22C2100C426D6
:1009900080310318D22C3A308D2680311030BD01C1
:1009A000BE010D2EE72680310D2E59278031031D03
:1009B000080051082100B4009431F1248031F5265B
:1009C000803150268031042780310A008431D726B7
:1009D00080310318F72C2100C42680310318F72C2E
:1009E0003A308D2680311030BD01BE010D2EE72634
:1009F00080310D2E59278031031D08005108210038
:100A0000B4009431F1248031F526803150268031B4
:100A1000042780310A008531D726803103181C2D28
:100A20002100C426803103181C2D3A308D268031D8
:100A30001030BD01BE010D2EE72680310D2E52086B
:100A4000682F58089F3A031D080051082200EE0045
:100A5000592D37309431EC24803120003730541038
:100A6000D410D4135411D41554125413D412210099
:100A7000B5000830B40003302200EE00612D4D3087
:100A80009431EC24803120004D304B278031D41636
:100A90002100B500B401B40A2200EE01EE0A612D76
:100AA0000B309431EC24803120004B278031D4125C
:100AB000612D6E08023A03193F2D063A0319292DBC
:100AC000502D21003A30B701B301B2012000B70028
:100AD000B9268031210035082000BA0010305E2789
:100AE00080310D2E5808A03A031D08005108B300AC
:100AF000F430F525803122005E082000B300F53087
:100B0000F525803122005F082000B300F630F5257E
:100B10008031220060082000B300F730F5258031D5
:100B2000220061082000B300F830F5258031F43050
:100B3000EA2580312100B400F530EA25803121001A
:100B4000B500F630EA2580312100B600F730EA25FD
:100B500080312100B700F830EA25803163278031E9
:100B60000319C82D3508FF3A0319C82D3608FF3A76
:100B70000319C82D3708FF3A0319C82D3308FF3A67
:100B80000319C82D3A308D2680311B278031CE2D98
:100B90007F302000B7005208122780310D26FA302E
:100BA0002000D80008005808FA3A031D08003A301F
:100BB000B70052083A2780310D2680315530200089
:100BC000B300F52520008E1208005808682F200079
:100BD0005808682F2000AC002300910095131513CE
:100BE000151413082000AD000800B4002300910084
:100BF0002000330823009300553015139513151565
:100C00008B139600AA30960095148B1715112300AC
:100C1000951C080000000000072EBF00CF1D0E2EFF
:100C20000230AC0005308A268031D00086000230C8
:100C3000870037088100D00A5008860038088100F4
:100C4000D00A5008860039088100D00A5008860072
:100C50003A088100D00A500886003B088100D00A7B
:100C6000500886003C088100D00A500886003D08E4
:100C70008100D00A500886003E0881000830D00A62
:100C8000AD005530AE007730AF01B000B1013F0884
:100C9000963137264F082200BC00F030BC05080012
:100CA000B001B1012C1C582E2E08B0072F08B13D01
:100CB000AE35AF0DAD36AC0C2D082C04031D522EF5
:100CC0003108AD003008AC000800B101B2012D08B8
:100CD0002C040319852EB001B00AAD1B722EAC3561
:100CE000AD0D6C2EB135B20D2D082F02031D7A2EDD
:100CF0002C082E02031C812E2C08AE022D08AF3BBF
:100D00003114AD36AC0CB00B722E3208AD00310888
:100D1000AC0008002C08A03E08002000B7005208D4
:100D2000B800210034082000B90021003508200057
:100D3000BA00210036082000BB002100370820003F
:100D4000BC000800B7005208B80021003408200099
:100D5000B900BA01210036082000BB002100370885
:100D60002000BC00210033082000BD001030BE016F
:100D700008005208B800210034082000B90008001B
:100D80002100B30020003A343708FD3E2000C100A6
:100D9000FF3003180030C200803AC30080304302A5
:100DA000031D080021003608200041020800B7009A
:100DB000033E2000C100003003180130C200803A19
:100DC000803C031D080041082100360208007F30E6
:100DD0002000B7005208B8005108B900FF30BA002F
:100DE000BB00BC00BD00BE00103489362100B50038
:100DF000220033082000AD00220032082000AC00A1
:100E00000530AE00AF0108002C08C1002D08C2005B
:100E1000C236C10CC236C10C41082100B6003508EB
:100E20002B3E0800B800FF30B900BA00BB00BC0080
:100E3000BD00BE001034210033082000BD0010307A
:100E4000BE0108002000AC007830AE01AF00080001
:100E500066082000AD002300650808006408200033
:100E6000AD0023006308080062082000AD002300E5
:100E700061080800B8001030B901BA01BB01BC011B
:100E8000BD01BE010800210033082000BD00210083
:100E90003208200008005410D410D4135411D41177
:100EA00054125413080091001F3092001511951729
:100EB000080021006F08200051060800BB01BC019A
:100EC000BD01BE0108002100B3003408FF3A08004C
:100ED0002000C000FF30D1002200DE00DF00E00073
:100EE000E1007F302000B7004008122780310D2E2E
:100EF000FE30B201B301B001B101AE001F30AF004E
:100F00000130AE020030AF3B2E0A03192F0A03193D
:100F1000A12F320823009100200033082300920003
:100F20001511951715140000000023001308200068
:100F3000B007230014082000B13DB20A0319B30A18
:100F4000802F3108AD003008AC0008000000000020
:100F50000000000000000000000000000000000091
:100F60000000000000000000000000000000000081
:100F70000000000000000000000000000000000071
:100F80000000000000000000000000000800220037
:100F90006430D30A5302031CD02FD3010E10080073
:100FA0005608530203180E14080064008001013132
:100FB000890BD62F0034D90A0800FF3FFF3FFF3FBF
:100FC000FF3FFF3FFF3FFF3FFF3FFF3FFF3FFF3F31
:100FD000FF3FFF3FFF3FFF3FFF3FFF3FFF3FFF3F21
:100FE000FF3FFF3FFF3FFF3FFF3FFF3FFF3FFF3F11
:100FF000FF3FFF3FFF3FFF3FFF3FFF3FFF3FFF3F01
:10100000FF3FFF3FFF3FFF3FFF3FFF3FFF3FFF3FF0
:10101000FF3FFF3FFF3FFF3FFF3FFF3FFF3FFF3FE0
:10102000FF3FFF3FFF3FFF3FFF3FFF3FFF3FFF3FD0
:10103000FF3FFF3FFF3FFF3FFF3FFF3FFF3FFF3FC0
:10104000FF3FFF3FFF3FFF3FFF3FFF3FFF3FFF3FB0
:10105000FF3FFF3FFF3FFF3FFF3FFF3FFF3FFF3FA0
:101060006C2800302502333003192402031C422867
:101070003F08F8390538BF002300DC012200A40135
:10108000A50181282200A40A0319A50A8128FB25AD
:1010900088313F0C61278831031D42288128FB25B8
:1010A0008831812800302502103034283F08F83973
:1010B0000338BF002300DC0181283F08F8390638D7
:1010C0006A28BF1A8128BF166F08031981283F08B4
:1010D000F8390438BF003E283F080739013A0319A0
:1010E0005D28033A03195628013A03194F28073A95
:1010F00003193128013A03194728033A03195228E2
:10110000612821006C08E50022003E1A8B289928EE
:1011100058268831A3283E080F39FF3E031CA32818
:101120008400083004020318A32880310435CC3E23
:1011300082003E166F0B9D289E28A32857278831D2
:10114000D8012200BA01230058082200CA00210059
:10115000E61DCB28661EB8286608F8390238E60076
:10116000DE30220034020318D228CD268831D2285E
:10117000E61EC4286608F8390138E600323022003D
:1011800034020318B528D228661FD2286608F83919
:101190000338E600B528E61522006F0BD22821009F
:1011A000792788312100B10123005B080319DF286A
:1011B0002200BB08031DDF282100B101B10A210074
:1011C0003108B000E41CF328513023005302031C03
:1011D000F1282100E410E4152300D501D401D60143
:1011E0002329D30A9429641DF8286411E41494294E
:1011F000E41D0C29003023004A024830031949023B
:10120000031894292100E41164162300D501D50A9E
:10121000D401D40AD6019429641E19290030230070
:101220004A02BA3003194902031C942921006412AE
:10123000EB2864189429641422006F080319942978
:10124000210064152300D301942900302302333098
:1012500003192202031C33293D08F8390538BD0063
:10126000B901B801AA292200A20A0319A30AAA29CE
:10127000102688313D0C61278831031D3329AA29A6
:1012800010268831AA2900302302C930031922020E
:10129000031C5A290A3023004F0203185A2922003E
:1012A0003D08F8390338BD00B901B801B80AA201F8
:1012B000A301AA29210069080319332922003D0846
:1012C000F8390138BD00A201A301B901B90AB8017A
:1012D000B80AAA292100E90803194F290030220081
:1012E000230202300319220203185E293329210048
:1012F000E908031D332922003D08F8390438BD00F0
:10130000A201A3012300CF0AAA29BD1AAA29BD164A
:101310006F080319AA293D08F8390638BD00A20153
:10132000A3012300CF01AA2922003D080739013A71
:1013300003197729033A03196A29013A031938294D
:10134000073A03194329013A03194029033A0319BB
:10135000252985292100B201B20AB008031DC1293F
:101360002300DE08031DC129D608031DC129220060
:10137000B908031DC1292300DC08031DC129210070
:10138000B20121003208D30000302200EF08031D13
:1013900001302100D200581FBA2AD308031DDB29CF
:1013A00052080319A42ADB292200A001A101F83068
:1013B0002100D805F02958080739013A0319D7291F
:1013C000033A0319D729013A0319D429073A031913
:1013D000D729013A0319D729033A0319D729F02944
:1013E0005813D8172300D101D201E02A2200210886
:1013F00020040319462AA001A10121005808F83948
:101400000238D800E02A033022002102E930031913
:101410002002031C0F2A21003E278831E02A87275B
:10142000883103195A02031C1C2A01305B022D303B
:1014300003195A02031C462A5808F8390138D80003
:101440002300D2012200A001A101E02A00302400E3
:101450004502653003194402031C352A210058084F
:101460004D278831D201D20AE02A87278831031913
:101470005A02031C422A01305B022D3003195A0222
:10148000031CFD292400C40A0319C50A2200A00A6E
:101490000319A10AE02A0030220021020B300319AF
:1014A0002002031C8A2A230050080A3A031D642ADA
:1014B000F8302100D8055813D91423001830D20170
:1014C000D20AD101D10A772A8727883103195A0213
:1014D000031C712A01305B022D3003195A02031CD0
:1014E0007A2A58084D278831D201D20A18302100B3
:1014F000D8048D2A9027883103192002031C842ADE
:1015000021003E278831762A21005808E73908381B
:10151000D8008D2AE7302100D805580C6127883182
:10152000031D462AE02A9027883103192002031C54
:10153000462A21005808F8390638D8002200A001B0
:10154000A1012300D101322A58080739013A0319B1
:10155000262A033A0319032A013A0319F629073AFE
:101560000319932A013A0319FD29033A03194B2A57
:10157000E02AE02AD81FCC2AD308031DE02AD8137A
:1015800058175808F8390338D8002200A001A101E3
:101590002400C401C501E02A591CD02A5910F129A0
:1015A000D91CD72A52080319E02AD910DD2AD81AE3
:1015B000E02AD81652080319E02A59142300D00152
:1015C0002100B301B30A2300DA08031DED2A22002B
:1015D000BB08031DED2A2100B30121003308CC0014
:1015E00022004D080319FB2A240063082100C200D1
:1015F00024006208172B230059080319062B240026
:101600005D082100C20024005C08172B21004C0853
:101610000319112B24005B082100C20024005A0882
:10162000172B240059082100C2002400580821006B
:10163000C1005B08CF005A08CE004108CE02420824
:10164000CF3BE31C9D2B22002E278631502688316C
:101650002C082100C70020002D082100C800C90166
:10166000CA014A08A3004908A2004808A100470887
:10167000A00024006408FB3E2100BB00FF302400D2
:10168000653D2100BC00BD01BE013E08C6003D080D
:10169000C5003C08C4003B08C3001F302000BA004E
:1016A0002100C637C50CC40CC30C2000BA0B502B4C
:1016B00021003E08CA003D08C9003C08C8003B089C
:1016C000C70046088B278831031D702B0030450268
:1016D000031D702B00304402031D702B01304302A8
:1016E00003188E2BC61B872B4A082302031D822B4F
:1016F00049082202031D822B48082102031D822B68
:10170000470820020030031C0130AA00882BAA01E0
:10171000AB012B08A9002A08A800912BA801A80A50
:10172000A901290828040319E12BE31063156316A6
:101730002400C201C3012100E02B631DD82BE31D4F
:10174000631EE12B22002E2786315026883124008B
:101750006408053E2000BA0000302400653D2000EA
:10176000BB002D083B02031DB72B2C083A020318BF
:10177000BD2B210063126311DF2B143021006C029A
:101780000318C62B05306C020318B92B0730240050
:101790004302D13003194202031CD42B21006312EF
:1017A000E315E001E00AE12BC20A0319C30AE12BA9
:1017B0006318E12B631422006F0BE12B2100E3146B
:1017C000E0012100E21CEF2B60080319072CE21056
:1017D0006215E2152300CE01CE0ACD01072C621D51
:1017E000FD2BE008031D072CE21DF82BE211FB2B5B
:1017F000621EFB2B62126211032C6218072C62140A
:10180000E008031D072CE2142300CD01CE012300C4
:101810004E082200C700230054082200C400210003
:10182000611E1D2C23000827883103185B2C210022
:101830006112E1142200B6015B2C611C312C2300E3
:10184000082788310318272C21006110412C6530AE
:1018500022003602031C2F2C21006110582CB60ADE
:101860005B2CE11C462C23001C27883103183B2CE1
:101870002100E110582C33303602031C2F2C21009C
:10188000E11061152300D701D70A5B2C611D512C93
:1018900023001C27883103185B2C2100611161147F
:1018A0001A2CE1195B2CE11522006F0B5B2C210037
:1018B00061162300D701230057082200C8003A0808
:1018C000CB0023005D082200CC002100B401B40A43
:1018D0002300D208031D762C2200B808031D762CA5
:1018E0002300CD08031D762C2100B401210034080B
:1018F0002200C900230055082200C5002100B501BF
:10190000B50AD308031D8D2C2300D108031D8D2C8F
:101910002100E008031D8D2CB50121003508CB0006
:10192000B601B60ACB08031D9B2C2200C608031D76
:101930009B2C2100B60121003608CD0023006C0647
:101940000319AC2CEB08031DAC2C0130EA01E900B3
:101950003830E8008030E70021004B080319B22C32
:10196000D001122D220046080319142D21004C0825
:101970000319BC2CCA30112D6C082000AC00E030DB
:1019800071278831332688312E082100D5002000A8
:101990002D082100D400E0302000AC005F3071271A
:1019A0008831332688312C08BA002D08BB002E0858
:1019B000BC002F08BD000730BD36BC0CBB0CBA0CF8
:1019C000890BDC2C3A082100D40220003B082100BE
:1019D000D53BC830D4070318D50A5508803AFF0014
:1019E00080307F02031DF62CC930540203180F2DDE
:1019F00021005508803AFF0080307F02031D022D30
:101A00003C305402031C072D21005408092D3C30A2
:101A10002100AC00AD012D08D1002C086C2DC83080
:101A20002100D000D1016D2D20000330AF01AE01A7
:101A3000AD002030AC0023006A082000B300230072
:101A400069082000B200230068082000B1002300CC
:101A500067082000B000942788312D082100D700A6
:101A600020002C082100D600220052082000AC00E3
:101A7000AD0168278631502688312C082100D60711
:101A800020002D082100D73D5708803AFF00803004
:101A90007F02031D4D2D01305602031C572D0030CF
:101AA00021005702CB30031956020318BA2C21002B
:101AB000D71B662D00305702283003195602031C2D
:101AC000662D5708AF005608AE00692D2830AE00CD
:101AD000AF012F08D1002E08D00051082000BB0014
:101AE000210050082000BA00BB36BA0C3A08220088
:101AF000E30021004D082300EC00240061082000D1
:101B0000AD00240060082000AC0068278631502614
:101B100088312C08BA002D08BB00BA35BB0DBA3588
:101B2000BB0DBA35BB0D3A08BC003B08BD00003008
:101B3000BD1BFF30BE00BF003C082300E7072000AC
:101B40003D082300E83D20003E082300E93D200039
:101B50003F082300EA3D6A088B278831031DBA2D10
:101B600002306902031DBA2D77306802031DBA2DB9
:101B7000413067020318F22D6A088B278831031D54
:101B8000CB2D00306902031DCB2D7D306802031D73
:101B9000CB2D00306702031CDD2D6A082100A70051
:101BA000230069082100A600230068082100A50081
:101BB000230067082100A400E32D21007D30A70148
:101BC000A601A500A40127082300EA002100260899
:101BD0002300E900210025082300E8002100240853
:101BE0002300F82D0230EA01E9007730E8004030A8
:101BF000E700EB010800003025020630031924023B
:101C00003F08031C0C2EF8390338BF00230018309E
:101C1000DC012200BF040800E7390838BF000800D3
:101C20002100690803191E2E22003D08F8390238E8
:101C3000BD001830A201A301BD040800003022003D
:101C400023026530031922023D08031C2F2EF839A8
:101C50000538BD001830B901B801BD040800E739E6
:101C60000838BD000800B401B501B601B7012C1C4D
:101C7000412E3008B4073108B53D3208B63D33086F
:101C8000B73DB035B10DB20DB30DAF36AE0CAD0CE6
:101C9000AC0C2F082E042D042C04031D372E3708FE
:101CA000AF003608AE003508AD003408AC000800BF
:101CB000210065080319602EC8306502031C6B2ED5
:101CC00022003E08F03907388127D901D8012200C7
:101CD000BA01BA0A08008C3023004402A03003196C
:101CE0004302031C7A2EAB304402E1300319430255
:101CF000031C952E22003E08F0390638832E220060
:101D00003E08F0390338812788318F2E22003E08A3
:101D1000F0390838BE002300DB01DB0ADA01D90103
:101D2000D801D80A2200BA01080006302100650255
:101D3000031C7F2E09306502031C862EC03065020D
:101D4000031CA72E22003E08F0390438832E1730DA
:101D50006502031CB62E22003E08F0390238BE0090
:101D60002300DB01D901DA01D801922E143065027B
:101D7000031CC52E22003E08F0390538BE002300A2
:101D8000DB01DA01D901D90AB42E14306502031837
:101D90000800220057278831B42EE7302200340291
:101DA0000318D92EF32E6612E32EE612E32E6613E5
:101DB000E32E210066080739013A0319D52E033AAC
:101DC0000319D32ED72E66162300DE01DE0A220069
:101DD000BB012300DD01DD0A08006612FD2EE612BC
:101DE000FD2E6613FD2E210066080739013A0319FE
:101DF000EF2E033A0319ED2EF12E2D30220034027E
:101E00000318052F2100E616E42E2100792708008B
:101E10006D08FE3E2000BA00FF3023006E3D20001A
:101E2000BB002200310820003B02031D08002200F5
:101E3000300820003A0208006D08023E2000BA0077
:101E4000003023006E3D2000BB0022003102031D44
:101E5000080020003A082200300208003108200063
:101E6000AD00220030082000AC0021005B082000FB
:101E7000AF0021005A082000AE0008005808F839C9
:101E80000538D8002200A001A1012400C401C50129
:101E90002300D101D201D00A0800F8390438D80053
:101EA0002200A001A1012300D101D10A08003E08AF
:101EB000F0390138BE002300DB01DB0ADA01D90169
:101EC00008002000BA00BA0C3A0C0339033A0800A3
:101ED00021004F082000AF0021004E082000AE0076
:101EE0000800AD01AE01AF01B000B101B201B30114
:101EF000080066172300DE012200BB012300DD017C
:101F00000800BE002300DB01DA01DA0A0800003015
:101F100021005B020534803AFF0080307F02080018
:101F2000003022002102C934B501AF1FA42FAC0933
:101F3000AD09AE09AF09AC0A0319AD0A0319AE0A1F
:101F40000319AF0AB501B50AB31FB32FB009B10920
:101F5000B209B309B00A0319B10A0319B20A031985
:101F6000B30A0130B506B601B701B801B9012F08AF
:101F70002E042D042C040319E92FB401B40AAF1B5D
:101F8000C62FAC35AD0DAE0DAF0DBE2FB635B70DAE
:101F9000B80DB90D2F083302031DD82F2E083202B9
:101FA000031DD82F2D083102031DD82F2C08300215
:101FB000031CE32F2C08B0022D08B13B2E08B23BC6
:101FC0002F08B33B3614AF36AE0CAD0CAC0CB40BD3
:101FD000C62F35080319F72FB609B709B809B9098B
:101FE000B60A0319B70A0319B80A0319B90A390856
:101FF000AF003808AE003708AD003608AC00080066
:10200000FF3FFF3FFF3FFF3FFF3FFF3FFF3FFF3FE0
:10201000FF3FFF3FFF3FFF3FFF3FFF3FFF3FFF3FD0
:10202000FF3FFF3FFF3FFF3FFF3FFF3FFF3FFF3FC0
:10203000FF3FFF3FFF3FFF3FFF3FFF3FFF3FFF3FB0
:10204000FF3FFF3FFF3FFF3FFF3FFF3FFF3FFF3FA0
:10205000FF3FFF3FFF3FFF3FFF3FFF3FFF3FFF3F90
:10206000FF3FFF3FFF3FFF3FFF3FFF3FFF3FFF3F80
:10207000FF3FFF3FFF3FFF3FFF3FFF3FFF3FFF3F70
:10208000FF3FFF3FFF3FFF3FFF3FFF3FFF3FFF3F60
:10209000FF3FFF3F8130210095002200EF01EF0A52
:1020A0008B138B0121009101920193012200DA012F
:1020B000DB0121008830ED012400E4001330E5004D
:1020C000B8302300ED00EE0163219031C92090313A
:1020D000E4209031FC209031013087209031043091
:1020E00087209031063087209031053002219031D1
:1020F000C020903157219031832190312400DE019E
:10210000DF019B219031C5260B178B17080020009B
:10211000AD00AE28003040248B120800013040246E
:102120007530200098002100111008000230402472
:10213000073020009C00210091100800043040244A
:102140000E30280097002100931408000630402428
:10215000053028009E002100931508002D08003A44
:1021600003198A28013A03198E28033A031996287D
:10217000063A03199E28023A0319A628BF28080028
:10218000A03021009E009D0130301D1422009704D4
:10219000080020008E12AC01CF28000000002000B3
:1021A000AC0BCD288E16AD01D72800000000200012
:1021B000AD0BD5288E12AE01DF28000000002000F4
:1021C000AE0BDD288E1608009F3023009B000130E7
:1021D0009C0026309E0090309D0048309F002100DA
:1021E00091012400ED272200C3012000CF0121002E
:1021F000E8012000CF150800F030210099001130CF
:10220000970008002000AC002200D401D501442929
:102210002500930191019201210011152000053044
:10222000111125009300080025009A0198019901D9
:102230002100121420000530121025009A00080019
:102240002600930191019201210013162000053010
:10225000131226009300080026009A0198019901A4
:102260002100931620000530931226009A000800E2
:1022700026009E019C019D012100131720000530BE
:10228000131326009E00080020002C08013A0319B1
:102290000829033A03191429013A03192029073A96
:1022A00003192C29013A031938295629080020005E
:1022B0000B30D401EC242300E101E201E301E4014D
:1022C000E501E601080027308C0029308D0022004E
:1022D0008C018D018E0155308531EA259031553ABA
:1022E000031974298E1A7B297F3021008C00393024
:1022F0008D008E0108007F3021008C0039308D0068
:1023000080308E0008002100EE0108306E020318B4
:10231000080031309D002E229031472290312D0847
:10232000D6002C08D500FB2690315E30C03F01302E
:10233000C13FEE0A852903308531EA259031003A04
:102340000319B92903308531EA259031FF3A031981
:10235000B92903308531EA259031AF00023085314B
:10236000EA2590312200E80020002F082200E70033
:10237000BD2922000130E701E80005308531EA255A
:102380009031003A0319DB2905308531EA25903177
:10239000FF3A0319DB2905308531EA259031AF007A
:1023A00004308531EA2590312200EA0020002F0810
:1023B0002200E900DF2922000130E901EA000730AC
:1023C0008531EA259031003A0319FD29073085311E
:1023D000EA259031FF3A0319FD2907308531EA25B6
:1023E0009031AF0006308531EA2590312200EC00B3
:1023F00020002F082200EB00012A22000130EB010F
:10240000EC001A300E110D118D108E042E22903119
:102410002E229031113021009D002E22903121007A
:102420009D14472290312C082300B2003530210042
:102430009D002E22903121009D14472290312C08BE
:102440002300B100093021009D002E22903121008F
:102450009D1447222C082300B00008000000000053
:10246000000000000000000000000000000000006C
:10247000000000000000000000000000000000005C
:102480000000000000000000000000000800200024
:10249000AE0121009D1C522A20004130AE0A2E02BE
:1024A000031C492A21001C082000C90021001B0828
:1024B0002000C8004908AD004808AC0008004830BA
:1024C000D7018400003085000F308731D527903147
:1024D000D83084000030850017308731D5279031FF
:1024E000203084000130850047308731D527903176
:1024F000A03084000130850047308731D5279031E6
:10250000203084000230850044308731D527903157
:10251000A0308400023085000B308731D527903100
:102520008030D80021000130EF002200E700E801F0
:10253000E900EA01EB00EC01ED000730EE002300BA
:102540008030E7003830E8000130E900EA01EB00B4
:10255000EC002000AB2A4A20903104304024903116
:102560002200E501220059082000C400C5014508E9
:10257000C7002200650820004402C600031CC703F0
:1025800047040319B22A22005908E500DA0ADB0AD7
:102590002100ED0A2000D41CD32AC8309B00220061
:1025A00063352000EA2A7D309B000430B200B3017D
:1025B000220063082000AC000530AD01AE00AF0181
:1025C0008631502690312D08B5002C08B400F22336
:1025D00090313208D30061249031033022005A0236
:1025E0000318DA0105305B02031CC92BDB01640010
:1025F000F12490312100EC0023004208C40041087E
:10260000C300220033082100DB0022003208210031
:10261000DA00240057082300CA00240056082300CB
:10262000C90005302400E000E1012200D2012000B1
:10263000D41C322B21006C362B3E80310A008936A7
:102640002400D8008A30D90180310A008936DA00A6
:102650003630DB0180310A0093318936DC00DD0140
:1026600093316B2B0530B200B30121006C362B3E49
:1026700080310A00933120009631F0269031F22308
:1026800033082400D900200032082400D800053087
:102690002000B2008A30B30180310A009331F02665
:1026A0009031F22333082400DB002000320824009C
:1026B000DA0005302000B2003630B30180310A0064
:1026C0009331F0269031F22333082400DD002000FE
:1026D00032082400DC00230046082000C500230047
:1026E00045082000C400C536C40CC536C40C4408D7
:1026F0002200B400B501230048082200B1002300E5
:1027000047082200B000003020004E1801302100A0
:10271000E9002200C6018831302090312200EF010B
:10272000E308031D962B32249031982B78259031A5
:1027300022004B0820005410031D541422004408AA
:102740002000D410031DD414220045082000D41307
:10275000031DD4172200480820005411031D5415EE
:10276000220049082000D411031DD4152200470877
:1027700020005412031D541622004C08200054134C
:10278000031D541722004A082000D412031DD4163A
:102790004E1021006D08193A031DDA2BC72455305D
:1027A0008531EA259031553A031D8E1EDA2B113002
:1027B0009B25903121006D08253A031DEA2B5530E9
:1027C0008531EA259031553A031D8E1EEA2B803162
:1027D000DC209031653021006D020318ED012200EC
:1027E000CD01B22AB701B31FFC2BB209B309B20A5B
:1027F0000319B30AB701B70AB51F052CB409B50907
:10280000B40A0319B50A0130B706B801B901330893
:1028100032040319252CB601B60AB31B122CB235AB
:10282000B30D0C2CB835B90D33083502031D1A2C25
:1028300032083402031C212C3208B4023308B53BA1
:102840003814B336B20CB60B122C370803192D2CE2
:10285000B809B909B80A0319B90A3908B300380820
:10286000B200080020004E1F080022008E108E11BA
:102870000E1225009513910120004E13CE1308006F
:10288000AC004F2C950108009601970108009A01B1
:10289000080028009501080028009C0108002C0869
:1028A000003A0319422C013A0319442C033A031944
:1028B000472C063A0319492C023A03194C2C602C78
:1028C000080066249031FF259031122EFB269031AE
:1028D00020005508C03F5608C13F2E3086002C30DE
:1028E0008400023085002400240822072000AC0068
:1028F00024002508233D2000AD00240026082000E8
:102900002C07AE002400270820002D3DAF00240036
:10291000280820002E07B0002400290820002F3DA1
:10292000B10024002A0820003007B20024002B0840
:102930002000313DB300003F3207B400013F333D7A
:10294000B500403F3407B600413F353DB700240095
:102950002008200036072300B700240021082000AB
:10296000373D2300B800C6003708C5000830C6361A
:10297000C50CC636C50CC636C50C2100EE0A6E0263
:10298000031C0800EE012300B701B8010800200075
:10299000541FCC2C5830EC2C220044080319D22CA4
:1029A0002130EC2C47080319D72C4230EC2C490875
:1029B0000319DC2C3730EC2C48080319E12C2C309F
:1029C000EC2C2000D41EE62C4D30EC2C541CEA2CB0
:1029D0001630EC2C0B30EC2C2000AC002200D60082
:1029E0000800230041082000B50023004208200011
:1029F000B600B70123005F082000AC002300600888
:102A00002000AD00C830AE01AF00B001B1015B25C0
:102A100090312C08B8002D08B9002E08BA002925DD
:102A2000903135082200D400D408031D1F2D053035
:102A3000D50A5502031C252D5408D000252DD5019B
:102A40005408D0002300DF01E00122005008C83CF8
:102A50000800BB01BC01BD01370836043504031969
:102A6000542DBE01BE0AB71B392DB535B60DB70DB5
:102A7000322DBB35BC0DBD0D37083A02031D462D66
:102A800036083902031D462D35083802031C4F2D28
:102A90003508B8023608B93B3708BA3B3B14B7369D
:102AA000B60CB50CBE0B392D3B08B5003C08B60082
:102AB0003D08B7000800B201B301B4012C1C662D1B
:102AC0002F08B2073008B33D3108B43DAF35B00D23
:102AD000B10DAE36AD0CAC0C2E082D042C04031D2C
:102AE0005E2D3208AC003308AD003408AE0008009B
:102AF00020004E1B0800A630CE122200AE00AF010F
:102B00002100EA01EA0ADE01DF012000D301CA0147
:102B1000CB012400CE01CF01250096012000CE1567
:102B20004E172200D801250091012200E601200065
:102B30004E169A310E2ABB00CF1D9C2D3B08B700C4
:102B40000830B8000530EB259031CF1DA52DF030B1
:102B50004F05BA0022003C0603190800200005308A
:102B6000AC0186318A269031D00086000230870081
:102B700001082400B000E9269031B100E926903127
:102B8000B200E9269031B300E9269031B400E9267D
:102B90009031B500E9269031B600E926B70030083B
:102BA0002200E200240031082000D2002400320874
:102BB0002000D100240033082200DE002400340865
:102BC0002200DF00240035082200E000240036083F
:102BD0002200E1000800CF1D080038082200C100D3
:102BE0002000CF142400C601C70120002430AD010D
:102BF000AE003330AF01B000B1013708372E2300EB
:102C00003D08B9073E08BA3D3A08C8003908C70070
:102C10000630C836C70C890B092E4708B902480888
:102C2000BA3B080024005408CC075508CD3D4D0898
:102C30002300C00024004C082300BF000630C0362B
:102C4000BF0C890B1F2E3F082400CC022300400834
:102C50002400CD3B230040082400D70023003F0878
:102C60002400D6005E08D6075F08D73D0800B200F2
:102C7000B3000F30CF050D302300B5001330B6017F
:102C80002400CA00CB0120002F082300B40020003C
:102C90002E082300B300200031082400C9002000C2
:102CA00030082400C8002000CF1D08005530250042
:102CB000A000200033089F2690312500A1002100AC
:102CC000E7012000CF1C682E02302200C0008F2EAA
:102CD0002D08023E2200C00020000230B401B501E0
:102CE000B60022004008200036020318822E360863
:102CF000A03E8600023087000108B4070318B50A19
:102D0000B60A712E22004008A03E860002308700DD
:102D1000200035083407FF3A81002200C00A230052
:102D2000FF309E159A000F302000CF054F14210070
:102D3000E81468152200C2012000CF110800AC0081
:102D40003F30AC052C1CA62E4030AC06AC1CAA2E85
:102D50004030AC062C1DAE2E4030AC062C1EB22EE0
:102D60004030AC06AC17AC1CB72E8030AC06AC1DA6
:102D7000BB2E8030AC062C1EBF2E8030AC06AC1EA5
:102D8000C32E8030AC062C08080025009601803048
:102D900022009100920121008730921225009400B8
:102DA00095010C3093009101210004301210250090
:102DB0009A00FF3098009900643020009B00053095
:102DC0009C0028302200CE00210091142000CE016A
:102DD000782D2000D00A5008860001082400080041
:102DE000C400C501C435C50DC435C50D4408B400C3
:102DF0004508B500080021006E35203E86000230EF
:102E00008700080023009E19852F2000911E852F22
:102E1000CF1D1E2F23001D080639031D852F1908FD
:102E2000803A031D852F2400ED279031FA27903139
:102E3000E81E1C2FE812852F6814852F4F1C5A2F6F
:102E400023001D0806390319292F21006708031DD7
:102E5000612F21006708023A0319E8102200430895
:102E60000319342FC303852F4208230019060319C1
:102E70003B2F6C30832F220040080319502F230072
:102E800019082200C2002100F42790310108220015
:102E9000C20023009A002200C0032100E70A852F08
:102EA0002000CF1C572F4F102100E701852F210054
:102EB0006811822FCF1C852F23001D0806390319A6
:102EC000632F7C30832F220041080319792F2100C2
:102ED000F42790312300190881002200C103230048
:102EE00019082400C6070318C70A471C4D2FC60A35
:102EF0004D2F2300190A2400C60746080319822F04
:102F00005C30832F0830E02790312000CF19C62F86
:102F10002100681DBF2FE81CA22F230036083504AE
:102F20000319962F0130B5020030B63B24004B0840
:102F30004A040319A02F0130CA020030CB3BAA2F4C
:102F40002C30A82F2300360835040319AA2F1C3073
:102F5000E02790312300340833040319B32F0130E4
:102F6000B3020030B43B2400490848040319BD2FC4
:102F70000130C8020030C93B08004C30E02F23006C
:102F800034083304031908003C30E02F2100E81A0C
:102F900008002400410840043F043E040319DD2FCB
:102FA0000130F100F201F301F401BE027208BF3BEF
:102FB0007308C03B7408C13B080021006817080073
:102FC000F000FA279031E8012400C601C70170081B
:102FD0002000CF002400ED2708002730C101C001E8
:102FE000BF00BB30BE0008006708A03E860002306C
:102FF00087000800230019082200C20021000800F1
:10300000FF3FFF3FFF3FFF3FFF3FFF3FFF3FFF3FD0
:10301000FF3FFF3FFF3FFF3FFF3FFF3FFF3FFF3FC0
:10302000FF3FFF3FFF3FFF3FFF3FFF3FFF3FFF3FB0
:10303000FF3FFF3FFF3FFF3FFF3FFF3FFF3FFF3FA0
:10336000FF3FFF3FF72904229931A60026001D08E0
:103370002200A7000A2A0230D70026001C082200DB
:10338000A80026001D082200A900053026009E0086
:10339000080004229931AA0026001D082200AB0073
:1033A0002B082300C20022002A082300C1002200AB
:1033B00026082300C102220027082300C23B220066
:1033C00029082300E000220028082300DF00220053
:1033D00026082300DF02220027082300E03B22000A
:1033E0002B08A7002A08A6000A2AD70108002200F5
:1033F0005708003A0319B329013A0319BB29033AC4
:103400000319C929F5290800D701D70A26001C0885
:1034100022000800043026009E0008000030210031
:103420005F020A3003195E020318192ADE0A031923
:10343000DF0A22003735A03E8600013087002000D9
:103440004A08C03F4B08C13F22000730B70AB70502
:10345000AE308600AC3084000130850023002408A3
:1034600022072000B20023002508233D2000B300DE
:103470002300260820003207B4002300270820007C
:10348000333DB5002300280820003407B600230090
:1034900029082000353DB70023002A082000360700
:1034A000B80023002B082000373DB900003F380743
:1034B000BA00013F393DBB00403F3A07BC00413FE5
:1034C0003B3DBD002300200820003C072200B20045
:1034D0002300210820003D3D2200B30020004B08BE
:1034E0002300CC0020004A082300CB002000CE128D
:1034F0002200E601E60A2000CE17CE1DEF2A2300A7
:103500004C082000AD0023004B082000AC006430C4
:10351000AD36AC0CAD36AC0CAD36AC0CAE00AF017C
:10352000863150269A312D082100DD0020002C081C
:103530002100DC000730DD36DC0C890B9B2A2000E3
:103540004B0821005D02031DA92A20004A08210022
:103550005C020318B72A2000EB239A3121005C0893
:103560002400CE0221005D082400CF3BCE2A240097
:10357000CE01CF01CE2AA630CA2AF4302200AE00F6
:103580000130AF00DE2A7D30CA2A5330CA2A2930E2
:10359000CA2A21302200AE00AF01DE2A21005F08D6
:1035A000003A0319D42AC92A5E0884000A300402AA
:1035B0000318C92A80310435903E820000302F0262
:1035C000213003192E020318E82A2130AE00AF0182
:1035D00020004E1E252B0A302200D800252B571C18
:1035E000F52A2400CE01CF01F92AEB239A31CF36F8
:1035F000CE0C4D30CE01CF012200AE000130AF0025
:1036000020004E1F232B250011082000530603190C
:10361000252B25001108200053020318192B250023
:1036200091031108200053020318252B2500910354
:10363000252B2500910A20005308250011020318AC
:10364000252B910A252B250091012000CA01CB01D1
:1036500021006A08FF3A031DD02B0630EA00D02B68
:1036600001302500960020004E1F392B2200FD233B
:103670009A31220009300D118D10D1002530DC0166
:10368000DC0ADD0002309200843091002000063018
:10369000AE2B01302500960020004E1F522B220039
:1036A000F3239A31220009300D158D10D100053019
:1036B000DC01DC0ADD000130920094309100200032
:1036C00057102100EA01EA0AE42B02302500960097
:1036D00020004E1F6E2B2200F8239A312200353035
:1036E0000E118D10D1000530DC00DD01DD0A9201E4
:1036F0008430910020000230AE2B0230250096006D
:1037000020004E1F862B2200FD239A3122003530E7
:103710000E118D14D1000530DC002530DD000230A3
:1037200092009430910020000330C72B0430250014
:10373000960020004E1F9F2B2200F3239A31220077
:1037400011300E110D11D1002530DC000530DD00E7
:103750000130920084309100200004305714C82BAF
:1037600004302500960020004E1FB92B2200F823BC
:103770009A31220011300E150D11D1002530DC00D8
:10378000DD01DD0A920194309100200005305710D0
:103790002100EA00E42B25009601220091015F2B15
:1037A0006A08013A0319302B033A0319492B013AED
:1037B0000319652B073A03197D2B013A0319962B40
:1037C000033A0319B02BCB2B28302200CE00200067
:1037D000CA01CB0108004B082400CF0020004A0892
:1037E0002400CE0008000E08E53912388E000800CB
:1037F0000E08E53918388E0008000E08E5390A3839
:103800008E000800CA0A0319CB0A4B0822002F02B7
:10381000031D0E2C20004A0822002E020318122C31
:10382000F0259C31003021005F020A3003195E024E
:10383000031C1C2C2000CE11003021005F0203303D
:1038400003195E02031C262C20004E128731A62786
:103850009C312200111F2E2CCF01472DCF01CF0A02
:10386000472D2D3021009D00AD259C3121009D1458
:10387000C6259C3171082400D5007008D400313071
:1038800021009D00AD259C3121009D142200E60AF7
:10389000542D5D0821009D001B082000D50021004B
:1038A0001C082000D60000000000000000000000FE
:1038B0000000000000000000000000000000000008
:1038C000000000000000422C21001B082200AC0078
:1038D00021001C082200AD0021009D1420004E1F75
:1038E000862C53080319862C571C902C22002C0878
:1038F000643EF70000302D3DF800200056087802A5
:10390000031D842C550877020318542D2200E60A63
:103910005C0821009D00AD259C3121009D14542D93
:10392000003022002D021F3003192C020318862CB0
:10393000542DCE01C6259C31D41CA82C2200510840
:1039400021009D00AD259C31210009309D14442D9E
:10395000753021009D00AD259C31462C21009D1421
:10396000C6259C3122005108402CC6259C31710887
:10397000CD007008CC004E1B1F2D162D23003008E3
:10398000CF279C310318D82C4D08F1004C08F000CB
:1039900023003008F002031CF10322006808F30042
:1039A0006708F200DB259C3171082300BD00DA2C8A
:1039B0002300BD01BE012B2D23003108CF279C31F0
:1039C0000318F62C4D08F1004C08F00023003108D4
:1039D000F002031CF10322006A08F3006908F200F8
:1039E000DB259C3171082400D000F82C2400D00184
:1039F000D1012B2D23003208CF279C310318142D21
:103A00004D08F1004C08F00023003208F002031CBE
:103A1000F10322006C08F3006B08F200DB259C31F7
:103A200071082400D2001D2D24001C2D2300BD018F
:103A3000BE012400D001D101D201D3012B2D2200DF
:103A40005108093A0319BE2C183A0319FA2C243AE2
:103A50000319DC2C162D013020004D0255300319BE
:103A60004C02031C372DE5304E1422008E05AD2587
:103A70009C3121009D142000D41C462C753021005F
:103A80009D00AD259C3105302200E600542D6608CE
:103A9000FF3E031C542D84000A3004020318542DE9
:103AA00080310435A43E820020004E1F8C2DCE1D97
:103AB0008E2D22004130CD01CD0A2400E200E30129
:103AC00020004A080339031D8E2D4E1E7C2D5608FA
:103AD00055040319802D5608F1005508F000803078
:103AE000F2003E30F300D9279C317008F9007108CC
:103AF000FA00FB01FC01802D56085504031D6B2DB7
:103B00002200580879020318872DD803882DD80A77
:103B10005808250091008E2D250091012200CE0825
:103B2000031DAB2D4F080319992D2000CE1A992D96
:103B3000CE162000CE1E080024004F084E04031DA0
:103B4000A62D2000CE190800F0250800FF30CE0772
:103B5000031CCF030800CE03080000000000000093
:103B60000000000000000000000000000000000055
:103B70000000000000000000000000000000000045
:103B8000000000000000000000000800F201210019
:103B90009D1CCF2D4130F20A7202031CC72D1C0858
:103BA0002000C90021001B082000C8004908F100BE
:103BB0004808F0000800F401F501701CE32D7208BC
:103BC000F4077308F53DF235F30DF136F00C71088A
:103BD0007004031DDD2D7508F1007408F000080065
:103BE000003021005F020A3003195E020318FB2D2A
:103BF000DE0A0319DF0A22003735A03E86000130B5
:103C0000870020004A08C03F4B08C13F2200073010
:103C1000B70AB705AE308600AC30840001308500AD
:103C20002300240822072000A00023002508233DAC
:103C30002000A1002300260820002007A200230066
:103C400027082000213DA300230028082000220788
:103C5000A400230029082000233DA50023002A08F2
:103C600020002407A60023002B082000253DA700E4
:103C7000003F2607A800013F273DA900403F280735
:103C8000AA00413F293DAB002300200820002A075D
:103C90002200B2002300210820002B3D2200B300A7
:103CA00020004B082300CC0020004A082300CB0052
:103CB0002000CE122200E601E60A2000CE17CE1D1B
:103CC000CC2E23004C08F1004B08F0006430F13694
:103CD000F00CF136F00CF136F00CF200F301DB25BC
:103CE0009C3171082100DD007008DC000730DD36F2
:103CF000DC0C890B772E20004B0821005D02031D90
:103D0000852E20004A0821005C020318942E200012
:103D10009B31EB239C3121005C082400CE02210062
:103D20005D082400CF3BAB2E2400CE01CF01AB2E8B
:103D3000A630A72EF4302200AE000130AF00BB2E1B
:103D40007D30A72E5330A72E2930A72E21302200F8
:103D5000AE00AF01BB2E21005F08003A0319B12E5F
:103D6000A62E5E0884000A3004020318A62E8031B5
:103D70000435B83E820000302F02213003192E0294
:103D80000318C52E2130AE00AF0120004E1E032FB8
:103D90000A302200D800032F571CD22E2400CE0157
:103DA000CF01D72E9B31EB239C31CF36CE0C4D303B
:103DB000CE01CF012200AE000130AF0020004E1F27
:103DC000012F25001108200053060319032F250099
:103DD0001108200053020318F72E25009103110843
:103DE000200053020318032F25009103032F250001
:103DF000910A20005308250011020318032F910A8D
:103E0000032F250091012000CA01CB0121006A087F
:103E1000FF3A031DB42F0630EA00B42F013025000D
:103E2000960020004E1F182F22009B31FD239C314D
:103E3000220009300D118D10D1002530DC01DC0A83
:103E4000DD00023092008430910020000630912F76
:103E500001302500960020004E1F322F22009B319A
:103E6000F3239C31220009300D158D10D10005304F
:103E7000DC01DC0ADD00013092009430910020006A
:103E800057102100EA01EA0AC82F023025009600E7
:103E900020004E1F4F2F22009B31F8239C3122001F
:103EA00035300E118D10D1000530DC00DD01DD0A4A
:103EB00092018430910020000230912F02302500C1
:103EC000960020004E1F682F22009B31FD239C315D
:103ED000220035300E118D14D1000530DC00253064
:103EE000DD00023092009430910020000330AB2FAF
:103EF00004302500960020004E1F822F22009B31A7
:103F0000F3239C31220011300E110D11D100253008
:103F1000DC000530DD00013092008430910020008B
:103F200004305714AC2F04302500960020004E1F9B
:103F30009D2F22009B31F8239C31220011300E1559
:103F40000D11D1002530DC00DD01DD0A9201943035
:103F500091002000053057102100EA00C82F2500ED
:103F60009601220091013F2F6A08013A03190E2F92
:103F7000033A0319282F013A0319452F073A031969
:103F80005E2F013A0319782F033A0319932FAF2FAD
:103F900028302200CE002000CA01CB010800F70023
:103FA000F80120004D087802031D08004C08770234
:103FB0000800F501F601710870040319F92FF401E6
:103FC000F40AF11BE62FF035F10DE02FF535F60D73
:103FD00071087302031DEE2F70087202031CF52F87
:103FE0007008F2027108F33B7514F136F00CF40B13
:103FF000E62F7608F1007508F0000800D3000500F0
:020000040001F9
:04000E00BCFFFFDB59
:00000001FF
