:1000000080312928FF3FFF3F803120001118111057
:10001000931C1128931088317120803188316E2013
:1000200080312000911C182891109C311F248031B0
:100030002000931D1F2893118E31CC268031200083
:10004000131F252813138831A7202000121812101F
:10005000090088018931022900346E346E346E340F
:100060000034003400340034003400340034D3341D
:10007000D334D334D034CE34CC34C934C734C5347B
:10008000C334C134BF34BD34BB34BA34B834B634ED
:10009000B434B234B134AF34AD34AC34AA34A9344E
:1000A000A734A634A434A334A234A0349F349D349E
:1000B0009C349B349A3498349734963495349434E1
:1000C0009234913490348F348E348D348C348B341C
:1000D0008A3489348834873486348534843483344C
:1000E0008234813480347F347F347E347D347C3478
:1000F0007B347A347A34793478347734773476349C
:1001000075347434743473347234723471347034BA
:1001100070346F346E346E346E346E346E346E34CC
:100120006E346E349A31CD2A9A31CF2A9A31D52A3B
:100130009A31D72A9A31D92A9A31DB2A9A31DB2A85
:100140009A31DB2A9A31DB2A9A31DB2A9C314D2CF9
:100150009C31652C9C31802C9C31FB2C9D312C2DAD
:100160009C31622C9C31622C9C31622C9D313B2D48
:100170009D31522D9E31822E9E31842E9E318A2EAB
:100180009E318C2E9E318E2E9E31902E9E31902E41
:100190009E31902E9E31902E9E31902E81313729A6
:1001A0008131372981313729813137298131372907
:1001B0008131372981313729813137291A29003096
:1001C00022002602333003192502031CF2282100E5
:1001D0004B08F8390538CB002200CE012200A501DA
:1001E000A6012F292200A50A0319A60A2F291926DC
:1001F00080314B0CBB278031031DF2282F29192693
:1002000080312F290030220026021030E328E12718
:100210008031CE012F294B08F83906381829CB1A1E
:100220002F29CB16690803192F294B08F8390438F0
:10023000CB00EE284B080739013A03190B29033A82
:1002400003190729013A0319FF28073A0319DF2880
:10025000013A0319F728033A031902290F2921004B
:100260005D082000D40021004A1A3A29482977263F
:10027000803151294A080F39FF3E031C512984005F
:10028000083004020318512980310435CE3E820023
:100290004A16690B4C294D295129AA278031CA01D8
:1002A000C90122004A08D7002100CD1D82294D1E18
:1002B00064294D08F8390338CD00DE3040020318B8
:1002C00088295C2780318829CD1E6F294D08F8398F
:1002D0000438CD00323040020318612988294D1FAF
:1002E00076294D08F8390138CD006129CD1F8829BC
:1002F0004D08F8390238CD00433040020318612917
:100300002D305E29CD15690B88294D17D3278031F3
:100310002400A90122004D08031995292100C708CE
:10032000031D95292400A901A90A24002908A80071
:100330002100CC1CAF2900303902483003193802A3
:100340000318542A013039022C30031938020318DB
:10035000542ACC10CC152200CF01CF0A542A4C1DB0
:10036000C32900303902BA3003193802031C542A59
:10037000013039022C30031938020318542A4C1169
:10038000EA268031542ACC1DEC2900303902BA30DB
:1003900003193802031CD529013039022C30031906
:1003A00038020318D529CC11C02900303902483051
:1003B000031938020318542A013039022C3003196A
:1003C00038020318542ACC114C152200D001D00A4F
:1003D000CF01CF0AD101542A4C18542A4C14690B6E
:1003E000542AC0290030220024023330031923028A
:1003F000031C002A2100ED278031C801C7016A2AA9
:100400002200A30A0319A40A6A2A2E268031490C65
:10041000BB278031031D002A6A2A2E2680316A2AD2
:10042000003022002402C93003192302031C252AAC
:1004300021004908F8390338C9002200C801C70162
:10044000C70A2200A301A4016A2A21005708031940
:10045000002A21004908F8390138C9002200A30107
:10046000A401C801C80AC701C70A6A2AD708031924
:10047000182A003022002402023003192302031834
:10048000292A002AD708031D002A4908F839043808
:10049000522AC91A6A2AC916690803196A2A490818
:1004A000F8390638C900212A210049080739013ADC
:1004B0000319422A033A0319362A013A0319052A75
:1004C000073A0319102A013A03190D2A033A0319AE
:1004D000F229492A2400AA01AA0AA808031D7F2A92
:1004E0002200D308031D7F2AD108031D7F2AC808D4
:1004F000031D7F2ACE08031D7F2A2400AA012400A1
:100500002A08BB0000302100E908031D0130240047
:10051000B3002100451F722B2400BB08031D992A3C
:10052000330803195B2B992AA001A101F830C505F6
:10053000AF2A210045080739013A0319962A033AE0
:100540000319962A013A0319942A073A0319962A9D
:10055000013A0319962A033A0319962AAF2A45133A
:10056000C517C92A210820040319092BA001A101DC
:100570004508F8390238C5008A2B03302102E930DA
:1005800003192002031CCD2A4508F8390538B42781
:1005900080312200C401C5018A2B003033020530AE
:1005A00003193202031CDB2A013033022D300319F8
:1005B0003202031C092B4508F8390138C500220016
:1005C000C5012100A001A1018A2B003023004502B2
:1005D000653003194402031CF62A21004508DA2776
:1005E0008031C401C40AC501C50A8A2B003021002C
:1005F0003302053003193202031C052B013033028C
:100600002D3003193202031CB82A2300C40A03192F
:10061000C50A2100A00A0319A10A8A2B0030210271
:100620000B3003192002031C432B0030330205302A
:1006300003193202031C232B013033022D3003191E
:100640003202031C2C2B4508DA2780311830C401F4
:10065000C40AC501C50A3C2B00302102C930031968
:1006600020024508031C3F2BF8390538B427803198
:1006700022001830C401C5012100C504452BE7390B
:100680000838C500452BE730C505450CBB27803130
:10069000031D092B8A2B00302102C93003192002C7
:1006A000031C092B4508F8390638C500A001A10133
:1006B0002200C401F32A210045080739013A031931
:1006C000E52A033A0319BD2A013A0319B22A073A67
:1006D00003194B2B013A0319B82A033A03190E2BBD
:1006E0008A2B8A2BC51F812B2400BB08031D8A2B54
:1006F0002100C51345174508F8390338B427803160
:100700008A2BC51A8A2BC5162400330803198A2B95
:100710002100B02A2400AB01AB0A2200CC08031D43
:10072000972B2100C708031D972B2400AB01240041
:100730002B08B50022005A080319A52B23006108D5
:100740002400B20023006008C02B4B080319AF2B14
:1007500023005D082400B20023005C08C02B2400A5
:1007600035080319BA2B23005B082400B2002300CC
:100770005A08C02B220036082400B2002200350897
:100780002400B100210033082400B8002100320801
:100790002400B7003108B7023208B83B2100C41C5E
:1007A000E52B37089B278B318823803121302D02A0
:1007B000B83003192C020318322C2100C410441540
:1007C00044162300C201C301302C441D2A2C1430CE
:1007D0005D020318F62B05305D02031CF62BC419CD
:1007E000052C441EF42B441244112F2CC41D072C3D
:1007F00037089B278B318823803121302D026530CB
:1008000003192C02031C322C2100C411F42B441EAA
:10081000322C37089B278B318823803121302D02E1
:10082000653003192C02031C172C2100F32B073011
:1008300023004302D13003194202031C262C21005D
:100840004412C4152200C301C30A322CC20A031980
:10085000C30A322C4418322C4414690B322CC414B1
:100860002200C301220043082100D40022004F08C7
:100870002100D200431E472C00303702B930031943
:100880003602031C832C4312C314C201832C431C65
:100890005A2C00303702B93003193602031C522C8F
:1008A00043106A2C65304202031C582C4310802CE4
:1008B000C20A832CC31C6F2C00303702B8300319D6
:1008C00036020318652CC310802C33304202031CFF
:1008D000582CC31043152200C601C60A832C431DA1
:1008E0007B2C00303702B830031936020318832CF2
:1008F00043114314452CC319832CC315690B832C56
:1009000043162200C601220046082100D50022001D
:100910004908D8005208D9002400AC01AC0A2200D2
:10092000C508031D982CC708031D982C2400AC0192
:1009300024002C082100D60022005008D6002400F4
:10094000AD01AD0ABB08031DAB2C2200C408031D7A
:10095000AB2C2400AD0124002D08B400AE01AE0A7A
:10096000B408031DB92C2100D308031DB92C2400A1
:10097000AE0124002E08B60022006E060319CA2C10
:10098000ED08031DCA2C0130EC01EB003830EA0001
:100990008030E900240034080319D02CB901312D2E
:1009A000210053080319332D240035080319DA2CCC
:1009B000CA30302D21005D082000AC00E030CB278C
:1009C0008031522680312E082400BD0020002D08E1
:1009D0002400BC00E0302000AC005F30CB27803129
:1009E000522680312C08BA002D08BB002E08BC000E
:1009F0002F08BD000730BD36BC0CBB0CBA0C890BF0
:100A0000FB2C3A082400BC0220003B082400BD3B1C
:100A1000C830BC070318BD0A3D08803AFF0080308B
:100A20007F02031D152DC9303C0203182E2D240012
:100A30003D08803AFF0080307F02031D212D3C30AD
:100A40003C02031C262D24003C08282D3C302400A9
:100A5000A400A5012508BA0024088B2DC830240065
:100A6000B900BA018C2D20000330AF01AE01AD00FA
:100A70002030AC0022006C082000B30022006B087C
:100A80002000B20022006A082000B100220069089C
:100A90002000B000F02680312D082400BF00200087
:100AA0002C082400BE0021005B082000AC00AD0132
:100AB000C2278B31882380312C082400BE072000F8
:100AC0002D082400BF3D3F08803AFF0080307F02A0
:100AD000031D6C2D01303E02031C762D00302400D6
:100AE0003F02CB3003193E020318D82C2400BF1B51
:100AF000852D00303F02283003193E02031C852D4E
:100B00003F08A7003E08A600882D2830A600A701B0
:100B10002708BA002608B9003A082000BB002400C4
:100B200039082000BA00BB36BA0C3A082100E500AB
:100B3000240036082200EE0042082000AD0022000A
:100B400041082000AC00C2278B31882380312C085B
:100B5000BA002D08BB00BA35BB0DBA35BB0DBA358E
:100B6000BB0D3A08BC003B08BD000030BD1BFF3088
:100B7000BE00BF003C082200E90720003D0822001B
:100B8000EA3D20003E082200EB3D20003F08220005
:100B9000EC3D6C08F3278031031DD82D02306B0229
:100BA000031DD82D77306A02031DD82D413069020C
:100BB0000318102E6C08F3278031031DE92D003037
:100BC0006B02031DE92D7D306A02031DE92D003003
:100BD0006902031CFB2D6C082400A30022006B0893
:100BE0002400A20022006A082400A1002200690853
:100BF0002400A000012E24007D30A301A201A10049
:100C0000A00123082200EC00240022082200EB00AF
:100C1000240021082200EA00240020082200162EC9
:100C20000230EC01EB007730EA004030E900ED01E2
:100C30000800003022002602063003192502031C9A
:100C4000282E2100E1271830CE012100CB04080016
:100C500021004B08E7390838CB0008005708031972
:100C60003C2E4908F8390238C90022001830A30187
:100C7000A4012100C90408000030220024026530CC
:100C800003192302031C4C2E2100ED271830C80144
:100C9000C7012100C904080021004908E7390838C4
:100CA000C9000800B401B501B601B7012C1C602EC3
:100CB0003008B4073108B53D3208B63D3308B73DBA
:100CC000B035B10DB20DB30DAF36AE0CAD0CAC0CF2
:100CD0002F082E042D042C04031D562E3708AF00B8
:100CE0003608AE003508AD003408AC00080020001E
:100CF000540803197F2EC8305402031C892E21008A
:100D00004A08F0390738E727CB01CA01C901C90AE7
:100D100008008C3022003402A03003193302031C77
:100D2000982EAB303402E13003193302031CB22E8B
:100D300021004A08F0390638A12E21004A08F0396E
:100D40000338E7278031AD2E21004A08F0390838F2
:100D5000CA002200CD01CD0ACC01CB01CA01CA0ACA
:100D6000C9010800063020005402031C9D2E0930E2
:100D70005402031CA42EC0305402031CC42E2100B4
:100D80004A08F0390438A12E17305402031CD32E20
:100D900021004A08F0390238CA002200CD01CB01F7
:100DA000CC01CA01B02E14305402031CE22E2100E3
:100DB0004A08F0390538CA002200CD01CC01CB0128
:100DC000CB0AD12E14305402031808002100AA27A0
:100DD0008031D12ECC142200D001CF01D1010800E6
:100DE000B501AF1F002FAC09AD09AE09AF09AC0AC0
:100DF0000319AD0A0319AE0A0319AF0AB501B50A02
:100E0000B31F0F2FB009B109B209B309B00A031912
:100E1000B10A0319B20A0319B30A0130B506B601C3
:100E2000B701B801B9012F082E042D042C040319B1
:100E3000452FB401B40AAF1B222FAC35AD0DAE0D5A
:100E4000AF0D1A2FB635B70DB80DB90D2F083302F7
:100E5000031D342F2E083202031D342F2D083102BA
:100E6000031D342F2C083002031C3F2F2C08B00226
:100E70002D08B13B2E08B23B2F08B33B3614AF36DA
:100E8000AE0CAD0CAC0CB40B222F35080319532F4C
:100E9000B609B709B809B909B60A0319B70A031997
:100EA000B80A0319B90A3908AF003808AE00370884
:100EB000AD003608AC000800E7304002031C6F2F7D
:100EC000852780314D16662F8527CD162200D30148
:100ED000D30A2100C7012200D201D20A08002D3016
:100EE0004002031C642F852780313F3040020318E5
:100EF000822FCD172200D3012100C701C70A22008B
:100F0000D20108004D17D32708008E2F4D1208007C
:100F1000CD120800CD1308004D1308004D08073905
:100F2000023A03198A2F013A0319862F073A031947
:100F3000882F8C2F08002000AD00210036082000EB
:100F4000AC00210033082000AF002100320820004F
:100F5000AE0008004A08F0390138CA002200CD016D
:100F6000CD0ACC01CB010800C500A001A1012300DE
:100F7000C401C50108002000BA00BA0C3A0C0339BC
:100F8000033A0800240038082000AF002400370886
:100F90002000AE000800AD01AE01AF01B000B1010C
:100FA000B201B30108002200D3012100C7012200D1
:100FB000D2010800F8390438C500A001A1012200BF
:100FC00008004B08F8390338CB0022000800CA009B
:100FD0002200CD01CC01CC0A08004908F8390538B7
:100FE000C90022000800803AFF0080307F0208001C
:100FF000640080010131890BF92F0034FF3FFF3F6E
:10100000FF3FFF3FFF3FFF3FFF3FFF3FFF3FFF3FF0
:10101000FF3FFF3FFF3FFF3FFF3FFF3FFF3FFF3FE0
:10102000FF3FFF3FFF3FFF3FFF3FFF3FFF3FFF3FD0
:10103000FF3FFF3FFF3FFF3FFF3FFF3FFF3FFF3FC0
:10104000FF3FFF3FFF3FFF3FFF3FFF3FFF3FFF3FB0
:10105000FF3FFF3FFF3FFF3FFF3FFF3FFF3FFF3FA0
:10106000FF3FFF3FFF3FFF3FFF3FFF3FFF3FFF3F90
:10107000FF3FFF3FFF3FFF3FFF3FFF3FFF3FFF3F80
:10108000FF3FFF3FFF3FFF3FFF3FFF3FFF3FFF3F70
:10109000FF3FFF3FFF3FFF3FFF3FFF3FFF3FFF3F60
:1010A000FF3FFF3FFF3FFF3FFF3FFF3FFF3FFF3F50
:1010B000FF3FFF3FFF3FFF3FFF3FFF3FFF3FFF3F40
:1010C000FF3FFF3FFF3FFF3FFF3FFF3FFF3FFF3F30
:1010D000FF3FFF3FFF3FFF3FFF3FFF3F2100E20A8F
:1010E000080021006430DC0A5C02031C7B28DC0160
:1010F00022000E1008005F085C02031C080022009A
:101100000E140800F501F601710870040319A228F5
:10111000F401F40AF11B8F28F035F10D8928F5351B
:10112000F60D71087302031D972870087202031CE4
:101130009E287008F2027108F33B7514F136F00C2A
:10114000F40B8F287608F1007508F0000800EB28F2
:10115000F8208831A60026001D082100A700FE28DF
:101160000230DF0026001C082200AD0026001D080A
:101170002200AE00053026009E000800F8208831CD
:10118000A80026001D082100A90029082200B2009D
:10119000210028082200B100210026082200B10207
:1011A000210027082200B23B2E082300EE00220077
:1011B0002D082300ED00210026082300ED02210068
:1011C00027082300EE3B21002908A7002808A600D5
:1011D000FE28DF01080022005F08003A0319A82852
:1011E000013A0319B028033A0319BE28E928080078
:1011F000DF01DF0A26001C08210008000430260059
:101200009E0008005030DF018400003085000F3060
:101210008731F8278931A0308400003085004930BB
:101220008731F8278931203084000130850049302A
:101230008731F8278931A0308400013085004F3094
:101240008731F82789314030840002308500103022
:101250008731F82789318030E0002200E9003830FA
:10126000EA000130EB00EC01ED00EE00200038292F
:10127000072589310430672389312200E7012100E5
:1012800062082000CA00CB014B08CD00220067088D
:1012900020004A02CC00031CCD034D0403193F2952
:1012A000210062082200E700E00AE10A2100E10AC9
:1012B000E61C6129C83020009B0021006535200014
:1012C00078297D3020009B000430B200B30121005A
:1012D00065082000AC000530AD01AE00AF018823E9
:1012E00089312D08B5002C08B40019238931320842
:1012F000DA00C42389310330220060020318E001C0
:1013000005306102031C692AE10164009531F12571
:1013100089312100DD0022003208B4003108B30019
:1013200021003D08B3003C08B20005302200C10096
:10133000C2012100DB01E61CB6295D362D3E80315D
:101340000A00893189362200B5008C30B60180311F
:101350000A00893189362300DA003830DB01803118
:101360000A0089318936DC00DD01F02905302000D2
:10137000B200B30121005D362D3E80310A00893173
:101380002000F4248931192333082200B6002000FC
:1013900032082200B50005302000B2008C30B301C5
:1013A00080310A008931F42489311923330823005C
:1013B000DB00200032082300DA0005302000B200F4
:1013C0003830B30180310A008931F424893119237E
:1013D000893133082300DD00200032082300DC00BF
:1013E000003021003102B930031930020318032AFA
:1013F000023025026030031924020318032A310841
:10140000B9003008B80000303102BA300319300298
:10141000031C0E2A2508B9002408B8000230250252
:10142000613003192402031C192A3108B90030085D
:10143000B80022003C082000CB0022003B08FF241B
:101440002100C000C10122003E082100B700220097
:101450003D082100B6000030200055180130210061
:10146000D700D3018031DE2089312100E901E50870
:10147000031D3D2A592389313F2A31248931220015
:10148000580821006610031D66145208E610031D5B
:10149000E614220056082100E613031DE61755083E
:1014A0006611031D66155608E611031DE61554085E
:1014B0006612031D66162200590821006613031DDB
:1014C0006617220057082100E612031DE6162000C9
:1014D000551021006108193A031D7D2A9D235530BE
:1014E00095318B258931553A031D8E1E7D2A113089
:1014F0008C175424893120008C1321006108253A6F
:10150000031D902A553095318B258931553A031D9D
:101510008E1E902A8C1791317621893120008C13F0
:1015200021006108323A031DB32A66082000B70083
:10153000220041082000B80021005B082000B9000B
:1015400021003C082000BA005508BB0022003508E5
:101550002000BC0021005F082000BD002A30BE0131
:1015600095319625893161084B3A031DF02A2000F8
:101570001B08B700210064082000B80022003208D0
:101580002000B9005A08BA0021005D082000BB0005
:10159000210031082000CB0021003008FF24BC00CE
:1015A000210025082000CD00210024082000CC00C7
:1015B000CD36CC0CCD36CC0C4C08BD002100390802
:1015C0002000CF00210038082000CE00CF36CE0CFE
:1015D000CF36CE0C4E08BE002B3095319625893182
:1015E00065306102031C162BE10136082000B700AC
:1015F00023005E082000B80021002A082000B9005E
:1016000021002C082000BA005B08BB002200200843
:101610002000BC00220021082000BD00220022087A
:101620002000BE002C309531962589312200DA0148
:101630003F29B701B31F232BB209B309B20A03191B
:10164000B30AB701B70AB51F2C2BB409B509B40A00
:101650000319B50A0130B706B801B90133083204DD
:1016600003194C2BB601B60AB31B392BB235B30D97
:10167000332BB835B90D33083502031D412B320821
:101680003402031C482B3208B4023308B53B38142B
:10169000B336B20CB60B392B37080319542BB809E3
:1016A000B909B80A0319B90A3908B3003808B200F1
:1016B00008002000551F080022008E108E110E1207
:1016C00025009513910120005513D5130800AC0097
:1016D000762B950108009601970108009A010800F1
:1016E00028009501080028009C0108002C08003AF9
:1016F0000319692B013A03196B2B033A03196E2B5B
:10170000063A0319702B023A0319732B872B080032
:10171000B001B1012C1C902B2E08B0072F08B13D51
:10172000AE35AF0DAD36AC0C2D082C04031D8A2B45
:101730003108AD003008AC000800661FA12B5830FE
:10174000BF2B52080319A62B2130BF2B54080319B5
:10175000AB2B4230BF2B56080319B02B3730BF2BB1
:1017600055080319B52B2C30BF2BE61EB92B4D3075
:10177000BF2B661CBD2B1630BF2B0B30BF2B2000A0
:10178000AC002100DF000800C9238931BB24893166
:10179000C42F21006735403E8600023087002000BC
:1017A0005D08C03F5E08C13F4E3086004C3084006B
:1017B000023085002400440842072000AC002400C9
:1017C0004508433D2000AD002400460820002C07BA
:1017D000AE002400470820002D3DAF00240048083B
:1017E00020002E07B0002400490820002F3DB10042
:1017F00024004A0820003007B20024004B082000D3
:10180000313DB300003F3207B400013F333DB50026
:10181000403F3407B600413F353DB7002400400843
:10182000200036072300CC00240041082000373D6B
:101830002300CD002200BC0023004C082200BB0086
:101840000830BC36BB0CBC36BB0CBC36BB0C210014
:10185000E70A6702031C0800E7012300CC01CD0161
:1018600008002000551B0800A630D5122200B90040
:10187000BA012100D801D80ABE01BF012000DA0157
:10188000D201D3012300D401D50125009601200007
:10189000D51555172100E001250091012200E8012E
:1018A000200055169A31212ABB00D61D552C3B0825
:1018B000B7000830B8000530A6248931D61D5E2C4B
:1018C000F0305605BA002100480603190800200030
:1018D0000530AC01A3248931D70086000130870090
:1018E00001082300B000ED248931B100ED248931D5
:1018F000B200ED248931B300ED248931B400ED2428
:101900008931B500ED248931B600ED24B7003008E7
:101910002100E400230031082000D9002300320810
:101920002000D800230033082200E30023003408FD
:101930002200E400230035082200E50023003608D9
:101940002200E60008002C08E23E0800D61D080030
:1019500038082200D4002000D6142300C601C70195
:1019600020002430AD01AE003330AF01B000B10132
:1019700037089731732F03302000AC00AD012100F0
:101980002C082A072000B30021002D082B3D200041
:10199000B4005B083307AE005C08343DAF009631FD
:1019A0002F2689312C082300CE0720002D08230084
:1019B000CF3D4F082200BE0023004E082200BD008C
:1019C0000630BE36BD0C890BE12C3D082300CE024B
:1019D00022003E082300CF3B08002000D70A57080A
:1019E0008600010823000800CA00CB01CA35CB0DD0
:1019F000CA35CB0D4A08B4004B08B50008002000DA
:101A0000CA00CB36CA0CCB36CA0C4A080800813053
:101A100021009500E901E90A8B138B0191019201E4
:101A200093012200E001E1012100E101AC258931AF
:101A30007825893193258931BD25893101303625B5
:101A40008931043036258931063036258931053013
:101A5000C32589316F258931192689311D268931A0
:101A600038268931A9260B178B1708002000AD00F6
:101A70005D2D003067238B1208000130672375301D
:101A80002000980021001110080002306723073061
:101A900020009C00210091100800043067230E30C4
:101AA00028009700210093140800063067230530B2
:101AB00028009E002100931508002D08003A031904
:101AC000392D013A03193D2D033A0319452D063AE4
:101AD00003194D2D023A0319552D6E2D0800A03023
:101AE00021009E009D0130301D1422009704080043
:101AF00020008E12AC017E2D000000002000AC0BF7
:101B00007C2D8E16AD01862D000000002000AD0B4F
:101B1000842D8E12AE018E2D000000002000AE0B31
:101B20008C2D8E1608009F3023009B0001309C00F6
:101B300026309E0090309D0048309F00210091018A
:101B400023002730B8272200D5012000D60121002C
:101B5000D1012000D6150800273023008C00293041
:101B60008D0022008C018D018E017F3021008C00C0
:101B700039308D0080308E000800F030210099004F
:101B80001130970008002000AC002100DE01220087
:101B9000DE01062E2500930191019201210011150D
:101BA00020000530111125009300080025009A013E
:101BB000980199012100121420000530121025000F
:101BC0009A0008002600930191019201210013164A
:101BD00020000530131226009300080026009A0109
:101BE00098019901210093162000053093122600D8
:101BF0009A00080026009E019C019D0121001317F8
:101C000020000530131326009E00080020002C0839
:101C1000013A0319CA2D033A0319D62D013A0319C3
:101C2000E22D073A0319EE2D013A0319FA2D182E69
:101C3000080021000B30E601BF2BE70108306702E6
:101C40000318080031309D007826893191268931AA
:101C50002D08DE002C08DD0021006735403E86009F
:101C6000023087005E30C03F0130C13FE70A1E2EC0
:101C700022001A300E110D118D108E047826893134
:101C800078268931093021009D007826893121008C
:101C90009D14912689312D082100AB0020002C08CD
:101CA0002100AA002A082200A000353021009D0052
:101CB0007826893121009D14912689312D08210033
:101CC000AD0020002C082100AC002C082200A1004F
:101CD000113021009D007826893121009D14912624
:101CE0002D08DC002C08DB005B082200A2000800A5
:101CF00000000000000000000000000000000000E4
:101D000000000000000000000000000000000000D3
:101D100000000000000000000000000000000000C3
:101D200008002000AE0121009D1C9C2E20004130A7
:101D3000AE0A2E02031C932E21001C082000D100A5
:101D400021001B082000D0005108AD005008AC0055
:101D500008002500960180302200910092012100A8
:101D6000873092122500940095010C309300910168
:101D700021000430121025009A00FF3098009900CD
:101D8000643020009B0005309C0028302100D900E1
:101D900091142000D501312C23009E194D2F2000D5
:101DA000911E4D2FD61DE92E23001D080639031D57
:101DB0004D2F1908803A031D4D2F2730B827893140
:101DC00019082100D000D11EE72ED1124D2F511439
:101DD0004D2F561C242F23001D0806390319F42EFD
:101DE00021004E08031D2B2F21004E08023A031933
:101DF000D110220055080319FF2ED5034D2F2100C5
:101E00005008230019060319072F6C304B2F2100AF
:101E10004F0803191A2F230019082100D000BE27EC
:101E200089310108D00023009A002100CF0321004E
:101E3000CE0A4D2F2000D61C212F56102100CE0196
:101E40004D2F210051114A2FD61C4D2F23001D0864
:101E5000063903192D2F7C304B2F2200540803190B
:101E6000422F2100BE27893123001908810022005A
:101E7000D40323001908C6070318C70A471C172FE5
:101E8000C60A172F2300190AC607460803194A2F46
:101E90005C304B2F0830A82789312000D6198E2FAF
:101EA0002100511D872FD11C6A2F22002A082904E6
:101EB00003195E2F0130A9020030AA3B23004B0812
:101EC0004A040319682F0130CA020030CB3B722F3D
:101ED0002C30702F22002A0829040319722F1C307D
:101EE000A827893122002808270403197B2F0130F5
:101EF000A7020030A83B2300490848040319852F96
:101F00000130C8020030C93B08004C30A82F220025
:101F100028082704031908003C30A82F2100D11AF3
:101F200008002300410840043F043E040319A52F84
:101F30000130F100F201F301F401BE027208BF3B6F
:101F40007308C03B7408C13B08002100511708000A
:101F5000F000230019082100D000D1012300C601A0
:101F6000C70170082000D60023002730B8270800DA
:101F7000C101C001BF00BB30BE0008004E08E23EF8
:101F800086000130870008005808D2075908D33D61
:101F900053082100B100230052082100B000063090
:101FA000B136B00C890BD02F30082300D2022100AB
:101FB00031082300D33B5608D0075708D13D5108BC
:101FC0002100A300230050082100A2000630A33600
:101FD000A20C890BE72F22082300D002210023083E
:101FE0002300D13B21002308A5002208A4002200E1
:101FF00037082100A407220038082100A53D080069
:10200000FF3FFF3FFF3FFF3FFF3FFF3FFF3FFF3FE0
:10201000FF3FFF3FFF3FFF3FFF3FFF3FFF3FFF3FD0
:10202000FF3FFF3FFF3FFF3FFF3FFF3FFF3FFF3FC0
:10203000FF3FFF3FFF3FFF3FFF3FFF3FFF3FFF3FB0
:1022E000FF3FFF3FFF3FFF3FFF3FFF3F21006408ED
:1022F0003B3A03195C2D862D6008803A031D0800C7
:102300009030E00022003A30DB01DB0A2000B70009
:102310008030B8001030B9014F279131962D6008F8
:10232000903A031D0800D329F0308B259131C70066
:10233000F1308B259131C600F2308B259131C800E8
:10234000F3308B259131C9000230C501C401220050
:10235000DB00DC29EB308B259131C700EC308B257D
:102360009131C600ED308B259131C800EE308B25C0
:102370009131C900EF308B259131C5009130C401F6
:10238000E000DC29FF302000D8002200E300E40058
:10239000E500E6007F302000B7009030F82691314C
:1023A00096259131DC2922005B08013A0319942912
:1023B000033A0319AA29C22920004708FF3A031942
:1023C000FB294608FF3A0319FB294808FF3A03197D
:1023D000FB294908FF3A0319FB294508FF3A03196D
:1023E000FB294408FF3A0319FB293A30DC269131D6
:1023F00063279131962D7F30B7009030F8269131C8
:10240000962D6008913A031D0800F4308B25913118
:10241000C700F5308B259131C600F6308B25913100
:10242000C800F7308B259131C900F8308B259131E8
:10243000C5004708FF3A031D332A4608FF3A031D2B
:10244000332A4808FF3A031D332A4908FF3A031D7F
:10245000332A4508FF3A031D332A3A30DC269131EE
:102460006E279131362A7F30D126913196259230D0
:102470002000E00008006008923A031D08002830A0
:10248000C0000230C1002100220820004002C2002A
:10249000210023082000413BC300B3000030D925B0
:1024A000913121002208283C2000B3000130D925B9
:1024B000913101308B259131C00000308B25913155
:1024C0002200B800200040082200B70021002207A7
:1024D0002000C000220038082100233D2000C10058
:1024E000C136C00CC136C00C4008C70022003808F5
:1024F0002000C1002200370847279131C600470855
:102500008A3A031D882A3A30B7000F2791318B2A67
:102510007F30D1269131962593302000E0000800CD
:102520006008933A031D0800A32691312D0822006C
:10253000AC0020002C082200AB00FF3023006827ED
:10254000913115140000000023001408BB0013088B
:10255000BA00FE30682791311514000000002300F6
:102560001408BD001308BC000430B83E86000130DA
:1025700087003A082000C100C001403F4007230007
:10258000B800413F2000413D2300B9003808200039
:10259000C80022002B082000C90022002C082300BC
:1025A0003906031DD72A22002B0823003806031DF5
:1025B000EA2A3A302000B7005908B8000830B900BC
:1025C0000330BA004808BB004908BC001030BD0108
:1025D000BE01EE2A7F302000D1269131962594301D
:1025E0002000E00008006008943A031D0800220063
:1025F0003C082000C10022003B0847279131C7005A
:102600006D304702031C0D2B7230470203180D2B4F
:102610003A30B7003C279131102B7F30D1269131D1
:10262000962595302000E00008006008953A031DCB
:1026300008008B3159239131220009308E140E1578
:102640002100DA002B082000C10021002A084727BA
:102650009131C70029304702031C372B3230470223
:102660000318372B3A30B7003C2791313A2B7F3093
:10267000D1269131962596302000E00008006008B0
:10268000963A031D08008B315923913122003530D1
:102690008E150D152100DA002D082000C100210043
:1026A0002C0847279131C70029304702031C612BB2
:1026B000323047020318612B3A30B7003C27913182
:1026C000642B7F30D1269131962597302000E00091
:1026D00008006008973A031D08008B315923913197
:1026E000220011300E168D142100DA005527913189
:1026F0002F2691312D08B3000630D9259131552769
:1027000091312F2691312C08B3000730D925913112
:1027100007308B259131C00006308B252200B00098
:10272000200040082200AF0020005C08AD005B08DC
:10273000AC00220030082000AF0022002F0820004B
:10274000AE008B31882391312D0E0F39C700220046
:1027500030082000C60029304702031CB82B323055
:1027600047020318B82B3A30B7000F279131BB2B23
:102770007F30D1269131962598302000E00021004D
:10278000E801E80A08006008983A031D08005808A4
:10279000013A0319DE2B033A0319012C013A0319FC
:1027A000242C073A0319472C013A03196A2C033ADF
:1027B00003198D2C013A0319B02CD42C5E279131CA
:1027C000031D08005808C700F125913129278031E1
:1027D0000A0093311B2791310318FB2B2000E826B8
:1027E00091310318FB2B3A302000DC269131103058
:1027F000BD01BE01FD2B0127913196250230E80075
:1028000008005E279131031D08005808C700F12514
:102810009131292780310A0094311B279131031807
:102820001E2C2000E826913103181E2C3A3020007F
:10283000DC2691311030BD01BE01202C01279131E1
:1028400096250330E80008005E279131031D08003B
:102850005808C700F1259131292780310A009431A9
:102860001B2791310318412C2000E82691310318D1
:10287000412C3A302000DC2691311030BD01BE01E0
:10288000432C0127913196250430E80008005E278B
:102890009131031D08005808C700F12591312927FF
:1028A00080310A0094311B2791310318642C2000D9
:1028B000E82691310318642C3A302000DC2691314F
:1028C0001030BD01BE01662C0127913196250530DF
:1028D000E80008005E279131031D08005808C70072
:1028E000F1259131292780310A0094311B2791313C
:1028F0000318872C2000E82691310318872C3A30E2
:102900002000DC2691311030BD01BE01892C012749
:10291000913196250630E80008005E279131031DAD
:1029200008005808C700F1259131292780310A0095
:1029300094311B2791310318AA2C2000E8269131ED
:102940000318AA2C3A302000DC2691311030BD014A
:10295000BE01AC2C0127913196250730E800080014
:102960005E279131031D08005808C700F1259131F9
:10297000292780310A0094311B2791310318CD2C6F
:102980002000E82691310318CD2C3A302000DC26B7
:1029900091311030BD01BE01CF2C01279131962518
:1029A0009F302000E000080033279131D12691317B
:1029B000962D60089F3A031D08003A30DC269131BD
:1029C000632791319625A0302000E00008006008C0
:1029D000A03A031D08005808B300F430D9259131FE
:1029E000220063082000B300F530D9259131220080
:1029F00064082000B300F630D92591312200650823
:102A00002000B300F730D92591312200660820005C
:102A1000B300F830D9259131F4308B259131C700BE
:102A2000F5308B259131C600F6308B259131C800E9
:102A3000F7308B259131C900F8308B259131C500D5
:102A40004708FF3A03193A2D4608FF3A03193A2D71
:102A50004808FF3A03193A2D4908FF3A03193A2D5D
:102A60004508FF3A03193A2D3A30DC2691316E279A
:102A700091313D2D7F30D12691319625FA302000BD
:102A8000E00008006008FA3A031D08003A30B70079
:102A90005908B8001030B9014F279131962591316E
:102AA00055302000B300D92520008E1208003327AE
:102AB0009131D1269131962D20005908803A031981
:102AC0007C29103A03198F29013A0319012A033A84
:102AD00003193B2A013A0319902A073A0319F32AEA
:102AE000013A0319152B033A03193F2B013A031935
:102AF000692B0F3A0319C32B073A0319D92C3F3A14
:102B00000319E72C5A3A0319422D572D7F30200024
:102B1000D1269131962D2000AC0023009100951311
:102B20001513151413082000AD000800BF00D61DB2
:102B3000972D0230AC0005308C31A3249131D700A1
:102B400086000130870037088100D70A57088600C1
:102B500038088100D70A5708860039088100D70A4B
:102B6000570886003A088100D70A570886003B08B4
:102B70008100D70A570886003C088100D70A570809
:102B800086003D088100D70A570886003E0881006C
:102B90000830D70AAD005530AE007730AF01B00035
:102BA000B1013F08732756082100C800F030C8055E
:102BB0000800B40023009100200033082300930094
:102BC00055301513951315158B139600AA309600E2
:102BD00095148B1715112300951C080000000000A8
:102BE000EB2D220031082000B50022003208200021
:102BF000B600B70123006D082000AC0023006E086A
:102C00002000AD00C830AE01AF00B001B101862692
:102C100091312C08B8002D08B9002E08BA005426AE
:102C2000913135082100DE00DE08031D222E22002E
:102C30000530DE0A5E02031C2B2E21005E082200F6
:102C4000DD002B2E2200DE0121005E082200DD00C7
:102C50002300ED01EE0122005D08C83C0800B00130
:102C6000B1012D082C0403194F2EB201B20AAD1B7D
:102C70003C2EAC35AD0D362EB035B10D2D082F02E2
:102C8000031D442E2C082E02031C4B2E2C08AE02D2
:102C90002D08AF3B3014AD36AC0CB20B3C2E3108D6
:102CA000AD003008AC000800BB01BC01BD01370815
:102CB0003604350403197F2EBE01BE0AB71B642EED
:102CC000B535B60DB70D5D2EBB35BC0DBD0D370846
:102CD0003A02031D712E36083902031D712E350884
:102CE0003802031C7A2E3508B8023608B93B37087B
:102CF000BA3B3B14B736B60CB50CBE0B642E3B0882
:102D0000B5003C08B6003D08B7000800B201B301A9
:102D1000B4012C1C912E2F08B2073008B33D3108A6
:102D2000B43DAF35B00DB10DAE36AD0CAC0C2E08C8
:102D30002D042C04031D892E3208AC003308AD008D
:102D40003408AE000800FE30B201B301B001B10199
:102D5000AE001F30AF000130AE020030AF3B2E0A94
:102D600003192F0A0319CC2E3208230091002000EA
:102D70003308230092001511951715140000000068
:102D8000230013082000B007230014082000B13DE1
:102D9000B20A0319B30AAB2E3108AD003008AC00FB
:102DA0000800B7005908B800FF30B900BA00BB00EE
:102DB000BC00BD00BE001034B7005908B800470879
:102DC000B9004608BA004808BB004908BC00080022
:102DD0004908FE3EC000FF3003180030C100803AB1
:102DE000C20080304202031D08004808400208006B
:102DF000B800FF30B900BA00BB00BC00BD00BE0087
:102E000010347F302000B7005908B8005808B900C6
:102E1000FF30BA00BB00BC00BD00BE001034590832
:102E2000B8004708B9004608BA001030BB01BC0121
:102E3000BD01BE010800C900023EC00000300318F9
:102E40000130C100803A803C031D08004008480260
:102E5000080089362000C60021003C082000C80078
:102E600046082D3E0800FF30D8002200E300E400B1
:102E7000E500E60020007F345908B8004708B90093
:102E80001030BA01BB01BC01BD01BE010800200029
:102E9000C000C136C00CC136C00C40080800BA01E1
:102EA000BB01BC01BD01BE01080020005C08AD00F3
:102EB0005B08AC00C030AE01AF000800210068081C
:102EC0002000580608004508BD004408BE00103424
:102ED00091001F3092001511951708004508BD009C
:102EE0001030BE010800B200B3000F30D6050D301F
:102EF0002200A9001330AA012300CA00CB01200040
:102F00002F082200A80020002E082200A700200081
:102F100031082300C900200030082300C800200029
:102F2000D61D080055302300E20020003308DA27C0
:102F300091312300E3002100CE012000D61CA42FF4
:102F400002302100CF00CB2F2D08023E2100CF0000
:102F500020000230B401B501B60021004F08200066
:102F600036020318BE2F3608E23E86000130870085
:102F70000108B4070318B50AB60AAD2F21004F089F
:102F8000E23E860001308700200035083407FF3A12
:102F900081002100CF0A2300FF309E159A000F30D8
:102FA0002000D60556142100D1145115D00120005F
:102FB000D6110800AC003F30AC052C1CE12F40308E
:102FC000AC06AC1CE52F4030AC062C1DE92F403080
:102FD000AC062C1EED2F4030AC06AC17AC1CF22F0B
:102FE0008030AC06AC1DF62F8030AC062C1EFA2FBC
:102FF0008030AC06AC1EFE2F8030AC062C080800DA
:10300000FF3FFF3FFF3FFF3FFF3FFF3FFF3FFF3FD0
:10301000FF3FFF3FFF3FFF3FFF3FFF3FFF3FFF3FC0
:10302000FF3FFF3FFF3FFF3FFF3FFF3FFF3FFF3FB0
:10303000FF3FFF3FFF3FFF3FFF3FFF3FFF3FFF3FA0
:10344000FF3F003021003F020A3003193E020318FB
:103450002C2ABE0A0319BF0A4635A03E8600013059
:10346000870020005208C03F5308C13F21000730A9
:10347000C60AC605AE308600AC3084000130850037
:103480002300240822072000B20023002508233D42
:103490002000B3002300260820003207B4002300D8
:1034A00027082000333DB5002300280820003407FA
:1034B000B600230029082000353DB70023002A0864
:1034C00020003607B80023002B082000373DB90044
:1034D000003F3807BA00013F393DBB00403F3A0783
:1034E000BC00413F3B3DBD002300200820003C07BD
:1034F0002100BC002300210820003D3D2100BD002B
:10350000200053082200C000200052082200BF0003
:103510002000D5122200E801E80A2000D517D51DA9
:10352000012B220040082000AD0022003F082000AF
:10353000AC006430AD36AC0CAD36AC0CAD36AC0C7A
:10354000AE00AF018B3188239A312D082100BB00DA
:1035500020002C082100BA000730BB36BA0C890BBA
:10356000AD2A2000530821003B02031DBB2A200086
:10357000520821003A020318C92A2000FE239A317A
:1035800021003A082300D40221003B082300D53B48
:10359000E02A2300D401D501E02AA630DC2AF43049
:1035A0002200B9000130BA00F02A7D30DC2A533005
:1035B000DC2A2930DC2A21302200B900BA01F02AA5
:1035C00021003F08003A0319E62ADB2A3E0884005E
:1035D0000A3004020318DB2A80310435923E82004F
:1035E00000303A022130031939020318FA2A213037
:1035F000B900BA012000551E372B0A302100E00027
:10360000372B5F1C072B2300D401D5010B2BFE2386
:103610009A31D536D40C4D30D401D5012200B900F1
:103620000130BA002000551F352B2500110820005D
:103630005A060319372B2500110820005A020318D7
:103640002B2B25009103110820005A020318372B59
:1036500025009103372B2500910A20005A082500E8
:1036600011020318372B910A372B250091012000F6
:10367000D201D30121005808FF3A031DE42B063084
:10368000D800E42B0130250096002000551F4B2B5D
:1036900022001A249A31220009300D118D102100C8
:1036A000DA002530E301E30A2200E2000230920052
:1036B0008430910020000630C52B01302500960093
:1036C0002000551F662B220010249A312200093059
:1036D0000D158D102100DA000530E301E30A220008
:1036E000E200013092009430910020005F10210030
:1036F000D801D80AF82B0230250096002000551F6B
:10370000842B220015249A31220035300E118D10A1
:103710002100DA00053006249A318430910020001F
:103720000230C52B0230250096002000551F9B2B30
:1037300022001A249A31220035300E118D142100F6
:10374000DA000530E30025302200E200023092006A
:103750009430910020000330DB2B043025009600CC
:103760002000551FB62B220010249A312200113060
:103770000E110C249A31E30005302200E2000130E2
:10378000920084309100200004305F14DC2B043060
:10379000250096002000551FD02B220015249A31B9
:1037A000220011300E150C249A3106249A319430DF
:1037B0009100200005305F102100D800F82B250073
:1037C000960122009101752B5808013A0319422BEA
:1037D000033A03195D2B013A03197B2B073A0319AE
:1037E000922B013A0319AD2B033A0319C72BDF2B98
:1037F0002830D9002000D201D3010800530823004B
:10380000D500200052082300D4000800E300220065
:10381000E201E20A920108000D112100DA002534CC
:103820000E08E53912388E0008000E08E539183800
:103830008E0008000E08E5390A388E000800D20A0A
:103840000319D30A530822003A02031D2B2C20002F
:1038500052082200390203182F2CDB259C3100303E
:1038600021003F020A3003193E02031C392C2000BC
:10387000D511003021003F02033003193E02031C22
:10388000432C20005512D3279C312200111F4A2CB3
:10389000DC01452DDC01DC0A452D2D3021009D0089
:1038A000C2259C3121009D14AD259C317108230057
:1038B000D9007008D800313021009D00C2259C310C
:1038C00021009D142200E80A522D21005A089D0073
:1038D0001B082000DD0021001C082000DE00000085
:1038E00000000000000000000000000000000000D8
:1038F00000000000000000000000000000005E2C3E
:10390000AD259C3171082100AF007008AE00200089
:10391000551BD02CC72C22002008F4279C310318FB
:103920009C2C2F08AB002E08AA00220020082100A2
:10393000AA02031CAB03DC2CAA01AB01DC2C220085
:103940002108F4279C310318B02C2F08AD002E0855
:10395000AC00220021082100AC02031CAD03DC2CCA
:10396000AC01AD01DC2C22002208F4279C310318A5
:10397000CC2C2F082000DC0021002E082000DB00CA
:10398000220022082000DB02031CDC03DC2C2100C7
:10399000AA01AB01AC01AD012000DB01DC01DC2C94
:1039A00021005A08093A03198B2C183A0319B32C31
:1039B000243A03199F2CC72C013021002B022D30F3
:1039C00003192A020318F32C01302D022D3003199C
:1039D0002C020318F32C013020005C022D30031957
:1039E0005B02031CF82C2000E530551422008E05E4
:1039F000220062085C2C21001B08B4001C08B500E2
:103A00009D142000551F192D5A080319192D5F1CEC
:103A1000232D21003408643EF7000030353DF800C6
:103A200020005E087802031D172D5D087702031839
:103A3000522D2200E80A210063089D00C2259C3116
:103A400021009D14522D0030210035021F30031932
:103A500034020318192D522D2100D901AD259C31B6
:103A600071082300DF007008DE00753021009D0022
:103A7000C2259C31622C21009D14AD259C3171081A
:103A80002300D7007008D600622C6808FF3E031C94
:103A9000522D84000A3004020318522D803104355F
:103AA000A63E82002000551F8B2DD51D8D2D220096
:103AB0004130DA01DA0A2300E000E1012000520877
:103AC0000339031D8D2D551E7B2D5E085D040319E2
:103AD0007F2D5E08F1005D08F0008030F2003E307E
:103AE000F300883182209C317008F9007108FA00D7
:103AF000FB01FC017F2D5E085D04031D692D210083
:103B0000600879020318862DE003872DE00A60081B
:103B1000250091008D2D250091012100D908031D5C
:103B2000AB2D22005C080319992D2000D51A992D80
:103B3000D5162000D51E0800230055085404031D87
:103B4000A62D2000D5190800DB250800FF30D4077A
:103B5000031CD5030800D9030800F20121009D1CB5
:103B6000B62D4130F20A7202031CAE2D1C08200053
:103B7000D10021001B082000D0005108F10050089E
:103B8000F00008000000000000000000000000003D
:103B90000000000000000000000000000000000025
:103BA0000000000000000000000000000000000015
:103BB000000000000800003021003F020A30031915
:103BC0003E020318E62DBE0A0319BF0A4635A03E81
:103BD00086000130870020005208C03F5308C13FD3
:103BE00021000730C60AC605AE308600AC3084001E
:103BF000013085002300240822072000A0002300B4
:103C00002508233D2000A1002300260820002007CE
:103C1000A200230027082000213DA300230028083C
:103C200020002207A400230029082000233DA5002E
:103C300023002A0820002407A60023002B082000C8
:103C4000253DA700003F2607A800013F273DA9000A
:103C5000403F2807AA00413F293DAB002300200830
:103C600020002A072100BC002300210820002B3D52
:103C70002100BD00200053082200C000200052088F
:103C80002200BF002000D5122200E801E80A20002F
:103C9000D517D51DB62E22004008F1003F08F000D0
:103CA0006430F136F00CF136F00CF136F00CF20025
:103CB000F301BE279C3171082100BB007008BA00D7
:103CC0000730BB36BA0C890B612E20005308210047
:103CD0003B02031D6F2E2000520821003A020318F8
:103CE0007E2E20009B31FE239C3121003A082300C8
:103CF000D40221003B082300D53B952E2300D4019C
:103D0000D501952EA630912EF4302200B900013055
:103D1000BA00A52E7D30912E5330912E2930912E50
:103D200021302200B900BA01A52E21003F08003A37
:103D300003199B2E902E3E0884000A3004020318BB
:103D4000902E80310435BA3E820000303A02213094
:103D5000031939020318AF2E2130B900BA0120002F
:103D6000551EED2E0A302100E000ED2E5F1CBC2E0A
:103D70002300D401D501C12E9B31FE239C31D536C1
:103D8000D40C4D30D401D5012200B9000130BA0065
:103D90002000551FEB2E2500110820005A0603199C
:103DA000ED2E2500110820005A020318E12E2500EF
:103DB0009103110820005A020318ED2E25009103EB
:103DC000ED2E2500910A20005A0825001102031843
:103DD000ED2E910AED2E250091012000D201D30194
:103DE00021005808FF3A031DA42F0630D800A42F45
:103DF0000130250096002000551F022F22009C3123
:103E00001A249C31220009300D118D102100DA0096
:103E10002530E301E30A2200E20002309200843000
:103E2000910020000630822F0130250096002000EE
:103E3000551F1E2F22009C3110249C312200093076
:103E40000D158D102100DA000530E301E30A220090
:103E5000E200013092009430910020005F102100B8
:103E6000D801D80AB82F0230250096002000551F2F
:103E70003D2F22009C3115249C31220035300E113B
:103E80008D102100DA0005309C3106249C318430ED
:103E9000910020000230822F023025009600200081
:103EA000551F562F22009C311A249C312200353098
:103EB0000E118D142100DA000530E30025302200B8
:103EC000E2000230920094309100200003309B2FDA
:103ED0000430250096002000551F722F22009C31CF
:103EE00010249C31220011300E119C310C249C3185
:103EF000E30005302200E20001309200843091009E
:103F0000200004305F149C2F043025009600200010
:103F1000551F8E2F22009C3115249C312200113018
:103F20000E159C310C249C319C3106249C3194301C
:103F30009100200005305F102100D800B82F250027
:103F40009601220091012D2F5808013A0319F82EED
:103F5000033A0319142F013A0319332F073A0319AF
:103F60004C2F013A0319682F033A0319842F9F2F0E
:103F70002830D9002000D201D3010800F401F50156
:103F8000701CC62F7208F4077308F53DF235F30D67
:103F9000F136F00C71087004031DC02F7508F10094
:103FA0007408F0000800000000000000000000009D
:103FB0000000000000000000000000000000000001
:103FC00000000000000000000000000000000000F1
:103FD00000000000000000000000000000000000E1
:103FE0000000000000000800F700F80121002F0881
:103FF0007802031D08002E08770208007F002100C8
:020000040001F9
:04000E00BCFFFFDB59
:00000001FF
