:0400000080312428FF
:100008008031200011181110931C1128931096317B
:10001800572680318831002080312000911C182813
:1000280091108331C9238031200093199311131F34
:10003800202813139631D326200012181210090015
:1000480088018831032800346E346E346E340034ED
:10005800003400340034003400340034D334D33452
:10006800D334D034CE34CC34C934C734C534C33493
:10007800C134BF34BD34BB34BA34B834B634B43404
:10008800B234B134AF34AD34AC34AA34A934A73463
:10009800A634A434A334A234A0349F349D349C34B1
:1000A8009B349A34983497349634953494349234F3
:1000B800913490348F348E348D348C348B348A342C
:1000C800893488348734863485348434833482345C
:1000D800813480347F347F347E347D347C347B3487
:1000E8007A347A34793478347734773476347534AA
:1000F80074347434733472347234713470347034C8
:100108006F346E346E346E346E346E346E346E34D6
:100118006E348331EA2B8431012C8431182C8431DC
:10012800552C84317F2C8331FE2B8331FE2B833178
:10013800FE2B8431882C84319E2C8A312C2A8A31DA
:100148002C2A8A312C2A8A312C2A8A312C2A8A3163
:100158002C2A8A312C2A8A312C2A813021009500B8
:10016800EE01EE0A8B138B01910192019301D201EA
:100178002000D1013C2180314C2180310130D82030
:1001880080310430D82080310630D82080310530C5
:100198005121803133218031A6218031AB2180313A
:1001A800FC210B178B1708002000AD00FF2800303A
:1001B80011218B12080001301121753020009800A0
:1001C80021001110080002301121073020009C0086
:1001D800210091100800043011210E3028009700EA
:1001E80021009314080006301121053028009E00D4
:1001F8002100931108002D08003A0319DB28013A61
:100208000319DF28033A0319E728063A0319EF28E8
:10021800023A0319F728102908002000AC00212908
:10022800950108009601970108009A010800280026
:100238009501080028009C0108002C08003A0319C1
:100248001429013A03191629033A03191929063AF8
:1002580003191B29023A03191E2932290800A03064
:1002680021009E009D0130301D14220097040800D3
:10027800273023008C0029308D0022008C018D014D
:100288008E017F3021008C0039308D008E010800EE
:10029800F03099001130970008002000AC002100D0
:1002A800E301E401932925009301910192012100C2
:1002B80011152000053011112500930008002500B4
:1002C8009A0198019901210012142000053012109A
:1002D80025009A000800260093019101920121004F
:1002E800131620000530131226009300080026007C
:1002F8009A01980199012100931620000530931264
:1003080026009A00080026009E019C019D012100FC
:10031800131720000530131326009E000800200044
:100328002C08013A03195729033A03196329013A9A
:1003380003196F29073A03197B29013A03198729F9
:10034800A529080020000B30D3018F31712F200020
:10035800D4010830540203180800313021009D00F0
:10036800E3218031CB2180312D082100AF0020000E
:100378002C082100AE0020005435BC3E8600013018
:1003880087005E30C03F0130C13FD40AAD2920004C
:10039800AE0121009D1CD62920004130AE0A2E0254
:1003A800031CCD2921001C082000C40021001B08C3
:1003B8002000C3004408AD004308AC00080000005A
:1003C8000000000000000000000000000000000025
:1003D8000000000000000000000000000000000015
:1003E80000000000000000000000000000000800FD
:1003F800250096018030220091009201210087306B
:1004080092122500940095010C309300910121006F
:100418000430121025009A00FF30980099006430CB
:1004280020009B0005309C0028302100DD0091143D
:10043800FC011E2A7C1B0800A630FC12B200B30186
:100448002000D201D20A2100B601B701EA01F80161
:10045800F9012200BC01BD01250096012830FC15D8
:100468007C172100E600250091012100ED013C2ABE
:10047800003037020A30031936020318462AB60A32
:100488000319B70A3E35203E8600013087007808F8
:10049800C03F7908C13F0730BE0ABE052E3086002E
:1004A8002C30840001308500220024082207200017
:1004B800B20022002508233D2000B30022002608B0
:1004C80020003207B400220027082000333DB50081
:1004D8002200280820003407B6002200290820003E
:1004E800353DB70022002A0820003607B800220050
:1004F8002B082000373DB900003F3807BA00013FFC
:10050800393DBB00403F3A07BC00413F3B3DBD0081
:100518002200200820003C072200D60021082000E5
:100528003D3D2200D7007908D9007808D800FC1290
:100538002100ED01ED0AFC17FC1DEA2A22005908EA
:100548002000AD00220058082000AC006430AD3611
:10055800AC0CAD36AC0CAD36AC0CAE00AF018E3188
:10056800E02680312D082100B50020002C0821004C
:10057800B4000730B536B40C890BBE2A79083502A9
:10058800031DC82A780834020318D82A79082200DB
:10059800BD007808BC00210034082200BC022100FC
:1005A80035082200BD3BDB2A2200BC01BD0100301A
:1005B80021003302223003193202031CE62AB33623
:1005C800B20C0E2B2130B200B3010E2B7D1CF02A89
:1005D8002200BC01BD01F72A79082200BD00780875
:1005E800BC00BD36BC0C4D30BC01BD012100B200C1
:1005F8000130B3007C1F0C2B2500110821006A0272
:100608000318092B250091030E2B2500910A0E2BA8
:1006180025009101F801F90120005208FF3A031D55
:10062800AE2B0630D200AE2B0130250096007C1F81
:10063800202B2200CA268031220009300D118D108E
:100648002100E0002530E801E80AE9000230220034
:100658009200843091000630912B013025009600DD
:100668007C1F392B2200CF268031220009300D153E
:100678008D102100E0000530E801E80AE9000130AA
:1006880022009200943091007D102000D201D20AFD
:10069800C22B0230250096007C1F552B2200C52650
:1006A8008031220035300E118D102100E000053018
:1006B800BB268031843091000230912B0230250016
:1006C80096007C1F6A2B2200CA2680312200353012
:1006D8000E118D142100E0000530E8002530E900F6
:1006E800023022009200943091000330A52B043090
:1006F800250096007C1F832B2200CF268031220004
:1007080011300E11C1268031E8000530E9000130B2
:10071800220092008430910004307D14A62B04300E
:10072800250096007C1F9B2B2200C52680312200C5
:1007380011300E15C1268031BB26803194309100CE
:1007480005307D102000D200C22B25009601220022
:100758009101482B5208013A0319182B033A03193F
:10076800312B013A03194D2B073A0319622B013A31
:1007780003197B2B033A0319932BA92B283021004B
:10078800DD00F801F9017C160800F80A0319F90AD6
:10079800790821003302031DD32B7808320203188D
:1007A800D72BFD248031003037020A300319360276
:1007B8000318FC119A2680312200111FE62B210014
:1007C800DE01912C2100DE01DE0A912C2D309D00E6
:1007D800E424803121009D14CF2480317108220047
:1007E800C7007008C600313021009D00E424803124
:1007F80021009D142100ED0A9E2C60089D001B0815
:10080800AE001C08AF00000000000000000000005F
:1008180000000000000000000000000000000000D0
:10082800000000000000FC2BCF2480317108C600B6
:100838007008C5003A2C200046082200DD00200080
:1008480045082200DC00462C200046082200DF0074
:10085800200045082200DE00462C20004608220021
:10086800E100200045082200E000462C2100600835
:10087800093A03191F2C183A0319312C243A031981
:10088800282C462C01302000460205300319450269
:10089800031C522CE5307C1422008E0521006908C7
:1008A800F92B1B08B0001C08B1009D147C1F6F2C8D
:1008B8006A0803196F2C7D1C772C3008643EF600FB
:1008C8000030313DF7002F087702031D6D2C2E08EC
:1008D800760203189E2CED0A68089D00E4248031F6
:1008E80021009D149E2C003031021F300319300264
:1008F80003186F2C9E2CDD01CF2480317530210028
:100908009D00E4248031FE2B9D14CF248031710892
:100918002200BF007008BE00FE2B6D08FF3E031CBE
:100928009E2C84000A30040203189E2C8031043562
:100938008D3E82007C1FB22CFC1DB42C7808033934
:10094800031DB42C25001108210066020318AF2CE2
:1009580025009103B42C2500910AB42C250091019F
:100968002100DD08031DCD2C5E08031DFC1ABD2CDB
:10097800FC16FC1E080022003D083C04031DC82C80
:10098800FC190800FD240800FF30BC07031CBD0348
:100998000800DD030800F20121009D1CD82C41301D
:1009A800F20A7202031CD02C1C082000C40021008B
:1009B8001B082000C3004408F1004308F0000800A9
:1009C800000000000000000000000000000000001F
:1009D800000000000000000000000000000000000F
:1009E80000000000000000000000000000000000FF
:1009F80008000030210037020A30031936020318B4
:100A0800082DB60A0319B70A3E35203E8600013084
:100A180087007808C03F7908C13F0730BE0ABE0585
:100A28002E3086002C3084000130850022002408F6
:100A380022072000A00022002508233D2000A10055
:100A48002200260820002007A200220027082000F4
:100A5800213DA3002200280820002207A40022002C
:100A680029082000233DA50022002A082000240789
:100A7800A60022002B082000253DA700003F2607DE
:100A8800A800013F273DA900403F2807AA00413F91
:100A9800293DAB002200200820002A072200D600AA
:100AA800210820002B3D2200D7007908D9007808BA
:100AB800D800FC122100ED01ED0AFC17FC1DA62D43
:100AC80022005908F1005808F0006430F136F00CA3
:100AD800F136F00CF136F00CF200F3018526803186
:100AE80071082100B5007008B4000730B536B40CA1
:100AF800890B7A2D79083502031D842D7808340274
:100B08000318942D79082200BD007808BC00210044
:100B180034082200BC02210035082200BD3B972D75
:100B28002200BC01BD01003021003302223003192C
:100B38003202031CA22DB336B20CCA2D2130B200EA
:100B4800B301CA2D7D1CAC2D2200BC01BD01B32D03
:100B580079082200BD007808BC00BD36BC0C4D30B9
:100B6800BC01BD012100B2000130B3007C1FC82DBB
:100B78002500110821006A020318C52D25009103DC
:100B8800CA2D2500910ACA2D25009101F801F90105
:100B980020005208FF3A031D6A2E0630D2006A2E42
:100BA8000130250096007C1FDC2D2200CA268031EA
:100BB800220009300D118D102100E0002530E801D8
:100BC800E80AE900023022009200843091000630E1
:100BD8004D2E0130250096007C1FF52D2200CF26D2
:100BE8008031220009300D158D102100E0000530FC
:100BF800E801E80AE90001302200920094309100EF
:100C08007D102000D201D20A7E2E023025009600E7
:100C18007C1F112E2200C5268031220035300E118E
:100C28008D102100E0000530BB2680318430910012
:100C380002304D2E0230250096007C1F262E220001
:100C4800CA268031220035300E118D142100E000B3
:100C58000530E8002530E900023022009200943087
:100C680091000330612E0430250096007C1F3F2E32
:100C78002200CF268031220011300E11C12680318A
:100C8800E8000530E900013022009200843091002C
:100C980004307D14622E0430250096007C1F572EE8
:100CA8002200C5268031220011300E15C126803160
:100CB800BB2680319430910005307D102000D20091
:100CC8007E2E2500960122009101042E5208013A39
:100CD8000319D42D033A0319ED2D013A0319092EEE
:100CE800073A03191E2E013A0319372E033A03193E
:100CF8004F2E652E28302100DD00F801F9017C1601
:100D08000800F401F501701C8D2E7208F4077308B1
:100D1800F53DF235F30DF136F00C71087004031D42
:100D2800872E7508F1007408F00008000000000024
:100D380000000000000000000000000000000000AB
:100D4800000000000000000000000000000000009B
:100D5800000000000000000000000000000000008B
:100D68000000000000000000000000000800E8008B
:100D7800E901E90A2200920108000D112100E000B2
:100D880025340E08E53918388E0008000E08E539B4
:100D98000A388E0008000E08E53912388E0008005F
:100DA800220048082000B500220049082000B600AB
:100DB800B70122005A082000AC0022005B0820007E
:100DC800AD00C830AE01AF00B001B1013E27863199
:100DD8002C08B8002D08B9002E08BA000C27863157
:100DE80035082100E300E308031D022F0530E40A5B
:100DF8006402031C082F6308DF00082FE40163085E
:100E0800DF002200DA01DB0121005F08C83C08008E
:100E1800BB01BC01BD013708360435040319372F5F
:100E2800BE01BE0AB71B1C2FB535B60DB70D152F61
:100E3800BB35BC0DBD0D37083A02031D292F3608F6
:100E48003902031D292F35083802031C322F3508B3
:100E5800B8023608B93B3708BA3B3B14B736B60C6C
:100E6800B50CBE0B1C2F3B08B5003C08B6003D086E
:100E7800B7000800B201B301B4012C1C492F2F0898
:100E8800B2073008B33D3108B43DAF35B00DB10DF0
:100E9800AE36AD0CAC0C2E082D042C04031D412FCE
:100EA8003208AC003308AD003408AE00080020005A
:100EB8004F080319632FC8304F02031C702F2100FD
:100EC8004F08F0390738CF00C501C401C40AC3016F
:100ED800C201C101C10A08008C3022004B02A030B7
:100EE80003194A02031C7F2FAB304B02E130031970
:100EF8004A02031C9A2F21004F08F0390638882F20
:100F080021004F08F0390338CF00C501C401C40AD5
:100F1800952F21004F08F0390838CF00C501C50AC0
:100F2800C401C301C201C20AC10108000630200081
:100F38004F02031C842F09304F02031C8D2FC03031
:100F48004F02031CAC2F21004F08F0390438882FBA
:100F580017304F02031CBA2F21004F08F03902380E
:100F6800CF00C501C301C401C201982F14304F023C
:100F7800031CC82F21004F08F0390538CF00C501E0
:100F8800C401C301C30AB82F14304F020318080064
:100F980021004F08F0390138CF00C501C50AC40146
:100FA800C301B82F200045082200B60720004608D4
:100FB8002200B73D3708D5003608D4000630D536AC
:100FC800D40C890BE32F5408B6025508B73B200010
:100FD800AD00220054082000AC00AE01AF018E31F4
:100FE800E02687312D08CA002C08C9000A30CA3605
:100FF800C90C890BFB2F08002100E70A08004330C1
:10100800FD01F801F901FA01FB01FC01840000303F
:1010180085001230963151268831A0308400003086
:1010280085004E30963151268831203084000130B9
:1010380085004230963151268831BC308400013019
:101048008500103096315126883121000130EF009B
:1010580022008030E2003830E3000130E400E5018E
:10106800E600200037288031B120883104308131F2
:10107800112188312100EC01210067082000BF0000
:10108800C0014008C20021006C0820003F02C100D6
:10109800031CC20342040319402821006708EC001E
:1010A800D20A2000D10AD31C5E28C8309B00210038
:1010B8006B3575287D309B000430B200B3012100E8
:1010C8006B082000AC000530AD01AE00AF01E02692
:1010D80088312D08B5002C08B400952188313208D4
:1010E8002100EA0087278831053021005202031CBD
:1010F8007829D20164008631D4268831E2002200A2
:101108004908CB004808CA0057082000C800220038
:1011180056082000C700D31CAA2821006236283EA2
:1011280080310A00883189362200CC008730CD0111
:1011380080310A0088318936CE003330CF018031C2
:101148000A0088318936D000D101E3280530B20081
:10115800B30121006236283E80310A008831200020
:101168008E278831952133082200CD0020003208CF
:101178002200CC0005302000B2008730B301803156
:101188000A0088318E278831952133082200CF0044
:10119800200032082200CE0005302000B200333093
:1011A800B30180310A0088318E2788319521883132
:1011B80033082200D100200032082200D00000307D
:1011C80021002D025C3003192C020318F628023086
:1011D800220043026030031942020318F628210056
:1011E800B2278831003021002D025D3003192C020E
:1011F800031C0629220043082000CC0022004208D4
:101208002000CB0002302200430261300319420261
:10121800031C11292100B22788312200530820001D
:10122800C000220052082000BF00C036BF0CC036E4
:10123800BF0C3F08FA00FB01220055082000AD0052
:10124800220054082000AC00AE01AF01E02688312E
:101258002D08CA002C08C9000A30CA36C90C890BE7
:10126800312900307C1801302100DC00D501D5215E
:101278008831EE01EB08031D442976278831472978
:1012880082311E22883121005A0820005310031D84
:101298005314210053082000D310031DD314210038
:1012A80054082000D313031DD3172100570820002A
:1012B8005311031D5315210058082000D311031D95
:1012C800D3152100560820005312031D5316210080
:1012D8005B0820005313031D5317210059082000F1
:1012E800D312031DD3167C1020005108193A031D90
:1012F8008E294D27883120000C1F852922000E1CBD
:101308008E2920000C1B8B2922000E188E29643090
:1013180071278831653020005102031C4028D10113
:101328004028B701B31F9F29B209B309B20A0319AC
:10133800B30AB701B70AB51FA829B409B509B40A91
:101348000319B50A0130B706B801B90133083204E8
:101358000319C829B601B60AB31BB529B235B30DAE
:10136800AF29B835B90D33083502031DBD29320838
:101378003402031CC4293208B4023308B53B3814BC
:10138800B336B20CB60BB52937080319D029B809FA
:10139800B909B80A0319B90A3908B3003808B200FC
:1013A80008000F2A00302502333003192402031CD9
:1013B800E5295008F8390538D000C601A401A5016F
:1013C800242A2100A40A0319A50A242AF52688310B
:1013D800500C2000BA278831031DE529242AF52658
:1013E8008831242A003025021030D9295008F839CC
:1013F8000338D000C601242A5008F83906380D2AC7
:10140800D01A242AD0166E080319242A5008F8394D
:101418000438D000E22950080739013A0319002A94
:10142800033A0319FA29013A0319F329073A031968
:10143800D629013A0319EA29033A0319F629042A95
:10144800210062082000CF0021004F1A302A3E2ACE
:1014580087315B2788314D2A4F080F39FF3E031C1F
:101468004D2A84000830040203184D2A80310435BF
:10147800A13E82004F166E0B422A432A4D2A4F087E
:10148800F0390138CF00C501C50AC401C301C20142
:10149800C10121004208D9002000D01D7F2A501E1A
:1014A800612A5008F8390138D000DE307A02031872
:1014B8008A2A96318B2688318A2AD01E6C2A5008AF
:1014C800F8390438D00033307A0203185D2A8A2AA2
:1014D800501F732A5008F8390338D0005D2AD01FEE
:1014E8008A2A5008F8390238D00047307A0203189F
:1014F8005D2A2E305A2AD01521006E0B8A2A200028
:1015080050172100CD01CC01CA01CB012100D11C0B
:10151800A22A003020004C02223003194B02031883
:10152800442B01304C022C3003194B020318442B76
:101538002100D110D115C701C70A442B511DB82A63
:10154800003020004C02453003194B02031C442B89
:1015580001304C022C3003194B020318442B210094
:10156800511182278831442BD11DE32A00302000F5
:101578004C02453003194B02031CCC2A01304C02A3
:101588002C3003194B020318CC2A2100D111B52A9B
:1015980000304C02223003194B020318442B01304F
:1015A8004C022C3003194B020318442B2100D11193
:1015B8005115C801C80AC701C70AC901442B5118E7
:1015C800442B51146E0B442BB52A003023023330C0
:1015D80003192202031CF72A4E08F8390538CE00F1
:1015E800C001BF015A2B2100A20A0319A30A5A2BD2
:1015F800082788314E0C2000BA278831031DF72AA6
:101608005A2B082788315A2B00302302C930031976
:101618002202031C192B4E08F8390338CE00C001EA
:10162800BF01BF0AA201A3015A2B5C080319F72ABC
:101638004E08F8390138CE00A201A301C001C00A42
:10164800BF01BF0A5A2BDC0803190F2B00302302F5
:1016580002300319220203181C2BF72ADC08031D89
:10166800F72A4E08F8390438422BCE1A5A2BCE16D0
:101678006E0803195A2B4E08F8390638CE00162B77
:1016880021004E080739013A0319322B033A03198E
:10169800272B013A0319FC2A073A0319082B013AA8
:1016A8000319052B033A0319E92A392B2300A8014A
:1016B800A80A2100C508031D6F2BCD08031D6F2B39
:1016C800C908031D6F2BC008031D6F2BC608031D17
:1016D8006F2B2300A80123002808B7000030210041
:1016E800EE08031D01302300B10020004E1F6B2CB3
:1016F8002300B708031D8B2B31080319542C8B2B9F
:101708002100A001A101F8302000CE05A12B200066
:101718004E080739013A0319872B033A0319872B17
:10172800013A0319842B073A0319872B013A031945
:10173800872B033A0319872BA12B4E13CE17BF2BE8
:101748002100210820040319FC2BA001A10120007D
:101758004E08F8390238CE00832C033021002102CC
:10176800E93003192002031CC32B20004E08F83966
:101778000538A22788312100B901BA01832CCF2767
:10178800883103194702031CD02B013048022D3041
:1017980003194702031CFC2B4E08F8390138CE0008
:1017A8002100BA01A001A101832C003022003302DC
:1017B800653003193202031CEB2B20004E08F83960
:1017C8000438C0278831B90ABA01BA0A832CCF274E
:1017D800883103194702031CF82B013048022D30C9
:1017E80003194702031CAB2B2200B20A0319B30AE0
:1017F8002100A00A0319A10A832C0030210021022C
:101808000B3003192002031C3E2C00302000480234
:10181800053003194702031C182C013048022D30EB
:1018280003194702031C252C4E08F8390438CE004A
:1018380021001830A001A101B901B90ABA01BA0AF8
:10184800352CCB27883103192002031C382C2000A3
:101858004E08F8390538A227883121001830B90117
:10186800BA012000CE04412C20004E08E739083880
:10187800CE00412CE7302000CE054E0CBA27883127
:10188800031DFC2B832CCB27883103192002031C52
:10189800FC2B20004E08F8390638C0278831E82B81
:1018A80020004E080739013A0319D92B033A0319C6
:1018B800B12B013A0319A42B073A0319472C013A13
:1018C8000319AB2B033A0319012C832C832CCE1F4D
:1018D8007A2C2300B708031D832C2000CE134E1743
:1018E8004E08F8390338A2278831832CCE1A832C66
:1018F800CE16230031080319832C2000A22B2100C7
:101908004A08DB002300A901A90A2100C408031D15
:10191800922CCC08031D922C2300A901230029082E
:10192800B30021004B0803199E2CB4302300AF00EC
:10193800B001BB2C43080319A82C2200510823002E
:10194800B00022005008B92C230033080319B32C27
:1019580022004F082300B00022004E08B92C2200B4
:101968004D082300B00022004C082300AF002100DE
:10197800BD1CD22C200099278831E02688311830E8
:101988002D029C3003192C0203180B2D2100BD10C9
:10199800BD152200B001B10121000A2D3D1DE32C27
:1019A800200099278831E026883118302D023930F7
:1019B80003192C02031C0B2D21003D11092DBD1DFF
:1019C800042D200099278831E026883118302D020F
:1019D800393003192C02031CF42C2100BD11092DE8
:1019E800073022003102D13003193002031C002DC8
:1019F8002100BD113D150A2DB00A0319B10A0B2D9E
:101A08003D180B2D3D146E0B0B2DBD14B801210094
:101A18003808D6004708D30020004D1E1F2D00307F
:101A28004A02633003194902031C612D4D12CD147B
:101A38002100BB01612D4D1C342D00304A0263305A
:101A480003194902031C2A2D4D10462D653021002B
:101A58003B02031C322D20004D105E2DBB0A612D68
:101A6800CD1C4B2D00304A0262300319490203187D
:101A78003F2DCD105E2D333021003B02031C322D4B
:101A88002000CD104D152100BC01BC0A612D4D1D53
:101A9800572D00304A026230031949020318612D9C
:101AA8004D114D141C2DCD19612DCD1521006E0B36
:101AB800612D20004D162100BC0121003C08D700F3
:101AC8004108DA002300AA01AA0A2100BA08031D66
:101AD800722DBF08031D722D2300AA0123002A08B6
:101AE8002100D8004808D4002300AB01AB0AB7088E
:101AF800031D842D2100B908031D842D2300AB018B
:101B080023002B08B200AC01AC0AB208031D922DC9
:101B18002100D508031D922D2300AC0123002C08B9
:101B2800B400220066060319A52D2100EF08031D45
:101B3800A52D22000130E501E4003830E3008030B3
:101B4800E200230032080319AB2DB5010C2E210049
:101B5800550803190E2E230033080319B52DCA3072
:101B68000B2E210062082000AC00E030AA27883143
:101B7800282788312E082300B90020002D082300CB
:101B8800B800E0302000AC005F30AA278831282751
:101B980088312C08BA002D08BB002E08BC002F087D
:101BA800BD000730BD36BC0CBB0CBA0C890BD62D5A
:101BB8003A082300B80220003B082300B93BC8308C
:101BC800B8070318B90A3908803AFF0080307F0245
:101BD800031DF02DC93038020318092E23003908D7
:101BE800803AFF0080307F02031DFC2D3C30380214
:101BF800031C012E23003808032E3C302300A400C8
:101C0800A5012508B6002408542EC8302300B500C5
:101C1800B601552E20000330AF01AE01AD002030D3
:101C2800AC00220065082000B300220064082000F0
:101C3800B200220063082000B100220062082000E0
:101C4800B0009731942788312C082300BA00BB01D3
:101C58003B08803AFF0080307F02031D352E01309B
:101C68003A02031C3F2E003023003B02CB300319FD
:101C78003A020318B32D2300BB1B4E2E00303B0243
:101C8800283003193A02031C4E2E3B08A7003A08D5
:101C9800A600512E2830A600A7012708B60026085E
:101CA800B50036082000BB00230035082000BA0024
:101CB800BB36BA0C3A082100EB0023003408220096
:101CC800E60020004808AD004708AC0023002F08B4
:101CD8002000AC02230030082000AD3B2830AE00C5
:101CE800AF01E02688312C08BA002D08BB0000306F
:101CF800BB1BFF30BC00BD003A082200E2072000F1
:101D08003B082200E33D20003C082200E43D20007F
:101D18003D082200E53D6508C6278831031D9E2E33
:101D280002306402031D9E2E77306302031D9E2E2F
:101D3800413062020318D62E6508C6278831031D74
:101D4800AF2E00306402031DAF2E7D306302031DE9
:101D5800AF2E00306202031CC12E65082300A300C9
:101D6800220064082300A200220063082300A100C7
:101D7800220062082300A000C72E23007D30A301A3
:101D8800A201A100A00123082200E50023002208E7
:101D98002200E400230021082200E3002300200899
:101DA8002200DC2E0230E501E4007730E300403009
:101DB800E2002100EF010800B001B1012C1CE82E5F
:101DC8002E08B0072F08B13DAE35AF0DAD36AC0CBF
:101DD8002D082C04031DE22E3108AD003008AC009C
:101DE8000800003025020630031924025008031C9D
:101DF800042FF8390338D0001830C601D004080081
:101E0800E7390838D00008005C080319142F4E0879
:101E1800F8390238CE001830A201A301CE04080018
:101E2800003023026530031922024E08031C242FB8
:101E3800F8390538CE001830C001BF01CE040800BB
:101E4800E7390838CE000800B401B501B601B7017A
:101E58002C1C362F3008B4073108B53D3208B63D82
:101E68003308B73DB035B10DB20DB30DAF36AE0C7A
:101E7800AD0CAC0C2F082E042D042C04031D2C2FA4
:101E88003708AF003608AE003508AD003408AC009E
:101E98000800531F512F5830712F21005308031980
:101EA800572F2130712F560803195C2F4230712F9C
:101EB80058080319612F3730712F57080319662FF7
:101EC8002C30712F2000D31E6B2F4D30712F531CD7
:101ED8006F2F1630712F0B30712F2000AC002200AD
:101EE800E70008007C1F080022008E108E110E12D9
:101EF8002500951391017C13FC130800D114C80127
:101F0800C701C901080097312F2788318731D627A3
:101F18008831D32FBF00C001BF35C00DBF35C00DFC
:101F28003F08B4004008B50008004A08AD00490859
:101F3800AC004808AF004708AE000800CE002100FA
:101F4800A001A1012200B201B3010800AD01AE0158
:101F5800AF01B000B101B201B30108002D082000A3
:101F6800CC0021002C082000CB000800BA00BA0CD5
:101F78003A0C0339033A0800CE002100A001A10160
:101F8800B9010800803AFF0080307F020800003065
:101F980021002102C9340030200048020534220003
:101FA8004608BA074708BB3D3B082100AD002200A0
:101FB8003A082100AC000630AD36AC0C890BE02F96
:101FC8002C082200BA0221002D082200BB3B3E0843
:101FD800B8073F08B93D3908C1003808C0000630C5
:101FE800C136C00C890BF42F4008B8024108B93B30
:081FF800C3004008C20008000C
:102CA200640080010131890B522E0034210064300E
:102CB200E10A6102031C612EE10122000E100800EC
:102CC20020000C1F752E22006708023EF100003022
:102CD20003180130F200803A803C031D732E710804
:102CE2002100610203185E2E2200670821006102A2
:102CF200031C7E2E22000E14080022000E1808006B
:102D020020000C1B0800643087260800F000220017
:102D1200E7000800E7307A02031C942EB4269631AD
:102D22005016CB2608002E307A0203189E2EB426A7
:102D32009631D016CB26CB0A0800B4269631413004
:102D42007A020318AD2ED0172100CD01CC01CC0A96
:102D5200CA01CA0ACB01080050172100CD01CC01DB
:102D6200CA01CB010800BD2E50120800D012080083
:102D7200D013080050130800200050080739013A08
:102D82000319B52E033A0319B92E063A0319B72EC1
:102D9200BB2E08002100CD01CD0ACC01CA01CA0A0E
:102DA200CB010800182F25279631A60026001D0802
:102DB2002100A7002B2F0230E50026001C0821006D
:102DC200A80026001D082100A900053026009E004B
:102DD200080025279631AA0026001D082100AB0015
:102DE2002B082200C90021002A082200C800210065
:102DF20026082200C802210027082200C93B210020
:102E020029082200DB00210028082200DA00210024
:102E120026082200DA02210027082200DB3B2100DB
:102E22002B08A7002A08A6002B2FE5010800210085
:102E32006508003A0319D42E013A0319DC2E033A2D
:102E42000319EA2E162F0800E501E50A26001C08E0
:102E520021000800043026009E000800200054359E
:102E6200BC3E86000130870021002E08C03F2F089B
:102E7200C13FCA308600C83084000130850023007B
:102E820040083E072000AC00230041083F3D2000DF
:102E9200AD002300420820002C07AE0023004308A7
:102EA20020002D3DAF002300440820002E07B00073
:102EB2002300450820002F3DB100230046082000D2
:102EC2003007B200230047082000313DB300003F25
:102ED2003207B400013F333DB500403F3407B6002E
:102EE200413F353DB70023003C0820003607220051
:102EF200B40023003D082000373D2200B500D30076
:102F02003408D2000830D336D20CD336D20CD336A2
:102F1200D20C2000D40A5402031C0800D40122005F
:102F2200B401B5010800B501AF1FA42FAC09AD096A
:102F3200AE09AF09AC0A0319AD0A0319AE0A0319A7
:102F4200AF0AB501B50AB31FB32FB009B109B2096F
:102F5200B309B00A0319B10A0319B20A0319B30A71
:102F62000130B506B601B701B801B9012F082E0428
:102F72002D042C040319E92FB401B40AAF1BC62F88
:102F8200AC35AD0DAE0DAF0DBE2FB635B70DB80DCC
:102F9200B90D2F083302031DD82F2E083202031D4C
:102FA200D82F2D083102031DD82F2C083002031C04
:102FB200E32F2C08B0022D08B13B2E08B23B2F089C
:102FC200B33B3614AF36AE0CAD0CAC0CB40BC62F03
:102FD20035080319F72FB609B709B809B909B60AAE
:102FE2000319B70A0319B80A0319B90A3908AF0055
:0E2FF2003808AE003708AD003608AC00080005
:020000040001F9
:04000E00E4FFFFDB31
:00000001FF
